{
	"SwapVerifier.sol": {
		"SwapVerifier": {
			"abi": [
				{
					"inputs": [
						{
							"internalType": "uint256",
							"name": "",
							"type": "uint256"
						}
					],
					"name": "authors",
					"outputs": [
						{
							"internalType": "string",
							"name": "",
							"type": "string"
						}
					],
					"stateMutability": "view",
					"type": "function"
				},
				{
					"inputs": [
						{
							"internalType": "address",
							"name": "swapContract",
							"type": "address"
						},
						{
							"internalType": "address",
							"name": "tokenA",
							"type": "address"
						},
						{
							"internalType": "address",
							"name": "tokenB",
							"type": "address"
						},
						{
							"internalType": "uint256",
							"name": "amountA",
							"type": "uint256"
						},
						{
							"internalType": "uint256",
							"name": "amountB",
							"type": "uint256"
						},
						{
							"internalType": "uint256",
							"name": "amountIn",
							"type": "uint256"
						},
						{
							"internalType": "string",
							"name": "author",
							"type": "string"
						}
					],
					"name": "verify",
					"outputs": [],
					"stateMutability": "nonpayable",
					"type": "function"
				}
			],
			"devdoc": {
				"kind": "dev",
				"methods": {
					"verify(address,address,address,uint256,uint256,uint256,string)": {
						"params": {
							"amountA": "Initial amount of tokenA to mint and add as liquidity.",
							"amountB": "Initial amount of tokenB to mint and add as liquidity.",
							"amountIn": "Amount of tokenA to swap for tokenB.",
							"author": "Name of the author of swap contract",
							"swapContract": "Address of the SimpleSwap contract to verify.",
							"tokenA": "Address of a test ERC20 token (must implement IMintableERC20).",
							"tokenB": "Address of a test ERC20 token (must implement IMintableERC20)."
						}
					}
				},
				"title": "SwapVerifier",
				"version": 1
			},
			"evm": {
				"assembly": "    /* \"SwapVerifier.sol\":4003:6948  contract SwapVerifier {... */\n  mstore(0x40, 0x80)\n  callvalue\n  dup1\n  iszero\n  tag_1\n  jumpi\n  0x00\n  dup1\n  revert\ntag_1:\n  pop\n  dataSize(sub_0)\n  dup1\n  dataOffset(sub_0)\n  0x00\n  codecopy\n  0x00\n  return\nstop\n\nsub_0: assembly {\n        /* \"SwapVerifier.sol\":4003:6948  contract SwapVerifier {... */\n      mstore(0x40, 0x80)\n      callvalue\n      dup1\n      iszero\n      tag_1\n      jumpi\n      0x00\n      dup1\n      revert\n    tag_1:\n      pop\n      jumpi(tag_2, lt(calldatasize, 0x04))\n      shr(0xe0, calldataload(0x00))\n      dup1\n      0x3db804da\n      eq\n      tag_3\n      jumpi\n      dup1\n      0x457b8b91\n      eq\n      tag_4\n      jumpi\n    tag_2:\n      0x00\n      dup1\n      revert\n        /* \"SwapVerifier.sol\":4034:4057  string[] public authors */\n    tag_3:\n      tag_5\n      0x04\n      dup1\n      calldatasize\n      sub\n      dup2\n      add\n      swap1\n      tag_6\n      swap2\n      swap1\n      tag_7\n      jump\t// in\n    tag_6:\n      tag_8\n      jump\t// in\n    tag_5:\n      mload(0x40)\n      tag_9\n      swap2\n      swap1\n      tag_10\n      jump\t// in\n    tag_9:\n      mload(0x40)\n      dup1\n      swap2\n      sub\n      swap1\n      return\n        /* \"SwapVerifier.sol\":4667:6945  function verify(... */\n    tag_4:\n      tag_11\n      0x04\n      dup1\n      calldatasize\n      sub\n      dup2\n      add\n      swap1\n      tag_12\n      swap2\n      swap1\n      tag_13\n      jump\t// in\n    tag_12:\n      tag_14\n      jump\t// in\n    tag_11:\n      stop\n        /* \"SwapVerifier.sol\":4034:4057  string[] public authors */\n    tag_8:\n      0x00\n      dup2\n      dup2\n      sload\n      dup2\n      lt\n      tag_15\n      jumpi\n      0x00\n      dup1\n      revert\n    tag_15:\n      swap1\n      0x00\n      mstore\n      keccak256(0x00, 0x20)\n      add\n      0x00\n      swap2\n      pop\n      swap1\n      pop\n      dup1\n      sload\n      tag_17\n      swap1\n      tag_18\n      jump\t// in\n    tag_17:\n      dup1\n      0x1f\n      add\n      0x20\n      dup1\n      swap2\n      div\n      mul\n      0x20\n      add\n      mload(0x40)\n      swap1\n      dup2\n      add\n      0x40\n      mstore\n      dup1\n      swap3\n      swap2\n      swap1\n      dup2\n      dup2\n      mstore\n      0x20\n      add\n      dup3\n      dup1\n      sload\n      tag_19\n      swap1\n      tag_18\n      jump\t// in\n    tag_19:\n      dup1\n      iszero\n      tag_20\n      jumpi\n      dup1\n      0x1f\n      lt\n      tag_21\n      jumpi\n      0x0100\n      dup1\n      dup4\n      sload\n      div\n      mul\n      dup4\n      mstore\n      swap2\n      0x20\n      add\n      swap2\n      jump(tag_20)\n    tag_21:\n      dup3\n      add\n      swap2\n      swap1\n      0x00\n      mstore\n      keccak256(0x00, 0x20)\n      swap1\n    tag_22:\n      dup2\n      sload\n      dup2\n      mstore\n      swap1\n      0x01\n      add\n      swap1\n      0x20\n      add\n      dup1\n      dup4\n      gt\n      tag_22\n      jumpi\n      dup3\n      swap1\n      sub\n      0x1f\n      and\n      dup3\n      add\n      swap2\n    tag_20:\n      pop\n      pop\n      pop\n      pop\n      pop\n      dup2\n      jump\t// out\n        /* \"SwapVerifier.sol\":4667:6945  function verify(... */\n    tag_14:\n        /* \"SwapVerifier.sol\":4919:4920  0 */\n      0x00\n        /* \"SwapVerifier.sol\":4909:4916  amountA */\n      dup5\n        /* \"SwapVerifier.sol\":4909:4920  amountA > 0 */\n      gt\n        /* \"SwapVerifier.sol\":4909:4935  amountA > 0 && amountB > 0 */\n      dup1\n      iszero\n      tag_24\n      jumpi\n      pop\n        /* \"SwapVerifier.sol\":4934:4935  0 */\n      0x00\n        /* \"SwapVerifier.sol\":4924:4931  amountB */\n      dup4\n        /* \"SwapVerifier.sol\":4924:4935  amountB > 0 */\n      gt\n        /* \"SwapVerifier.sol\":4909:4935  amountA > 0 && amountB > 0 */\n    tag_24:\n        /* \"SwapVerifier.sol\":4901:4965  require(amountA > 0 && amountB > 0, \"Invalid liquidity amounts\") */\n      tag_25\n      jumpi\n      mload(0x40)\n      0x08c379a000000000000000000000000000000000000000000000000000000000\n      dup2\n      mstore\n      0x04\n      add\n      tag_26\n      swap1\n      tag_27\n      jump\t// in\n    tag_26:\n      mload(0x40)\n      dup1\n      swap2\n      sub\n      swap1\n      revert\n    tag_25:\n        /* \"SwapVerifier.sol\":4995:4996  0 */\n      0x00\n        /* \"SwapVerifier.sol\":4984:4992  amountIn */\n      dup3\n        /* \"SwapVerifier.sol\":4984:4996  amountIn > 0 */\n      gt\n        /* \"SwapVerifier.sol\":4984:5019  amountIn > 0 && amountIn <= amountA */\n      dup1\n      iszero\n      tag_28\n      jumpi\n      pop\n        /* \"SwapVerifier.sol\":5012:5019  amountA */\n      dup4\n        /* \"SwapVerifier.sol\":5000:5008  amountIn */\n      dup3\n        /* \"SwapVerifier.sol\":5000:5019  amountIn <= amountA */\n      gt\n      iszero\n        /* \"SwapVerifier.sol\":4984:5019  amountIn > 0 && amountIn <= amountA */\n    tag_28:\n        /* \"SwapVerifier.sol\":4976:5043  require(amountIn > 0 && amountIn <= amountA, \"Invalid swap amount\") */\n      tag_29\n      jumpi\n      mload(0x40)\n      0x08c379a000000000000000000000000000000000000000000000000000000000\n      dup2\n      mstore\n      0x04\n      add\n      tag_30\n      swap1\n      tag_31\n      jump\t// in\n    tag_30:\n      mload(0x40)\n      dup1\n      swap2\n      sub\n      swap1\n      revert\n    tag_29:\n        /* \"SwapVerifier.sol\":5105:5112  amountA */\n      dup4\n        /* \"SwapVerifier.sol\":5069:5075  tokenA */\n      dup7\n        /* \"SwapVerifier.sol\":5062:5086  IERC20(tokenA).balanceOf */\n      0xffffffffffffffffffffffffffffffffffffffff\n      and\n      0x70a08231\n        /* \"SwapVerifier.sol\":5095:5099  this */\n      address\n        /* \"SwapVerifier.sol\":5062:5101  IERC20(tokenA).balanceOf(address(this)) */\n      mload(0x40)\n      dup3\n      0xffffffff\n      and\n      0xe0\n      shl\n      dup2\n      mstore\n      0x04\n      add\n      tag_32\n      swap2\n      swap1\n      tag_33\n      jump\t// in\n    tag_32:\n      0x20\n      mload(0x40)\n      dup1\n      dup4\n      sub\n      dup2\n      dup7\n      gas\n      staticcall\n      iszero\n      dup1\n      iszero\n      tag_35\n      jumpi\n      returndatasize\n      0x00\n      dup1\n      returndatacopy\n      revert(0x00, returndatasize)\n    tag_35:\n      pop\n      pop\n      pop\n      pop\n      mload(0x40)\n      returndatasize\n      not(0x1f)\n      0x1f\n      dup3\n      add\n      and\n      dup3\n      add\n      dup1\n      0x40\n      mstore\n      pop\n      dup2\n      add\n      swap1\n      tag_36\n      swap2\n      swap1\n      tag_37\n      jump\t// in\n    tag_36:\n        /* \"SwapVerifier.sol\":5062:5112  IERC20(tokenA).balanceOf(address(this)) >= amountA */\n      lt\n      iszero\n        /* \"SwapVerifier.sol\":5054:5161  require(IERC20(tokenA).balanceOf(address(this)) >= amountA, \"Insufficient token A supply for this contact\") */\n      tag_38\n      jumpi\n      mload(0x40)\n      0x08c379a000000000000000000000000000000000000000000000000000000000\n      dup2\n      mstore\n      0x04\n      add\n      tag_39\n      swap1\n      tag_40\n      jump\t// in\n    tag_39:\n      mload(0x40)\n      dup1\n      swap2\n      sub\n      swap1\n      revert\n    tag_38:\n        /* \"SwapVerifier.sol\":5223:5230  amountB */\n      dup3\n        /* \"SwapVerifier.sol\":5187:5193  tokenB */\n      dup6\n        /* \"SwapVerifier.sol\":5180:5204  IERC20(tokenB).balanceOf */\n      0xffffffffffffffffffffffffffffffffffffffff\n      and\n      0x70a08231\n        /* \"SwapVerifier.sol\":5213:5217  this */\n      address\n        /* \"SwapVerifier.sol\":5180:5219  IERC20(tokenB).balanceOf(address(this)) */\n      mload(0x40)\n      dup3\n      0xffffffff\n      and\n      0xe0\n      shl\n      dup2\n      mstore\n      0x04\n      add\n      tag_41\n      swap2\n      swap1\n      tag_33\n      jump\t// in\n    tag_41:\n      0x20\n      mload(0x40)\n      dup1\n      dup4\n      sub\n      dup2\n      dup7\n      gas\n      staticcall\n      iszero\n      dup1\n      iszero\n      tag_43\n      jumpi\n      returndatasize\n      0x00\n      dup1\n      returndatacopy\n      revert(0x00, returndatasize)\n    tag_43:\n      pop\n      pop\n      pop\n      pop\n      mload(0x40)\n      returndatasize\n      not(0x1f)\n      0x1f\n      dup3\n      add\n      and\n      dup3\n      add\n      dup1\n      0x40\n      mstore\n      pop\n      dup2\n      add\n      swap1\n      tag_44\n      swap2\n      swap1\n      tag_37\n      jump\t// in\n    tag_44:\n        /* \"SwapVerifier.sol\":5180:5230  IERC20(tokenB).balanceOf(address(this)) >= amountB */\n      lt\n      iszero\n        /* \"SwapVerifier.sol\":5172:5279  require(IERC20(tokenB).balanceOf(address(this)) >= amountB, \"Insufficient token B supply for this contact\") */\n      tag_45\n      jumpi\n      mload(0x40)\n      0x08c379a000000000000000000000000000000000000000000000000000000000\n      dup2\n      mstore\n      0x04\n      add\n      tag_46\n      swap1\n      tag_47\n      jump\t// in\n    tag_46:\n      mload(0x40)\n      dup1\n      swap2\n      sub\n      swap1\n      revert\n    tag_45:\n        /* \"SwapVerifier.sol\":5349:5355  tokenA */\n      dup6\n        /* \"SwapVerifier.sol\":5342:5364  IERC20(tokenA).approve */\n      0xffffffffffffffffffffffffffffffffffffffff\n      and\n      0x095ea7b3\n        /* \"SwapVerifier.sol\":5365:5377  swapContract */\n      dup9\n        /* \"SwapVerifier.sol\":5379:5386  amountA */\n      dup7\n        /* \"SwapVerifier.sol\":5342:5387  IERC20(tokenA).approve(swapContract, amountA) */\n      mload(0x40)\n      dup4\n      0xffffffff\n      and\n      0xe0\n      shl\n      dup2\n      mstore\n      0x04\n      add\n      tag_48\n      swap3\n      swap2\n      swap1\n      tag_49\n      jump\t// in\n    tag_48:\n      0x20\n      mload(0x40)\n      dup1\n      dup4\n      sub\n      dup2\n      0x00\n      dup8\n      gas\n      call\n      iszero\n      dup1\n      iszero\n      tag_51\n      jumpi\n      returndatasize\n      0x00\n      dup1\n      returndatacopy\n      revert(0x00, returndatasize)\n    tag_51:\n      pop\n      pop\n      pop\n      pop\n      mload(0x40)\n      returndatasize\n      not(0x1f)\n      0x1f\n      dup3\n      add\n      and\n      dup3\n      add\n      dup1\n      0x40\n      mstore\n      pop\n      dup2\n      add\n      swap1\n      tag_52\n      swap2\n      swap1\n      tag_53\n      jump\t// in\n    tag_52:\n      pop\n        /* \"SwapVerifier.sol\":5405:5411  tokenB */\n      dup5\n        /* \"SwapVerifier.sol\":5398:5420  IERC20(tokenB).approve */\n      0xffffffffffffffffffffffffffffffffffffffff\n      and\n      0x095ea7b3\n        /* \"SwapVerifier.sol\":5421:5433  swapContract */\n      dup9\n        /* \"SwapVerifier.sol\":5435:5442  amountB */\n      dup6\n        /* \"SwapVerifier.sol\":5398:5443  IERC20(tokenB).approve(swapContract, amountB) */\n      mload(0x40)\n      dup4\n      0xffffffff\n      and\n      0xe0\n      shl\n      dup2\n      mstore\n      0x04\n      add\n      tag_54\n      swap3\n      swap2\n      swap1\n      tag_49\n      jump\t// in\n    tag_54:\n      0x20\n      mload(0x40)\n      dup1\n      dup4\n      sub\n      dup2\n      0x00\n      dup8\n      gas\n      call\n      iszero\n      dup1\n      iszero\n      tag_56\n      jumpi\n      returndatasize\n      0x00\n      dup1\n      returndatacopy\n      revert(0x00, returndatasize)\n    tag_56:\n      pop\n      pop\n      pop\n      pop\n      mload(0x40)\n      returndatasize\n      not(0x1f)\n      0x1f\n      dup3\n      add\n      and\n      dup3\n      add\n      dup1\n      0x40\n      mstore\n      pop\n      dup2\n      add\n      swap1\n      tag_57\n      swap2\n      swap1\n      tag_53\n      jump\t// in\n    tag_57:\n      pop\n        /* \"SwapVerifier.sol\":5483:5497  uint256 aAdded */\n      0x00\n        /* \"SwapVerifier.sol\":5499:5513  uint256 bAdded */\n      dup1\n        /* \"SwapVerifier.sol\":5515:5532  uint256 liquidity */\n      0x00\n        /* \"SwapVerifier.sol\":5548:5560  swapContract */\n      dup10\n        /* \"SwapVerifier.sol\":5536:5588  ISimpleSwap(swapContract)... */\n      0xffffffffffffffffffffffffffffffffffffffff\n      and\n      0xe8e33700\n        /* \"SwapVerifier.sol\":5589:5595  tokenA */\n      dup11\n        /* \"SwapVerifier.sol\":5597:5603  tokenB */\n      dup11\n        /* \"SwapVerifier.sol\":5605:5612  amountA */\n      dup11\n        /* \"SwapVerifier.sol\":5614:5621  amountB */\n      dup11\n        /* \"SwapVerifier.sol\":5623:5630  amountA */\n      dup13\n        /* \"SwapVerifier.sol\":5632:5639  amountB */\n      dup13\n        /* \"SwapVerifier.sol\":5649:5653  this */\n      address\n        /* \"SwapVerifier.sol\":5674:5675  1 */\n      0x01\n        /* \"SwapVerifier.sol\":5656:5671  block.timestamp */\n      timestamp\n        /* \"SwapVerifier.sol\":5656:5675  block.timestamp + 1 */\n      tag_58\n      swap2\n      swap1\n      tag_59\n      jump\t// in\n    tag_58:\n        /* \"SwapVerifier.sol\":5536:5676  ISimpleSwap(swapContract)... */\n      mload(0x40)\n      dup10\n      0xffffffff\n      and\n      0xe0\n      shl\n      dup2\n      mstore\n      0x04\n      add\n      tag_60\n      swap9\n      swap8\n      swap7\n      swap6\n      swap5\n      swap4\n      swap3\n      swap2\n      swap1\n      tag_61\n      jump\t// in\n    tag_60:\n      0x60\n      mload(0x40)\n      dup1\n      dup4\n      sub\n      dup2\n      0x00\n      dup8\n      gas\n      call\n      iszero\n      dup1\n      iszero\n      tag_63\n      jumpi\n      returndatasize\n      0x00\n      dup1\n      returndatacopy\n      revert(0x00, returndatasize)\n    tag_63:\n      pop\n      pop\n      pop\n      pop\n      mload(0x40)\n      returndatasize\n      not(0x1f)\n      0x1f\n      dup3\n      add\n      and\n      dup3\n      add\n      dup1\n      0x40\n      mstore\n      pop\n      dup2\n      add\n      swap1\n      tag_64\n      swap2\n      swap1\n      tag_65\n      jump\t// in\n    tag_64:\n        /* \"SwapVerifier.sol\":5482:5676  (uint256 aAdded, uint256 bAdded, uint256 liquidity) = ISimpleSwap(swapContract)... */\n      swap3\n      pop\n      swap3\n      pop\n      swap3\n      pop\n        /* \"SwapVerifier.sol\":5705:5712  amountA */\n      dup7\n        /* \"SwapVerifier.sol\":5695:5701  aAdded */\n      dup4\n        /* \"SwapVerifier.sol\":5695:5712  aAdded == amountA */\n      eq\n        /* \"SwapVerifier.sol\":5695:5733  aAdded == amountA && bAdded == amountB */\n      dup1\n      iszero\n      tag_66\n      jumpi\n      pop\n        /* \"SwapVerifier.sol\":5726:5733  amountB */\n      dup6\n        /* \"SwapVerifier.sol\":5716:5722  bAdded */\n      dup3\n        /* \"SwapVerifier.sol\":5716:5733  bAdded == amountB */\n      eq\n        /* \"SwapVerifier.sol\":5695:5733  aAdded == amountA && bAdded == amountB */\n    tag_66:\n        /* \"SwapVerifier.sol\":5687:5767  require(aAdded == amountA && bAdded == amountB, \"addLiquidity amounts mismatch\") */\n      tag_67\n      jumpi\n      mload(0x40)\n      0x08c379a000000000000000000000000000000000000000000000000000000000\n      dup2\n      mstore\n      0x04\n      add\n      tag_68\n      swap1\n      tag_69\n      jump\t// in\n    tag_68:\n      mload(0x40)\n      dup1\n      swap2\n      sub\n      swap1\n      revert\n    tag_67:\n        /* \"SwapVerifier.sol\":5798:5799  0 */\n      0x00\n        /* \"SwapVerifier.sol\":5786:5795  liquidity */\n      dup2\n        /* \"SwapVerifier.sol\":5786:5799  liquidity > 0 */\n      gt\n        /* \"SwapVerifier.sol\":5778:5840  require(liquidity > 0, \"addLiquidity returned zero liquidity\") */\n      tag_70\n      jumpi\n      mload(0x40)\n      0x08c379a000000000000000000000000000000000000000000000000000000000\n      dup2\n      mstore\n      0x04\n      add\n      tag_71\n      swap1\n      tag_72\n      jump\t// in\n    tag_71:\n      mload(0x40)\n      dup1\n      swap2\n      sub\n      swap1\n      revert\n    tag_70:\n        /* \"SwapVerifier.sol\":5902:5915  uint256 price */\n      0x00\n        /* \"SwapVerifier.sol\":5930:5942  swapContract */\n      dup11\n        /* \"SwapVerifier.sol\":5918:5952  ISimpleSwap(swapContract).getPrice */\n      0xffffffffffffffffffffffffffffffffffffffff\n      and\n      0xac41865a\n        /* \"SwapVerifier.sol\":5953:5959  tokenA */\n      dup12\n        /* \"SwapVerifier.sol\":5961:5967  tokenB */\n      dup12\n        /* \"SwapVerifier.sol\":5918:5968  ISimpleSwap(swapContract).getPrice(tokenA, tokenB) */\n      mload(0x40)\n      dup4\n      0xffffffff\n      and\n      0xe0\n      shl\n      dup2\n      mstore\n      0x04\n      add\n      tag_73\n      swap3\n      swap2\n      swap1\n      tag_74\n      jump\t// in\n    tag_73:\n      0x20\n      mload(0x40)\n      dup1\n      dup4\n      sub\n      dup2\n      dup7\n      gas\n      staticcall\n      iszero\n      dup1\n      iszero\n      tag_76\n      jumpi\n      returndatasize\n      0x00\n      dup1\n      returndatacopy\n      revert(0x00, returndatasize)\n    tag_76:\n      pop\n      pop\n      pop\n      pop\n      mload(0x40)\n      returndatasize\n      not(0x1f)\n      0x1f\n      dup3\n      add\n      and\n      dup3\n      add\n      dup1\n      0x40\n      mstore\n      pop\n      dup2\n      add\n      swap1\n      tag_77\n      swap2\n      swap1\n      tag_37\n      jump\t// in\n    tag_77:\n        /* \"SwapVerifier.sol\":5902:5968  uint256 price = ISimpleSwap(swapContract).getPrice(tokenA, tokenB) */\n      swap1\n      pop\n        /* \"SwapVerifier.sol\":6014:6020  aAdded */\n      dup4\n        /* \"SwapVerifier.sol\":6006:6010  1e18 */\n      0x0de0b6b3a7640000\n        /* \"SwapVerifier.sol\":5997:6003  bAdded */\n      dup5\n        /* \"SwapVerifier.sol\":5997:6010  bAdded * 1e18 */\n      tag_78\n      swap2\n      swap1\n      tag_79\n      jump\t// in\n    tag_78:\n        /* \"SwapVerifier.sol\":5996:6020  (bAdded * 1e18) / aAdded */\n      tag_80\n      swap2\n      swap1\n      tag_81\n      jump\t// in\n    tag_80:\n        /* \"SwapVerifier.sol\":5987:5992  price */\n      dup2\n        /* \"SwapVerifier.sol\":5987:6020  price == (bAdded * 1e18) / aAdded */\n      eq\n        /* \"SwapVerifier.sol\":5979:6043  require(price == (bAdded * 1e18) / aAdded, \"getPrice incorrect\") */\n      tag_82\n      jumpi\n      mload(0x40)\n      0x08c379a000000000000000000000000000000000000000000000000000000000\n      dup2\n      mstore\n      0x04\n      add\n      tag_83\n      swap1\n      tag_84\n      jump\t// in\n    tag_83:\n      mload(0x40)\n      dup1\n      swap2\n      sub\n      swap1\n      revert\n    tag_82:\n        /* \"SwapVerifier.sol\":6101:6120  uint256 expectedOut */\n      0x00\n        /* \"SwapVerifier.sol\":6135:6147  swapContract */\n      dup12\n        /* \"SwapVerifier.sol\":6123:6161  ISimpleSwap(swapContract).getAmountOut */\n      0xffffffffffffffffffffffffffffffffffffffff\n      and\n      0x4aa06652\n        /* \"SwapVerifier.sol\":6162:6168  tokenA */\n      dup13\n        /* \"SwapVerifier.sol\":6170:6176  tokenB */\n      dup13\n        /* \"SwapVerifier.sol\":6178:6186  amountIn */\n      dup11\n        /* \"SwapVerifier.sol\":6123:6187  ISimpleSwap(swapContract).getAmountOut(tokenA, tokenB, amountIn) */\n      mload(0x40)\n      dup5\n      0xffffffff\n      and\n      0xe0\n      shl\n      dup2\n      mstore\n      0x04\n      add\n      tag_85\n      swap4\n      swap3\n      swap2\n      swap1\n      tag_86\n      jump\t// in\n    tag_85:\n      0x20\n      mload(0x40)\n      dup1\n      dup4\n      sub\n      dup2\n      dup7\n      gas\n      staticcall\n      iszero\n      dup1\n      iszero\n      tag_88\n      jumpi\n      returndatasize\n      0x00\n      dup1\n      returndatacopy\n      revert(0x00, returndatasize)\n    tag_88:\n      pop\n      pop\n      pop\n      pop\n      mload(0x40)\n      returndatasize\n      not(0x1f)\n      0x1f\n      dup3\n      add\n      and\n      dup3\n      add\n      dup1\n      0x40\n      mstore\n      pop\n      dup2\n      add\n      swap1\n      tag_89\n      swap2\n      swap1\n      tag_37\n      jump\t// in\n    tag_89:\n        /* \"SwapVerifier.sol\":6101:6187  uint256 expectedOut = ISimpleSwap(swapContract).getAmountOut(tokenA, tokenB, amountIn) */\n      swap1\n      pop\n        /* \"SwapVerifier.sol\":6230:6236  tokenA */\n      dup11\n        /* \"SwapVerifier.sol\":6223:6245  IERC20(tokenA).approve */\n      0xffffffffffffffffffffffffffffffffffffffff\n      and\n      0x095ea7b3\n        /* \"SwapVerifier.sol\":6246:6258  swapContract */\n      dup14\n        /* \"SwapVerifier.sol\":6260:6268  amountIn */\n      dup10\n        /* \"SwapVerifier.sol\":6223:6269  IERC20(tokenA).approve(swapContract, amountIn) */\n      mload(0x40)\n      dup4\n      0xffffffff\n      and\n      0xe0\n      shl\n      dup2\n      mstore\n      0x04\n      add\n      tag_90\n      swap3\n      swap2\n      swap1\n      tag_49\n      jump\t// in\n    tag_90:\n      0x20\n      mload(0x40)\n      dup1\n      dup4\n      sub\n      dup2\n      0x00\n      dup8\n      gas\n      call\n      iszero\n      dup1\n      iszero\n      tag_92\n      jumpi\n      returndatasize\n      0x00\n      dup1\n      returndatacopy\n      revert(0x00, returndatasize)\n    tag_92:\n      pop\n      pop\n      pop\n      pop\n      mload(0x40)\n      returndatasize\n      not(0x1f)\n      0x1f\n      dup3\n      add\n      and\n      dup3\n      add\n      dup1\n      0x40\n      mstore\n      pop\n      dup2\n      add\n      swap1\n      tag_93\n      swap2\n      swap1\n      tag_53\n      jump\t// in\n    tag_93:\n      pop\n        /* \"SwapVerifier.sol\":6280:6301  address[] memory path */\n      0x00\n        /* \"SwapVerifier.sol\":6318:6319  2 */\n      0x02\n        /* \"SwapVerifier.sol\":6304:6320  new address[](2) */\n      0xffffffffffffffff\n      dup2\n      gt\n      iszero\n      tag_94\n      jumpi\n      tag_95\n      tag_96\n      jump\t// in\n    tag_95:\n    tag_94:\n      mload(0x40)\n      swap1\n      dup1\n      dup3\n      mstore\n      dup1\n      0x20\n      mul\n      0x20\n      add\n      dup3\n      add\n      0x40\n      mstore\n      dup1\n      iszero\n      tag_97\n      jumpi\n      dup2\n      0x20\n      add\n      0x20\n      dup3\n      mul\n      dup1\n      calldatasize\n      dup4\n      calldatacopy\n      dup1\n      dup3\n      add\n      swap2\n      pop\n      pop\n      swap1\n      pop\n    tag_97:\n      pop\n        /* \"SwapVerifier.sol\":6280:6320  address[] memory path = new address[](2) */\n      swap1\n      pop\n        /* \"SwapVerifier.sol\":6341:6347  tokenA */\n      dup12\n        /* \"SwapVerifier.sol\":6331:6335  path */\n      dup2\n        /* \"SwapVerifier.sol\":6336:6337  0 */\n      0x00\n        /* \"SwapVerifier.sol\":6331:6338  path[0] */\n      dup2\n      mload\n      dup2\n      lt\n      tag_98\n      jumpi\n      tag_99\n      tag_100\n      jump\t// in\n    tag_99:\n    tag_98:\n      0x20\n      mul\n      0x20\n      add\n      add\n        /* \"SwapVerifier.sol\":6331:6347  path[0] = tokenA */\n      swap1\n      0xffffffffffffffffffffffffffffffffffffffff\n      and\n      swap1\n      dup2\n      0xffffffffffffffffffffffffffffffffffffffff\n      and\n      dup2\n      mstore\n      pop\n      pop\n        /* \"SwapVerifier.sol\":6368:6374  tokenB */\n      dup11\n        /* \"SwapVerifier.sol\":6358:6362  path */\n      dup2\n        /* \"SwapVerifier.sol\":6363:6364  1 */\n      0x01\n        /* \"SwapVerifier.sol\":6358:6365  path[1] */\n      dup2\n      mload\n      dup2\n      lt\n      tag_101\n      jumpi\n      tag_102\n      tag_100\n      jump\t// in\n    tag_102:\n    tag_101:\n      0x20\n      mul\n      0x20\n      add\n      add\n        /* \"SwapVerifier.sol\":6358:6374  path[1] = tokenB */\n      swap1\n      0xffffffffffffffffffffffffffffffffffffffff\n      and\n      swap1\n      dup2\n      0xffffffffffffffffffffffffffffffffffffffff\n      and\n      dup2\n      mstore\n      pop\n      pop\n        /* \"SwapVerifier.sol\":6397:6409  swapContract */\n      dup13\n        /* \"SwapVerifier.sol\":6385:6435  ISimpleSwap(swapContract).swapExactTokensForTokens */\n      0xffffffffffffffffffffffffffffffffffffffff\n      and\n      0x38ed1739\n        /* \"SwapVerifier.sol\":6436:6444  amountIn */\n      dup10\n        /* \"SwapVerifier.sol\":6446:6457  expectedOut */\n      dup5\n        /* \"SwapVerifier.sol\":6459:6463  path */\n      dup5\n        /* \"SwapVerifier.sol\":6473:6477  this */\n      address\n        /* \"SwapVerifier.sol\":6498:6499  1 */\n      0x01\n        /* \"SwapVerifier.sol\":6480:6495  block.timestamp */\n      timestamp\n        /* \"SwapVerifier.sol\":6480:6499  block.timestamp + 1 */\n      tag_103\n      swap2\n      swap1\n      tag_59\n      jump\t// in\n    tag_103:\n        /* \"SwapVerifier.sol\":6385:6500  ISimpleSwap(swapContract).swapExactTokensForTokens(amountIn, expectedOut, path, address(this), block.timestamp + 1) */\n      mload(0x40)\n      dup7\n      0xffffffff\n      and\n      0xe0\n      shl\n      dup2\n      mstore\n      0x04\n      add\n      tag_104\n      swap6\n      swap5\n      swap4\n      swap3\n      swap2\n      swap1\n      tag_105\n      jump\t// in\n    tag_104:\n      0x00\n      mload(0x40)\n      dup1\n      dup4\n      sub\n      dup2\n      0x00\n      dup8\n      dup1\n      extcodesize\n      iszero\n      dup1\n      iszero\n      tag_106\n      jumpi\n      0x00\n      dup1\n      revert\n    tag_106:\n      pop\n      gas\n      call\n      iszero\n      dup1\n      iszero\n      tag_108\n      jumpi\n      returndatasize\n      0x00\n      dup1\n      returndatacopy\n      revert(0x00, returndatasize)\n    tag_108:\n      pop\n      pop\n      pop\n      pop\n        /* \"SwapVerifier.sol\":6562:6573  expectedOut */\n      dup2\n        /* \"SwapVerifier.sol\":6526:6532  tokenB */\n      dup12\n        /* \"SwapVerifier.sol\":6519:6543  IERC20(tokenB).balanceOf */\n      0xffffffffffffffffffffffffffffffffffffffff\n      and\n      0x70a08231\n        /* \"SwapVerifier.sol\":6552:6556  this */\n      address\n        /* \"SwapVerifier.sol\":6519:6558  IERC20(tokenB).balanceOf(address(this)) */\n      mload(0x40)\n      dup3\n      0xffffffff\n      and\n      0xe0\n      shl\n      dup2\n      mstore\n      0x04\n      add\n      tag_109\n      swap2\n      swap1\n      tag_33\n      jump\t// in\n    tag_109:\n      0x20\n      mload(0x40)\n      dup1\n      dup4\n      sub\n      dup2\n      dup7\n      gas\n      staticcall\n      iszero\n      dup1\n      iszero\n      tag_111\n      jumpi\n      returndatasize\n      0x00\n      dup1\n      returndatacopy\n      revert(0x00, returndatasize)\n    tag_111:\n      pop\n      pop\n      pop\n      pop\n      mload(0x40)\n      returndatasize\n      not(0x1f)\n      0x1f\n      dup3\n      add\n      and\n      dup3\n      add\n      dup1\n      0x40\n      mstore\n      pop\n      dup2\n      add\n      swap1\n      tag_112\n      swap2\n      swap1\n      tag_37\n      jump\t// in\n    tag_112:\n        /* \"SwapVerifier.sol\":6519:6573  IERC20(tokenB).balanceOf(address(this)) >= expectedOut */\n      lt\n      iszero\n        /* \"SwapVerifier.sol\":6511:6609  require(IERC20(tokenB).balanceOf(address(this)) >= expectedOut, \"swapExactTokensForTokens failed\") */\n      tag_113\n      jumpi\n      mload(0x40)\n      0x08c379a000000000000000000000000000000000000000000000000000000000\n      dup2\n      mstore\n      0x04\n      add\n      tag_114\n      swap1\n      tag_115\n      jump\t// in\n    tag_114:\n      mload(0x40)\n      dup1\n      swap2\n      sub\n      swap1\n      revert\n    tag_113:\n        /* \"SwapVerifier.sol\":6652:6664  uint256 aOut */\n      0x00\n        /* \"SwapVerifier.sol\":6666:6678  uint256 bOut */\n      dup1\n        /* \"SwapVerifier.sol\":6694:6706  swapContract */\n      dup15\n        /* \"SwapVerifier.sol\":6682:6737  ISimpleSwap(swapContract)... */\n      0xffffffffffffffffffffffffffffffffffffffff\n      and\n      0xbaa2abde\n        /* \"SwapVerifier.sol\":6738:6744  tokenA */\n      dup16\n        /* \"SwapVerifier.sol\":6746:6752  tokenB */\n      dup16\n        /* \"SwapVerifier.sol\":6754:6763  liquidity */\n      dup10\n        /* \"SwapVerifier.sol\":6765:6766  0 */\n      0x00\n        /* \"SwapVerifier.sol\":6768:6769  0 */\n      dup1\n        /* \"SwapVerifier.sol\":6779:6783  this */\n      address\n        /* \"SwapVerifier.sol\":6804:6805  1 */\n      0x01\n        /* \"SwapVerifier.sol\":6786:6801  block.timestamp */\n      timestamp\n        /* \"SwapVerifier.sol\":6786:6805  block.timestamp + 1 */\n      tag_116\n      swap2\n      swap1\n      tag_59\n      jump\t// in\n    tag_116:\n        /* \"SwapVerifier.sol\":6682:6806  ISimpleSwap(swapContract)... */\n      mload(0x40)\n      dup9\n      0xffffffff\n      and\n      0xe0\n      shl\n      dup2\n      mstore\n      0x04\n      add\n      tag_117\n      swap8\n      swap7\n      swap6\n      swap5\n      swap4\n      swap3\n      swap2\n      swap1\n      tag_118\n      jump\t// in\n    tag_117:\n      0x40\n      dup1\n      mload\n      dup1\n      dup4\n      sub\n      dup2\n      0x00\n      dup8\n      gas\n      call\n      iszero\n      dup1\n      iszero\n      tag_120\n      jumpi\n      returndatasize\n      0x00\n      dup1\n      returndatacopy\n      revert(0x00, returndatasize)\n    tag_120:\n      pop\n      pop\n      pop\n      pop\n      mload(0x40)\n      returndatasize\n      not(0x1f)\n      0x1f\n      dup3\n      add\n      and\n      dup3\n      add\n      dup1\n      0x40\n      mstore\n      pop\n      dup2\n      add\n      swap1\n      tag_121\n      swap2\n      swap1\n      tag_122\n      jump\t// in\n    tag_121:\n        /* \"SwapVerifier.sol\":6651:6806  (uint256 aOut, uint256 bOut) = ISimpleSwap(swapContract)... */\n      swap2\n      pop\n      swap2\n      pop\n        /* \"SwapVerifier.sol\":6839:6840  0 */\n      0x00\n        /* \"SwapVerifier.sol\":6832:6836  bOut */\n      dup2\n        /* \"SwapVerifier.sol\":6825:6829  aOut */\n      dup4\n        /* \"SwapVerifier.sol\":6825:6836  aOut + bOut */\n      tag_123\n      swap2\n      swap1\n      tag_59\n      jump\t// in\n    tag_123:\n        /* \"SwapVerifier.sol\":6825:6840  aOut + bOut > 0 */\n      gt\n        /* \"SwapVerifier.sol\":6817:6881  require(aOut + bOut > 0, \"removeLiquidity returned zero tokens\") */\n      tag_124\n      jumpi\n      mload(0x40)\n      0x08c379a000000000000000000000000000000000000000000000000000000000\n      dup2\n      mstore\n      0x04\n      add\n      tag_125\n      swap1\n      tag_126\n      jump\t// in\n    tag_125:\n      mload(0x40)\n      dup1\n      swap2\n      sub\n      swap1\n      revert\n    tag_124:\n        /* \"SwapVerifier.sol\":6917:6924  authors */\n      0x00\n        /* \"SwapVerifier.sol\":6930:6936  author */\n      dup10\n        /* \"SwapVerifier.sol\":6917:6937  authors.push(author) */\n      swap1\n      dup1\n      0x01\n      dup2\n      sload\n      add\n      dup1\n      dup3\n      sstore\n      dup1\n      swap2\n      pop\n      pop\n      0x01\n      swap1\n      sub\n      swap1\n      0x00\n      mstore\n      keccak256(0x00, 0x20)\n      add\n      0x00\n      swap1\n      swap2\n      swap1\n      swap2\n      swap1\n      swap2\n      pop\n      swap1\n      dup2\n      tag_128\n      swap2\n      swap1\n      tag_129\n      jump\t// in\n    tag_128:\n      pop\n        /* \"SwapVerifier.sol\":4890:6945  {... */\n      pop\n      pop\n      pop\n      pop\n      pop\n      pop\n      pop\n      pop\n        /* \"SwapVerifier.sol\":4667:6945  function verify(... */\n      pop\n      pop\n      pop\n      pop\n      pop\n      pop\n      pop\n      jump\t// out\n        /* \"#utility.yul\":7:82   */\n    tag_130:\n        /* \"#utility.yul\":40:46   */\n      0x00\n        /* \"#utility.yul\":73:75   */\n      0x40\n        /* \"#utility.yul\":67:76   */\n      mload\n        /* \"#utility.yul\":57:76   */\n      swap1\n      pop\n        /* \"#utility.yul\":7:82   */\n      swap1\n      jump\t// out\n        /* \"#utility.yul\":88:205   */\n    tag_131:\n        /* \"#utility.yul\":197:198   */\n      0x00\n        /* \"#utility.yul\":194:195   */\n      dup1\n        /* \"#utility.yul\":187:199   */\n      revert\n        /* \"#utility.yul\":211:328   */\n    tag_132:\n        /* \"#utility.yul\":320:321   */\n      0x00\n        /* \"#utility.yul\":317:318   */\n      dup1\n        /* \"#utility.yul\":310:322   */\n      revert\n        /* \"#utility.yul\":334:411   */\n    tag_133:\n        /* \"#utility.yul\":371:378   */\n      0x00\n        /* \"#utility.yul\":400:405   */\n      dup2\n        /* \"#utility.yul\":389:405   */\n      swap1\n      pop\n        /* \"#utility.yul\":334:411   */\n      swap2\n      swap1\n      pop\n      jump\t// out\n        /* \"#utility.yul\":417:539   */\n    tag_134:\n        /* \"#utility.yul\":490:514   */\n      tag_211\n        /* \"#utility.yul\":508:513   */\n      dup2\n        /* \"#utility.yul\":490:514   */\n      tag_133\n      jump\t// in\n    tag_211:\n        /* \"#utility.yul\":483:488   */\n      dup2\n        /* \"#utility.yul\":480:515   */\n      eq\n        /* \"#utility.yul\":470:533   */\n      tag_212\n      jumpi\n        /* \"#utility.yul\":529:530   */\n      0x00\n        /* \"#utility.yul\":526:527   */\n      dup1\n        /* \"#utility.yul\":519:531   */\n      revert\n        /* \"#utility.yul\":470:533   */\n    tag_212:\n        /* \"#utility.yul\":417:539   */\n      pop\n      jump\t// out\n        /* \"#utility.yul\":545:684   */\n    tag_135:\n        /* \"#utility.yul\":591:596   */\n      0x00\n        /* \"#utility.yul\":629:635   */\n      dup2\n        /* \"#utility.yul\":616:636   */\n      calldataload\n        /* \"#utility.yul\":607:636   */\n      swap1\n      pop\n        /* \"#utility.yul\":645:678   */\n      tag_214\n        /* \"#utility.yul\":672:677   */\n      dup2\n        /* \"#utility.yul\":645:678   */\n      tag_134\n      jump\t// in\n    tag_214:\n        /* \"#utility.yul\":545:684   */\n      swap3\n      swap2\n      pop\n      pop\n      jump\t// out\n        /* \"#utility.yul\":690:1019   */\n    tag_7:\n        /* \"#utility.yul\":749:755   */\n      0x00\n        /* \"#utility.yul\":798:800   */\n      0x20\n        /* \"#utility.yul\":786:795   */\n      dup3\n        /* \"#utility.yul\":777:784   */\n      dup5\n        /* \"#utility.yul\":773:796   */\n      sub\n        /* \"#utility.yul\":769:801   */\n      slt\n        /* \"#utility.yul\":766:885   */\n      iszero\n      tag_216\n      jumpi\n        /* \"#utility.yul\":804:883   */\n      tag_217\n      tag_131\n      jump\t// in\n    tag_217:\n        /* \"#utility.yul\":766:885   */\n    tag_216:\n        /* \"#utility.yul\":924:925   */\n      0x00\n        /* \"#utility.yul\":949:1002   */\n      tag_218\n        /* \"#utility.yul\":994:1001   */\n      dup5\n        /* \"#utility.yul\":985:991   */\n      dup3\n        /* \"#utility.yul\":974:983   */\n      dup6\n        /* \"#utility.yul\":970:992   */\n      add\n        /* \"#utility.yul\":949:1002   */\n      tag_135\n      jump\t// in\n    tag_218:\n        /* \"#utility.yul\":939:1002   */\n      swap2\n      pop\n        /* \"#utility.yul\":895:1012   */\n      pop\n        /* \"#utility.yul\":690:1019   */\n      swap3\n      swap2\n      pop\n      pop\n      jump\t// out\n        /* \"#utility.yul\":1025:1124   */\n    tag_136:\n        /* \"#utility.yul\":1077:1083   */\n      0x00\n        /* \"#utility.yul\":1111:1116   */\n      dup2\n        /* \"#utility.yul\":1105:1117   */\n      mload\n        /* \"#utility.yul\":1095:1117   */\n      swap1\n      pop\n        /* \"#utility.yul\":1025:1124   */\n      swap2\n      swap1\n      pop\n      jump\t// out\n        /* \"#utility.yul\":1130:1299   */\n    tag_137:\n        /* \"#utility.yul\":1214:1225   */\n      0x00\n        /* \"#utility.yul\":1248:1254   */\n      dup3\n        /* \"#utility.yul\":1243:1246   */\n      dup3\n        /* \"#utility.yul\":1236:1255   */\n      mstore\n        /* \"#utility.yul\":1288:1292   */\n      0x20\n        /* \"#utility.yul\":1283:1286   */\n      dup3\n        /* \"#utility.yul\":1279:1293   */\n      add\n        /* \"#utility.yul\":1264:1293   */\n      swap1\n      pop\n        /* \"#utility.yul\":1130:1299   */\n      swap3\n      swap2\n      pop\n      pop\n      jump\t// out\n        /* \"#utility.yul\":1305:1553   */\n    tag_138:\n        /* \"#utility.yul\":1387:1388   */\n      0x00\n        /* \"#utility.yul\":1397:1510   */\n    tag_222:\n        /* \"#utility.yul\":1411:1417   */\n      dup4\n        /* \"#utility.yul\":1408:1409   */\n      dup2\n        /* \"#utility.yul\":1405:1418   */\n      lt\n        /* \"#utility.yul\":1397:1510   */\n      iszero\n      tag_224\n      jumpi\n        /* \"#utility.yul\":1496:1497   */\n      dup1\n        /* \"#utility.yul\":1491:1494   */\n      dup3\n        /* \"#utility.yul\":1487:1498   */\n      add\n        /* \"#utility.yul\":1481:1499   */\n      mload\n        /* \"#utility.yul\":1477:1478   */\n      dup2\n        /* \"#utility.yul\":1472:1475   */\n      dup5\n        /* \"#utility.yul\":1468:1479   */\n      add\n        /* \"#utility.yul\":1461:1500   */\n      mstore\n        /* \"#utility.yul\":1433:1435   */\n      0x20\n        /* \"#utility.yul\":1430:1431   */\n      dup2\n        /* \"#utility.yul\":1426:1436   */\n      add\n        /* \"#utility.yul\":1421:1436   */\n      swap1\n      pop\n        /* \"#utility.yul\":1397:1510   */\n      jump(tag_222)\n    tag_224:\n        /* \"#utility.yul\":1544:1545   */\n      0x00\n        /* \"#utility.yul\":1535:1541   */\n      dup5\n        /* \"#utility.yul\":1530:1533   */\n      dup5\n        /* \"#utility.yul\":1526:1542   */\n      add\n        /* \"#utility.yul\":1519:1546   */\n      mstore\n        /* \"#utility.yul\":1367:1553   */\n      pop\n        /* \"#utility.yul\":1305:1553   */\n      pop\n      pop\n      pop\n      jump\t// out\n        /* \"#utility.yul\":1559:1661   */\n    tag_139:\n        /* \"#utility.yul\":1600:1606   */\n      0x00\n        /* \"#utility.yul\":1651:1653   */\n      0x1f\n        /* \"#utility.yul\":1647:1654   */\n      not\n        /* \"#utility.yul\":1642:1644   */\n      0x1f\n        /* \"#utility.yul\":1635:1640   */\n      dup4\n        /* \"#utility.yul\":1631:1645   */\n      add\n        /* \"#utility.yul\":1627:1655   */\n      and\n        /* \"#utility.yul\":1617:1655   */\n      swap1\n      pop\n        /* \"#utility.yul\":1559:1661   */\n      swap2\n      swap1\n      pop\n      jump\t// out\n        /* \"#utility.yul\":1667:2044   */\n    tag_140:\n        /* \"#utility.yul\":1755:1758   */\n      0x00\n        /* \"#utility.yul\":1783:1822   */\n      tag_227\n        /* \"#utility.yul\":1816:1821   */\n      dup3\n        /* \"#utility.yul\":1783:1822   */\n      tag_136\n      jump\t// in\n    tag_227:\n        /* \"#utility.yul\":1838:1909   */\n      tag_228\n        /* \"#utility.yul\":1902:1908   */\n      dup2\n        /* \"#utility.yul\":1897:1900   */\n      dup6\n        /* \"#utility.yul\":1838:1909   */\n      tag_137\n      jump\t// in\n    tag_228:\n        /* \"#utility.yul\":1831:1909   */\n      swap4\n      pop\n        /* \"#utility.yul\":1918:1983   */\n      tag_229\n        /* \"#utility.yul\":1976:1982   */\n      dup2\n        /* \"#utility.yul\":1971:1974   */\n      dup6\n        /* \"#utility.yul\":1964:1968   */\n      0x20\n        /* \"#utility.yul\":1957:1962   */\n      dup7\n        /* \"#utility.yul\":1953:1969   */\n      add\n        /* \"#utility.yul\":1918:1983   */\n      tag_138\n      jump\t// in\n    tag_229:\n        /* \"#utility.yul\":2008:2037   */\n      tag_230\n        /* \"#utility.yul\":2030:2036   */\n      dup2\n        /* \"#utility.yul\":2008:2037   */\n      tag_139\n      jump\t// in\n    tag_230:\n        /* \"#utility.yul\":2003:2006   */\n      dup5\n        /* \"#utility.yul\":1999:2038   */\n      add\n        /* \"#utility.yul\":1992:2038   */\n      swap2\n      pop\n        /* \"#utility.yul\":1759:2044   */\n      pop\n        /* \"#utility.yul\":1667:2044   */\n      swap3\n      swap2\n      pop\n      pop\n      jump\t// out\n        /* \"#utility.yul\":2050:2363   */\n    tag_10:\n        /* \"#utility.yul\":2163:2167   */\n      0x00\n        /* \"#utility.yul\":2201:2203   */\n      0x20\n        /* \"#utility.yul\":2190:2199   */\n      dup3\n        /* \"#utility.yul\":2186:2204   */\n      add\n        /* \"#utility.yul\":2178:2204   */\n      swap1\n      pop\n        /* \"#utility.yul\":2250:2259   */\n      dup2\n        /* \"#utility.yul\":2244:2248   */\n      dup2\n        /* \"#utility.yul\":2240:2260   */\n      sub\n        /* \"#utility.yul\":2236:2237   */\n      0x00\n        /* \"#utility.yul\":2225:2234   */\n      dup4\n        /* \"#utility.yul\":2221:2238   */\n      add\n        /* \"#utility.yul\":2214:2261   */\n      mstore\n        /* \"#utility.yul\":2278:2356   */\n      tag_232\n        /* \"#utility.yul\":2351:2355   */\n      dup2\n        /* \"#utility.yul\":2342:2348   */\n      dup5\n        /* \"#utility.yul\":2278:2356   */\n      tag_140\n      jump\t// in\n    tag_232:\n        /* \"#utility.yul\":2270:2356   */\n      swap1\n      pop\n        /* \"#utility.yul\":2050:2363   */\n      swap3\n      swap2\n      pop\n      pop\n      jump\t// out\n        /* \"#utility.yul\":2369:2495   */\n    tag_141:\n        /* \"#utility.yul\":2406:2413   */\n      0x00\n        /* \"#utility.yul\":2446:2488   */\n      0xffffffffffffffffffffffffffffffffffffffff\n        /* \"#utility.yul\":2439:2444   */\n      dup3\n        /* \"#utility.yul\":2435:2489   */\n      and\n        /* \"#utility.yul\":2424:2489   */\n      swap1\n      pop\n        /* \"#utility.yul\":2369:2495   */\n      swap2\n      swap1\n      pop\n      jump\t// out\n        /* \"#utility.yul\":2501:2597   */\n    tag_142:\n        /* \"#utility.yul\":2538:2545   */\n      0x00\n        /* \"#utility.yul\":2567:2591   */\n      tag_235\n        /* \"#utility.yul\":2585:2590   */\n      dup3\n        /* \"#utility.yul\":2567:2591   */\n      tag_141\n      jump\t// in\n    tag_235:\n        /* \"#utility.yul\":2556:2591   */\n      swap1\n      pop\n        /* \"#utility.yul\":2501:2597   */\n      swap2\n      swap1\n      pop\n      jump\t// out\n        /* \"#utility.yul\":2603:2725   */\n    tag_143:\n        /* \"#utility.yul\":2676:2700   */\n      tag_237\n        /* \"#utility.yul\":2694:2699   */\n      dup2\n        /* \"#utility.yul\":2676:2700   */\n      tag_142\n      jump\t// in\n    tag_237:\n        /* \"#utility.yul\":2669:2674   */\n      dup2\n        /* \"#utility.yul\":2666:2701   */\n      eq\n        /* \"#utility.yul\":2656:2719   */\n      tag_238\n      jumpi\n        /* \"#utility.yul\":2715:2716   */\n      0x00\n        /* \"#utility.yul\":2712:2713   */\n      dup1\n        /* \"#utility.yul\":2705:2717   */\n      revert\n        /* \"#utility.yul\":2656:2719   */\n    tag_238:\n        /* \"#utility.yul\":2603:2725   */\n      pop\n      jump\t// out\n        /* \"#utility.yul\":2731:2870   */\n    tag_144:\n        /* \"#utility.yul\":2777:2782   */\n      0x00\n        /* \"#utility.yul\":2815:2821   */\n      dup2\n        /* \"#utility.yul\":2802:2822   */\n      calldataload\n        /* \"#utility.yul\":2793:2822   */\n      swap1\n      pop\n        /* \"#utility.yul\":2831:2864   */\n      tag_240\n        /* \"#utility.yul\":2858:2863   */\n      dup2\n        /* \"#utility.yul\":2831:2864   */\n      tag_143\n      jump\t// in\n    tag_240:\n        /* \"#utility.yul\":2731:2870   */\n      swap3\n      swap2\n      pop\n      pop\n      jump\t// out\n        /* \"#utility.yul\":2876:2993   */\n    tag_145:\n        /* \"#utility.yul\":2985:2986   */\n      0x00\n        /* \"#utility.yul\":2982:2983   */\n      dup1\n        /* \"#utility.yul\":2975:2987   */\n      revert\n        /* \"#utility.yul\":2999:3116   */\n    tag_146:\n        /* \"#utility.yul\":3108:3109   */\n      0x00\n        /* \"#utility.yul\":3105:3106   */\n      dup1\n        /* \"#utility.yul\":3098:3110   */\n      revert\n        /* \"#utility.yul\":3122:3302   */\n    tag_96:\n        /* \"#utility.yul\":3170:3247   */\n      0x4e487b7100000000000000000000000000000000000000000000000000000000\n        /* \"#utility.yul\":3167:3168   */\n      0x00\n        /* \"#utility.yul\":3160:3248   */\n      mstore\n        /* \"#utility.yul\":3267:3271   */\n      0x41\n        /* \"#utility.yul\":3264:3265   */\n      0x04\n        /* \"#utility.yul\":3257:3272   */\n      mstore\n        /* \"#utility.yul\":3291:3295   */\n      0x24\n        /* \"#utility.yul\":3288:3289   */\n      0x00\n        /* \"#utility.yul\":3281:3296   */\n      revert\n        /* \"#utility.yul\":3308:3589   */\n    tag_147:\n        /* \"#utility.yul\":3391:3418   */\n      tag_245\n        /* \"#utility.yul\":3413:3417   */\n      dup3\n        /* \"#utility.yul\":3391:3418   */\n      tag_139\n      jump\t// in\n    tag_245:\n        /* \"#utility.yul\":3383:3389   */\n      dup2\n        /* \"#utility.yul\":3379:3419   */\n      add\n        /* \"#utility.yul\":3521:3527   */\n      dup2\n        /* \"#utility.yul\":3509:3519   */\n      dup2\n        /* \"#utility.yul\":3506:3528   */\n      lt\n        /* \"#utility.yul\":3485:3503   */\n      0xffffffffffffffff\n        /* \"#utility.yul\":3473:3483   */\n      dup3\n        /* \"#utility.yul\":3470:3504   */\n      gt\n        /* \"#utility.yul\":3467:3529   */\n      or\n        /* \"#utility.yul\":3464:3552   */\n      iszero\n      tag_246\n      jumpi\n        /* \"#utility.yul\":3532:3550   */\n      tag_247\n      tag_96\n      jump\t// in\n    tag_247:\n        /* \"#utility.yul\":3464:3552   */\n    tag_246:\n        /* \"#utility.yul\":3572:3582   */\n      dup1\n        /* \"#utility.yul\":3568:3570   */\n      0x40\n        /* \"#utility.yul\":3561:3583   */\n      mstore\n        /* \"#utility.yul\":3351:3589   */\n      pop\n        /* \"#utility.yul\":3308:3589   */\n      pop\n      pop\n      jump\t// out\n        /* \"#utility.yul\":3595:3724   */\n    tag_148:\n        /* \"#utility.yul\":3629:3635   */\n      0x00\n        /* \"#utility.yul\":3656:3676   */\n      tag_249\n      tag_130\n      jump\t// in\n    tag_249:\n        /* \"#utility.yul\":3646:3676   */\n      swap1\n      pop\n        /* \"#utility.yul\":3685:3718   */\n      tag_250\n        /* \"#utility.yul\":3713:3717   */\n      dup3\n        /* \"#utility.yul\":3705:3711   */\n      dup3\n        /* \"#utility.yul\":3685:3718   */\n      tag_147\n      jump\t// in\n    tag_250:\n        /* \"#utility.yul\":3595:3724   */\n      swap2\n      swap1\n      pop\n      jump\t// out\n        /* \"#utility.yul\":3730:4038   */\n    tag_149:\n        /* \"#utility.yul\":3792:3796   */\n      0x00\n        /* \"#utility.yul\":3882:3900   */\n      0xffffffffffffffff\n        /* \"#utility.yul\":3874:3880   */\n      dup3\n        /* \"#utility.yul\":3871:3901   */\n      gt\n        /* \"#utility.yul\":3868:3924   */\n      iszero\n      tag_252\n      jumpi\n        /* \"#utility.yul\":3904:3922   */\n      tag_253\n      tag_96\n      jump\t// in\n    tag_253:\n        /* \"#utility.yul\":3868:3924   */\n    tag_252:\n        /* \"#utility.yul\":3942:3971   */\n      tag_254\n        /* \"#utility.yul\":3964:3970   */\n      dup3\n        /* \"#utility.yul\":3942:3971   */\n      tag_139\n      jump\t// in\n    tag_254:\n        /* \"#utility.yul\":3934:3971   */\n      swap1\n      pop\n        /* \"#utility.yul\":4026:4030   */\n      0x20\n        /* \"#utility.yul\":4020:4024   */\n      dup2\n        /* \"#utility.yul\":4016:4031   */\n      add\n        /* \"#utility.yul\":4008:4031   */\n      swap1\n      pop\n        /* \"#utility.yul\":3730:4038   */\n      swap2\n      swap1\n      pop\n      jump\t// out\n        /* \"#utility.yul\":4044:4192   */\n    tag_150:\n        /* \"#utility.yul\":4142:4148   */\n      dup3\n        /* \"#utility.yul\":4137:4140   */\n      dup2\n        /* \"#utility.yul\":4132:4135   */\n      dup4\n        /* \"#utility.yul\":4119:4149   */\n      calldatacopy\n        /* \"#utility.yul\":4183:4184   */\n      0x00\n        /* \"#utility.yul\":4174:4180   */\n      dup4\n        /* \"#utility.yul\":4169:4172   */\n      dup4\n        /* \"#utility.yul\":4165:4181   */\n      add\n        /* \"#utility.yul\":4158:4185   */\n      mstore\n        /* \"#utility.yul\":4044:4192   */\n      pop\n      pop\n      pop\n      jump\t// out\n        /* \"#utility.yul\":4198:4623   */\n    tag_151:\n        /* \"#utility.yul\":4276:4281   */\n      0x00\n        /* \"#utility.yul\":4301:4367   */\n      tag_257\n        /* \"#utility.yul\":4317:4366   */\n      tag_258\n        /* \"#utility.yul\":4359:4365   */\n      dup5\n        /* \"#utility.yul\":4317:4366   */\n      tag_149\n      jump\t// in\n    tag_258:\n        /* \"#utility.yul\":4301:4367   */\n      tag_148\n      jump\t// in\n    tag_257:\n        /* \"#utility.yul\":4292:4367   */\n      swap1\n      pop\n        /* \"#utility.yul\":4390:4396   */\n      dup3\n        /* \"#utility.yul\":4383:4388   */\n      dup2\n        /* \"#utility.yul\":4376:4397   */\n      mstore\n        /* \"#utility.yul\":4428:4432   */\n      0x20\n        /* \"#utility.yul\":4421:4426   */\n      dup2\n        /* \"#utility.yul\":4417:4433   */\n      add\n        /* \"#utility.yul\":4466:4469   */\n      dup5\n        /* \"#utility.yul\":4457:4463   */\n      dup5\n        /* \"#utility.yul\":4452:4455   */\n      dup5\n        /* \"#utility.yul\":4448:4464   */\n      add\n        /* \"#utility.yul\":4445:4470   */\n      gt\n        /* \"#utility.yul\":4442:4554   */\n      iszero\n      tag_259\n      jumpi\n        /* \"#utility.yul\":4473:4552   */\n      tag_260\n      tag_146\n      jump\t// in\n    tag_260:\n        /* \"#utility.yul\":4442:4554   */\n    tag_259:\n        /* \"#utility.yul\":4563:4617   */\n      tag_261\n        /* \"#utility.yul\":4610:4616   */\n      dup5\n        /* \"#utility.yul\":4605:4608   */\n      dup3\n        /* \"#utility.yul\":4600:4603   */\n      dup6\n        /* \"#utility.yul\":4563:4617   */\n      tag_150\n      jump\t// in\n    tag_261:\n        /* \"#utility.yul\":4282:4623   */\n      pop\n        /* \"#utility.yul\":4198:4623   */\n      swap4\n      swap3\n      pop\n      pop\n      pop\n      jump\t// out\n        /* \"#utility.yul\":4643:4983   */\n    tag_152:\n        /* \"#utility.yul\":4699:4704   */\n      0x00\n        /* \"#utility.yul\":4748:4751   */\n      dup3\n        /* \"#utility.yul\":4741:4745   */\n      0x1f\n        /* \"#utility.yul\":4733:4739   */\n      dup4\n        /* \"#utility.yul\":4729:4746   */\n      add\n        /* \"#utility.yul\":4725:4752   */\n      slt\n        /* \"#utility.yul\":4715:4837   */\n      tag_263\n      jumpi\n        /* \"#utility.yul\":4756:4835   */\n      tag_264\n      tag_145\n      jump\t// in\n    tag_264:\n        /* \"#utility.yul\":4715:4837   */\n    tag_263:\n        /* \"#utility.yul\":4873:4879   */\n      dup2\n        /* \"#utility.yul\":4860:4880   */\n      calldataload\n        /* \"#utility.yul\":4898:4977   */\n      tag_265\n        /* \"#utility.yul\":4973:4976   */\n      dup5\n        /* \"#utility.yul\":4965:4971   */\n      dup3\n        /* \"#utility.yul\":4958:4962   */\n      0x20\n        /* \"#utility.yul\":4950:4956   */\n      dup7\n        /* \"#utility.yul\":4946:4963   */\n      add\n        /* \"#utility.yul\":4898:4977   */\n      tag_151\n      jump\t// in\n    tag_265:\n        /* \"#utility.yul\":4889:4977   */\n      swap2\n      pop\n        /* \"#utility.yul\":4705:4983   */\n      pop\n        /* \"#utility.yul\":4643:4983   */\n      swap3\n      swap2\n      pop\n      pop\n      jump\t// out\n        /* \"#utility.yul\":4989:6372   */\n    tag_13:\n        /* \"#utility.yul\":5112:5118   */\n      0x00\n        /* \"#utility.yul\":5120:5126   */\n      dup1\n        /* \"#utility.yul\":5128:5134   */\n      0x00\n        /* \"#utility.yul\":5136:5142   */\n      dup1\n        /* \"#utility.yul\":5144:5150   */\n      0x00\n        /* \"#utility.yul\":5152:5158   */\n      dup1\n        /* \"#utility.yul\":5160:5166   */\n      0x00\n        /* \"#utility.yul\":5209:5212   */\n      0xe0\n        /* \"#utility.yul\":5197:5206   */\n      dup9\n        /* \"#utility.yul\":5188:5195   */\n      dup11\n        /* \"#utility.yul\":5184:5207   */\n      sub\n        /* \"#utility.yul\":5180:5213   */\n      slt\n        /* \"#utility.yul\":5177:5297   */\n      iszero\n      tag_267\n      jumpi\n        /* \"#utility.yul\":5216:5295   */\n      tag_268\n      tag_131\n      jump\t// in\n    tag_268:\n        /* \"#utility.yul\":5177:5297   */\n    tag_267:\n        /* \"#utility.yul\":5336:5337   */\n      0x00\n        /* \"#utility.yul\":5361:5414   */\n      tag_269\n        /* \"#utility.yul\":5406:5413   */\n      dup11\n        /* \"#utility.yul\":5397:5403   */\n      dup3\n        /* \"#utility.yul\":5386:5395   */\n      dup12\n        /* \"#utility.yul\":5382:5404   */\n      add\n        /* \"#utility.yul\":5361:5414   */\n      tag_144\n      jump\t// in\n    tag_269:\n        /* \"#utility.yul\":5351:5414   */\n      swap8\n      pop\n        /* \"#utility.yul\":5307:5424   */\n      pop\n        /* \"#utility.yul\":5463:5465   */\n      0x20\n        /* \"#utility.yul\":5489:5542   */\n      tag_270\n        /* \"#utility.yul\":5534:5541   */\n      dup11\n        /* \"#utility.yul\":5525:5531   */\n      dup3\n        /* \"#utility.yul\":5514:5523   */\n      dup12\n        /* \"#utility.yul\":5510:5532   */\n      add\n        /* \"#utility.yul\":5489:5542   */\n      tag_144\n      jump\t// in\n    tag_270:\n        /* \"#utility.yul\":5479:5542   */\n      swap7\n      pop\n        /* \"#utility.yul\":5434:5552   */\n      pop\n        /* \"#utility.yul\":5591:5593   */\n      0x40\n        /* \"#utility.yul\":5617:5670   */\n      tag_271\n        /* \"#utility.yul\":5662:5669   */\n      dup11\n        /* \"#utility.yul\":5653:5659   */\n      dup3\n        /* \"#utility.yul\":5642:5651   */\n      dup12\n        /* \"#utility.yul\":5638:5660   */\n      add\n        /* \"#utility.yul\":5617:5670   */\n      tag_144\n      jump\t// in\n    tag_271:\n        /* \"#utility.yul\":5607:5670   */\n      swap6\n      pop\n        /* \"#utility.yul\":5562:5680   */\n      pop\n        /* \"#utility.yul\":5719:5721   */\n      0x60\n        /* \"#utility.yul\":5745:5798   */\n      tag_272\n        /* \"#utility.yul\":5790:5797   */\n      dup11\n        /* \"#utility.yul\":5781:5787   */\n      dup3\n        /* \"#utility.yul\":5770:5779   */\n      dup12\n        /* \"#utility.yul\":5766:5788   */\n      add\n        /* \"#utility.yul\":5745:5798   */\n      tag_135\n      jump\t// in\n    tag_272:\n        /* \"#utility.yul\":5735:5798   */\n      swap5\n      pop\n        /* \"#utility.yul\":5690:5808   */\n      pop\n        /* \"#utility.yul\":5847:5850   */\n      0x80\n        /* \"#utility.yul\":5874:5927   */\n      tag_273\n        /* \"#utility.yul\":5919:5926   */\n      dup11\n        /* \"#utility.yul\":5910:5916   */\n      dup3\n        /* \"#utility.yul\":5899:5908   */\n      dup12\n        /* \"#utility.yul\":5895:5917   */\n      add\n        /* \"#utility.yul\":5874:5927   */\n      tag_135\n      jump\t// in\n    tag_273:\n        /* \"#utility.yul\":5864:5927   */\n      swap4\n      pop\n        /* \"#utility.yul\":5818:5937   */\n      pop\n        /* \"#utility.yul\":5976:5979   */\n      0xa0\n        /* \"#utility.yul\":6003:6056   */\n      tag_274\n        /* \"#utility.yul\":6048:6055   */\n      dup11\n        /* \"#utility.yul\":6039:6045   */\n      dup3\n        /* \"#utility.yul\":6028:6037   */\n      dup12\n        /* \"#utility.yul\":6024:6046   */\n      add\n        /* \"#utility.yul\":6003:6056   */\n      tag_135\n      jump\t// in\n    tag_274:\n        /* \"#utility.yul\":5993:6056   */\n      swap3\n      pop\n        /* \"#utility.yul\":5947:6066   */\n      pop\n        /* \"#utility.yul\":6133:6136   */\n      0xc0\n        /* \"#utility.yul\":6122:6131   */\n      dup9\n        /* \"#utility.yul\":6118:6137   */\n      add\n        /* \"#utility.yul\":6105:6138   */\n      calldataload\n        /* \"#utility.yul\":6165:6183   */\n      0xffffffffffffffff\n        /* \"#utility.yul\":6157:6163   */\n      dup2\n        /* \"#utility.yul\":6154:6184   */\n      gt\n        /* \"#utility.yul\":6151:6268   */\n      iszero\n      tag_275\n      jumpi\n        /* \"#utility.yul\":6187:6266   */\n      tag_276\n      tag_132\n      jump\t// in\n    tag_276:\n        /* \"#utility.yul\":6151:6268   */\n    tag_275:\n        /* \"#utility.yul\":6292:6355   */\n      tag_277\n        /* \"#utility.yul\":6347:6354   */\n      dup11\n        /* \"#utility.yul\":6338:6344   */\n      dup3\n        /* \"#utility.yul\":6327:6336   */\n      dup12\n        /* \"#utility.yul\":6323:6345   */\n      add\n        /* \"#utility.yul\":6292:6355   */\n      tag_152\n      jump\t// in\n    tag_277:\n        /* \"#utility.yul\":6282:6355   */\n      swap2\n      pop\n        /* \"#utility.yul\":6076:6365   */\n      pop\n        /* \"#utility.yul\":4989:6372   */\n      swap3\n      swap6\n      swap9\n      swap2\n      swap5\n      swap8\n      pop\n      swap3\n      swap6\n      pop\n      jump\t// out\n        /* \"#utility.yul\":6378:6558   */\n    tag_153:\n        /* \"#utility.yul\":6426:6503   */\n      0x4e487b7100000000000000000000000000000000000000000000000000000000\n        /* \"#utility.yul\":6423:6424   */\n      0x00\n        /* \"#utility.yul\":6416:6504   */\n      mstore\n        /* \"#utility.yul\":6523:6527   */\n      0x22\n        /* \"#utility.yul\":6520:6521   */\n      0x04\n        /* \"#utility.yul\":6513:6528   */\n      mstore\n        /* \"#utility.yul\":6547:6551   */\n      0x24\n        /* \"#utility.yul\":6544:6545   */\n      0x00\n        /* \"#utility.yul\":6537:6552   */\n      revert\n        /* \"#utility.yul\":6564:6884   */\n    tag_18:\n        /* \"#utility.yul\":6608:6614   */\n      0x00\n        /* \"#utility.yul\":6645:6646   */\n      0x02\n        /* \"#utility.yul\":6639:6643   */\n      dup3\n        /* \"#utility.yul\":6635:6647   */\n      div\n        /* \"#utility.yul\":6625:6647   */\n      swap1\n      pop\n        /* \"#utility.yul\":6692:6693   */\n      0x01\n        /* \"#utility.yul\":6686:6690   */\n      dup3\n        /* \"#utility.yul\":6682:6694   */\n      and\n        /* \"#utility.yul\":6713:6731   */\n      dup1\n        /* \"#utility.yul\":6703:6784   */\n      tag_280\n      jumpi\n        /* \"#utility.yul\":6769:6773   */\n      0x7f\n        /* \"#utility.yul\":6761:6767   */\n      dup3\n        /* \"#utility.yul\":6757:6774   */\n      and\n        /* \"#utility.yul\":6747:6774   */\n      swap2\n      pop\n        /* \"#utility.yul\":6703:6784   */\n    tag_280:\n        /* \"#utility.yul\":6831:6833   */\n      0x20\n        /* \"#utility.yul\":6823:6829   */\n      dup3\n        /* \"#utility.yul\":6820:6834   */\n      lt\n        /* \"#utility.yul\":6800:6818   */\n      dup2\n        /* \"#utility.yul\":6797:6835   */\n      sub\n        /* \"#utility.yul\":6794:6878   */\n      tag_281\n      jumpi\n        /* \"#utility.yul\":6850:6868   */\n      tag_282\n      tag_153\n      jump\t// in\n    tag_282:\n        /* \"#utility.yul\":6794:6878   */\n    tag_281:\n        /* \"#utility.yul\":6615:6884   */\n      pop\n        /* \"#utility.yul\":6564:6884   */\n      swap2\n      swap1\n      pop\n      jump\t// out\n        /* \"#utility.yul\":6890:7065   */\n    tag_154:\n        /* \"#utility.yul\":7030:7057   */\n      0x496e76616c6964206c697175696469747920616d6f756e747300000000000000\n        /* \"#utility.yul\":7026:7027   */\n      0x00\n        /* \"#utility.yul\":7018:7024   */\n      dup3\n        /* \"#utility.yul\":7014:7028   */\n      add\n        /* \"#utility.yul\":7007:7058   */\n      mstore\n        /* \"#utility.yul\":6890:7065   */\n      pop\n      jump\t// out\n        /* \"#utility.yul\":7071:7437   */\n    tag_155:\n        /* \"#utility.yul\":7213:7216   */\n      0x00\n        /* \"#utility.yul\":7234:7301   */\n      tag_285\n        /* \"#utility.yul\":7298:7300   */\n      0x19\n        /* \"#utility.yul\":7293:7296   */\n      dup4\n        /* \"#utility.yul\":7234:7301   */\n      tag_137\n      jump\t// in\n    tag_285:\n        /* \"#utility.yul\":7227:7301   */\n      swap2\n      pop\n        /* \"#utility.yul\":7310:7403   */\n      tag_286\n        /* \"#utility.yul\":7399:7402   */\n      dup3\n        /* \"#utility.yul\":7310:7403   */\n      tag_154\n      jump\t// in\n    tag_286:\n        /* \"#utility.yul\":7428:7430   */\n      0x20\n        /* \"#utility.yul\":7423:7426   */\n      dup3\n        /* \"#utility.yul\":7419:7431   */\n      add\n        /* \"#utility.yul\":7412:7431   */\n      swap1\n      pop\n        /* \"#utility.yul\":7071:7437   */\n      swap2\n      swap1\n      pop\n      jump\t// out\n        /* \"#utility.yul\":7443:7862   */\n    tag_27:\n        /* \"#utility.yul\":7609:7613   */\n      0x00\n        /* \"#utility.yul\":7647:7649   */\n      0x20\n        /* \"#utility.yul\":7636:7645   */\n      dup3\n        /* \"#utility.yul\":7632:7650   */\n      add\n        /* \"#utility.yul\":7624:7650   */\n      swap1\n      pop\n        /* \"#utility.yul\":7696:7705   */\n      dup2\n        /* \"#utility.yul\":7690:7694   */\n      dup2\n        /* \"#utility.yul\":7686:7706   */\n      sub\n        /* \"#utility.yul\":7682:7683   */\n      0x00\n        /* \"#utility.yul\":7671:7680   */\n      dup4\n        /* \"#utility.yul\":7667:7684   */\n      add\n        /* \"#utility.yul\":7660:7707   */\n      mstore\n        /* \"#utility.yul\":7724:7855   */\n      tag_288\n        /* \"#utility.yul\":7850:7854   */\n      dup2\n        /* \"#utility.yul\":7724:7855   */\n      tag_155\n      jump\t// in\n    tag_288:\n        /* \"#utility.yul\":7716:7855   */\n      swap1\n      pop\n        /* \"#utility.yul\":7443:7862   */\n      swap2\n      swap1\n      pop\n      jump\t// out\n        /* \"#utility.yul\":7868:8037   */\n    tag_156:\n        /* \"#utility.yul\":8008:8029   */\n      0x496e76616c6964207377617020616d6f756e7400000000000000000000000000\n        /* \"#utility.yul\":8004:8005   */\n      0x00\n        /* \"#utility.yul\":7996:8002   */\n      dup3\n        /* \"#utility.yul\":7992:8006   */\n      add\n        /* \"#utility.yul\":7985:8030   */\n      mstore\n        /* \"#utility.yul\":7868:8037   */\n      pop\n      jump\t// out\n        /* \"#utility.yul\":8043:8409   */\n    tag_157:\n        /* \"#utility.yul\":8185:8188   */\n      0x00\n        /* \"#utility.yul\":8206:8273   */\n      tag_291\n        /* \"#utility.yul\":8270:8272   */\n      0x13\n        /* \"#utility.yul\":8265:8268   */\n      dup4\n        /* \"#utility.yul\":8206:8273   */\n      tag_137\n      jump\t// in\n    tag_291:\n        /* \"#utility.yul\":8199:8273   */\n      swap2\n      pop\n        /* \"#utility.yul\":8282:8375   */\n      tag_292\n        /* \"#utility.yul\":8371:8374   */\n      dup3\n        /* \"#utility.yul\":8282:8375   */\n      tag_156\n      jump\t// in\n    tag_292:\n        /* \"#utility.yul\":8400:8402   */\n      0x20\n        /* \"#utility.yul\":8395:8398   */\n      dup3\n        /* \"#utility.yul\":8391:8403   */\n      add\n        /* \"#utility.yul\":8384:8403   */\n      swap1\n      pop\n        /* \"#utility.yul\":8043:8409   */\n      swap2\n      swap1\n      pop\n      jump\t// out\n        /* \"#utility.yul\":8415:8834   */\n    tag_31:\n        /* \"#utility.yul\":8581:8585   */\n      0x00\n        /* \"#utility.yul\":8619:8621   */\n      0x20\n        /* \"#utility.yul\":8608:8617   */\n      dup3\n        /* \"#utility.yul\":8604:8622   */\n      add\n        /* \"#utility.yul\":8596:8622   */\n      swap1\n      pop\n        /* \"#utility.yul\":8668:8677   */\n      dup2\n        /* \"#utility.yul\":8662:8666   */\n      dup2\n        /* \"#utility.yul\":8658:8678   */\n      sub\n        /* \"#utility.yul\":8654:8655   */\n      0x00\n        /* \"#utility.yul\":8643:8652   */\n      dup4\n        /* \"#utility.yul\":8639:8656   */\n      add\n        /* \"#utility.yul\":8632:8679   */\n      mstore\n        /* \"#utility.yul\":8696:8827   */\n      tag_294\n        /* \"#utility.yul\":8822:8826   */\n      dup2\n        /* \"#utility.yul\":8696:8827   */\n      tag_157\n      jump\t// in\n    tag_294:\n        /* \"#utility.yul\":8688:8827   */\n      swap1\n      pop\n        /* \"#utility.yul\":8415:8834   */\n      swap2\n      swap1\n      pop\n      jump\t// out\n        /* \"#utility.yul\":8840:8958   */\n    tag_158:\n        /* \"#utility.yul\":8927:8951   */\n      tag_296\n        /* \"#utility.yul\":8945:8950   */\n      dup2\n        /* \"#utility.yul\":8927:8951   */\n      tag_142\n      jump\t// in\n    tag_296:\n        /* \"#utility.yul\":8922:8925   */\n      dup3\n        /* \"#utility.yul\":8915:8952   */\n      mstore\n        /* \"#utility.yul\":8840:8958   */\n      pop\n      pop\n      jump\t// out\n        /* \"#utility.yul\":8964:9186   */\n    tag_33:\n        /* \"#utility.yul\":9057:9061   */\n      0x00\n        /* \"#utility.yul\":9095:9097   */\n      0x20\n        /* \"#utility.yul\":9084:9093   */\n      dup3\n        /* \"#utility.yul\":9080:9098   */\n      add\n        /* \"#utility.yul\":9072:9098   */\n      swap1\n      pop\n        /* \"#utility.yul\":9108:9179   */\n      tag_298\n        /* \"#utility.yul\":9176:9177   */\n      0x00\n        /* \"#utility.yul\":9165:9174   */\n      dup4\n        /* \"#utility.yul\":9161:9178   */\n      add\n        /* \"#utility.yul\":9152:9158   */\n      dup5\n        /* \"#utility.yul\":9108:9179   */\n      tag_158\n      jump\t// in\n    tag_298:\n        /* \"#utility.yul\":8964:9186   */\n      swap3\n      swap2\n      pop\n      pop\n      jump\t// out\n        /* \"#utility.yul\":9192:9335   */\n    tag_159:\n        /* \"#utility.yul\":9249:9254   */\n      0x00\n        /* \"#utility.yul\":9280:9286   */\n      dup2\n        /* \"#utility.yul\":9274:9287   */\n      mload\n        /* \"#utility.yul\":9265:9287   */\n      swap1\n      pop\n        /* \"#utility.yul\":9296:9329   */\n      tag_300\n        /* \"#utility.yul\":9323:9328   */\n      dup2\n        /* \"#utility.yul\":9296:9329   */\n      tag_134\n      jump\t// in\n    tag_300:\n        /* \"#utility.yul\":9192:9335   */\n      swap3\n      swap2\n      pop\n      pop\n      jump\t// out\n        /* \"#utility.yul\":9341:9692   */\n    tag_37:\n        /* \"#utility.yul\":9411:9417   */\n      0x00\n        /* \"#utility.yul\":9460:9462   */\n      0x20\n        /* \"#utility.yul\":9448:9457   */\n      dup3\n        /* \"#utility.yul\":9439:9446   */\n      dup5\n        /* \"#utility.yul\":9435:9458   */\n      sub\n        /* \"#utility.yul\":9431:9463   */\n      slt\n        /* \"#utility.yul\":9428:9547   */\n      iszero\n      tag_302\n      jumpi\n        /* \"#utility.yul\":9466:9545   */\n      tag_303\n      tag_131\n      jump\t// in\n    tag_303:\n        /* \"#utility.yul\":9428:9547   */\n    tag_302:\n        /* \"#utility.yul\":9586:9587   */\n      0x00\n        /* \"#utility.yul\":9611:9675   */\n      tag_304\n        /* \"#utility.yul\":9667:9674   */\n      dup5\n        /* \"#utility.yul\":9658:9664   */\n      dup3\n        /* \"#utility.yul\":9647:9656   */\n      dup6\n        /* \"#utility.yul\":9643:9665   */\n      add\n        /* \"#utility.yul\":9611:9675   */\n      tag_159\n      jump\t// in\n    tag_304:\n        /* \"#utility.yul\":9601:9675   */\n      swap2\n      pop\n        /* \"#utility.yul\":9557:9685   */\n      pop\n        /* \"#utility.yul\":9341:9692   */\n      swap3\n      swap2\n      pop\n      pop\n      jump\t// out\n        /* \"#utility.yul\":9698:9929   */\n    tag_160:\n        /* \"#utility.yul\":9838:9872   */\n      0x496e73756666696369656e7420746f6b656e204120737570706c7920666f7220\n        /* \"#utility.yul\":9834:9835   */\n      0x00\n        /* \"#utility.yul\":9826:9832   */\n      dup3\n        /* \"#utility.yul\":9822:9836   */\n      add\n        /* \"#utility.yul\":9815:9873   */\n      mstore\n        /* \"#utility.yul\":9907:9921   */\n      0x7468697320636f6e746163740000000000000000000000000000000000000000\n        /* \"#utility.yul\":9902:9904   */\n      0x20\n        /* \"#utility.yul\":9894:9900   */\n      dup3\n        /* \"#utility.yul\":9890:9905   */\n      add\n        /* \"#utility.yul\":9883:9922   */\n      mstore\n        /* \"#utility.yul\":9698:9929   */\n      pop\n      jump\t// out\n        /* \"#utility.yul\":9935:10301   */\n    tag_161:\n        /* \"#utility.yul\":10077:10080   */\n      0x00\n        /* \"#utility.yul\":10098:10165   */\n      tag_307\n        /* \"#utility.yul\":10162:10164   */\n      0x2c\n        /* \"#utility.yul\":10157:10160   */\n      dup4\n        /* \"#utility.yul\":10098:10165   */\n      tag_137\n      jump\t// in\n    tag_307:\n        /* \"#utility.yul\":10091:10165   */\n      swap2\n      pop\n        /* \"#utility.yul\":10174:10267   */\n      tag_308\n        /* \"#utility.yul\":10263:10266   */\n      dup3\n        /* \"#utility.yul\":10174:10267   */\n      tag_160\n      jump\t// in\n    tag_308:\n        /* \"#utility.yul\":10292:10294   */\n      0x40\n        /* \"#utility.yul\":10287:10290   */\n      dup3\n        /* \"#utility.yul\":10283:10295   */\n      add\n        /* \"#utility.yul\":10276:10295   */\n      swap1\n      pop\n        /* \"#utility.yul\":9935:10301   */\n      swap2\n      swap1\n      pop\n      jump\t// out\n        /* \"#utility.yul\":10307:10726   */\n    tag_40:\n        /* \"#utility.yul\":10473:10477   */\n      0x00\n        /* \"#utility.yul\":10511:10513   */\n      0x20\n        /* \"#utility.yul\":10500:10509   */\n      dup3\n        /* \"#utility.yul\":10496:10514   */\n      add\n        /* \"#utility.yul\":10488:10514   */\n      swap1\n      pop\n        /* \"#utility.yul\":10560:10569   */\n      dup2\n        /* \"#utility.yul\":10554:10558   */\n      dup2\n        /* \"#utility.yul\":10550:10570   */\n      sub\n        /* \"#utility.yul\":10546:10547   */\n      0x00\n        /* \"#utility.yul\":10535:10544   */\n      dup4\n        /* \"#utility.yul\":10531:10548   */\n      add\n        /* \"#utility.yul\":10524:10571   */\n      mstore\n        /* \"#utility.yul\":10588:10719   */\n      tag_310\n        /* \"#utility.yul\":10714:10718   */\n      dup2\n        /* \"#utility.yul\":10588:10719   */\n      tag_161\n      jump\t// in\n    tag_310:\n        /* \"#utility.yul\":10580:10719   */\n      swap1\n      pop\n        /* \"#utility.yul\":10307:10726   */\n      swap2\n      swap1\n      pop\n      jump\t// out\n        /* \"#utility.yul\":10732:10963   */\n    tag_162:\n        /* \"#utility.yul\":10872:10906   */\n      0x496e73756666696369656e7420746f6b656e204220737570706c7920666f7220\n        /* \"#utility.yul\":10868:10869   */\n      0x00\n        /* \"#utility.yul\":10860:10866   */\n      dup3\n        /* \"#utility.yul\":10856:10870   */\n      add\n        /* \"#utility.yul\":10849:10907   */\n      mstore\n        /* \"#utility.yul\":10941:10955   */\n      0x7468697320636f6e746163740000000000000000000000000000000000000000\n        /* \"#utility.yul\":10936:10938   */\n      0x20\n        /* \"#utility.yul\":10928:10934   */\n      dup3\n        /* \"#utility.yul\":10924:10939   */\n      add\n        /* \"#utility.yul\":10917:10956   */\n      mstore\n        /* \"#utility.yul\":10732:10963   */\n      pop\n      jump\t// out\n        /* \"#utility.yul\":10969:11335   */\n    tag_163:\n        /* \"#utility.yul\":11111:11114   */\n      0x00\n        /* \"#utility.yul\":11132:11199   */\n      tag_313\n        /* \"#utility.yul\":11196:11198   */\n      0x2c\n        /* \"#utility.yul\":11191:11194   */\n      dup4\n        /* \"#utility.yul\":11132:11199   */\n      tag_137\n      jump\t// in\n    tag_313:\n        /* \"#utility.yul\":11125:11199   */\n      swap2\n      pop\n        /* \"#utility.yul\":11208:11301   */\n      tag_314\n        /* \"#utility.yul\":11297:11300   */\n      dup3\n        /* \"#utility.yul\":11208:11301   */\n      tag_162\n      jump\t// in\n    tag_314:\n        /* \"#utility.yul\":11326:11328   */\n      0x40\n        /* \"#utility.yul\":11321:11324   */\n      dup3\n        /* \"#utility.yul\":11317:11329   */\n      add\n        /* \"#utility.yul\":11310:11329   */\n      swap1\n      pop\n        /* \"#utility.yul\":10969:11335   */\n      swap2\n      swap1\n      pop\n      jump\t// out\n        /* \"#utility.yul\":11341:11760   */\n    tag_47:\n        /* \"#utility.yul\":11507:11511   */\n      0x00\n        /* \"#utility.yul\":11545:11547   */\n      0x20\n        /* \"#utility.yul\":11534:11543   */\n      dup3\n        /* \"#utility.yul\":11530:11548   */\n      add\n        /* \"#utility.yul\":11522:11548   */\n      swap1\n      pop\n        /* \"#utility.yul\":11594:11603   */\n      dup2\n        /* \"#utility.yul\":11588:11592   */\n      dup2\n        /* \"#utility.yul\":11584:11604   */\n      sub\n        /* \"#utility.yul\":11580:11581   */\n      0x00\n        /* \"#utility.yul\":11569:11578   */\n      dup4\n        /* \"#utility.yul\":11565:11582   */\n      add\n        /* \"#utility.yul\":11558:11605   */\n      mstore\n        /* \"#utility.yul\":11622:11753   */\n      tag_316\n        /* \"#utility.yul\":11748:11752   */\n      dup2\n        /* \"#utility.yul\":11622:11753   */\n      tag_163\n      jump\t// in\n    tag_316:\n        /* \"#utility.yul\":11614:11753   */\n      swap1\n      pop\n        /* \"#utility.yul\":11341:11760   */\n      swap2\n      swap1\n      pop\n      jump\t// out\n        /* \"#utility.yul\":11766:11884   */\n    tag_164:\n        /* \"#utility.yul\":11853:11877   */\n      tag_318\n        /* \"#utility.yul\":11871:11876   */\n      dup2\n        /* \"#utility.yul\":11853:11877   */\n      tag_133\n      jump\t// in\n    tag_318:\n        /* \"#utility.yul\":11848:11851   */\n      dup3\n        /* \"#utility.yul\":11841:11878   */\n      mstore\n        /* \"#utility.yul\":11766:11884   */\n      pop\n      pop\n      jump\t// out\n        /* \"#utility.yul\":11890:12222   */\n    tag_49:\n        /* \"#utility.yul\":12011:12015   */\n      0x00\n        /* \"#utility.yul\":12049:12051   */\n      0x40\n        /* \"#utility.yul\":12038:12047   */\n      dup3\n        /* \"#utility.yul\":12034:12052   */\n      add\n        /* \"#utility.yul\":12026:12052   */\n      swap1\n      pop\n        /* \"#utility.yul\":12062:12133   */\n      tag_320\n        /* \"#utility.yul\":12130:12131   */\n      0x00\n        /* \"#utility.yul\":12119:12128   */\n      dup4\n        /* \"#utility.yul\":12115:12132   */\n      add\n        /* \"#utility.yul\":12106:12112   */\n      dup6\n        /* \"#utility.yul\":12062:12133   */\n      tag_158\n      jump\t// in\n    tag_320:\n        /* \"#utility.yul\":12143:12215   */\n      tag_321\n        /* \"#utility.yul\":12211:12213   */\n      0x20\n        /* \"#utility.yul\":12200:12209   */\n      dup4\n        /* \"#utility.yul\":12196:12214   */\n      add\n        /* \"#utility.yul\":12187:12193   */\n      dup5\n        /* \"#utility.yul\":12143:12215   */\n      tag_164\n      jump\t// in\n    tag_321:\n        /* \"#utility.yul\":11890:12222   */\n      swap4\n      swap3\n      pop\n      pop\n      pop\n      jump\t// out\n        /* \"#utility.yul\":12228:12318   */\n    tag_165:\n        /* \"#utility.yul\":12262:12269   */\n      0x00\n        /* \"#utility.yul\":12305:12310   */\n      dup2\n        /* \"#utility.yul\":12298:12311   */\n      iszero\n        /* \"#utility.yul\":12291:12312   */\n      iszero\n        /* \"#utility.yul\":12280:12312   */\n      swap1\n      pop\n        /* \"#utility.yul\":12228:12318   */\n      swap2\n      swap1\n      pop\n      jump\t// out\n        /* \"#utility.yul\":12324:12440   */\n    tag_166:\n        /* \"#utility.yul\":12394:12415   */\n      tag_324\n        /* \"#utility.yul\":12409:12414   */\n      dup2\n        /* \"#utility.yul\":12394:12415   */\n      tag_165\n      jump\t// in\n    tag_324:\n        /* \"#utility.yul\":12387:12392   */\n      dup2\n        /* \"#utility.yul\":12384:12416   */\n      eq\n        /* \"#utility.yul\":12374:12434   */\n      tag_325\n      jumpi\n        /* \"#utility.yul\":12430:12431   */\n      0x00\n        /* \"#utility.yul\":12427:12428   */\n      dup1\n        /* \"#utility.yul\":12420:12432   */\n      revert\n        /* \"#utility.yul\":12374:12434   */\n    tag_325:\n        /* \"#utility.yul\":12324:12440   */\n      pop\n      jump\t// out\n        /* \"#utility.yul\":12446:12583   */\n    tag_167:\n        /* \"#utility.yul\":12500:12505   */\n      0x00\n        /* \"#utility.yul\":12531:12537   */\n      dup2\n        /* \"#utility.yul\":12525:12538   */\n      mload\n        /* \"#utility.yul\":12516:12538   */\n      swap1\n      pop\n        /* \"#utility.yul\":12547:12577   */\n      tag_327\n        /* \"#utility.yul\":12571:12576   */\n      dup2\n        /* \"#utility.yul\":12547:12577   */\n      tag_166\n      jump\t// in\n    tag_327:\n        /* \"#utility.yul\":12446:12583   */\n      swap3\n      swap2\n      pop\n      pop\n      jump\t// out\n        /* \"#utility.yul\":12589:12934   */\n    tag_53:\n        /* \"#utility.yul\":12656:12662   */\n      0x00\n        /* \"#utility.yul\":12705:12707   */\n      0x20\n        /* \"#utility.yul\":12693:12702   */\n      dup3\n        /* \"#utility.yul\":12684:12691   */\n      dup5\n        /* \"#utility.yul\":12680:12703   */\n      sub\n        /* \"#utility.yul\":12676:12708   */\n      slt\n        /* \"#utility.yul\":12673:12792   */\n      iszero\n      tag_329\n      jumpi\n        /* \"#utility.yul\":12711:12790   */\n      tag_330\n      tag_131\n      jump\t// in\n    tag_330:\n        /* \"#utility.yul\":12673:12792   */\n    tag_329:\n        /* \"#utility.yul\":12831:12832   */\n      0x00\n        /* \"#utility.yul\":12856:12917   */\n      tag_331\n        /* \"#utility.yul\":12909:12916   */\n      dup5\n        /* \"#utility.yul\":12900:12906   */\n      dup3\n        /* \"#utility.yul\":12889:12898   */\n      dup6\n        /* \"#utility.yul\":12885:12907   */\n      add\n        /* \"#utility.yul\":12856:12917   */\n      tag_167\n      jump\t// in\n    tag_331:\n        /* \"#utility.yul\":12846:12917   */\n      swap2\n      pop\n        /* \"#utility.yul\":12802:12927   */\n      pop\n        /* \"#utility.yul\":12589:12934   */\n      swap3\n      swap2\n      pop\n      pop\n      jump\t// out\n        /* \"#utility.yul\":12940:13120   */\n    tag_168:\n        /* \"#utility.yul\":12988:13065   */\n      0x4e487b7100000000000000000000000000000000000000000000000000000000\n        /* \"#utility.yul\":12985:12986   */\n      0x00\n        /* \"#utility.yul\":12978:13066   */\n      mstore\n        /* \"#utility.yul\":13085:13089   */\n      0x11\n        /* \"#utility.yul\":13082:13083   */\n      0x04\n        /* \"#utility.yul\":13075:13090   */\n      mstore\n        /* \"#utility.yul\":13109:13113   */\n      0x24\n        /* \"#utility.yul\":13106:13107   */\n      0x00\n        /* \"#utility.yul\":13099:13114   */\n      revert\n        /* \"#utility.yul\":13126:13317   */\n    tag_59:\n        /* \"#utility.yul\":13166:13169   */\n      0x00\n        /* \"#utility.yul\":13185:13205   */\n      tag_334\n        /* \"#utility.yul\":13203:13204   */\n      dup3\n        /* \"#utility.yul\":13185:13205   */\n      tag_133\n      jump\t// in\n    tag_334:\n        /* \"#utility.yul\":13180:13205   */\n      swap2\n      pop\n        /* \"#utility.yul\":13219:13239   */\n      tag_335\n        /* \"#utility.yul\":13237:13238   */\n      dup4\n        /* \"#utility.yul\":13219:13239   */\n      tag_133\n      jump\t// in\n    tag_335:\n        /* \"#utility.yul\":13214:13239   */\n      swap3\n      pop\n        /* \"#utility.yul\":13262:13263   */\n      dup3\n        /* \"#utility.yul\":13259:13260   */\n      dup3\n        /* \"#utility.yul\":13255:13264   */\n      add\n        /* \"#utility.yul\":13248:13264   */\n      swap1\n      pop\n        /* \"#utility.yul\":13283:13286   */\n      dup1\n        /* \"#utility.yul\":13280:13281   */\n      dup3\n        /* \"#utility.yul\":13277:13287   */\n      gt\n        /* \"#utility.yul\":13274:13310   */\n      iszero\n      tag_336\n      jumpi\n        /* \"#utility.yul\":13290:13308   */\n      tag_337\n      tag_168\n      jump\t// in\n    tag_337:\n        /* \"#utility.yul\":13274:13310   */\n    tag_336:\n        /* \"#utility.yul\":13126:13317   */\n      swap3\n      swap2\n      pop\n      pop\n      jump\t// out\n        /* \"#utility.yul\":13323:14320   */\n    tag_61:\n        /* \"#utility.yul\":13612:13616   */\n      0x00\n        /* \"#utility.yul\":13650:13653   */\n      0x0100\n        /* \"#utility.yul\":13639:13648   */\n      dup3\n        /* \"#utility.yul\":13635:13654   */\n      add\n        /* \"#utility.yul\":13627:13654   */\n      swap1\n      pop\n        /* \"#utility.yul\":13664:13735   */\n      tag_339\n        /* \"#utility.yul\":13732:13733   */\n      0x00\n        /* \"#utility.yul\":13721:13730   */\n      dup4\n        /* \"#utility.yul\":13717:13734   */\n      add\n        /* \"#utility.yul\":13708:13714   */\n      dup12\n        /* \"#utility.yul\":13664:13735   */\n      tag_158\n      jump\t// in\n    tag_339:\n        /* \"#utility.yul\":13745:13817   */\n      tag_340\n        /* \"#utility.yul\":13813:13815   */\n      0x20\n        /* \"#utility.yul\":13802:13811   */\n      dup4\n        /* \"#utility.yul\":13798:13816   */\n      add\n        /* \"#utility.yul\":13789:13795   */\n      dup11\n        /* \"#utility.yul\":13745:13817   */\n      tag_158\n      jump\t// in\n    tag_340:\n        /* \"#utility.yul\":13827:13899   */\n      tag_341\n        /* \"#utility.yul\":13895:13897   */\n      0x40\n        /* \"#utility.yul\":13884:13893   */\n      dup4\n        /* \"#utility.yul\":13880:13898   */\n      add\n        /* \"#utility.yul\":13871:13877   */\n      dup10\n        /* \"#utility.yul\":13827:13899   */\n      tag_164\n      jump\t// in\n    tag_341:\n        /* \"#utility.yul\":13909:13981   */\n      tag_342\n        /* \"#utility.yul\":13977:13979   */\n      0x60\n        /* \"#utility.yul\":13966:13975   */\n      dup4\n        /* \"#utility.yul\":13962:13980   */\n      add\n        /* \"#utility.yul\":13953:13959   */\n      dup9\n        /* \"#utility.yul\":13909:13981   */\n      tag_164\n      jump\t// in\n    tag_342:\n        /* \"#utility.yul\":13991:14064   */\n      tag_343\n        /* \"#utility.yul\":14059:14062   */\n      0x80\n        /* \"#utility.yul\":14048:14057   */\n      dup4\n        /* \"#utility.yul\":14044:14063   */\n      add\n        /* \"#utility.yul\":14035:14041   */\n      dup8\n        /* \"#utility.yul\":13991:14064   */\n      tag_164\n      jump\t// in\n    tag_343:\n        /* \"#utility.yul\":14074:14147   */\n      tag_344\n        /* \"#utility.yul\":14142:14145   */\n      0xa0\n        /* \"#utility.yul\":14131:14140   */\n      dup4\n        /* \"#utility.yul\":14127:14146   */\n      add\n        /* \"#utility.yul\":14118:14124   */\n      dup7\n        /* \"#utility.yul\":14074:14147   */\n      tag_164\n      jump\t// in\n    tag_344:\n        /* \"#utility.yul\":14157:14230   */\n      tag_345\n        /* \"#utility.yul\":14225:14228   */\n      0xc0\n        /* \"#utility.yul\":14214:14223   */\n      dup4\n        /* \"#utility.yul\":14210:14229   */\n      add\n        /* \"#utility.yul\":14201:14207   */\n      dup6\n        /* \"#utility.yul\":14157:14230   */\n      tag_158\n      jump\t// in\n    tag_345:\n        /* \"#utility.yul\":14240:14313   */\n      tag_346\n        /* \"#utility.yul\":14308:14311   */\n      0xe0\n        /* \"#utility.yul\":14297:14306   */\n      dup4\n        /* \"#utility.yul\":14293:14312   */\n      add\n        /* \"#utility.yul\":14284:14290   */\n      dup5\n        /* \"#utility.yul\":14240:14313   */\n      tag_164\n      jump\t// in\n    tag_346:\n        /* \"#utility.yul\":13323:14320   */\n      swap10\n      swap9\n      pop\n      pop\n      pop\n      pop\n      pop\n      pop\n      pop\n      pop\n      pop\n      jump\t// out\n        /* \"#utility.yul\":14326:14989   */\n    tag_65:\n        /* \"#utility.yul\":14414:14420   */\n      0x00\n        /* \"#utility.yul\":14422:14428   */\n      dup1\n        /* \"#utility.yul\":14430:14436   */\n      0x00\n        /* \"#utility.yul\":14479:14481   */\n      0x60\n        /* \"#utility.yul\":14467:14476   */\n      dup5\n        /* \"#utility.yul\":14458:14465   */\n      dup7\n        /* \"#utility.yul\":14454:14477   */\n      sub\n        /* \"#utility.yul\":14450:14482   */\n      slt\n        /* \"#utility.yul\":14447:14566   */\n      iszero\n      tag_348\n      jumpi\n        /* \"#utility.yul\":14485:14564   */\n      tag_349\n      tag_131\n      jump\t// in\n    tag_349:\n        /* \"#utility.yul\":14447:14566   */\n    tag_348:\n        /* \"#utility.yul\":14605:14606   */\n      0x00\n        /* \"#utility.yul\":14630:14694   */\n      tag_350\n        /* \"#utility.yul\":14686:14693   */\n      dup7\n        /* \"#utility.yul\":14677:14683   */\n      dup3\n        /* \"#utility.yul\":14666:14675   */\n      dup8\n        /* \"#utility.yul\":14662:14684   */\n      add\n        /* \"#utility.yul\":14630:14694   */\n      tag_159\n      jump\t// in\n    tag_350:\n        /* \"#utility.yul\":14620:14694   */\n      swap4\n      pop\n        /* \"#utility.yul\":14576:14704   */\n      pop\n        /* \"#utility.yul\":14743:14745   */\n      0x20\n        /* \"#utility.yul\":14769:14833   */\n      tag_351\n        /* \"#utility.yul\":14825:14832   */\n      dup7\n        /* \"#utility.yul\":14816:14822   */\n      dup3\n        /* \"#utility.yul\":14805:14814   */\n      dup8\n        /* \"#utility.yul\":14801:14823   */\n      add\n        /* \"#utility.yul\":14769:14833   */\n      tag_159\n      jump\t// in\n    tag_351:\n        /* \"#utility.yul\":14759:14833   */\n      swap3\n      pop\n        /* \"#utility.yul\":14714:14843   */\n      pop\n        /* \"#utility.yul\":14882:14884   */\n      0x40\n        /* \"#utility.yul\":14908:14972   */\n      tag_352\n        /* \"#utility.yul\":14964:14971   */\n      dup7\n        /* \"#utility.yul\":14955:14961   */\n      dup3\n        /* \"#utility.yul\":14944:14953   */\n      dup8\n        /* \"#utility.yul\":14940:14962   */\n      add\n        /* \"#utility.yul\":14908:14972   */\n      tag_159\n      jump\t// in\n    tag_352:\n        /* \"#utility.yul\":14898:14972   */\n      swap2\n      pop\n        /* \"#utility.yul\":14853:14982   */\n      pop\n        /* \"#utility.yul\":14326:14989   */\n      swap3\n      pop\n      swap3\n      pop\n      swap3\n      jump\t// out\n        /* \"#utility.yul\":14995:15174   */\n    tag_169:\n        /* \"#utility.yul\":15135:15166   */\n      0x6164644c697175696469747920616d6f756e7473206d69736d61746368000000\n        /* \"#utility.yul\":15131:15132   */\n      0x00\n        /* \"#utility.yul\":15123:15129   */\n      dup3\n        /* \"#utility.yul\":15119:15133   */\n      add\n        /* \"#utility.yul\":15112:15167   */\n      mstore\n        /* \"#utility.yul\":14995:15174   */\n      pop\n      jump\t// out\n        /* \"#utility.yul\":15180:15546   */\n    tag_170:\n        /* \"#utility.yul\":15322:15325   */\n      0x00\n        /* \"#utility.yul\":15343:15410   */\n      tag_355\n        /* \"#utility.yul\":15407:15409   */\n      0x1d\n        /* \"#utility.yul\":15402:15405   */\n      dup4\n        /* \"#utility.yul\":15343:15410   */\n      tag_137\n      jump\t// in\n    tag_355:\n        /* \"#utility.yul\":15336:15410   */\n      swap2\n      pop\n        /* \"#utility.yul\":15419:15512   */\n      tag_356\n        /* \"#utility.yul\":15508:15511   */\n      dup3\n        /* \"#utility.yul\":15419:15512   */\n      tag_169\n      jump\t// in\n    tag_356:\n        /* \"#utility.yul\":15537:15539   */\n      0x20\n        /* \"#utility.yul\":15532:15535   */\n      dup3\n        /* \"#utility.yul\":15528:15540   */\n      add\n        /* \"#utility.yul\":15521:15540   */\n      swap1\n      pop\n        /* \"#utility.yul\":15180:15546   */\n      swap2\n      swap1\n      pop\n      jump\t// out\n        /* \"#utility.yul\":15552:15971   */\n    tag_69:\n        /* \"#utility.yul\":15718:15722   */\n      0x00\n        /* \"#utility.yul\":15756:15758   */\n      0x20\n        /* \"#utility.yul\":15745:15754   */\n      dup3\n        /* \"#utility.yul\":15741:15759   */\n      add\n        /* \"#utility.yul\":15733:15759   */\n      swap1\n      pop\n        /* \"#utility.yul\":15805:15814   */\n      dup2\n        /* \"#utility.yul\":15799:15803   */\n      dup2\n        /* \"#utility.yul\":15795:15815   */\n      sub\n        /* \"#utility.yul\":15791:15792   */\n      0x00\n        /* \"#utility.yul\":15780:15789   */\n      dup4\n        /* \"#utility.yul\":15776:15793   */\n      add\n        /* \"#utility.yul\":15769:15816   */\n      mstore\n        /* \"#utility.yul\":15833:15964   */\n      tag_358\n        /* \"#utility.yul\":15959:15963   */\n      dup2\n        /* \"#utility.yul\":15833:15964   */\n      tag_170\n      jump\t// in\n    tag_358:\n        /* \"#utility.yul\":15825:15964   */\n      swap1\n      pop\n        /* \"#utility.yul\":15552:15971   */\n      swap2\n      swap1\n      pop\n      jump\t// out\n        /* \"#utility.yul\":15977:16200   */\n    tag_171:\n        /* \"#utility.yul\":16117:16151   */\n      0x6164644c69717569646974792072657475726e6564207a65726f206c69717569\n        /* \"#utility.yul\":16113:16114   */\n      0x00\n        /* \"#utility.yul\":16105:16111   */\n      dup3\n        /* \"#utility.yul\":16101:16115   */\n      add\n        /* \"#utility.yul\":16094:16152   */\n      mstore\n        /* \"#utility.yul\":16186:16192   */\n      0x6469747900000000000000000000000000000000000000000000000000000000\n        /* \"#utility.yul\":16181:16183   */\n      0x20\n        /* \"#utility.yul\":16173:16179   */\n      dup3\n        /* \"#utility.yul\":16169:16184   */\n      add\n        /* \"#utility.yul\":16162:16193   */\n      mstore\n        /* \"#utility.yul\":15977:16200   */\n      pop\n      jump\t// out\n        /* \"#utility.yul\":16206:16572   */\n    tag_172:\n        /* \"#utility.yul\":16348:16351   */\n      0x00\n        /* \"#utility.yul\":16369:16436   */\n      tag_361\n        /* \"#utility.yul\":16433:16435   */\n      0x24\n        /* \"#utility.yul\":16428:16431   */\n      dup4\n        /* \"#utility.yul\":16369:16436   */\n      tag_137\n      jump\t// in\n    tag_361:\n        /* \"#utility.yul\":16362:16436   */\n      swap2\n      pop\n        /* \"#utility.yul\":16445:16538   */\n      tag_362\n        /* \"#utility.yul\":16534:16537   */\n      dup3\n        /* \"#utility.yul\":16445:16538   */\n      tag_171\n      jump\t// in\n    tag_362:\n        /* \"#utility.yul\":16563:16565   */\n      0x40\n        /* \"#utility.yul\":16558:16561   */\n      dup3\n        /* \"#utility.yul\":16554:16566   */\n      add\n        /* \"#utility.yul\":16547:16566   */\n      swap1\n      pop\n        /* \"#utility.yul\":16206:16572   */\n      swap2\n      swap1\n      pop\n      jump\t// out\n        /* \"#utility.yul\":16578:16997   */\n    tag_72:\n        /* \"#utility.yul\":16744:16748   */\n      0x00\n        /* \"#utility.yul\":16782:16784   */\n      0x20\n        /* \"#utility.yul\":16771:16780   */\n      dup3\n        /* \"#utility.yul\":16767:16785   */\n      add\n        /* \"#utility.yul\":16759:16785   */\n      swap1\n      pop\n        /* \"#utility.yul\":16831:16840   */\n      dup2\n        /* \"#utility.yul\":16825:16829   */\n      dup2\n        /* \"#utility.yul\":16821:16841   */\n      sub\n        /* \"#utility.yul\":16817:16818   */\n      0x00\n        /* \"#utility.yul\":16806:16815   */\n      dup4\n        /* \"#utility.yul\":16802:16819   */\n      add\n        /* \"#utility.yul\":16795:16842   */\n      mstore\n        /* \"#utility.yul\":16859:16990   */\n      tag_364\n        /* \"#utility.yul\":16985:16989   */\n      dup2\n        /* \"#utility.yul\":16859:16990   */\n      tag_172\n      jump\t// in\n    tag_364:\n        /* \"#utility.yul\":16851:16990   */\n      swap1\n      pop\n        /* \"#utility.yul\":16578:16997   */\n      swap2\n      swap1\n      pop\n      jump\t// out\n        /* \"#utility.yul\":17003:17335   */\n    tag_74:\n        /* \"#utility.yul\":17124:17128   */\n      0x00\n        /* \"#utility.yul\":17162:17164   */\n      0x40\n        /* \"#utility.yul\":17151:17160   */\n      dup3\n        /* \"#utility.yul\":17147:17165   */\n      add\n        /* \"#utility.yul\":17139:17165   */\n      swap1\n      pop\n        /* \"#utility.yul\":17175:17246   */\n      tag_366\n        /* \"#utility.yul\":17243:17244   */\n      0x00\n        /* \"#utility.yul\":17232:17241   */\n      dup4\n        /* \"#utility.yul\":17228:17245   */\n      add\n        /* \"#utility.yul\":17219:17225   */\n      dup6\n        /* \"#utility.yul\":17175:17246   */\n      tag_158\n      jump\t// in\n    tag_366:\n        /* \"#utility.yul\":17256:17328   */\n      tag_367\n        /* \"#utility.yul\":17324:17326   */\n      0x20\n        /* \"#utility.yul\":17313:17322   */\n      dup4\n        /* \"#utility.yul\":17309:17327   */\n      add\n        /* \"#utility.yul\":17300:17306   */\n      dup5\n        /* \"#utility.yul\":17256:17328   */\n      tag_158\n      jump\t// in\n    tag_367:\n        /* \"#utility.yul\":17003:17335   */\n      swap4\n      swap3\n      pop\n      pop\n      pop\n      jump\t// out\n        /* \"#utility.yul\":17341:17751   */\n    tag_79:\n        /* \"#utility.yul\":17381:17388   */\n      0x00\n        /* \"#utility.yul\":17404:17424   */\n      tag_369\n        /* \"#utility.yul\":17422:17423   */\n      dup3\n        /* \"#utility.yul\":17404:17424   */\n      tag_133\n      jump\t// in\n    tag_369:\n        /* \"#utility.yul\":17399:17424   */\n      swap2\n      pop\n        /* \"#utility.yul\":17438:17458   */\n      tag_370\n        /* \"#utility.yul\":17456:17457   */\n      dup4\n        /* \"#utility.yul\":17438:17458   */\n      tag_133\n      jump\t// in\n    tag_370:\n        /* \"#utility.yul\":17433:17458   */\n      swap3\n      pop\n        /* \"#utility.yul\":17493:17494   */\n      dup3\n        /* \"#utility.yul\":17490:17491   */\n      dup3\n        /* \"#utility.yul\":17486:17495   */\n      mul\n        /* \"#utility.yul\":17515:17545   */\n      tag_371\n        /* \"#utility.yul\":17533:17544   */\n      dup2\n        /* \"#utility.yul\":17515:17545   */\n      tag_133\n      jump\t// in\n    tag_371:\n        /* \"#utility.yul\":17504:17545   */\n      swap2\n      pop\n        /* \"#utility.yul\":17694:17695   */\n      dup3\n        /* \"#utility.yul\":17685:17692   */\n      dup3\n        /* \"#utility.yul\":17681:17696   */\n      div\n        /* \"#utility.yul\":17678:17679   */\n      dup5\n        /* \"#utility.yul\":17675:17697   */\n      eq\n        /* \"#utility.yul\":17655:17656   */\n      dup4\n        /* \"#utility.yul\":17648:17657   */\n      iszero\n        /* \"#utility.yul\":17628:17711   */\n      or\n        /* \"#utility.yul\":17605:17744   */\n      tag_372\n      jumpi\n        /* \"#utility.yul\":17724:17742   */\n      tag_373\n      tag_168\n      jump\t// in\n    tag_373:\n        /* \"#utility.yul\":17605:17744   */\n    tag_372:\n        /* \"#utility.yul\":17389:17751   */\n      pop\n        /* \"#utility.yul\":17341:17751   */\n      swap3\n      swap2\n      pop\n      pop\n      jump\t// out\n        /* \"#utility.yul\":17757:17937   */\n    tag_173:\n        /* \"#utility.yul\":17805:17882   */\n      0x4e487b7100000000000000000000000000000000000000000000000000000000\n        /* \"#utility.yul\":17802:17803   */\n      0x00\n        /* \"#utility.yul\":17795:17883   */\n      mstore\n        /* \"#utility.yul\":17902:17906   */\n      0x12\n        /* \"#utility.yul\":17899:17900   */\n      0x04\n        /* \"#utility.yul\":17892:17907   */\n      mstore\n        /* \"#utility.yul\":17926:17930   */\n      0x24\n        /* \"#utility.yul\":17923:17924   */\n      0x00\n        /* \"#utility.yul\":17916:17931   */\n      revert\n        /* \"#utility.yul\":17943:18128   */\n    tag_81:\n        /* \"#utility.yul\":17983:17984   */\n      0x00\n        /* \"#utility.yul\":18000:18020   */\n      tag_376\n        /* \"#utility.yul\":18018:18019   */\n      dup3\n        /* \"#utility.yul\":18000:18020   */\n      tag_133\n      jump\t// in\n    tag_376:\n        /* \"#utility.yul\":17995:18020   */\n      swap2\n      pop\n        /* \"#utility.yul\":18034:18054   */\n      tag_377\n        /* \"#utility.yul\":18052:18053   */\n      dup4\n        /* \"#utility.yul\":18034:18054   */\n      tag_133\n      jump\t// in\n    tag_377:\n        /* \"#utility.yul\":18029:18054   */\n      swap3\n      pop\n        /* \"#utility.yul\":18073:18074   */\n      dup3\n        /* \"#utility.yul\":18063:18098   */\n      tag_378\n      jumpi\n        /* \"#utility.yul\":18078:18096   */\n      tag_379\n      tag_173\n      jump\t// in\n    tag_379:\n        /* \"#utility.yul\":18063:18098   */\n    tag_378:\n        /* \"#utility.yul\":18120:18121   */\n      dup3\n        /* \"#utility.yul\":18117:18118   */\n      dup3\n        /* \"#utility.yul\":18113:18122   */\n      div\n        /* \"#utility.yul\":18108:18122   */\n      swap1\n      pop\n        /* \"#utility.yul\":17943:18128   */\n      swap3\n      swap2\n      pop\n      pop\n      jump\t// out\n        /* \"#utility.yul\":18134:18302   */\n    tag_174:\n        /* \"#utility.yul\":18274:18294   */\n      0x676574507269636520696e636f72726563740000000000000000000000000000\n        /* \"#utility.yul\":18270:18271   */\n      0x00\n        /* \"#utility.yul\":18262:18268   */\n      dup3\n        /* \"#utility.yul\":18258:18272   */\n      add\n        /* \"#utility.yul\":18251:18295   */\n      mstore\n        /* \"#utility.yul\":18134:18302   */\n      pop\n      jump\t// out\n        /* \"#utility.yul\":18308:18674   */\n    tag_175:\n        /* \"#utility.yul\":18450:18453   */\n      0x00\n        /* \"#utility.yul\":18471:18538   */\n      tag_382\n        /* \"#utility.yul\":18535:18537   */\n      0x12\n        /* \"#utility.yul\":18530:18533   */\n      dup4\n        /* \"#utility.yul\":18471:18538   */\n      tag_137\n      jump\t// in\n    tag_382:\n        /* \"#utility.yul\":18464:18538   */\n      swap2\n      pop\n        /* \"#utility.yul\":18547:18640   */\n      tag_383\n        /* \"#utility.yul\":18636:18639   */\n      dup3\n        /* \"#utility.yul\":18547:18640   */\n      tag_174\n      jump\t// in\n    tag_383:\n        /* \"#utility.yul\":18665:18667   */\n      0x20\n        /* \"#utility.yul\":18660:18663   */\n      dup3\n        /* \"#utility.yul\":18656:18668   */\n      add\n        /* \"#utility.yul\":18649:18668   */\n      swap1\n      pop\n        /* \"#utility.yul\":18308:18674   */\n      swap2\n      swap1\n      pop\n      jump\t// out\n        /* \"#utility.yul\":18680:19099   */\n    tag_84:\n        /* \"#utility.yul\":18846:18850   */\n      0x00\n        /* \"#utility.yul\":18884:18886   */\n      0x20\n        /* \"#utility.yul\":18873:18882   */\n      dup3\n        /* \"#utility.yul\":18869:18887   */\n      add\n        /* \"#utility.yul\":18861:18887   */\n      swap1\n      pop\n        /* \"#utility.yul\":18933:18942   */\n      dup2\n        /* \"#utility.yul\":18927:18931   */\n      dup2\n        /* \"#utility.yul\":18923:18943   */\n      sub\n        /* \"#utility.yul\":18919:18920   */\n      0x00\n        /* \"#utility.yul\":18908:18917   */\n      dup4\n        /* \"#utility.yul\":18904:18921   */\n      add\n        /* \"#utility.yul\":18897:18944   */\n      mstore\n        /* \"#utility.yul\":18961:19092   */\n      tag_385\n        /* \"#utility.yul\":19087:19091   */\n      dup2\n        /* \"#utility.yul\":18961:19092   */\n      tag_175\n      jump\t// in\n    tag_385:\n        /* \"#utility.yul\":18953:19092   */\n      swap1\n      pop\n        /* \"#utility.yul\":18680:19099   */\n      swap2\n      swap1\n      pop\n      jump\t// out\n        /* \"#utility.yul\":19105:19547   */\n    tag_86:\n        /* \"#utility.yul\":19254:19258   */\n      0x00\n        /* \"#utility.yul\":19292:19294   */\n      0x60\n        /* \"#utility.yul\":19281:19290   */\n      dup3\n        /* \"#utility.yul\":19277:19295   */\n      add\n        /* \"#utility.yul\":19269:19295   */\n      swap1\n      pop\n        /* \"#utility.yul\":19305:19376   */\n      tag_387\n        /* \"#utility.yul\":19373:19374   */\n      0x00\n        /* \"#utility.yul\":19362:19371   */\n      dup4\n        /* \"#utility.yul\":19358:19375   */\n      add\n        /* \"#utility.yul\":19349:19355   */\n      dup7\n        /* \"#utility.yul\":19305:19376   */\n      tag_158\n      jump\t// in\n    tag_387:\n        /* \"#utility.yul\":19386:19458   */\n      tag_388\n        /* \"#utility.yul\":19454:19456   */\n      0x20\n        /* \"#utility.yul\":19443:19452   */\n      dup4\n        /* \"#utility.yul\":19439:19457   */\n      add\n        /* \"#utility.yul\":19430:19436   */\n      dup6\n        /* \"#utility.yul\":19386:19458   */\n      tag_158\n      jump\t// in\n    tag_388:\n        /* \"#utility.yul\":19468:19540   */\n      tag_389\n        /* \"#utility.yul\":19536:19538   */\n      0x40\n        /* \"#utility.yul\":19525:19534   */\n      dup4\n        /* \"#utility.yul\":19521:19539   */\n      add\n        /* \"#utility.yul\":19512:19518   */\n      dup5\n        /* \"#utility.yul\":19468:19540   */\n      tag_164\n      jump\t// in\n    tag_389:\n        /* \"#utility.yul\":19105:19547   */\n      swap5\n      swap4\n      pop\n      pop\n      pop\n      pop\n      jump\t// out\n        /* \"#utility.yul\":19553:19733   */\n    tag_100:\n        /* \"#utility.yul\":19601:19678   */\n      0x4e487b7100000000000000000000000000000000000000000000000000000000\n        /* \"#utility.yul\":19598:19599   */\n      0x00\n        /* \"#utility.yul\":19591:19679   */\n      mstore\n        /* \"#utility.yul\":19698:19702   */\n      0x32\n        /* \"#utility.yul\":19695:19696   */\n      0x04\n        /* \"#utility.yul\":19688:19703   */\n      mstore\n        /* \"#utility.yul\":19722:19726   */\n      0x24\n        /* \"#utility.yul\":19719:19720   */\n      0x00\n        /* \"#utility.yul\":19712:19727   */\n      revert\n        /* \"#utility.yul\":19739:19853   */\n    tag_176:\n        /* \"#utility.yul\":19806:19812   */\n      0x00\n        /* \"#utility.yul\":19840:19845   */\n      dup2\n        /* \"#utility.yul\":19834:19846   */\n      mload\n        /* \"#utility.yul\":19824:19846   */\n      swap1\n      pop\n        /* \"#utility.yul\":19739:19853   */\n      swap2\n      swap1\n      pop\n      jump\t// out\n        /* \"#utility.yul\":19859:20043   */\n    tag_177:\n        /* \"#utility.yul\":19958:19969   */\n      0x00\n        /* \"#utility.yul\":19992:19998   */\n      dup3\n        /* \"#utility.yul\":19987:19990   */\n      dup3\n        /* \"#utility.yul\":19980:19999   */\n      mstore\n        /* \"#utility.yul\":20032:20036   */\n      0x20\n        /* \"#utility.yul\":20027:20030   */\n      dup3\n        /* \"#utility.yul\":20023:20037   */\n      add\n        /* \"#utility.yul\":20008:20037   */\n      swap1\n      pop\n        /* \"#utility.yul\":19859:20043   */\n      swap3\n      swap2\n      pop\n      pop\n      jump\t// out\n        /* \"#utility.yul\":20049:20181   */\n    tag_178:\n        /* \"#utility.yul\":20116:20120   */\n      0x00\n        /* \"#utility.yul\":20139:20142   */\n      dup2\n        /* \"#utility.yul\":20131:20142   */\n      swap1\n      pop\n        /* \"#utility.yul\":20169:20173   */\n      0x20\n        /* \"#utility.yul\":20164:20167   */\n      dup3\n        /* \"#utility.yul\":20160:20174   */\n      add\n        /* \"#utility.yul\":20152:20174   */\n      swap1\n      pop\n        /* \"#utility.yul\":20049:20181   */\n      swap2\n      swap1\n      pop\n      jump\t// out\n        /* \"#utility.yul\":20187:20295   */\n    tag_179:\n        /* \"#utility.yul\":20264:20288   */\n      tag_395\n        /* \"#utility.yul\":20282:20287   */\n      dup2\n        /* \"#utility.yul\":20264:20288   */\n      tag_142\n      jump\t// in\n    tag_395:\n        /* \"#utility.yul\":20259:20262   */\n      dup3\n        /* \"#utility.yul\":20252:20289   */\n      mstore\n        /* \"#utility.yul\":20187:20295   */\n      pop\n      pop\n      jump\t// out\n        /* \"#utility.yul\":20301:20480   */\n    tag_180:\n        /* \"#utility.yul\":20370:20380   */\n      0x00\n        /* \"#utility.yul\":20391:20437   */\n      tag_397\n        /* \"#utility.yul\":20433:20436   */\n      dup4\n        /* \"#utility.yul\":20425:20431   */\n      dup4\n        /* \"#utility.yul\":20391:20437   */\n      tag_179\n      jump\t// in\n    tag_397:\n        /* \"#utility.yul\":20469:20473   */\n      0x20\n        /* \"#utility.yul\":20464:20467   */\n      dup4\n        /* \"#utility.yul\":20460:20474   */\n      add\n        /* \"#utility.yul\":20446:20474   */\n      swap1\n      pop\n        /* \"#utility.yul\":20301:20480   */\n      swap3\n      swap2\n      pop\n      pop\n      jump\t// out\n        /* \"#utility.yul\":20486:20599   */\n    tag_181:\n        /* \"#utility.yul\":20556:20560   */\n      0x00\n        /* \"#utility.yul\":20588:20592   */\n      0x20\n        /* \"#utility.yul\":20583:20586   */\n      dup3\n        /* \"#utility.yul\":20579:20593   */\n      add\n        /* \"#utility.yul\":20571:20593   */\n      swap1\n      pop\n        /* \"#utility.yul\":20486:20599   */\n      swap2\n      swap1\n      pop\n      jump\t// out\n        /* \"#utility.yul\":20635:21367   */\n    tag_182:\n        /* \"#utility.yul\":20754:20757   */\n      0x00\n        /* \"#utility.yul\":20783:20837   */\n      tag_400\n        /* \"#utility.yul\":20831:20836   */\n      dup3\n        /* \"#utility.yul\":20783:20837   */\n      tag_176\n      jump\t// in\n    tag_400:\n        /* \"#utility.yul\":20853:20939   */\n      tag_401\n        /* \"#utility.yul\":20932:20938   */\n      dup2\n        /* \"#utility.yul\":20927:20930   */\n      dup6\n        /* \"#utility.yul\":20853:20939   */\n      tag_177\n      jump\t// in\n    tag_401:\n        /* \"#utility.yul\":20846:20939   */\n      swap4\n      pop\n        /* \"#utility.yul\":20963:21019   */\n      tag_402\n        /* \"#utility.yul\":21013:21018   */\n      dup4\n        /* \"#utility.yul\":20963:21019   */\n      tag_178\n      jump\t// in\n    tag_402:\n        /* \"#utility.yul\":21042:21049   */\n      dup1\n        /* \"#utility.yul\":21073:21074   */\n      0x00\n        /* \"#utility.yul\":21058:21342   */\n    tag_403:\n        /* \"#utility.yul\":21083:21089   */\n      dup4\n        /* \"#utility.yul\":21080:21081   */\n      dup2\n        /* \"#utility.yul\":21077:21090   */\n      lt\n        /* \"#utility.yul\":21058:21342   */\n      iszero\n      tag_405\n      jumpi\n        /* \"#utility.yul\":21159:21165   */\n      dup2\n        /* \"#utility.yul\":21153:21166   */\n      mload\n        /* \"#utility.yul\":21186:21249   */\n      tag_406\n        /* \"#utility.yul\":21245:21248   */\n      dup9\n        /* \"#utility.yul\":21230:21243   */\n      dup3\n        /* \"#utility.yul\":21186:21249   */\n      tag_180\n      jump\t// in\n    tag_406:\n        /* \"#utility.yul\":21179:21249   */\n      swap8\n      pop\n        /* \"#utility.yul\":21272:21332   */\n      tag_407\n        /* \"#utility.yul\":21325:21331   */\n      dup4\n        /* \"#utility.yul\":21272:21332   */\n      tag_181\n      jump\t// in\n    tag_407:\n        /* \"#utility.yul\":21262:21332   */\n      swap3\n      pop\n        /* \"#utility.yul\":21118:21342   */\n      pop\n        /* \"#utility.yul\":21105:21106   */\n      0x01\n        /* \"#utility.yul\":21102:21103   */\n      dup2\n        /* \"#utility.yul\":21098:21107   */\n      add\n        /* \"#utility.yul\":21093:21107   */\n      swap1\n      pop\n        /* \"#utility.yul\":21058:21342   */\n      jump(tag_403)\n    tag_405:\n        /* \"#utility.yul\":21062:21076   */\n      pop\n        /* \"#utility.yul\":21358:21361   */\n      dup6\n        /* \"#utility.yul\":21351:21361   */\n      swap4\n      pop\n        /* \"#utility.yul\":20759:21367   */\n      pop\n      pop\n      pop\n        /* \"#utility.yul\":20635:21367   */\n      swap3\n      swap2\n      pop\n      pop\n      jump\t// out\n        /* \"#utility.yul\":21373:22188   */\n    tag_105:\n        /* \"#utility.yul\":21628:21632   */\n      0x00\n        /* \"#utility.yul\":21666:21669   */\n      0xa0\n        /* \"#utility.yul\":21655:21664   */\n      dup3\n        /* \"#utility.yul\":21651:21670   */\n      add\n        /* \"#utility.yul\":21643:21670   */\n      swap1\n      pop\n        /* \"#utility.yul\":21680:21751   */\n      tag_409\n        /* \"#utility.yul\":21748:21749   */\n      0x00\n        /* \"#utility.yul\":21737:21746   */\n      dup4\n        /* \"#utility.yul\":21733:21750   */\n      add\n        /* \"#utility.yul\":21724:21730   */\n      dup9\n        /* \"#utility.yul\":21680:21751   */\n      tag_164\n      jump\t// in\n    tag_409:\n        /* \"#utility.yul\":21761:21833   */\n      tag_410\n        /* \"#utility.yul\":21829:21831   */\n      0x20\n        /* \"#utility.yul\":21818:21827   */\n      dup4\n        /* \"#utility.yul\":21814:21832   */\n      add\n        /* \"#utility.yul\":21805:21811   */\n      dup8\n        /* \"#utility.yul\":21761:21833   */\n      tag_164\n      jump\t// in\n    tag_410:\n        /* \"#utility.yul\":21880:21889   */\n      dup2\n        /* \"#utility.yul\":21874:21878   */\n      dup2\n        /* \"#utility.yul\":21870:21890   */\n      sub\n        /* \"#utility.yul\":21865:21867   */\n      0x40\n        /* \"#utility.yul\":21854:21863   */\n      dup4\n        /* \"#utility.yul\":21850:21868   */\n      add\n        /* \"#utility.yul\":21843:21891   */\n      mstore\n        /* \"#utility.yul\":21908:22016   */\n      tag_411\n        /* \"#utility.yul\":22011:22015   */\n      dup2\n        /* \"#utility.yul\":22002:22008   */\n      dup7\n        /* \"#utility.yul\":21908:22016   */\n      tag_182\n      jump\t// in\n    tag_411:\n        /* \"#utility.yul\":21900:22016   */\n      swap1\n      pop\n        /* \"#utility.yul\":22026:22098   */\n      tag_412\n        /* \"#utility.yul\":22094:22096   */\n      0x60\n        /* \"#utility.yul\":22083:22092   */\n      dup4\n        /* \"#utility.yul\":22079:22097   */\n      add\n        /* \"#utility.yul\":22070:22076   */\n      dup6\n        /* \"#utility.yul\":22026:22098   */\n      tag_158\n      jump\t// in\n    tag_412:\n        /* \"#utility.yul\":22108:22181   */\n      tag_413\n        /* \"#utility.yul\":22176:22179   */\n      0x80\n        /* \"#utility.yul\":22165:22174   */\n      dup4\n        /* \"#utility.yul\":22161:22180   */\n      add\n        /* \"#utility.yul\":22152:22158   */\n      dup5\n        /* \"#utility.yul\":22108:22181   */\n      tag_164\n      jump\t// in\n    tag_413:\n        /* \"#utility.yul\":21373:22188   */\n      swap7\n      swap6\n      pop\n      pop\n      pop\n      pop\n      pop\n      pop\n      jump\t// out\n        /* \"#utility.yul\":22194:22375   */\n    tag_183:\n        /* \"#utility.yul\":22334:22367   */\n      0x737761704578616374546f6b656e73466f72546f6b656e73206661696c656400\n        /* \"#utility.yul\":22330:22331   */\n      0x00\n        /* \"#utility.yul\":22322:22328   */\n      dup3\n        /* \"#utility.yul\":22318:22332   */\n      add\n        /* \"#utility.yul\":22311:22368   */\n      mstore\n        /* \"#utility.yul\":22194:22375   */\n      pop\n      jump\t// out\n        /* \"#utility.yul\":22381:22747   */\n    tag_184:\n        /* \"#utility.yul\":22523:22526   */\n      0x00\n        /* \"#utility.yul\":22544:22611   */\n      tag_416\n        /* \"#utility.yul\":22608:22610   */\n      0x1f\n        /* \"#utility.yul\":22603:22606   */\n      dup4\n        /* \"#utility.yul\":22544:22611   */\n      tag_137\n      jump\t// in\n    tag_416:\n        /* \"#utility.yul\":22537:22611   */\n      swap2\n      pop\n        /* \"#utility.yul\":22620:22713   */\n      tag_417\n        /* \"#utility.yul\":22709:22712   */\n      dup3\n        /* \"#utility.yul\":22620:22713   */\n      tag_183\n      jump\t// in\n    tag_417:\n        /* \"#utility.yul\":22738:22740   */\n      0x20\n        /* \"#utility.yul\":22733:22736   */\n      dup3\n        /* \"#utility.yul\":22729:22741   */\n      add\n        /* \"#utility.yul\":22722:22741   */\n      swap1\n      pop\n        /* \"#utility.yul\":22381:22747   */\n      swap2\n      swap1\n      pop\n      jump\t// out\n        /* \"#utility.yul\":22753:23172   */\n    tag_115:\n        /* \"#utility.yul\":22919:22923   */\n      0x00\n        /* \"#utility.yul\":22957:22959   */\n      0x20\n        /* \"#utility.yul\":22946:22955   */\n      dup3\n        /* \"#utility.yul\":22942:22960   */\n      add\n        /* \"#utility.yul\":22934:22960   */\n      swap1\n      pop\n        /* \"#utility.yul\":23006:23015   */\n      dup2\n        /* \"#utility.yul\":23000:23004   */\n      dup2\n        /* \"#utility.yul\":22996:23016   */\n      sub\n        /* \"#utility.yul\":22992:22993   */\n      0x00\n        /* \"#utility.yul\":22981:22990   */\n      dup4\n        /* \"#utility.yul\":22977:22994   */\n      add\n        /* \"#utility.yul\":22970:23017   */\n      mstore\n        /* \"#utility.yul\":23034:23165   */\n      tag_419\n        /* \"#utility.yul\":23160:23164   */\n      dup2\n        /* \"#utility.yul\":23034:23165   */\n      tag_184\n      jump\t// in\n    tag_419:\n        /* \"#utility.yul\":23026:23165   */\n      swap1\n      pop\n        /* \"#utility.yul\":22753:23172   */\n      swap2\n      swap1\n      pop\n      jump\t// out\n        /* \"#utility.yul\":23178:23263   */\n    tag_185:\n        /* \"#utility.yul\":23223:23230   */\n      0x00\n        /* \"#utility.yul\":23252:23257   */\n      dup2\n        /* \"#utility.yul\":23241:23257   */\n      swap1\n      pop\n        /* \"#utility.yul\":23178:23263   */\n      swap2\n      swap1\n      pop\n      jump\t// out\n        /* \"#utility.yul\":23269:23329   */\n    tag_186:\n        /* \"#utility.yul\":23297:23300   */\n      0x00\n        /* \"#utility.yul\":23318:23323   */\n      dup2\n        /* \"#utility.yul\":23311:23323   */\n      swap1\n      pop\n        /* \"#utility.yul\":23269:23329   */\n      swap2\n      swap1\n      pop\n      jump\t// out\n        /* \"#utility.yul\":23335:23493   */\n    tag_187:\n        /* \"#utility.yul\":23393:23402   */\n      0x00\n        /* \"#utility.yul\":23426:23487   */\n      tag_423\n        /* \"#utility.yul\":23444:23486   */\n      tag_424\n        /* \"#utility.yul\":23453:23485   */\n      tag_425\n        /* \"#utility.yul\":23479:23484   */\n      dup5\n        /* \"#utility.yul\":23453:23485   */\n      tag_185\n      jump\t// in\n    tag_425:\n        /* \"#utility.yul\":23444:23486   */\n      tag_186\n      jump\t// in\n    tag_424:\n        /* \"#utility.yul\":23426:23487   */\n      tag_133\n      jump\t// in\n    tag_423:\n        /* \"#utility.yul\":23413:23487   */\n      swap1\n      pop\n        /* \"#utility.yul\":23335:23493   */\n      swap2\n      swap1\n      pop\n      jump\t// out\n        /* \"#utility.yul\":23499:23646   */\n    tag_188:\n        /* \"#utility.yul\":23594:23639   */\n      tag_427\n        /* \"#utility.yul\":23633:23638   */\n      dup2\n        /* \"#utility.yul\":23594:23639   */\n      tag_187\n      jump\t// in\n    tag_427:\n        /* \"#utility.yul\":23589:23592   */\n      dup3\n        /* \"#utility.yul\":23582:23640   */\n      mstore\n        /* \"#utility.yul\":23499:23646   */\n      pop\n      pop\n      jump\t// out\n        /* \"#utility.yul\":23652:24570   */\n    tag_118:\n        /* \"#utility.yul\":23929:23933   */\n      0x00\n        /* \"#utility.yul\":23967:23970   */\n      0xe0\n        /* \"#utility.yul\":23956:23965   */\n      dup3\n        /* \"#utility.yul\":23952:23971   */\n      add\n        /* \"#utility.yul\":23944:23971   */\n      swap1\n      pop\n        /* \"#utility.yul\":23981:24052   */\n      tag_429\n        /* \"#utility.yul\":24049:24050   */\n      0x00\n        /* \"#utility.yul\":24038:24047   */\n      dup4\n        /* \"#utility.yul\":24034:24051   */\n      add\n        /* \"#utility.yul\":24025:24031   */\n      dup11\n        /* \"#utility.yul\":23981:24052   */\n      tag_158\n      jump\t// in\n    tag_429:\n        /* \"#utility.yul\":24062:24134   */\n      tag_430\n        /* \"#utility.yul\":24130:24132   */\n      0x20\n        /* \"#utility.yul\":24119:24128   */\n      dup4\n        /* \"#utility.yul\":24115:24133   */\n      add\n        /* \"#utility.yul\":24106:24112   */\n      dup10\n        /* \"#utility.yul\":24062:24134   */\n      tag_158\n      jump\t// in\n    tag_430:\n        /* \"#utility.yul\":24144:24216   */\n      tag_431\n        /* \"#utility.yul\":24212:24214   */\n      0x40\n        /* \"#utility.yul\":24201:24210   */\n      dup4\n        /* \"#utility.yul\":24197:24215   */\n      add\n        /* \"#utility.yul\":24188:24194   */\n      dup9\n        /* \"#utility.yul\":24144:24216   */\n      tag_164\n      jump\t// in\n    tag_431:\n        /* \"#utility.yul\":24226:24306   */\n      tag_432\n        /* \"#utility.yul\":24302:24304   */\n      0x60\n        /* \"#utility.yul\":24291:24300   */\n      dup4\n        /* \"#utility.yul\":24287:24305   */\n      add\n        /* \"#utility.yul\":24278:24284   */\n      dup8\n        /* \"#utility.yul\":24226:24306   */\n      tag_188\n      jump\t// in\n    tag_432:\n        /* \"#utility.yul\":24316:24397   */\n      tag_433\n        /* \"#utility.yul\":24392:24395   */\n      0x80\n        /* \"#utility.yul\":24381:24390   */\n      dup4\n        /* \"#utility.yul\":24377:24396   */\n      add\n        /* \"#utility.yul\":24368:24374   */\n      dup7\n        /* \"#utility.yul\":24316:24397   */\n      tag_188\n      jump\t// in\n    tag_433:\n        /* \"#utility.yul\":24407:24480   */\n      tag_434\n        /* \"#utility.yul\":24475:24478   */\n      0xa0\n        /* \"#utility.yul\":24464:24473   */\n      dup4\n        /* \"#utility.yul\":24460:24479   */\n      add\n        /* \"#utility.yul\":24451:24457   */\n      dup6\n        /* \"#utility.yul\":24407:24480   */\n      tag_158\n      jump\t// in\n    tag_434:\n        /* \"#utility.yul\":24490:24563   */\n      tag_435\n        /* \"#utility.yul\":24558:24561   */\n      0xc0\n        /* \"#utility.yul\":24547:24556   */\n      dup4\n        /* \"#utility.yul\":24543:24562   */\n      add\n        /* \"#utility.yul\":24534:24540   */\n      dup5\n        /* \"#utility.yul\":24490:24563   */\n      tag_164\n      jump\t// in\n    tag_435:\n        /* \"#utility.yul\":23652:24570   */\n      swap9\n      swap8\n      pop\n      pop\n      pop\n      pop\n      pop\n      pop\n      pop\n      pop\n      jump\t// out\n        /* \"#utility.yul\":24576:25083   */\n    tag_122:\n        /* \"#utility.yul\":24655:24661   */\n      0x00\n        /* \"#utility.yul\":24663:24669   */\n      dup1\n        /* \"#utility.yul\":24712:24714   */\n      0x40\n        /* \"#utility.yul\":24700:24709   */\n      dup4\n        /* \"#utility.yul\":24691:24698   */\n      dup6\n        /* \"#utility.yul\":24687:24710   */\n      sub\n        /* \"#utility.yul\":24683:24715   */\n      slt\n        /* \"#utility.yul\":24680:24799   */\n      iszero\n      tag_437\n      jumpi\n        /* \"#utility.yul\":24718:24797   */\n      tag_438\n      tag_131\n      jump\t// in\n    tag_438:\n        /* \"#utility.yul\":24680:24799   */\n    tag_437:\n        /* \"#utility.yul\":24838:24839   */\n      0x00\n        /* \"#utility.yul\":24863:24927   */\n      tag_439\n        /* \"#utility.yul\":24919:24926   */\n      dup6\n        /* \"#utility.yul\":24910:24916   */\n      dup3\n        /* \"#utility.yul\":24899:24908   */\n      dup7\n        /* \"#utility.yul\":24895:24917   */\n      add\n        /* \"#utility.yul\":24863:24927   */\n      tag_159\n      jump\t// in\n    tag_439:\n        /* \"#utility.yul\":24853:24927   */\n      swap3\n      pop\n        /* \"#utility.yul\":24809:24937   */\n      pop\n        /* \"#utility.yul\":24976:24978   */\n      0x20\n        /* \"#utility.yul\":25002:25066   */\n      tag_440\n        /* \"#utility.yul\":25058:25065   */\n      dup6\n        /* \"#utility.yul\":25049:25055   */\n      dup3\n        /* \"#utility.yul\":25038:25047   */\n      dup7\n        /* \"#utility.yul\":25034:25056   */\n      add\n        /* \"#utility.yul\":25002:25066   */\n      tag_159\n      jump\t// in\n    tag_440:\n        /* \"#utility.yul\":24992:25066   */\n      swap2\n      pop\n        /* \"#utility.yul\":24947:25076   */\n      pop\n        /* \"#utility.yul\":24576:25083   */\n      swap3\n      pop\n      swap3\n      swap1\n      pop\n      jump\t// out\n        /* \"#utility.yul\":25089:25312   */\n    tag_189:\n        /* \"#utility.yul\":25229:25263   */\n      0x72656d6f76654c69717569646974792072657475726e6564207a65726f20746f\n        /* \"#utility.yul\":25225:25226   */\n      0x00\n        /* \"#utility.yul\":25217:25223   */\n      dup3\n        /* \"#utility.yul\":25213:25227   */\n      add\n        /* \"#utility.yul\":25206:25264   */\n      mstore\n        /* \"#utility.yul\":25298:25304   */\n      0x6b656e7300000000000000000000000000000000000000000000000000000000\n        /* \"#utility.yul\":25293:25295   */\n      0x20\n        /* \"#utility.yul\":25285:25291   */\n      dup3\n        /* \"#utility.yul\":25281:25296   */\n      add\n        /* \"#utility.yul\":25274:25305   */\n      mstore\n        /* \"#utility.yul\":25089:25312   */\n      pop\n      jump\t// out\n        /* \"#utility.yul\":25318:25684   */\n    tag_190:\n        /* \"#utility.yul\":25460:25463   */\n      0x00\n        /* \"#utility.yul\":25481:25548   */\n      tag_443\n        /* \"#utility.yul\":25545:25547   */\n      0x24\n        /* \"#utility.yul\":25540:25543   */\n      dup4\n        /* \"#utility.yul\":25481:25548   */\n      tag_137\n      jump\t// in\n    tag_443:\n        /* \"#utility.yul\":25474:25548   */\n      swap2\n      pop\n        /* \"#utility.yul\":25557:25650   */\n      tag_444\n        /* \"#utility.yul\":25646:25649   */\n      dup3\n        /* \"#utility.yul\":25557:25650   */\n      tag_189\n      jump\t// in\n    tag_444:\n        /* \"#utility.yul\":25675:25677   */\n      0x40\n        /* \"#utility.yul\":25670:25673   */\n      dup3\n        /* \"#utility.yul\":25666:25678   */\n      add\n        /* \"#utility.yul\":25659:25678   */\n      swap1\n      pop\n        /* \"#utility.yul\":25318:25684   */\n      swap2\n      swap1\n      pop\n      jump\t// out\n        /* \"#utility.yul\":25690:26109   */\n    tag_126:\n        /* \"#utility.yul\":25856:25860   */\n      0x00\n        /* \"#utility.yul\":25894:25896   */\n      0x20\n        /* \"#utility.yul\":25883:25892   */\n      dup3\n        /* \"#utility.yul\":25879:25897   */\n      add\n        /* \"#utility.yul\":25871:25897   */\n      swap1\n      pop\n        /* \"#utility.yul\":25943:25952   */\n      dup2\n        /* \"#utility.yul\":25937:25941   */\n      dup2\n        /* \"#utility.yul\":25933:25953   */\n      sub\n        /* \"#utility.yul\":25929:25930   */\n      0x00\n        /* \"#utility.yul\":25918:25927   */\n      dup4\n        /* \"#utility.yul\":25914:25931   */\n      add\n        /* \"#utility.yul\":25907:25954   */\n      mstore\n        /* \"#utility.yul\":25971:26102   */\n      tag_446\n        /* \"#utility.yul\":26097:26101   */\n      dup2\n        /* \"#utility.yul\":25971:26102   */\n      tag_190\n      jump\t// in\n    tag_446:\n        /* \"#utility.yul\":25963:26102   */\n      swap1\n      pop\n        /* \"#utility.yul\":25690:26109   */\n      swap2\n      swap1\n      pop\n      jump\t// out\n        /* \"#utility.yul\":26115:26256   */\n    tag_191:\n        /* \"#utility.yul\":26164:26168   */\n      0x00\n        /* \"#utility.yul\":26187:26190   */\n      dup2\n        /* \"#utility.yul\":26179:26190   */\n      swap1\n      pop\n        /* \"#utility.yul\":26210:26213   */\n      dup2\n        /* \"#utility.yul\":26207:26208   */\n      0x00\n        /* \"#utility.yul\":26200:26214   */\n      mstore\n        /* \"#utility.yul\":26244:26248   */\n      0x20\n        /* \"#utility.yul\":26241:26242   */\n      0x00\n        /* \"#utility.yul\":26231:26249   */\n      keccak256\n        /* \"#utility.yul\":26223:26249   */\n      swap1\n      pop\n        /* \"#utility.yul\":26115:26256   */\n      swap2\n      swap1\n      pop\n      jump\t// out\n        /* \"#utility.yul\":26262:26355   */\n    tag_192:\n        /* \"#utility.yul\":26299:26305   */\n      0x00\n        /* \"#utility.yul\":26346:26348   */\n      0x20\n        /* \"#utility.yul\":26341:26343   */\n      0x1f\n        /* \"#utility.yul\":26334:26339   */\n      dup4\n        /* \"#utility.yul\":26330:26344   */\n      add\n        /* \"#utility.yul\":26326:26349   */\n      div\n        /* \"#utility.yul\":26316:26349   */\n      swap1\n      pop\n        /* \"#utility.yul\":26262:26355   */\n      swap2\n      swap1\n      pop\n      jump\t// out\n        /* \"#utility.yul\":26361:26468   */\n    tag_193:\n        /* \"#utility.yul\":26405:26413   */\n      0x00\n        /* \"#utility.yul\":26455:26460   */\n      dup3\n        /* \"#utility.yul\":26449:26453   */\n      dup3\n        /* \"#utility.yul\":26445:26461   */\n      shl\n        /* \"#utility.yul\":26424:26461   */\n      swap1\n      pop\n        /* \"#utility.yul\":26361:26468   */\n      swap3\n      swap2\n      pop\n      pop\n      jump\t// out\n        /* \"#utility.yul\":26474:26867   */\n    tag_194:\n        /* \"#utility.yul\":26543:26549   */\n      0x00\n        /* \"#utility.yul\":26593:26594   */\n      0x08\n        /* \"#utility.yul\":26581:26591   */\n      dup4\n        /* \"#utility.yul\":26577:26595   */\n      mul\n        /* \"#utility.yul\":26616:26713   */\n      tag_451\n        /* \"#utility.yul\":26646:26712   */\n      0xffffffffffffffffffffffffffffffffffffffffffffffffffffffffffffffff\n        /* \"#utility.yul\":26635:26644   */\n      dup3\n        /* \"#utility.yul\":26616:26713   */\n      tag_193\n      jump\t// in\n    tag_451:\n        /* \"#utility.yul\":26734:26773   */\n      tag_452\n        /* \"#utility.yul\":26764:26772   */\n      dup7\n        /* \"#utility.yul\":26753:26762   */\n      dup4\n        /* \"#utility.yul\":26734:26773   */\n      tag_193\n      jump\t// in\n    tag_452:\n        /* \"#utility.yul\":26722:26773   */\n      swap6\n      pop\n        /* \"#utility.yul\":26806:26810   */\n      dup1\n        /* \"#utility.yul\":26802:26811   */\n      not\n        /* \"#utility.yul\":26795:26800   */\n      dup5\n        /* \"#utility.yul\":26791:26812   */\n      and\n        /* \"#utility.yul\":26782:26812   */\n      swap4\n      pop\n        /* \"#utility.yul\":26855:26859   */\n      dup1\n        /* \"#utility.yul\":26845:26853   */\n      dup7\n        /* \"#utility.yul\":26841:26860   */\n      and\n        /* \"#utility.yul\":26834:26839   */\n      dup5\n        /* \"#utility.yul\":26831:26861   */\n      or\n        /* \"#utility.yul\":26821:26861   */\n      swap3\n      pop\n        /* \"#utility.yul\":26550:26867   */\n      pop\n      pop\n        /* \"#utility.yul\":26474:26867   */\n      swap4\n      swap3\n      pop\n      pop\n      pop\n      jump\t// out\n        /* \"#utility.yul\":26873:27015   */\n    tag_195:\n        /* \"#utility.yul\":26923:26932   */\n      0x00\n        /* \"#utility.yul\":26956:27009   */\n      tag_454\n        /* \"#utility.yul\":26974:27008   */\n      tag_455\n        /* \"#utility.yul\":26983:27007   */\n      tag_456\n        /* \"#utility.yul\":27001:27006   */\n      dup5\n        /* \"#utility.yul\":26983:27007   */\n      tag_133\n      jump\t// in\n    tag_456:\n        /* \"#utility.yul\":26974:27008   */\n      tag_186\n      jump\t// in\n    tag_455:\n        /* \"#utility.yul\":26956:27009   */\n      tag_133\n      jump\t// in\n    tag_454:\n        /* \"#utility.yul\":26943:27009   */\n      swap1\n      pop\n        /* \"#utility.yul\":26873:27015   */\n      swap2\n      swap1\n      pop\n      jump\t// out\n        /* \"#utility.yul\":27021:27096   */\n    tag_196:\n        /* \"#utility.yul\":27064:27067   */\n      0x00\n        /* \"#utility.yul\":27085:27090   */\n      dup2\n        /* \"#utility.yul\":27078:27090   */\n      swap1\n      pop\n        /* \"#utility.yul\":27021:27096   */\n      swap2\n      swap1\n      pop\n      jump\t// out\n        /* \"#utility.yul\":27102:27371   */\n    tag_197:\n        /* \"#utility.yul\":27212:27251   */\n      tag_459\n        /* \"#utility.yul\":27243:27250   */\n      dup4\n        /* \"#utility.yul\":27212:27251   */\n      tag_195\n      jump\t// in\n    tag_459:\n        /* \"#utility.yul\":27273:27364   */\n      tag_460\n        /* \"#utility.yul\":27322:27363   */\n      tag_461\n        /* \"#utility.yul\":27346:27362   */\n      dup3\n        /* \"#utility.yul\":27322:27363   */\n      tag_196\n      jump\t// in\n    tag_461:\n        /* \"#utility.yul\":27314:27320   */\n      dup5\n        /* \"#utility.yul\":27307:27311   */\n      dup5\n        /* \"#utility.yul\":27301:27312   */\n      sload\n        /* \"#utility.yul\":27273:27364   */\n      tag_194\n      jump\t// in\n    tag_460:\n        /* \"#utility.yul\":27267:27271   */\n      dup3\n        /* \"#utility.yul\":27260:27365   */\n      sstore\n        /* \"#utility.yul\":27178:27371   */\n      pop\n        /* \"#utility.yul\":27102:27371   */\n      pop\n      pop\n      pop\n      jump\t// out\n        /* \"#utility.yul\":27377:27450   */\n    tag_198:\n        /* \"#utility.yul\":27422:27425   */\n      0x00\n        /* \"#utility.yul\":27377:27450   */\n      swap1\n      jump\t// out\n        /* \"#utility.yul\":27456:27645   */\n    tag_199:\n        /* \"#utility.yul\":27533:27565   */\n      tag_464\n      tag_198\n      jump\t// in\n    tag_464:\n        /* \"#utility.yul\":27574:27639   */\n      tag_465\n        /* \"#utility.yul\":27632:27638   */\n      dup2\n        /* \"#utility.yul\":27624:27630   */\n      dup5\n        /* \"#utility.yul\":27618:27622   */\n      dup5\n        /* \"#utility.yul\":27574:27639   */\n      tag_197\n      jump\t// in\n    tag_465:\n        /* \"#utility.yul\":27509:27645   */\n      pop\n        /* \"#utility.yul\":27456:27645   */\n      pop\n      pop\n      jump\t// out\n        /* \"#utility.yul\":27651:27837   */\n    tag_200:\n        /* \"#utility.yul\":27711:27831   */\n    tag_467:\n        /* \"#utility.yul\":27728:27731   */\n      dup2\n        /* \"#utility.yul\":27721:27726   */\n      dup2\n        /* \"#utility.yul\":27718:27732   */\n      lt\n        /* \"#utility.yul\":27711:27831   */\n      iszero\n      tag_469\n      jumpi\n        /* \"#utility.yul\":27782:27821   */\n      tag_470\n        /* \"#utility.yul\":27819:27820   */\n      0x00\n        /* \"#utility.yul\":27812:27817   */\n      dup3\n        /* \"#utility.yul\":27782:27821   */\n      tag_199\n      jump\t// in\n    tag_470:\n        /* \"#utility.yul\":27755:27756   */\n      0x01\n        /* \"#utility.yul\":27748:27753   */\n      dup2\n        /* \"#utility.yul\":27744:27757   */\n      add\n        /* \"#utility.yul\":27735:27757   */\n      swap1\n      pop\n        /* \"#utility.yul\":27711:27831   */\n      jump(tag_467)\n    tag_469:\n        /* \"#utility.yul\":27651:27837   */\n      pop\n      pop\n      jump\t// out\n        /* \"#utility.yul\":27843:28386   */\n    tag_201:\n        /* \"#utility.yul\":27944:27946   */\n      0x1f\n        /* \"#utility.yul\":27939:27942   */\n      dup3\n        /* \"#utility.yul\":27936:27947   */\n      gt\n        /* \"#utility.yul\":27933:28379   */\n      iszero\n      tag_472\n      jumpi\n        /* \"#utility.yul\":27978:28016   */\n      tag_473\n        /* \"#utility.yul\":28010:28015   */\n      dup2\n        /* \"#utility.yul\":27978:28016   */\n      tag_191\n      jump\t// in\n    tag_473:\n        /* \"#utility.yul\":28062:28091   */\n      tag_474\n        /* \"#utility.yul\":28080:28090   */\n      dup5\n        /* \"#utility.yul\":28062:28091   */\n      tag_192\n      jump\t// in\n    tag_474:\n        /* \"#utility.yul\":28052:28060   */\n      dup2\n        /* \"#utility.yul\":28048:28092   */\n      add\n        /* \"#utility.yul\":28245:28247   */\n      0x20\n        /* \"#utility.yul\":28233:28243   */\n      dup6\n        /* \"#utility.yul\":28230:28248   */\n      lt\n        /* \"#utility.yul\":28227:28276   */\n      iszero\n      tag_475\n      jumpi\n        /* \"#utility.yul\":28266:28274   */\n      dup2\n        /* \"#utility.yul\":28251:28274   */\n      swap1\n      pop\n        /* \"#utility.yul\":28227:28276   */\n    tag_475:\n        /* \"#utility.yul\":28289:28369   */\n      tag_476\n        /* \"#utility.yul\":28345:28367   */\n      tag_477\n        /* \"#utility.yul\":28363:28366   */\n      dup6\n        /* \"#utility.yul\":28345:28367   */\n      tag_192\n      jump\t// in\n    tag_477:\n        /* \"#utility.yul\":28335:28343   */\n      dup4\n        /* \"#utility.yul\":28331:28368   */\n      add\n        /* \"#utility.yul\":28318:28329   */\n      dup3\n        /* \"#utility.yul\":28289:28369   */\n      tag_200\n      jump\t// in\n    tag_476:\n        /* \"#utility.yul\":27948:28379   */\n      pop\n      pop\n        /* \"#utility.yul\":27933:28379   */\n    tag_472:\n        /* \"#utility.yul\":27843:28386   */\n      pop\n      pop\n      pop\n      jump\t// out\n        /* \"#utility.yul\":28392:28509   */\n    tag_202:\n        /* \"#utility.yul\":28446:28454   */\n      0x00\n        /* \"#utility.yul\":28496:28501   */\n      dup3\n        /* \"#utility.yul\":28490:28494   */\n      dup3\n        /* \"#utility.yul\":28486:28502   */\n      shr\n        /* \"#utility.yul\":28465:28502   */\n      swap1\n      pop\n        /* \"#utility.yul\":28392:28509   */\n      swap3\n      swap2\n      pop\n      pop\n      jump\t// out\n        /* \"#utility.yul\":28515:28684   */\n    tag_203:\n        /* \"#utility.yul\":28559:28565   */\n      0x00\n        /* \"#utility.yul\":28592:28643   */\n      tag_480\n        /* \"#utility.yul\":28640:28641   */\n      0x00\n        /* \"#utility.yul\":28636:28642   */\n      not\n        /* \"#utility.yul\":28628:28633   */\n      dup5\n        /* \"#utility.yul\":28625:28626   */\n      0x08\n        /* \"#utility.yul\":28621:28634   */\n      mul\n        /* \"#utility.yul\":28592:28643   */\n      tag_202\n      jump\t// in\n    tag_480:\n        /* \"#utility.yul\":28588:28644   */\n      not\n        /* \"#utility.yul\":28673:28677   */\n      dup1\n        /* \"#utility.yul\":28667:28671   */\n      dup4\n        /* \"#utility.yul\":28663:28678   */\n      and\n        /* \"#utility.yul\":28653:28678   */\n      swap2\n      pop\n        /* \"#utility.yul\":28566:28684   */\n      pop\n        /* \"#utility.yul\":28515:28684   */\n      swap3\n      swap2\n      pop\n      pop\n      jump\t// out\n        /* \"#utility.yul\":28689:28984   */\n    tag_204:\n        /* \"#utility.yul\":28765:28769   */\n      0x00\n        /* \"#utility.yul\":28911:28940   */\n      tag_482\n        /* \"#utility.yul\":28936:28939   */\n      dup4\n        /* \"#utility.yul\":28930:28934   */\n      dup4\n        /* \"#utility.yul\":28911:28940   */\n      tag_203\n      jump\t// in\n    tag_482:\n        /* \"#utility.yul\":28903:28940   */\n      swap2\n      pop\n        /* \"#utility.yul\":28973:28976   */\n      dup3\n        /* \"#utility.yul\":28970:28971   */\n      0x02\n        /* \"#utility.yul\":28966:28977   */\n      mul\n        /* \"#utility.yul\":28960:28964   */\n      dup3\n        /* \"#utility.yul\":28957:28978   */\n      or\n        /* \"#utility.yul\":28949:28978   */\n      swap1\n      pop\n        /* \"#utility.yul\":28689:28984   */\n      swap3\n      swap2\n      pop\n      pop\n      jump\t// out\n        /* \"#utility.yul\":28989:30384   */\n    tag_129:\n        /* \"#utility.yul\":29106:29143   */\n      tag_484\n        /* \"#utility.yul\":29139:29142   */\n      dup3\n        /* \"#utility.yul\":29106:29143   */\n      tag_136\n      jump\t// in\n    tag_484:\n        /* \"#utility.yul\":29208:29226   */\n      0xffffffffffffffff\n        /* \"#utility.yul\":29200:29206   */\n      dup2\n        /* \"#utility.yul\":29197:29227   */\n      gt\n        /* \"#utility.yul\":29194:29250   */\n      iszero\n      tag_485\n      jumpi\n        /* \"#utility.yul\":29230:29248   */\n      tag_486\n      tag_96\n      jump\t// in\n    tag_486:\n        /* \"#utility.yul\":29194:29250   */\n    tag_485:\n        /* \"#utility.yul\":29274:29312   */\n      tag_487\n        /* \"#utility.yul\":29306:29310   */\n      dup3\n        /* \"#utility.yul\":29300:29311   */\n      sload\n        /* \"#utility.yul\":29274:29312   */\n      tag_18\n      jump\t// in\n    tag_487:\n        /* \"#utility.yul\":29359:29426   */\n      tag_488\n        /* \"#utility.yul\":29419:29425   */\n      dup3\n        /* \"#utility.yul\":29411:29417   */\n      dup3\n        /* \"#utility.yul\":29405:29409   */\n      dup6\n        /* \"#utility.yul\":29359:29426   */\n      tag_201\n      jump\t// in\n    tag_488:\n        /* \"#utility.yul\":29453:29454   */\n      0x00\n        /* \"#utility.yul\":29477:29481   */\n      0x20\n        /* \"#utility.yul\":29464:29481   */\n      swap1\n      pop\n        /* \"#utility.yul\":29509:29511   */\n      0x1f\n        /* \"#utility.yul\":29501:29507   */\n      dup4\n        /* \"#utility.yul\":29498:29512   */\n      gt\n        /* \"#utility.yul\":29526:29527   */\n      0x01\n        /* \"#utility.yul\":29521:30139   */\n      dup2\n      eq\n      tag_490\n      jumpi\n        /* \"#utility.yul\":30183:30184   */\n      0x00\n        /* \"#utility.yul\":30200:30206   */\n      dup5\n        /* \"#utility.yul\":30197:30274   */\n      iszero\n      tag_491\n      jumpi\n        /* \"#utility.yul\":30249:30258   */\n      dup3\n        /* \"#utility.yul\":30244:30247   */\n      dup8\n        /* \"#utility.yul\":30240:30259   */\n      add\n        /* \"#utility.yul\":30234:30260   */\n      mload\n        /* \"#utility.yul\":30225:30260   */\n      swap1\n      pop\n        /* \"#utility.yul\":30197:30274   */\n    tag_491:\n        /* \"#utility.yul\":30300:30367   */\n      tag_492\n        /* \"#utility.yul\":30360:30366   */\n      dup6\n        /* \"#utility.yul\":30353:30358   */\n      dup3\n        /* \"#utility.yul\":30300:30367   */\n      tag_204\n      jump\t// in\n    tag_492:\n        /* \"#utility.yul\":30294:30298   */\n      dup7\n        /* \"#utility.yul\":30287:30368   */\n      sstore\n        /* \"#utility.yul\":30156:30378   */\n      pop\n        /* \"#utility.yul\":29491:30378   */\n      jump(tag_489)\n        /* \"#utility.yul\":29521:30139   */\n    tag_490:\n        /* \"#utility.yul\":29573:29577   */\n      0x1f\n        /* \"#utility.yul\":29569:29578   */\n      not\n        /* \"#utility.yul\":29561:29567   */\n      dup5\n        /* \"#utility.yul\":29557:29579   */\n      and\n        /* \"#utility.yul\":29607:29644   */\n      tag_493\n        /* \"#utility.yul\":29639:29643   */\n      dup7\n        /* \"#utility.yul\":29607:29644   */\n      tag_191\n      jump\t// in\n    tag_493:\n        /* \"#utility.yul\":29666:29667   */\n      0x00\n        /* \"#utility.yul\":29680:29888   */\n    tag_494:\n        /* \"#utility.yul\":29694:29701   */\n      dup3\n        /* \"#utility.yul\":29691:29692   */\n      dup2\n        /* \"#utility.yul\":29688:29702   */\n      lt\n        /* \"#utility.yul\":29680:29888   */\n      iszero\n      tag_496\n      jumpi\n        /* \"#utility.yul\":29773:29782   */\n      dup5\n        /* \"#utility.yul\":29768:29771   */\n      dup10\n        /* \"#utility.yul\":29764:29783   */\n      add\n        /* \"#utility.yul\":29758:29784   */\n      mload\n        /* \"#utility.yul\":29750:29756   */\n      dup3\n        /* \"#utility.yul\":29743:29785   */\n      sstore\n        /* \"#utility.yul\":29824:29825   */\n      0x01\n        /* \"#utility.yul\":29816:29822   */\n      dup3\n        /* \"#utility.yul\":29812:29826   */\n      add\n        /* \"#utility.yul\":29802:29826   */\n      swap2\n      pop\n        /* \"#utility.yul\":29871:29873   */\n      0x20\n        /* \"#utility.yul\":29860:29869   */\n      dup6\n        /* \"#utility.yul\":29856:29874   */\n      add\n        /* \"#utility.yul\":29843:29874   */\n      swap5\n      pop\n        /* \"#utility.yul\":29717:29721   */\n      0x20\n        /* \"#utility.yul\":29714:29715   */\n      dup2\n        /* \"#utility.yul\":29710:29722   */\n      add\n        /* \"#utility.yul\":29705:29722   */\n      swap1\n      pop\n        /* \"#utility.yul\":29680:29888   */\n      jump(tag_494)\n    tag_496:\n        /* \"#utility.yul\":29916:29922   */\n      dup7\n        /* \"#utility.yul\":29907:29914   */\n      dup4\n        /* \"#utility.yul\":29904:29923   */\n      lt\n        /* \"#utility.yul\":29901:30080   */\n      iszero\n      tag_497\n      jumpi\n        /* \"#utility.yul\":29974:29983   */\n      dup5\n        /* \"#utility.yul\":29969:29972   */\n      dup10\n        /* \"#utility.yul\":29965:29984   */\n      add\n        /* \"#utility.yul\":29959:29985   */\n      mload\n        /* \"#utility.yul\":30017:30065   */\n      tag_498\n        /* \"#utility.yul\":30059:30063   */\n      0x1f\n        /* \"#utility.yul\":30051:30057   */\n      dup10\n        /* \"#utility.yul\":30047:30064   */\n      and\n        /* \"#utility.yul\":30036:30045   */\n      dup3\n        /* \"#utility.yul\":30017:30065   */\n      tag_203\n      jump\t// in\n    tag_498:\n        /* \"#utility.yul\":30009:30015   */\n      dup4\n        /* \"#utility.yul\":30002:30066   */\n      sstore\n        /* \"#utility.yul\":29924:30080   */\n      pop\n        /* \"#utility.yul\":29901:30080   */\n    tag_497:\n        /* \"#utility.yul\":30126:30127   */\n      0x01\n        /* \"#utility.yul\":30122:30123   */\n      0x02\n        /* \"#utility.yul\":30114:30120   */\n      dup9\n        /* \"#utility.yul\":30110:30124   */\n      mul\n        /* \"#utility.yul\":30106:30128   */\n      add\n        /* \"#utility.yul\":30100:30104   */\n      dup9\n        /* \"#utility.yul\":30093:30129   */\n      sstore\n        /* \"#utility.yul\":29528:30139   */\n      pop\n      pop\n      pop\n        /* \"#utility.yul\":29491:30378   */\n    tag_489:\n      pop\n        /* \"#utility.yul\":29081:30384   */\n      pop\n      pop\n      pop\n        /* \"#utility.yul\":28989:30384   */\n      pop\n      pop\n      jump\t// out\n\n    auxdata: 0xa2646970667358221220d6f99e5caad1dba554132ba068ac7c3a377cf949a08936f39d88e5693b1b4dd764736f6c634300081a0033\n}\n",
				"bytecode": {
					"linkReferences": {},
					"object": "6080604052348015600f57600080fd5b50611b118061001f6000396000f3fe608060405234801561001057600080fd5b50600436106100365760003560e01c80633db804da1461003b578063457b8b911461006b575b600080fd5b61005560048036038101906100509190610af9565b610087565b6040516100629190610bb6565b60405180910390f35b61008560048036038101906100809190610d6b565b610133565b005b6000818154811061009757600080fd5b9060005260206000200160009150905080546100b290610e58565b80601f01602080910402602001604051908101604052809291908181526020018280546100de90610e58565b801561012b5780601f106101005761010080835404028352916020019161012b565b820191906000526020600020905b81548152906001019060200180831161010e57829003601f168201915b505050505081565b6000841180156101435750600083115b610182576040517f08c379a000000000000000000000000000000000000000000000000000000000815260040161017990610ed5565b60405180910390fd5b6000821180156101925750838211155b6101d1576040517f08c379a00000000000000000000000000000000000000000000000000000000081526004016101c890610f41565b60405180910390fd5b838673ffffffffffffffffffffffffffffffffffffffff166370a08231306040518263ffffffff1660e01b815260040161020b9190610f70565b602060405180830381865afa158015610228573d6000803e3d6000fd5b505050506040513d601f19601f8201168201806040525081019061024c9190610fa0565b101561028d576040517f08c379a00000000000000000000000000000000000000000000000000000000081526004016102849061103f565b60405180910390fd5b828573ffffffffffffffffffffffffffffffffffffffff166370a08231306040518263ffffffff1660e01b81526004016102c79190610f70565b602060405180830381865afa1580156102e4573d6000803e3d6000fd5b505050506040513d601f19601f820116820180604052508101906103089190610fa0565b1015610349576040517f08c379a0000000000000000000000000000000000000000000000000000000008152600401610340906110d1565b60405180910390fd5b8573ffffffffffffffffffffffffffffffffffffffff1663095ea7b388866040518363ffffffff1660e01b8152600401610384929190611100565b6020604051808303816000875af11580156103a3573d6000803e3d6000fd5b505050506040513d601f19601f820116820180604052508101906103c79190611161565b508473ffffffffffffffffffffffffffffffffffffffff1663095ea7b388856040518363ffffffff1660e01b8152600401610403929190611100565b6020604051808303816000875af1158015610422573d6000803e3d6000fd5b505050506040513d601f19601f820116820180604052508101906104469190611161565b5060008060008973ffffffffffffffffffffffffffffffffffffffff1663e8e337008a8a8a8a8c8c3060014261047c91906111bd565b6040518963ffffffff1660e01b815260040161049f9897969594939291906111f1565b6060604051808303816000875af11580156104be573d6000803e3d6000fd5b505050506040513d601f19601f820116820180604052508101906104e2919061126f565b92509250925086831480156104f657508582145b610535576040517f08c379a000000000000000000000000000000000000000000000000000000000815260040161052c9061130e565b60405180910390fd5b60008111610578576040517f08c379a000000000000000000000000000000000000000000000000000000000815260040161056f906113a0565b60405180910390fd5b60008a73ffffffffffffffffffffffffffffffffffffffff1663ac41865a8b8b6040518363ffffffff1660e01b81526004016105b59291906113c0565b602060405180830381865afa1580156105d2573d6000803e3d6000fd5b505050506040513d601f19601f820116820180604052508101906105f69190610fa0565b905083670de0b6b3a76400008461060d91906113e9565b610617919061145a565b8114610658576040517f08c379a000000000000000000000000000000000000000000000000000000000815260040161064f906114d7565b60405180910390fd5b60008b73ffffffffffffffffffffffffffffffffffffffff16634aa066528c8c8a6040518463ffffffff1660e01b8152600401610697939291906114f7565b602060405180830381865afa1580156106b4573d6000803e3d6000fd5b505050506040513d601f19601f820116820180604052508101906106d89190610fa0565b90508a73ffffffffffffffffffffffffffffffffffffffff1663095ea7b38d896040518363ffffffff1660e01b8152600401610715929190611100565b6020604051808303816000875af1158015610734573d6000803e3d6000fd5b505050506040513d601f19601f820116820180604052508101906107589190611161565b506000600267ffffffffffffffff81111561077657610775610c40565b5b6040519080825280602002602001820160405280156107a45781602001602082028036833780820191505090505b5090508b816000815181106107bc576107bb61152e565b5b602002602001019073ffffffffffffffffffffffffffffffffffffffff16908173ffffffffffffffffffffffffffffffffffffffff16815250508a8160018151811061080b5761080a61152e565b5b602002602001019073ffffffffffffffffffffffffffffffffffffffff16908173ffffffffffffffffffffffffffffffffffffffff16815250508c73ffffffffffffffffffffffffffffffffffffffff166338ed17398984843060014261087291906111bd565b6040518663ffffffff1660e01b815260040161089295949392919061161b565b600060405180830381600087803b1580156108ac57600080fd5b505af11580156108c0573d6000803e3d6000fd5b50505050818b73ffffffffffffffffffffffffffffffffffffffff166370a08231306040518263ffffffff1660e01b81526004016108fe9190610f70565b602060405180830381865afa15801561091b573d6000803e3d6000fd5b505050506040513d601f19601f8201168201806040525081019061093f9190610fa0565b1015610980576040517f08c379a0000000000000000000000000000000000000000000000000000000008152600401610977906116c1565b60405180910390fd5b6000808e73ffffffffffffffffffffffffffffffffffffffff1663baa2abde8f8f89600080306001426109b391906111bd565b6040518863ffffffff1660e01b81526004016109d59796959493929190611726565b60408051808303816000875af11580156109f3573d6000803e3d6000fd5b505050506040513d601f19601f82011682018060405250810190610a179190611795565b9150915060008183610a2991906111bd565b11610a69576040517f08c379a0000000000000000000000000000000000000000000000000000000008152600401610a6090611847565b60405180910390fd5b600089908060018154018082558091505060019003906000526020600020016000909190919091509081610a9d9190611a09565b50505050505050505050505050505050565b6000604051905090565b600080fd5b600080fd5b6000819050919050565b610ad681610ac3565b8114610ae157600080fd5b50565b600081359050610af381610acd565b92915050565b600060208284031215610b0f57610b0e610ab9565b5b6000610b1d84828501610ae4565b91505092915050565b600081519050919050565b600082825260208201905092915050565b60005b83811015610b60578082015181840152602081019050610b45565b60008484015250505050565b6000601f19601f8301169050919050565b6000610b8882610b26565b610b928185610b31565b9350610ba2818560208601610b42565b610bab81610b6c565b840191505092915050565b60006020820190508181036000830152610bd08184610b7d565b905092915050565b600073ffffffffffffffffffffffffffffffffffffffff82169050919050565b6000610c0382610bd8565b9050919050565b610c1381610bf8565b8114610c1e57600080fd5b50565b600081359050610c3081610c0a565b92915050565b600080fd5b600080fd5b7f4e487b7100000000000000000000000000000000000000000000000000000000600052604160045260246000fd5b610c7882610b6c565b810181811067ffffffffffffffff82111715610c9757610c96610c40565b5b80604052505050565b6000610caa610aaf565b9050610cb68282610c6f565b919050565b600067ffffffffffffffff821115610cd657610cd5610c40565b5b610cdf82610b6c565b9050602081019050919050565b82818337600083830152505050565b6000610d0e610d0984610cbb565b610ca0565b905082815260208101848484011115610d2a57610d29610c3b565b5b610d35848285610cec565b509392505050565b600082601f830112610d5257610d51610c36565b5b8135610d62848260208601610cfb565b91505092915050565b600080600080600080600060e0888a031215610d8a57610d89610ab9565b5b6000610d988a828b01610c21565b9750506020610da98a828b01610c21565b9650506040610dba8a828b01610c21565b9550506060610dcb8a828b01610ae4565b9450506080610ddc8a828b01610ae4565b93505060a0610ded8a828b01610ae4565b92505060c088013567ffffffffffffffff811115610e0e57610e0d610abe565b5b610e1a8a828b01610d3d565b91505092959891949750929550565b7f4e487b7100000000000000000000000000000000000000000000000000000000600052602260045260246000fd5b60006002820490506001821680610e7057607f821691505b602082108103610e8357610e82610e29565b5b50919050565b7f496e76616c6964206c697175696469747920616d6f756e747300000000000000600082015250565b6000610ebf601983610b31565b9150610eca82610e89565b602082019050919050565b60006020820190508181036000830152610eee81610eb2565b9050919050565b7f496e76616c6964207377617020616d6f756e7400000000000000000000000000600082015250565b6000610f2b601383610b31565b9150610f3682610ef5565b602082019050919050565b60006020820190508181036000830152610f5a81610f1e565b9050919050565b610f6a81610bf8565b82525050565b6000602082019050610f856000830184610f61565b92915050565b600081519050610f9a81610acd565b92915050565b600060208284031215610fb657610fb5610ab9565b5b6000610fc484828501610f8b565b91505092915050565b7f496e73756666696369656e7420746f6b656e204120737570706c7920666f722060008201527f7468697320636f6e746163740000000000000000000000000000000000000000602082015250565b6000611029602c83610b31565b915061103482610fcd565b604082019050919050565b600060208201905081810360008301526110588161101c565b9050919050565b7f496e73756666696369656e7420746f6b656e204220737570706c7920666f722060008201527f7468697320636f6e746163740000000000000000000000000000000000000000602082015250565b60006110bb602c83610b31565b91506110c68261105f565b604082019050919050565b600060208201905081810360008301526110ea816110ae565b9050919050565b6110fa81610ac3565b82525050565b60006040820190506111156000830185610f61565b61112260208301846110f1565b9392505050565b60008115159050919050565b61113e81611129565b811461114957600080fd5b50565b60008151905061115b81611135565b92915050565b60006020828403121561117757611176610ab9565b5b60006111858482850161114c565b91505092915050565b7f4e487b7100000000000000000000000000000000000000000000000000000000600052601160045260246000fd5b60006111c882610ac3565b91506111d383610ac3565b92508282019050808211156111eb576111ea61118e565b5b92915050565b600061010082019050611207600083018b610f61565b611214602083018a610f61565b61122160408301896110f1565b61122e60608301886110f1565b61123b60808301876110f1565b61124860a08301866110f1565b61125560c0830185610f61565b61126260e08301846110f1565b9998505050505050505050565b60008060006060848603121561128857611287610ab9565b5b600061129686828701610f8b565b93505060206112a786828701610f8b565b92505060406112b886828701610f8b565b9150509250925092565b7f6164644c697175696469747920616d6f756e7473206d69736d61746368000000600082015250565b60006112f8601d83610b31565b9150611303826112c2565b602082019050919050565b60006020820190508181036000830152611327816112eb565b9050919050565b7f6164644c69717569646974792072657475726e6564207a65726f206c6971756960008201527f6469747900000000000000000000000000000000000000000000000000000000602082015250565b600061138a602483610b31565b91506113958261132e565b604082019050919050565b600060208201905081810360008301526113b98161137d565b9050919050565b60006040820190506113d56000830185610f61565b6113e26020830184610f61565b9392505050565b60006113f482610ac3565b91506113ff83610ac3565b925082820261140d81610ac3565b915082820484148315176114245761142361118e565b5b5092915050565b7f4e487b7100000000000000000000000000000000000000000000000000000000600052601260045260246000fd5b600061146582610ac3565b915061147083610ac3565b9250826114805761147f61142b565b5b828204905092915050565b7f676574507269636520696e636f72726563740000000000000000000000000000600082015250565b60006114c1601283610b31565b91506114cc8261148b565b602082019050919050565b600060208201905081810360008301526114f0816114b4565b9050919050565b600060608201905061150c6000830186610f61565b6115196020830185610f61565b61152660408301846110f1565b949350505050565b7f4e487b7100000000000000000000000000000000000000000000000000000000600052603260045260246000fd5b600081519050919050565b600082825260208201905092915050565b6000819050602082019050919050565b61159281610bf8565b82525050565b60006115a48383611589565b60208301905092915050565b6000602082019050919050565b60006115c88261155d565b6115d28185611568565b93506115dd83611579565b8060005b8381101561160e5781516115f58882611598565b9750611600836115b0565b9250506001810190506115e1565b5085935050505092915050565b600060a08201905061163060008301886110f1565b61163d60208301876110f1565b818103604083015261164f81866115bd565b905061165e6060830185610f61565b61166b60808301846110f1565b9695505050505050565b7f737761704578616374546f6b656e73466f72546f6b656e73206661696c656400600082015250565b60006116ab601f83610b31565b91506116b682611675565b602082019050919050565b600060208201905081810360008301526116da8161169e565b9050919050565b6000819050919050565b6000819050919050565b600061171061170b611706846116e1565b6116eb565b610ac3565b9050919050565b611720816116f5565b82525050565b600060e08201905061173b600083018a610f61565b6117486020830189610f61565b61175560408301886110f1565b6117626060830187611717565b61176f6080830186611717565b61177c60a0830185610f61565b61178960c08301846110f1565b98975050505050505050565b600080604083850312156117ac576117ab610ab9565b5b60006117ba85828601610f8b565b92505060206117cb85828601610f8b565b9150509250929050565b7f72656d6f76654c69717569646974792072657475726e6564207a65726f20746f60008201527f6b656e7300000000000000000000000000000000000000000000000000000000602082015250565b6000611831602483610b31565b915061183c826117d5565b604082019050919050565b6000602082019050818103600083015261186081611824565b9050919050565b60008190508160005260206000209050919050565b60006020601f8301049050919050565b600082821b905092915050565b6000600883026118c97fffffffffffffffffffffffffffffffffffffffffffffffffffffffffffffffff8261188c565b6118d3868361188c565b95508019841693508086168417925050509392505050565b60006119066119016118fc84610ac3565b6116eb565b610ac3565b9050919050565b6000819050919050565b611920836118eb565b61193461192c8261190d565b848454611899565b825550505050565b600090565b61194961193c565b611954818484611917565b505050565b5b818110156119785761196d600082611941565b60018101905061195a565b5050565b601f8211156119bd5761198e81611867565b6119978461187c565b810160208510156119a6578190505b6119ba6119b28561187c565b830182611959565b50505b505050565b600082821c905092915050565b60006119e0600019846008026119c2565b1980831691505092915050565b60006119f983836119cf565b9150826002028217905092915050565b611a1282610b26565b67ffffffffffffffff811115611a2b57611a2a610c40565b5b611a358254610e58565b611a4082828561197c565b600060209050601f831160018114611a735760008415611a61578287015190505b611a6b85826119ed565b865550611ad3565b601f198416611a8186611867565b60005b82811015611aa957848901518255600182019150602085019450602081019050611a84565b86831015611ac65784890151611ac2601f8916826119cf565b8355505b6001600288020188555050505b50505050505056fea2646970667358221220d6f99e5caad1dba554132ba068ac7c3a377cf949a08936f39d88e5693b1b4dd764736f6c634300081a0033",
					"opcodes": "PUSH1 0x80 PUSH1 0x40 MSTORE CALLVALUE DUP1 ISZERO PUSH1 0xF JUMPI PUSH1 0x0 DUP1 REVERT JUMPDEST POP PUSH2 0x1B11 DUP1 PUSH2 0x1F PUSH1 0x0 CODECOPY PUSH1 0x0 RETURN INVALID PUSH1 0x80 PUSH1 0x40 MSTORE CALLVALUE DUP1 ISZERO PUSH2 0x10 JUMPI PUSH1 0x0 DUP1 REVERT JUMPDEST POP PUSH1 0x4 CALLDATASIZE LT PUSH2 0x36 JUMPI PUSH1 0x0 CALLDATALOAD PUSH1 0xE0 SHR DUP1 PUSH4 0x3DB804DA EQ PUSH2 0x3B JUMPI DUP1 PUSH4 0x457B8B91 EQ PUSH2 0x6B JUMPI JUMPDEST PUSH1 0x0 DUP1 REVERT JUMPDEST PUSH2 0x55 PUSH1 0x4 DUP1 CALLDATASIZE SUB DUP2 ADD SWAP1 PUSH2 0x50 SWAP2 SWAP1 PUSH2 0xAF9 JUMP JUMPDEST PUSH2 0x87 JUMP JUMPDEST PUSH1 0x40 MLOAD PUSH2 0x62 SWAP2 SWAP1 PUSH2 0xBB6 JUMP JUMPDEST PUSH1 0x40 MLOAD DUP1 SWAP2 SUB SWAP1 RETURN JUMPDEST PUSH2 0x85 PUSH1 0x4 DUP1 CALLDATASIZE SUB DUP2 ADD SWAP1 PUSH2 0x80 SWAP2 SWAP1 PUSH2 0xD6B JUMP JUMPDEST PUSH2 0x133 JUMP JUMPDEST STOP JUMPDEST PUSH1 0x0 DUP2 DUP2 SLOAD DUP2 LT PUSH2 0x97 JUMPI PUSH1 0x0 DUP1 REVERT JUMPDEST SWAP1 PUSH1 0x0 MSTORE PUSH1 0x20 PUSH1 0x0 KECCAK256 ADD PUSH1 0x0 SWAP2 POP SWAP1 POP DUP1 SLOAD PUSH2 0xB2 SWAP1 PUSH2 0xE58 JUMP JUMPDEST DUP1 PUSH1 0x1F ADD PUSH1 0x20 DUP1 SWAP2 DIV MUL PUSH1 0x20 ADD PUSH1 0x40 MLOAD SWAP1 DUP2 ADD PUSH1 0x40 MSTORE DUP1 SWAP3 SWAP2 SWAP1 DUP2 DUP2 MSTORE PUSH1 0x20 ADD DUP3 DUP1 SLOAD PUSH2 0xDE SWAP1 PUSH2 0xE58 JUMP JUMPDEST DUP1 ISZERO PUSH2 0x12B JUMPI DUP1 PUSH1 0x1F LT PUSH2 0x100 JUMPI PUSH2 0x100 DUP1 DUP4 SLOAD DIV MUL DUP4 MSTORE SWAP2 PUSH1 0x20 ADD SWAP2 PUSH2 0x12B JUMP JUMPDEST DUP3 ADD SWAP2 SWAP1 PUSH1 0x0 MSTORE PUSH1 0x20 PUSH1 0x0 KECCAK256 SWAP1 JUMPDEST DUP2 SLOAD DUP2 MSTORE SWAP1 PUSH1 0x1 ADD SWAP1 PUSH1 0x20 ADD DUP1 DUP4 GT PUSH2 0x10E JUMPI DUP3 SWAP1 SUB PUSH1 0x1F AND DUP3 ADD SWAP2 JUMPDEST POP POP POP POP POP DUP2 JUMP JUMPDEST PUSH1 0x0 DUP5 GT DUP1 ISZERO PUSH2 0x143 JUMPI POP PUSH1 0x0 DUP4 GT JUMPDEST PUSH2 0x182 JUMPI PUSH1 0x40 MLOAD PUSH32 0x8C379A000000000000000000000000000000000000000000000000000000000 DUP2 MSTORE PUSH1 0x4 ADD PUSH2 0x179 SWAP1 PUSH2 0xED5 JUMP JUMPDEST PUSH1 0x40 MLOAD DUP1 SWAP2 SUB SWAP1 REVERT JUMPDEST PUSH1 0x0 DUP3 GT DUP1 ISZERO PUSH2 0x192 JUMPI POP DUP4 DUP3 GT ISZERO JUMPDEST PUSH2 0x1D1 JUMPI PUSH1 0x40 MLOAD PUSH32 0x8C379A000000000000000000000000000000000000000000000000000000000 DUP2 MSTORE PUSH1 0x4 ADD PUSH2 0x1C8 SWAP1 PUSH2 0xF41 JUMP JUMPDEST PUSH1 0x40 MLOAD DUP1 SWAP2 SUB SWAP1 REVERT JUMPDEST DUP4 DUP7 PUSH20 0xFFFFFFFFFFFFFFFFFFFFFFFFFFFFFFFFFFFFFFFF AND PUSH4 0x70A08231 ADDRESS PUSH1 0x40 MLOAD DUP3 PUSH4 0xFFFFFFFF AND PUSH1 0xE0 SHL DUP2 MSTORE PUSH1 0x4 ADD PUSH2 0x20B SWAP2 SWAP1 PUSH2 0xF70 JUMP JUMPDEST PUSH1 0x20 PUSH1 0x40 MLOAD DUP1 DUP4 SUB DUP2 DUP7 GAS STATICCALL ISZERO DUP1 ISZERO PUSH2 0x228 JUMPI RETURNDATASIZE PUSH1 0x0 DUP1 RETURNDATACOPY RETURNDATASIZE PUSH1 0x0 REVERT JUMPDEST POP POP POP POP PUSH1 0x40 MLOAD RETURNDATASIZE PUSH1 0x1F NOT PUSH1 0x1F DUP3 ADD AND DUP3 ADD DUP1 PUSH1 0x40 MSTORE POP DUP2 ADD SWAP1 PUSH2 0x24C SWAP2 SWAP1 PUSH2 0xFA0 JUMP JUMPDEST LT ISZERO PUSH2 0x28D JUMPI PUSH1 0x40 MLOAD PUSH32 0x8C379A000000000000000000000000000000000000000000000000000000000 DUP2 MSTORE PUSH1 0x4 ADD PUSH2 0x284 SWAP1 PUSH2 0x103F JUMP JUMPDEST PUSH1 0x40 MLOAD DUP1 SWAP2 SUB SWAP1 REVERT JUMPDEST DUP3 DUP6 PUSH20 0xFFFFFFFFFFFFFFFFFFFFFFFFFFFFFFFFFFFFFFFF AND PUSH4 0x70A08231 ADDRESS PUSH1 0x40 MLOAD DUP3 PUSH4 0xFFFFFFFF AND PUSH1 0xE0 SHL DUP2 MSTORE PUSH1 0x4 ADD PUSH2 0x2C7 SWAP2 SWAP1 PUSH2 0xF70 JUMP JUMPDEST PUSH1 0x20 PUSH1 0x40 MLOAD DUP1 DUP4 SUB DUP2 DUP7 GAS STATICCALL ISZERO DUP1 ISZERO PUSH2 0x2E4 JUMPI RETURNDATASIZE PUSH1 0x0 DUP1 RETURNDATACOPY RETURNDATASIZE PUSH1 0x0 REVERT JUMPDEST POP POP POP POP PUSH1 0x40 MLOAD RETURNDATASIZE PUSH1 0x1F NOT PUSH1 0x1F DUP3 ADD AND DUP3 ADD DUP1 PUSH1 0x40 MSTORE POP DUP2 ADD SWAP1 PUSH2 0x308 SWAP2 SWAP1 PUSH2 0xFA0 JUMP JUMPDEST LT ISZERO PUSH2 0x349 JUMPI PUSH1 0x40 MLOAD PUSH32 0x8C379A000000000000000000000000000000000000000000000000000000000 DUP2 MSTORE PUSH1 0x4 ADD PUSH2 0x340 SWAP1 PUSH2 0x10D1 JUMP JUMPDEST PUSH1 0x40 MLOAD DUP1 SWAP2 SUB SWAP1 REVERT JUMPDEST DUP6 PUSH20 0xFFFFFFFFFFFFFFFFFFFFFFFFFFFFFFFFFFFFFFFF AND PUSH4 0x95EA7B3 DUP9 DUP7 PUSH1 0x40 MLOAD DUP4 PUSH4 0xFFFFFFFF AND PUSH1 0xE0 SHL DUP2 MSTORE PUSH1 0x4 ADD PUSH2 0x384 SWAP3 SWAP2 SWAP1 PUSH2 0x1100 JUMP JUMPDEST PUSH1 0x20 PUSH1 0x40 MLOAD DUP1 DUP4 SUB DUP2 PUSH1 0x0 DUP8 GAS CALL ISZERO DUP1 ISZERO PUSH2 0x3A3 JUMPI RETURNDATASIZE PUSH1 0x0 DUP1 RETURNDATACOPY RETURNDATASIZE PUSH1 0x0 REVERT JUMPDEST POP POP POP POP PUSH1 0x40 MLOAD RETURNDATASIZE PUSH1 0x1F NOT PUSH1 0x1F DUP3 ADD AND DUP3 ADD DUP1 PUSH1 0x40 MSTORE POP DUP2 ADD SWAP1 PUSH2 0x3C7 SWAP2 SWAP1 PUSH2 0x1161 JUMP JUMPDEST POP DUP5 PUSH20 0xFFFFFFFFFFFFFFFFFFFFFFFFFFFFFFFFFFFFFFFF AND PUSH4 0x95EA7B3 DUP9 DUP6 PUSH1 0x40 MLOAD DUP4 PUSH4 0xFFFFFFFF AND PUSH1 0xE0 SHL DUP2 MSTORE PUSH1 0x4 ADD PUSH2 0x403 SWAP3 SWAP2 SWAP1 PUSH2 0x1100 JUMP JUMPDEST PUSH1 0x20 PUSH1 0x40 MLOAD DUP1 DUP4 SUB DUP2 PUSH1 0x0 DUP8 GAS CALL ISZERO DUP1 ISZERO PUSH2 0x422 JUMPI RETURNDATASIZE PUSH1 0x0 DUP1 RETURNDATACOPY RETURNDATASIZE PUSH1 0x0 REVERT JUMPDEST POP POP POP POP PUSH1 0x40 MLOAD RETURNDATASIZE PUSH1 0x1F NOT PUSH1 0x1F DUP3 ADD AND DUP3 ADD DUP1 PUSH1 0x40 MSTORE POP DUP2 ADD SWAP1 PUSH2 0x446 SWAP2 SWAP1 PUSH2 0x1161 JUMP JUMPDEST POP PUSH1 0x0 DUP1 PUSH1 0x0 DUP10 PUSH20 0xFFFFFFFFFFFFFFFFFFFFFFFFFFFFFFFFFFFFFFFF AND PUSH4 0xE8E33700 DUP11 DUP11 DUP11 DUP11 DUP13 DUP13 ADDRESS PUSH1 0x1 TIMESTAMP PUSH2 0x47C SWAP2 SWAP1 PUSH2 0x11BD JUMP JUMPDEST PUSH1 0x40 MLOAD DUP10 PUSH4 0xFFFFFFFF AND PUSH1 0xE0 SHL DUP2 MSTORE PUSH1 0x4 ADD PUSH2 0x49F SWAP9 SWAP8 SWAP7 SWAP6 SWAP5 SWAP4 SWAP3 SWAP2 SWAP1 PUSH2 0x11F1 JUMP JUMPDEST PUSH1 0x60 PUSH1 0x40 MLOAD DUP1 DUP4 SUB DUP2 PUSH1 0x0 DUP8 GAS CALL ISZERO DUP1 ISZERO PUSH2 0x4BE JUMPI RETURNDATASIZE PUSH1 0x0 DUP1 RETURNDATACOPY RETURNDATASIZE PUSH1 0x0 REVERT JUMPDEST POP POP POP POP PUSH1 0x40 MLOAD RETURNDATASIZE PUSH1 0x1F NOT PUSH1 0x1F DUP3 ADD AND DUP3 ADD DUP1 PUSH1 0x40 MSTORE POP DUP2 ADD SWAP1 PUSH2 0x4E2 SWAP2 SWAP1 PUSH2 0x126F JUMP JUMPDEST SWAP3 POP SWAP3 POP SWAP3 POP DUP7 DUP4 EQ DUP1 ISZERO PUSH2 0x4F6 JUMPI POP DUP6 DUP3 EQ JUMPDEST PUSH2 0x535 JUMPI PUSH1 0x40 MLOAD PUSH32 0x8C379A000000000000000000000000000000000000000000000000000000000 DUP2 MSTORE PUSH1 0x4 ADD PUSH2 0x52C SWAP1 PUSH2 0x130E JUMP JUMPDEST PUSH1 0x40 MLOAD DUP1 SWAP2 SUB SWAP1 REVERT JUMPDEST PUSH1 0x0 DUP2 GT PUSH2 0x578 JUMPI PUSH1 0x40 MLOAD PUSH32 0x8C379A000000000000000000000000000000000000000000000000000000000 DUP2 MSTORE PUSH1 0x4 ADD PUSH2 0x56F SWAP1 PUSH2 0x13A0 JUMP JUMPDEST PUSH1 0x40 MLOAD DUP1 SWAP2 SUB SWAP1 REVERT JUMPDEST PUSH1 0x0 DUP11 PUSH20 0xFFFFFFFFFFFFFFFFFFFFFFFFFFFFFFFFFFFFFFFF AND PUSH4 0xAC41865A DUP12 DUP12 PUSH1 0x40 MLOAD DUP4 PUSH4 0xFFFFFFFF AND PUSH1 0xE0 SHL DUP2 MSTORE PUSH1 0x4 ADD PUSH2 0x5B5 SWAP3 SWAP2 SWAP1 PUSH2 0x13C0 JUMP JUMPDEST PUSH1 0x20 PUSH1 0x40 MLOAD DUP1 DUP4 SUB DUP2 DUP7 GAS STATICCALL ISZERO DUP1 ISZERO PUSH2 0x5D2 JUMPI RETURNDATASIZE PUSH1 0x0 DUP1 RETURNDATACOPY RETURNDATASIZE PUSH1 0x0 REVERT JUMPDEST POP POP POP POP PUSH1 0x40 MLOAD RETURNDATASIZE PUSH1 0x1F NOT PUSH1 0x1F DUP3 ADD AND DUP3 ADD DUP1 PUSH1 0x40 MSTORE POP DUP2 ADD SWAP1 PUSH2 0x5F6 SWAP2 SWAP1 PUSH2 0xFA0 JUMP JUMPDEST SWAP1 POP DUP4 PUSH8 0xDE0B6B3A7640000 DUP5 PUSH2 0x60D SWAP2 SWAP1 PUSH2 0x13E9 JUMP JUMPDEST PUSH2 0x617 SWAP2 SWAP1 PUSH2 0x145A JUMP JUMPDEST DUP2 EQ PUSH2 0x658 JUMPI PUSH1 0x40 MLOAD PUSH32 0x8C379A000000000000000000000000000000000000000000000000000000000 DUP2 MSTORE PUSH1 0x4 ADD PUSH2 0x64F SWAP1 PUSH2 0x14D7 JUMP JUMPDEST PUSH1 0x40 MLOAD DUP1 SWAP2 SUB SWAP1 REVERT JUMPDEST PUSH1 0x0 DUP12 PUSH20 0xFFFFFFFFFFFFFFFFFFFFFFFFFFFFFFFFFFFFFFFF AND PUSH4 0x4AA06652 DUP13 DUP13 DUP11 PUSH1 0x40 MLOAD DUP5 PUSH4 0xFFFFFFFF AND PUSH1 0xE0 SHL DUP2 MSTORE PUSH1 0x4 ADD PUSH2 0x697 SWAP4 SWAP3 SWAP2 SWAP1 PUSH2 0x14F7 JUMP JUMPDEST PUSH1 0x20 PUSH1 0x40 MLOAD DUP1 DUP4 SUB DUP2 DUP7 GAS STATICCALL ISZERO DUP1 ISZERO PUSH2 0x6B4 JUMPI RETURNDATASIZE PUSH1 0x0 DUP1 RETURNDATACOPY RETURNDATASIZE PUSH1 0x0 REVERT JUMPDEST POP POP POP POP PUSH1 0x40 MLOAD RETURNDATASIZE PUSH1 0x1F NOT PUSH1 0x1F DUP3 ADD AND DUP3 ADD DUP1 PUSH1 0x40 MSTORE POP DUP2 ADD SWAP1 PUSH2 0x6D8 SWAP2 SWAP1 PUSH2 0xFA0 JUMP JUMPDEST SWAP1 POP DUP11 PUSH20 0xFFFFFFFFFFFFFFFFFFFFFFFFFFFFFFFFFFFFFFFF AND PUSH4 0x95EA7B3 DUP14 DUP10 PUSH1 0x40 MLOAD DUP4 PUSH4 0xFFFFFFFF AND PUSH1 0xE0 SHL DUP2 MSTORE PUSH1 0x4 ADD PUSH2 0x715 SWAP3 SWAP2 SWAP1 PUSH2 0x1100 JUMP JUMPDEST PUSH1 0x20 PUSH1 0x40 MLOAD DUP1 DUP4 SUB DUP2 PUSH1 0x0 DUP8 GAS CALL ISZERO DUP1 ISZERO PUSH2 0x734 JUMPI RETURNDATASIZE PUSH1 0x0 DUP1 RETURNDATACOPY RETURNDATASIZE PUSH1 0x0 REVERT JUMPDEST POP POP POP POP PUSH1 0x40 MLOAD RETURNDATASIZE PUSH1 0x1F NOT PUSH1 0x1F DUP3 ADD AND DUP3 ADD DUP1 PUSH1 0x40 MSTORE POP DUP2 ADD SWAP1 PUSH2 0x758 SWAP2 SWAP1 PUSH2 0x1161 JUMP JUMPDEST POP PUSH1 0x0 PUSH1 0x2 PUSH8 0xFFFFFFFFFFFFFFFF DUP2 GT ISZERO PUSH2 0x776 JUMPI PUSH2 0x775 PUSH2 0xC40 JUMP JUMPDEST JUMPDEST PUSH1 0x40 MLOAD SWAP1 DUP1 DUP3 MSTORE DUP1 PUSH1 0x20 MUL PUSH1 0x20 ADD DUP3 ADD PUSH1 0x40 MSTORE DUP1 ISZERO PUSH2 0x7A4 JUMPI DUP2 PUSH1 0x20 ADD PUSH1 0x20 DUP3 MUL DUP1 CALLDATASIZE DUP4 CALLDATACOPY DUP1 DUP3 ADD SWAP2 POP POP SWAP1 POP JUMPDEST POP SWAP1 POP DUP12 DUP2 PUSH1 0x0 DUP2 MLOAD DUP2 LT PUSH2 0x7BC JUMPI PUSH2 0x7BB PUSH2 0x152E JUMP JUMPDEST JUMPDEST PUSH1 0x20 MUL PUSH1 0x20 ADD ADD SWAP1 PUSH20 0xFFFFFFFFFFFFFFFFFFFFFFFFFFFFFFFFFFFFFFFF AND SWAP1 DUP2 PUSH20 0xFFFFFFFFFFFFFFFFFFFFFFFFFFFFFFFFFFFFFFFF AND DUP2 MSTORE POP POP DUP11 DUP2 PUSH1 0x1 DUP2 MLOAD DUP2 LT PUSH2 0x80B JUMPI PUSH2 0x80A PUSH2 0x152E JUMP JUMPDEST JUMPDEST PUSH1 0x20 MUL PUSH1 0x20 ADD ADD SWAP1 PUSH20 0xFFFFFFFFFFFFFFFFFFFFFFFFFFFFFFFFFFFFFFFF AND SWAP1 DUP2 PUSH20 0xFFFFFFFFFFFFFFFFFFFFFFFFFFFFFFFFFFFFFFFF AND DUP2 MSTORE POP POP DUP13 PUSH20 0xFFFFFFFFFFFFFFFFFFFFFFFFFFFFFFFFFFFFFFFF AND PUSH4 0x38ED1739 DUP10 DUP5 DUP5 ADDRESS PUSH1 0x1 TIMESTAMP PUSH2 0x872 SWAP2 SWAP1 PUSH2 0x11BD JUMP JUMPDEST PUSH1 0x40 MLOAD DUP7 PUSH4 0xFFFFFFFF AND PUSH1 0xE0 SHL DUP2 MSTORE PUSH1 0x4 ADD PUSH2 0x892 SWAP6 SWAP5 SWAP4 SWAP3 SWAP2 SWAP1 PUSH2 0x161B JUMP JUMPDEST PUSH1 0x0 PUSH1 0x40 MLOAD DUP1 DUP4 SUB DUP2 PUSH1 0x0 DUP8 DUP1 EXTCODESIZE ISZERO DUP1 ISZERO PUSH2 0x8AC JUMPI PUSH1 0x0 DUP1 REVERT JUMPDEST POP GAS CALL ISZERO DUP1 ISZERO PUSH2 0x8C0 JUMPI RETURNDATASIZE PUSH1 0x0 DUP1 RETURNDATACOPY RETURNDATASIZE PUSH1 0x0 REVERT JUMPDEST POP POP POP POP DUP2 DUP12 PUSH20 0xFFFFFFFFFFFFFFFFFFFFFFFFFFFFFFFFFFFFFFFF AND PUSH4 0x70A08231 ADDRESS PUSH1 0x40 MLOAD DUP3 PUSH4 0xFFFFFFFF AND PUSH1 0xE0 SHL DUP2 MSTORE PUSH1 0x4 ADD PUSH2 0x8FE SWAP2 SWAP1 PUSH2 0xF70 JUMP JUMPDEST PUSH1 0x20 PUSH1 0x40 MLOAD DUP1 DUP4 SUB DUP2 DUP7 GAS STATICCALL ISZERO DUP1 ISZERO PUSH2 0x91B JUMPI RETURNDATASIZE PUSH1 0x0 DUP1 RETURNDATACOPY RETURNDATASIZE PUSH1 0x0 REVERT JUMPDEST POP POP POP POP PUSH1 0x40 MLOAD RETURNDATASIZE PUSH1 0x1F NOT PUSH1 0x1F DUP3 ADD AND DUP3 ADD DUP1 PUSH1 0x40 MSTORE POP DUP2 ADD SWAP1 PUSH2 0x93F SWAP2 SWAP1 PUSH2 0xFA0 JUMP JUMPDEST LT ISZERO PUSH2 0x980 JUMPI PUSH1 0x40 MLOAD PUSH32 0x8C379A000000000000000000000000000000000000000000000000000000000 DUP2 MSTORE PUSH1 0x4 ADD PUSH2 0x977 SWAP1 PUSH2 0x16C1 JUMP JUMPDEST PUSH1 0x40 MLOAD DUP1 SWAP2 SUB SWAP1 REVERT JUMPDEST PUSH1 0x0 DUP1 DUP15 PUSH20 0xFFFFFFFFFFFFFFFFFFFFFFFFFFFFFFFFFFFFFFFF AND PUSH4 0xBAA2ABDE DUP16 DUP16 DUP10 PUSH1 0x0 DUP1 ADDRESS PUSH1 0x1 TIMESTAMP PUSH2 0x9B3 SWAP2 SWAP1 PUSH2 0x11BD JUMP JUMPDEST PUSH1 0x40 MLOAD DUP9 PUSH4 0xFFFFFFFF AND PUSH1 0xE0 SHL DUP2 MSTORE PUSH1 0x4 ADD PUSH2 0x9D5 SWAP8 SWAP7 SWAP6 SWAP5 SWAP4 SWAP3 SWAP2 SWAP1 PUSH2 0x1726 JUMP JUMPDEST PUSH1 0x40 DUP1 MLOAD DUP1 DUP4 SUB DUP2 PUSH1 0x0 DUP8 GAS CALL ISZERO DUP1 ISZERO PUSH2 0x9F3 JUMPI RETURNDATASIZE PUSH1 0x0 DUP1 RETURNDATACOPY RETURNDATASIZE PUSH1 0x0 REVERT JUMPDEST POP POP POP POP PUSH1 0x40 MLOAD RETURNDATASIZE PUSH1 0x1F NOT PUSH1 0x1F DUP3 ADD AND DUP3 ADD DUP1 PUSH1 0x40 MSTORE POP DUP2 ADD SWAP1 PUSH2 0xA17 SWAP2 SWAP1 PUSH2 0x1795 JUMP JUMPDEST SWAP2 POP SWAP2 POP PUSH1 0x0 DUP2 DUP4 PUSH2 0xA29 SWAP2 SWAP1 PUSH2 0x11BD JUMP JUMPDEST GT PUSH2 0xA69 JUMPI PUSH1 0x40 MLOAD PUSH32 0x8C379A000000000000000000000000000000000000000000000000000000000 DUP2 MSTORE PUSH1 0x4 ADD PUSH2 0xA60 SWAP1 PUSH2 0x1847 JUMP JUMPDEST PUSH1 0x40 MLOAD DUP1 SWAP2 SUB SWAP1 REVERT JUMPDEST PUSH1 0x0 DUP10 SWAP1 DUP1 PUSH1 0x1 DUP2 SLOAD ADD DUP1 DUP3 SSTORE DUP1 SWAP2 POP POP PUSH1 0x1 SWAP1 SUB SWAP1 PUSH1 0x0 MSTORE PUSH1 0x20 PUSH1 0x0 KECCAK256 ADD PUSH1 0x0 SWAP1 SWAP2 SWAP1 SWAP2 SWAP1 SWAP2 POP SWAP1 DUP2 PUSH2 0xA9D SWAP2 SWAP1 PUSH2 0x1A09 JUMP JUMPDEST POP POP POP POP POP POP POP POP POP POP POP POP POP POP POP POP JUMP JUMPDEST PUSH1 0x0 PUSH1 0x40 MLOAD SWAP1 POP SWAP1 JUMP JUMPDEST PUSH1 0x0 DUP1 REVERT JUMPDEST PUSH1 0x0 DUP1 REVERT JUMPDEST PUSH1 0x0 DUP2 SWAP1 POP SWAP2 SWAP1 POP JUMP JUMPDEST PUSH2 0xAD6 DUP2 PUSH2 0xAC3 JUMP JUMPDEST DUP2 EQ PUSH2 0xAE1 JUMPI PUSH1 0x0 DUP1 REVERT JUMPDEST POP JUMP JUMPDEST PUSH1 0x0 DUP2 CALLDATALOAD SWAP1 POP PUSH2 0xAF3 DUP2 PUSH2 0xACD JUMP JUMPDEST SWAP3 SWAP2 POP POP JUMP JUMPDEST PUSH1 0x0 PUSH1 0x20 DUP3 DUP5 SUB SLT ISZERO PUSH2 0xB0F JUMPI PUSH2 0xB0E PUSH2 0xAB9 JUMP JUMPDEST JUMPDEST PUSH1 0x0 PUSH2 0xB1D DUP5 DUP3 DUP6 ADD PUSH2 0xAE4 JUMP JUMPDEST SWAP2 POP POP SWAP3 SWAP2 POP POP JUMP JUMPDEST PUSH1 0x0 DUP2 MLOAD SWAP1 POP SWAP2 SWAP1 POP JUMP JUMPDEST PUSH1 0x0 DUP3 DUP3 MSTORE PUSH1 0x20 DUP3 ADD SWAP1 POP SWAP3 SWAP2 POP POP JUMP JUMPDEST PUSH1 0x0 JUMPDEST DUP4 DUP2 LT ISZERO PUSH2 0xB60 JUMPI DUP1 DUP3 ADD MLOAD DUP2 DUP5 ADD MSTORE PUSH1 0x20 DUP2 ADD SWAP1 POP PUSH2 0xB45 JUMP JUMPDEST PUSH1 0x0 DUP5 DUP5 ADD MSTORE POP POP POP POP JUMP JUMPDEST PUSH1 0x0 PUSH1 0x1F NOT PUSH1 0x1F DUP4 ADD AND SWAP1 POP SWAP2 SWAP1 POP JUMP JUMPDEST PUSH1 0x0 PUSH2 0xB88 DUP3 PUSH2 0xB26 JUMP JUMPDEST PUSH2 0xB92 DUP2 DUP6 PUSH2 0xB31 JUMP JUMPDEST SWAP4 POP PUSH2 0xBA2 DUP2 DUP6 PUSH1 0x20 DUP7 ADD PUSH2 0xB42 JUMP JUMPDEST PUSH2 0xBAB DUP2 PUSH2 0xB6C JUMP JUMPDEST DUP5 ADD SWAP2 POP POP SWAP3 SWAP2 POP POP JUMP JUMPDEST PUSH1 0x0 PUSH1 0x20 DUP3 ADD SWAP1 POP DUP2 DUP2 SUB PUSH1 0x0 DUP4 ADD MSTORE PUSH2 0xBD0 DUP2 DUP5 PUSH2 0xB7D JUMP JUMPDEST SWAP1 POP SWAP3 SWAP2 POP POP JUMP JUMPDEST PUSH1 0x0 PUSH20 0xFFFFFFFFFFFFFFFFFFFFFFFFFFFFFFFFFFFFFFFF DUP3 AND SWAP1 POP SWAP2 SWAP1 POP JUMP JUMPDEST PUSH1 0x0 PUSH2 0xC03 DUP3 PUSH2 0xBD8 JUMP JUMPDEST SWAP1 POP SWAP2 SWAP1 POP JUMP JUMPDEST PUSH2 0xC13 DUP2 PUSH2 0xBF8 JUMP JUMPDEST DUP2 EQ PUSH2 0xC1E JUMPI PUSH1 0x0 DUP1 REVERT JUMPDEST POP JUMP JUMPDEST PUSH1 0x0 DUP2 CALLDATALOAD SWAP1 POP PUSH2 0xC30 DUP2 PUSH2 0xC0A JUMP JUMPDEST SWAP3 SWAP2 POP POP JUMP JUMPDEST PUSH1 0x0 DUP1 REVERT JUMPDEST PUSH1 0x0 DUP1 REVERT JUMPDEST PUSH32 0x4E487B7100000000000000000000000000000000000000000000000000000000 PUSH1 0x0 MSTORE PUSH1 0x41 PUSH1 0x4 MSTORE PUSH1 0x24 PUSH1 0x0 REVERT JUMPDEST PUSH2 0xC78 DUP3 PUSH2 0xB6C JUMP JUMPDEST DUP2 ADD DUP2 DUP2 LT PUSH8 0xFFFFFFFFFFFFFFFF DUP3 GT OR ISZERO PUSH2 0xC97 JUMPI PUSH2 0xC96 PUSH2 0xC40 JUMP JUMPDEST JUMPDEST DUP1 PUSH1 0x40 MSTORE POP POP POP JUMP JUMPDEST PUSH1 0x0 PUSH2 0xCAA PUSH2 0xAAF JUMP JUMPDEST SWAP1 POP PUSH2 0xCB6 DUP3 DUP3 PUSH2 0xC6F JUMP JUMPDEST SWAP2 SWAP1 POP JUMP JUMPDEST PUSH1 0x0 PUSH8 0xFFFFFFFFFFFFFFFF DUP3 GT ISZERO PUSH2 0xCD6 JUMPI PUSH2 0xCD5 PUSH2 0xC40 JUMP JUMPDEST JUMPDEST PUSH2 0xCDF DUP3 PUSH2 0xB6C JUMP JUMPDEST SWAP1 POP PUSH1 0x20 DUP2 ADD SWAP1 POP SWAP2 SWAP1 POP JUMP JUMPDEST DUP3 DUP2 DUP4 CALLDATACOPY PUSH1 0x0 DUP4 DUP4 ADD MSTORE POP POP POP JUMP JUMPDEST PUSH1 0x0 PUSH2 0xD0E PUSH2 0xD09 DUP5 PUSH2 0xCBB JUMP JUMPDEST PUSH2 0xCA0 JUMP JUMPDEST SWAP1 POP DUP3 DUP2 MSTORE PUSH1 0x20 DUP2 ADD DUP5 DUP5 DUP5 ADD GT ISZERO PUSH2 0xD2A JUMPI PUSH2 0xD29 PUSH2 0xC3B JUMP JUMPDEST JUMPDEST PUSH2 0xD35 DUP5 DUP3 DUP6 PUSH2 0xCEC JUMP JUMPDEST POP SWAP4 SWAP3 POP POP POP JUMP JUMPDEST PUSH1 0x0 DUP3 PUSH1 0x1F DUP4 ADD SLT PUSH2 0xD52 JUMPI PUSH2 0xD51 PUSH2 0xC36 JUMP JUMPDEST JUMPDEST DUP2 CALLDATALOAD PUSH2 0xD62 DUP5 DUP3 PUSH1 0x20 DUP7 ADD PUSH2 0xCFB JUMP JUMPDEST SWAP2 POP POP SWAP3 SWAP2 POP POP JUMP JUMPDEST PUSH1 0x0 DUP1 PUSH1 0x0 DUP1 PUSH1 0x0 DUP1 PUSH1 0x0 PUSH1 0xE0 DUP9 DUP11 SUB SLT ISZERO PUSH2 0xD8A JUMPI PUSH2 0xD89 PUSH2 0xAB9 JUMP JUMPDEST JUMPDEST PUSH1 0x0 PUSH2 0xD98 DUP11 DUP3 DUP12 ADD PUSH2 0xC21 JUMP JUMPDEST SWAP8 POP POP PUSH1 0x20 PUSH2 0xDA9 DUP11 DUP3 DUP12 ADD PUSH2 0xC21 JUMP JUMPDEST SWAP7 POP POP PUSH1 0x40 PUSH2 0xDBA DUP11 DUP3 DUP12 ADD PUSH2 0xC21 JUMP JUMPDEST SWAP6 POP POP PUSH1 0x60 PUSH2 0xDCB DUP11 DUP3 DUP12 ADD PUSH2 0xAE4 JUMP JUMPDEST SWAP5 POP POP PUSH1 0x80 PUSH2 0xDDC DUP11 DUP3 DUP12 ADD PUSH2 0xAE4 JUMP JUMPDEST SWAP4 POP POP PUSH1 0xA0 PUSH2 0xDED DUP11 DUP3 DUP12 ADD PUSH2 0xAE4 JUMP JUMPDEST SWAP3 POP POP PUSH1 0xC0 DUP9 ADD CALLDATALOAD PUSH8 0xFFFFFFFFFFFFFFFF DUP2 GT ISZERO PUSH2 0xE0E JUMPI PUSH2 0xE0D PUSH2 0xABE JUMP JUMPDEST JUMPDEST PUSH2 0xE1A DUP11 DUP3 DUP12 ADD PUSH2 0xD3D JUMP JUMPDEST SWAP2 POP POP SWAP3 SWAP6 SWAP9 SWAP2 SWAP5 SWAP8 POP SWAP3 SWAP6 POP JUMP JUMPDEST PUSH32 0x4E487B7100000000000000000000000000000000000000000000000000000000 PUSH1 0x0 MSTORE PUSH1 0x22 PUSH1 0x4 MSTORE PUSH1 0x24 PUSH1 0x0 REVERT JUMPDEST PUSH1 0x0 PUSH1 0x2 DUP3 DIV SWAP1 POP PUSH1 0x1 DUP3 AND DUP1 PUSH2 0xE70 JUMPI PUSH1 0x7F DUP3 AND SWAP2 POP JUMPDEST PUSH1 0x20 DUP3 LT DUP2 SUB PUSH2 0xE83 JUMPI PUSH2 0xE82 PUSH2 0xE29 JUMP JUMPDEST JUMPDEST POP SWAP2 SWAP1 POP JUMP JUMPDEST PUSH32 0x496E76616C6964206C697175696469747920616D6F756E747300000000000000 PUSH1 0x0 DUP3 ADD MSTORE POP JUMP JUMPDEST PUSH1 0x0 PUSH2 0xEBF PUSH1 0x19 DUP4 PUSH2 0xB31 JUMP JUMPDEST SWAP2 POP PUSH2 0xECA DUP3 PUSH2 0xE89 JUMP JUMPDEST PUSH1 0x20 DUP3 ADD SWAP1 POP SWAP2 SWAP1 POP JUMP JUMPDEST PUSH1 0x0 PUSH1 0x20 DUP3 ADD SWAP1 POP DUP2 DUP2 SUB PUSH1 0x0 DUP4 ADD MSTORE PUSH2 0xEEE DUP2 PUSH2 0xEB2 JUMP JUMPDEST SWAP1 POP SWAP2 SWAP1 POP JUMP JUMPDEST PUSH32 0x496E76616C6964207377617020616D6F756E7400000000000000000000000000 PUSH1 0x0 DUP3 ADD MSTORE POP JUMP JUMPDEST PUSH1 0x0 PUSH2 0xF2B PUSH1 0x13 DUP4 PUSH2 0xB31 JUMP JUMPDEST SWAP2 POP PUSH2 0xF36 DUP3 PUSH2 0xEF5 JUMP JUMPDEST PUSH1 0x20 DUP3 ADD SWAP1 POP SWAP2 SWAP1 POP JUMP JUMPDEST PUSH1 0x0 PUSH1 0x20 DUP3 ADD SWAP1 POP DUP2 DUP2 SUB PUSH1 0x0 DUP4 ADD MSTORE PUSH2 0xF5A DUP2 PUSH2 0xF1E JUMP JUMPDEST SWAP1 POP SWAP2 SWAP1 POP JUMP JUMPDEST PUSH2 0xF6A DUP2 PUSH2 0xBF8 JUMP JUMPDEST DUP3 MSTORE POP POP JUMP JUMPDEST PUSH1 0x0 PUSH1 0x20 DUP3 ADD SWAP1 POP PUSH2 0xF85 PUSH1 0x0 DUP4 ADD DUP5 PUSH2 0xF61 JUMP JUMPDEST SWAP3 SWAP2 POP POP JUMP JUMPDEST PUSH1 0x0 DUP2 MLOAD SWAP1 POP PUSH2 0xF9A DUP2 PUSH2 0xACD JUMP JUMPDEST SWAP3 SWAP2 POP POP JUMP JUMPDEST PUSH1 0x0 PUSH1 0x20 DUP3 DUP5 SUB SLT ISZERO PUSH2 0xFB6 JUMPI PUSH2 0xFB5 PUSH2 0xAB9 JUMP JUMPDEST JUMPDEST PUSH1 0x0 PUSH2 0xFC4 DUP5 DUP3 DUP6 ADD PUSH2 0xF8B JUMP JUMPDEST SWAP2 POP POP SWAP3 SWAP2 POP POP JUMP JUMPDEST PUSH32 0x496E73756666696369656E7420746F6B656E204120737570706C7920666F7220 PUSH1 0x0 DUP3 ADD MSTORE PUSH32 0x7468697320636F6E746163740000000000000000000000000000000000000000 PUSH1 0x20 DUP3 ADD MSTORE POP JUMP JUMPDEST PUSH1 0x0 PUSH2 0x1029 PUSH1 0x2C DUP4 PUSH2 0xB31 JUMP JUMPDEST SWAP2 POP PUSH2 0x1034 DUP3 PUSH2 0xFCD JUMP JUMPDEST PUSH1 0x40 DUP3 ADD SWAP1 POP SWAP2 SWAP1 POP JUMP JUMPDEST PUSH1 0x0 PUSH1 0x20 DUP3 ADD SWAP1 POP DUP2 DUP2 SUB PUSH1 0x0 DUP4 ADD MSTORE PUSH2 0x1058 DUP2 PUSH2 0x101C JUMP JUMPDEST SWAP1 POP SWAP2 SWAP1 POP JUMP JUMPDEST PUSH32 0x496E73756666696369656E7420746F6B656E204220737570706C7920666F7220 PUSH1 0x0 DUP3 ADD MSTORE PUSH32 0x7468697320636F6E746163740000000000000000000000000000000000000000 PUSH1 0x20 DUP3 ADD MSTORE POP JUMP JUMPDEST PUSH1 0x0 PUSH2 0x10BB PUSH1 0x2C DUP4 PUSH2 0xB31 JUMP JUMPDEST SWAP2 POP PUSH2 0x10C6 DUP3 PUSH2 0x105F JUMP JUMPDEST PUSH1 0x40 DUP3 ADD SWAP1 POP SWAP2 SWAP1 POP JUMP JUMPDEST PUSH1 0x0 PUSH1 0x20 DUP3 ADD SWAP1 POP DUP2 DUP2 SUB PUSH1 0x0 DUP4 ADD MSTORE PUSH2 0x10EA DUP2 PUSH2 0x10AE JUMP JUMPDEST SWAP1 POP SWAP2 SWAP1 POP JUMP JUMPDEST PUSH2 0x10FA DUP2 PUSH2 0xAC3 JUMP JUMPDEST DUP3 MSTORE POP POP JUMP JUMPDEST PUSH1 0x0 PUSH1 0x40 DUP3 ADD SWAP1 POP PUSH2 0x1115 PUSH1 0x0 DUP4 ADD DUP6 PUSH2 0xF61 JUMP JUMPDEST PUSH2 0x1122 PUSH1 0x20 DUP4 ADD DUP5 PUSH2 0x10F1 JUMP JUMPDEST SWAP4 SWAP3 POP POP POP JUMP JUMPDEST PUSH1 0x0 DUP2 ISZERO ISZERO SWAP1 POP SWAP2 SWAP1 POP JUMP JUMPDEST PUSH2 0x113E DUP2 PUSH2 0x1129 JUMP JUMPDEST DUP2 EQ PUSH2 0x1149 JUMPI PUSH1 0x0 DUP1 REVERT JUMPDEST POP JUMP JUMPDEST PUSH1 0x0 DUP2 MLOAD SWAP1 POP PUSH2 0x115B DUP2 PUSH2 0x1135 JUMP JUMPDEST SWAP3 SWAP2 POP POP JUMP JUMPDEST PUSH1 0x0 PUSH1 0x20 DUP3 DUP5 SUB SLT ISZERO PUSH2 0x1177 JUMPI PUSH2 0x1176 PUSH2 0xAB9 JUMP JUMPDEST JUMPDEST PUSH1 0x0 PUSH2 0x1185 DUP5 DUP3 DUP6 ADD PUSH2 0x114C JUMP JUMPDEST SWAP2 POP POP SWAP3 SWAP2 POP POP JUMP JUMPDEST PUSH32 0x4E487B7100000000000000000000000000000000000000000000000000000000 PUSH1 0x0 MSTORE PUSH1 0x11 PUSH1 0x4 MSTORE PUSH1 0x24 PUSH1 0x0 REVERT JUMPDEST PUSH1 0x0 PUSH2 0x11C8 DUP3 PUSH2 0xAC3 JUMP JUMPDEST SWAP2 POP PUSH2 0x11D3 DUP4 PUSH2 0xAC3 JUMP JUMPDEST SWAP3 POP DUP3 DUP3 ADD SWAP1 POP DUP1 DUP3 GT ISZERO PUSH2 0x11EB JUMPI PUSH2 0x11EA PUSH2 0x118E JUMP JUMPDEST JUMPDEST SWAP3 SWAP2 POP POP JUMP JUMPDEST PUSH1 0x0 PUSH2 0x100 DUP3 ADD SWAP1 POP PUSH2 0x1207 PUSH1 0x0 DUP4 ADD DUP12 PUSH2 0xF61 JUMP JUMPDEST PUSH2 0x1214 PUSH1 0x20 DUP4 ADD DUP11 PUSH2 0xF61 JUMP JUMPDEST PUSH2 0x1221 PUSH1 0x40 DUP4 ADD DUP10 PUSH2 0x10F1 JUMP JUMPDEST PUSH2 0x122E PUSH1 0x60 DUP4 ADD DUP9 PUSH2 0x10F1 JUMP JUMPDEST PUSH2 0x123B PUSH1 0x80 DUP4 ADD DUP8 PUSH2 0x10F1 JUMP JUMPDEST PUSH2 0x1248 PUSH1 0xA0 DUP4 ADD DUP7 PUSH2 0x10F1 JUMP JUMPDEST PUSH2 0x1255 PUSH1 0xC0 DUP4 ADD DUP6 PUSH2 0xF61 JUMP JUMPDEST PUSH2 0x1262 PUSH1 0xE0 DUP4 ADD DUP5 PUSH2 0x10F1 JUMP JUMPDEST SWAP10 SWAP9 POP POP POP POP POP POP POP POP POP JUMP JUMPDEST PUSH1 0x0 DUP1 PUSH1 0x0 PUSH1 0x60 DUP5 DUP7 SUB SLT ISZERO PUSH2 0x1288 JUMPI PUSH2 0x1287 PUSH2 0xAB9 JUMP JUMPDEST JUMPDEST PUSH1 0x0 PUSH2 0x1296 DUP7 DUP3 DUP8 ADD PUSH2 0xF8B JUMP JUMPDEST SWAP4 POP POP PUSH1 0x20 PUSH2 0x12A7 DUP7 DUP3 DUP8 ADD PUSH2 0xF8B JUMP JUMPDEST SWAP3 POP POP PUSH1 0x40 PUSH2 0x12B8 DUP7 DUP3 DUP8 ADD PUSH2 0xF8B JUMP JUMPDEST SWAP2 POP POP SWAP3 POP SWAP3 POP SWAP3 JUMP JUMPDEST PUSH32 0x6164644C697175696469747920616D6F756E7473206D69736D61746368000000 PUSH1 0x0 DUP3 ADD MSTORE POP JUMP JUMPDEST PUSH1 0x0 PUSH2 0x12F8 PUSH1 0x1D DUP4 PUSH2 0xB31 JUMP JUMPDEST SWAP2 POP PUSH2 0x1303 DUP3 PUSH2 0x12C2 JUMP JUMPDEST PUSH1 0x20 DUP3 ADD SWAP1 POP SWAP2 SWAP1 POP JUMP JUMPDEST PUSH1 0x0 PUSH1 0x20 DUP3 ADD SWAP1 POP DUP2 DUP2 SUB PUSH1 0x0 DUP4 ADD MSTORE PUSH2 0x1327 DUP2 PUSH2 0x12EB JUMP JUMPDEST SWAP1 POP SWAP2 SWAP1 POP JUMP JUMPDEST PUSH32 0x6164644C69717569646974792072657475726E6564207A65726F206C69717569 PUSH1 0x0 DUP3 ADD MSTORE PUSH32 0x6469747900000000000000000000000000000000000000000000000000000000 PUSH1 0x20 DUP3 ADD MSTORE POP JUMP JUMPDEST PUSH1 0x0 PUSH2 0x138A PUSH1 0x24 DUP4 PUSH2 0xB31 JUMP JUMPDEST SWAP2 POP PUSH2 0x1395 DUP3 PUSH2 0x132E JUMP JUMPDEST PUSH1 0x40 DUP3 ADD SWAP1 POP SWAP2 SWAP1 POP JUMP JUMPDEST PUSH1 0x0 PUSH1 0x20 DUP3 ADD SWAP1 POP DUP2 DUP2 SUB PUSH1 0x0 DUP4 ADD MSTORE PUSH2 0x13B9 DUP2 PUSH2 0x137D JUMP JUMPDEST SWAP1 POP SWAP2 SWAP1 POP JUMP JUMPDEST PUSH1 0x0 PUSH1 0x40 DUP3 ADD SWAP1 POP PUSH2 0x13D5 PUSH1 0x0 DUP4 ADD DUP6 PUSH2 0xF61 JUMP JUMPDEST PUSH2 0x13E2 PUSH1 0x20 DUP4 ADD DUP5 PUSH2 0xF61 JUMP JUMPDEST SWAP4 SWAP3 POP POP POP JUMP JUMPDEST PUSH1 0x0 PUSH2 0x13F4 DUP3 PUSH2 0xAC3 JUMP JUMPDEST SWAP2 POP PUSH2 0x13FF DUP4 PUSH2 0xAC3 JUMP JUMPDEST SWAP3 POP DUP3 DUP3 MUL PUSH2 0x140D DUP2 PUSH2 0xAC3 JUMP JUMPDEST SWAP2 POP DUP3 DUP3 DIV DUP5 EQ DUP4 ISZERO OR PUSH2 0x1424 JUMPI PUSH2 0x1423 PUSH2 0x118E JUMP JUMPDEST JUMPDEST POP SWAP3 SWAP2 POP POP JUMP JUMPDEST PUSH32 0x4E487B7100000000000000000000000000000000000000000000000000000000 PUSH1 0x0 MSTORE PUSH1 0x12 PUSH1 0x4 MSTORE PUSH1 0x24 PUSH1 0x0 REVERT JUMPDEST PUSH1 0x0 PUSH2 0x1465 DUP3 PUSH2 0xAC3 JUMP JUMPDEST SWAP2 POP PUSH2 0x1470 DUP4 PUSH2 0xAC3 JUMP JUMPDEST SWAP3 POP DUP3 PUSH2 0x1480 JUMPI PUSH2 0x147F PUSH2 0x142B JUMP JUMPDEST JUMPDEST DUP3 DUP3 DIV SWAP1 POP SWAP3 SWAP2 POP POP JUMP JUMPDEST PUSH32 0x676574507269636520696E636F72726563740000000000000000000000000000 PUSH1 0x0 DUP3 ADD MSTORE POP JUMP JUMPDEST PUSH1 0x0 PUSH2 0x14C1 PUSH1 0x12 DUP4 PUSH2 0xB31 JUMP JUMPDEST SWAP2 POP PUSH2 0x14CC DUP3 PUSH2 0x148B JUMP JUMPDEST PUSH1 0x20 DUP3 ADD SWAP1 POP SWAP2 SWAP1 POP JUMP JUMPDEST PUSH1 0x0 PUSH1 0x20 DUP3 ADD SWAP1 POP DUP2 DUP2 SUB PUSH1 0x0 DUP4 ADD MSTORE PUSH2 0x14F0 DUP2 PUSH2 0x14B4 JUMP JUMPDEST SWAP1 POP SWAP2 SWAP1 POP JUMP JUMPDEST PUSH1 0x0 PUSH1 0x60 DUP3 ADD SWAP1 POP PUSH2 0x150C PUSH1 0x0 DUP4 ADD DUP7 PUSH2 0xF61 JUMP JUMPDEST PUSH2 0x1519 PUSH1 0x20 DUP4 ADD DUP6 PUSH2 0xF61 JUMP JUMPDEST PUSH2 0x1526 PUSH1 0x40 DUP4 ADD DUP5 PUSH2 0x10F1 JUMP JUMPDEST SWAP5 SWAP4 POP POP POP POP JUMP JUMPDEST PUSH32 0x4E487B7100000000000000000000000000000000000000000000000000000000 PUSH1 0x0 MSTORE PUSH1 0x32 PUSH1 0x4 MSTORE PUSH1 0x24 PUSH1 0x0 REVERT JUMPDEST PUSH1 0x0 DUP2 MLOAD SWAP1 POP SWAP2 SWAP1 POP JUMP JUMPDEST PUSH1 0x0 DUP3 DUP3 MSTORE PUSH1 0x20 DUP3 ADD SWAP1 POP SWAP3 SWAP2 POP POP JUMP JUMPDEST PUSH1 0x0 DUP2 SWAP1 POP PUSH1 0x20 DUP3 ADD SWAP1 POP SWAP2 SWAP1 POP JUMP JUMPDEST PUSH2 0x1592 DUP2 PUSH2 0xBF8 JUMP JUMPDEST DUP3 MSTORE POP POP JUMP JUMPDEST PUSH1 0x0 PUSH2 0x15A4 DUP4 DUP4 PUSH2 0x1589 JUMP JUMPDEST PUSH1 0x20 DUP4 ADD SWAP1 POP SWAP3 SWAP2 POP POP JUMP JUMPDEST PUSH1 0x0 PUSH1 0x20 DUP3 ADD SWAP1 POP SWAP2 SWAP1 POP JUMP JUMPDEST PUSH1 0x0 PUSH2 0x15C8 DUP3 PUSH2 0x155D JUMP JUMPDEST PUSH2 0x15D2 DUP2 DUP6 PUSH2 0x1568 JUMP JUMPDEST SWAP4 POP PUSH2 0x15DD DUP4 PUSH2 0x1579 JUMP JUMPDEST DUP1 PUSH1 0x0 JUMPDEST DUP4 DUP2 LT ISZERO PUSH2 0x160E JUMPI DUP2 MLOAD PUSH2 0x15F5 DUP9 DUP3 PUSH2 0x1598 JUMP JUMPDEST SWAP8 POP PUSH2 0x1600 DUP4 PUSH2 0x15B0 JUMP JUMPDEST SWAP3 POP POP PUSH1 0x1 DUP2 ADD SWAP1 POP PUSH2 0x15E1 JUMP JUMPDEST POP DUP6 SWAP4 POP POP POP POP SWAP3 SWAP2 POP POP JUMP JUMPDEST PUSH1 0x0 PUSH1 0xA0 DUP3 ADD SWAP1 POP PUSH2 0x1630 PUSH1 0x0 DUP4 ADD DUP9 PUSH2 0x10F1 JUMP JUMPDEST PUSH2 0x163D PUSH1 0x20 DUP4 ADD DUP8 PUSH2 0x10F1 JUMP JUMPDEST DUP2 DUP2 SUB PUSH1 0x40 DUP4 ADD MSTORE PUSH2 0x164F DUP2 DUP7 PUSH2 0x15BD JUMP JUMPDEST SWAP1 POP PUSH2 0x165E PUSH1 0x60 DUP4 ADD DUP6 PUSH2 0xF61 JUMP JUMPDEST PUSH2 0x166B PUSH1 0x80 DUP4 ADD DUP5 PUSH2 0x10F1 JUMP JUMPDEST SWAP7 SWAP6 POP POP POP POP POP POP JUMP JUMPDEST PUSH32 0x737761704578616374546F6B656E73466F72546F6B656E73206661696C656400 PUSH1 0x0 DUP3 ADD MSTORE POP JUMP JUMPDEST PUSH1 0x0 PUSH2 0x16AB PUSH1 0x1F DUP4 PUSH2 0xB31 JUMP JUMPDEST SWAP2 POP PUSH2 0x16B6 DUP3 PUSH2 0x1675 JUMP JUMPDEST PUSH1 0x20 DUP3 ADD SWAP1 POP SWAP2 SWAP1 POP JUMP JUMPDEST PUSH1 0x0 PUSH1 0x20 DUP3 ADD SWAP1 POP DUP2 DUP2 SUB PUSH1 0x0 DUP4 ADD MSTORE PUSH2 0x16DA DUP2 PUSH2 0x169E JUMP JUMPDEST SWAP1 POP SWAP2 SWAP1 POP JUMP JUMPDEST PUSH1 0x0 DUP2 SWAP1 POP SWAP2 SWAP1 POP JUMP JUMPDEST PUSH1 0x0 DUP2 SWAP1 POP SWAP2 SWAP1 POP JUMP JUMPDEST PUSH1 0x0 PUSH2 0x1710 PUSH2 0x170B PUSH2 0x1706 DUP5 PUSH2 0x16E1 JUMP JUMPDEST PUSH2 0x16EB JUMP JUMPDEST PUSH2 0xAC3 JUMP JUMPDEST SWAP1 POP SWAP2 SWAP1 POP JUMP JUMPDEST PUSH2 0x1720 DUP2 PUSH2 0x16F5 JUMP JUMPDEST DUP3 MSTORE POP POP JUMP JUMPDEST PUSH1 0x0 PUSH1 0xE0 DUP3 ADD SWAP1 POP PUSH2 0x173B PUSH1 0x0 DUP4 ADD DUP11 PUSH2 0xF61 JUMP JUMPDEST PUSH2 0x1748 PUSH1 0x20 DUP4 ADD DUP10 PUSH2 0xF61 JUMP JUMPDEST PUSH2 0x1755 PUSH1 0x40 DUP4 ADD DUP9 PUSH2 0x10F1 JUMP JUMPDEST PUSH2 0x1762 PUSH1 0x60 DUP4 ADD DUP8 PUSH2 0x1717 JUMP JUMPDEST PUSH2 0x176F PUSH1 0x80 DUP4 ADD DUP7 PUSH2 0x1717 JUMP JUMPDEST PUSH2 0x177C PUSH1 0xA0 DUP4 ADD DUP6 PUSH2 0xF61 JUMP JUMPDEST PUSH2 0x1789 PUSH1 0xC0 DUP4 ADD DUP5 PUSH2 0x10F1 JUMP JUMPDEST SWAP9 SWAP8 POP POP POP POP POP POP POP POP JUMP JUMPDEST PUSH1 0x0 DUP1 PUSH1 0x40 DUP4 DUP6 SUB SLT ISZERO PUSH2 0x17AC JUMPI PUSH2 0x17AB PUSH2 0xAB9 JUMP JUMPDEST JUMPDEST PUSH1 0x0 PUSH2 0x17BA DUP6 DUP3 DUP7 ADD PUSH2 0xF8B JUMP JUMPDEST SWAP3 POP POP PUSH1 0x20 PUSH2 0x17CB DUP6 DUP3 DUP7 ADD PUSH2 0xF8B JUMP JUMPDEST SWAP2 POP POP SWAP3 POP SWAP3 SWAP1 POP JUMP JUMPDEST PUSH32 0x72656D6F76654C69717569646974792072657475726E6564207A65726F20746F PUSH1 0x0 DUP3 ADD MSTORE PUSH32 0x6B656E7300000000000000000000000000000000000000000000000000000000 PUSH1 0x20 DUP3 ADD MSTORE POP JUMP JUMPDEST PUSH1 0x0 PUSH2 0x1831 PUSH1 0x24 DUP4 PUSH2 0xB31 JUMP JUMPDEST SWAP2 POP PUSH2 0x183C DUP3 PUSH2 0x17D5 JUMP JUMPDEST PUSH1 0x40 DUP3 ADD SWAP1 POP SWAP2 SWAP1 POP JUMP JUMPDEST PUSH1 0x0 PUSH1 0x20 DUP3 ADD SWAP1 POP DUP2 DUP2 SUB PUSH1 0x0 DUP4 ADD MSTORE PUSH2 0x1860 DUP2 PUSH2 0x1824 JUMP JUMPDEST SWAP1 POP SWAP2 SWAP1 POP JUMP JUMPDEST PUSH1 0x0 DUP2 SWAP1 POP DUP2 PUSH1 0x0 MSTORE PUSH1 0x20 PUSH1 0x0 KECCAK256 SWAP1 POP SWAP2 SWAP1 POP JUMP JUMPDEST PUSH1 0x0 PUSH1 0x20 PUSH1 0x1F DUP4 ADD DIV SWAP1 POP SWAP2 SWAP1 POP JUMP JUMPDEST PUSH1 0x0 DUP3 DUP3 SHL SWAP1 POP SWAP3 SWAP2 POP POP JUMP JUMPDEST PUSH1 0x0 PUSH1 0x8 DUP4 MUL PUSH2 0x18C9 PUSH32 0xFFFFFFFFFFFFFFFFFFFFFFFFFFFFFFFFFFFFFFFFFFFFFFFFFFFFFFFFFFFFFFFF DUP3 PUSH2 0x188C JUMP JUMPDEST PUSH2 0x18D3 DUP7 DUP4 PUSH2 0x188C JUMP JUMPDEST SWAP6 POP DUP1 NOT DUP5 AND SWAP4 POP DUP1 DUP7 AND DUP5 OR SWAP3 POP POP POP SWAP4 SWAP3 POP POP POP JUMP JUMPDEST PUSH1 0x0 PUSH2 0x1906 PUSH2 0x1901 PUSH2 0x18FC DUP5 PUSH2 0xAC3 JUMP JUMPDEST PUSH2 0x16EB JUMP JUMPDEST PUSH2 0xAC3 JUMP JUMPDEST SWAP1 POP SWAP2 SWAP1 POP JUMP JUMPDEST PUSH1 0x0 DUP2 SWAP1 POP SWAP2 SWAP1 POP JUMP JUMPDEST PUSH2 0x1920 DUP4 PUSH2 0x18EB JUMP JUMPDEST PUSH2 0x1934 PUSH2 0x192C DUP3 PUSH2 0x190D JUMP JUMPDEST DUP5 DUP5 SLOAD PUSH2 0x1899 JUMP JUMPDEST DUP3 SSTORE POP POP POP POP JUMP JUMPDEST PUSH1 0x0 SWAP1 JUMP JUMPDEST PUSH2 0x1949 PUSH2 0x193C JUMP JUMPDEST PUSH2 0x1954 DUP2 DUP5 DUP5 PUSH2 0x1917 JUMP JUMPDEST POP POP POP JUMP JUMPDEST JUMPDEST DUP2 DUP2 LT ISZERO PUSH2 0x1978 JUMPI PUSH2 0x196D PUSH1 0x0 DUP3 PUSH2 0x1941 JUMP JUMPDEST PUSH1 0x1 DUP2 ADD SWAP1 POP PUSH2 0x195A JUMP JUMPDEST POP POP JUMP JUMPDEST PUSH1 0x1F DUP3 GT ISZERO PUSH2 0x19BD JUMPI PUSH2 0x198E DUP2 PUSH2 0x1867 JUMP JUMPDEST PUSH2 0x1997 DUP5 PUSH2 0x187C JUMP JUMPDEST DUP2 ADD PUSH1 0x20 DUP6 LT ISZERO PUSH2 0x19A6 JUMPI DUP2 SWAP1 POP JUMPDEST PUSH2 0x19BA PUSH2 0x19B2 DUP6 PUSH2 0x187C JUMP JUMPDEST DUP4 ADD DUP3 PUSH2 0x1959 JUMP JUMPDEST POP POP JUMPDEST POP POP POP JUMP JUMPDEST PUSH1 0x0 DUP3 DUP3 SHR SWAP1 POP SWAP3 SWAP2 POP POP JUMP JUMPDEST PUSH1 0x0 PUSH2 0x19E0 PUSH1 0x0 NOT DUP5 PUSH1 0x8 MUL PUSH2 0x19C2 JUMP JUMPDEST NOT DUP1 DUP4 AND SWAP2 POP POP SWAP3 SWAP2 POP POP JUMP JUMPDEST PUSH1 0x0 PUSH2 0x19F9 DUP4 DUP4 PUSH2 0x19CF JUMP JUMPDEST SWAP2 POP DUP3 PUSH1 0x2 MUL DUP3 OR SWAP1 POP SWAP3 SWAP2 POP POP JUMP JUMPDEST PUSH2 0x1A12 DUP3 PUSH2 0xB26 JUMP JUMPDEST PUSH8 0xFFFFFFFFFFFFFFFF DUP2 GT ISZERO PUSH2 0x1A2B JUMPI PUSH2 0x1A2A PUSH2 0xC40 JUMP JUMPDEST JUMPDEST PUSH2 0x1A35 DUP3 SLOAD PUSH2 0xE58 JUMP JUMPDEST PUSH2 0x1A40 DUP3 DUP3 DUP6 PUSH2 0x197C JUMP JUMPDEST PUSH1 0x0 PUSH1 0x20 SWAP1 POP PUSH1 0x1F DUP4 GT PUSH1 0x1 DUP2 EQ PUSH2 0x1A73 JUMPI PUSH1 0x0 DUP5 ISZERO PUSH2 0x1A61 JUMPI DUP3 DUP8 ADD MLOAD SWAP1 POP JUMPDEST PUSH2 0x1A6B DUP6 DUP3 PUSH2 0x19ED JUMP JUMPDEST DUP7 SSTORE POP PUSH2 0x1AD3 JUMP JUMPDEST PUSH1 0x1F NOT DUP5 AND PUSH2 0x1A81 DUP7 PUSH2 0x1867 JUMP JUMPDEST PUSH1 0x0 JUMPDEST DUP3 DUP2 LT ISZERO PUSH2 0x1AA9 JUMPI DUP5 DUP10 ADD MLOAD DUP3 SSTORE PUSH1 0x1 DUP3 ADD SWAP2 POP PUSH1 0x20 DUP6 ADD SWAP5 POP PUSH1 0x20 DUP2 ADD SWAP1 POP PUSH2 0x1A84 JUMP JUMPDEST DUP7 DUP4 LT ISZERO PUSH2 0x1AC6 JUMPI DUP5 DUP10 ADD MLOAD PUSH2 0x1AC2 PUSH1 0x1F DUP10 AND DUP3 PUSH2 0x19CF JUMP JUMPDEST DUP4 SSTORE POP JUMPDEST PUSH1 0x1 PUSH1 0x2 DUP9 MUL ADD DUP9 SSTORE POP POP POP JUMPDEST POP POP POP POP POP POP JUMP INVALID LOG2 PUSH5 0x6970667358 0x22 SLT KECCAK256 0xD6 0xF9 SWAP15 TLOAD 0xAA 0xD1 0xDB 0xA5 SLOAD SGT 0x2B LOG0 PUSH9 0xAC7C3A377CF949A089 CALLDATASIZE RETURN SWAP14 DUP9 0xE5 PUSH10 0x3B1B4DD764736F6C6343 STOP ADDMOD BYTE STOP CALLER "
				},
				"gasEstimates": {
					"creation": {
						"codeDepositCost": "1385800",
						"executionCost": "1444",
						"totalCost": "1387244"
					},
					"external": {
						"authors(uint256)": "infinite",
						"verify(address,address,address,uint256,uint256,uint256,string)": "infinite"
					}
				},
				"methodIdentifiers": {
					"authors(uint256)": "3db804da",
					"verify(address,address,address,uint256,uint256,uint256,string)": "457b8b91"
				}
			},
			"storageLayout": {
				"storage": [
					{
						"astId": 162,
						"contract": "SwapVerifier.sol:SwapVerifier",
						"label": "authors",
						"offset": 0,
						"slot": "0",
						"type": "t_array(t_string_storage)dyn_storage"
					}
				],
				"types": {
					"t_array(t_string_storage)dyn_storage": {
						"base": "t_string_storage",
						"encoding": "dynamic_array",
						"label": "string[]",
						"numberOfBytes": "32"
					},
					"t_string_storage": {
						"encoding": "bytes",
						"label": "string",
						"numberOfBytes": "32"
					}
				}
			},
			"userdoc": {
				"kind": "user",
				"methods": {
					"verify(address,address,address,uint256,uint256,uint256,string)": {
						"notice": "Runs end-to-end checks on a deployed SimpleSwap contract."
					}
				},
				"notice": "Verifies a SimpleSwap implementation by exercising its functions and asserting correct behavior.",
				"version": 1
			}
		}
	}
}