{
	"TokenB.sol": {
		"TokenB": {
			"abi": [
				{
					"inputs": [
						{
							"internalType": "address",
							"name": "recipient",
							"type": "address"
						},
						{
							"internalType": "address",
							"name": "initialOwner",
							"type": "address"
						}
					],
					"stateMutability": "nonpayable",
					"type": "constructor"
				},
				{
					"inputs": [
						{
							"internalType": "address",
							"name": "spender",
							"type": "address"
						},
						{
							"internalType": "uint256",
							"name": "allowance",
							"type": "uint256"
						},
						{
							"internalType": "uint256",
							"name": "needed",
							"type": "uint256"
						}
					],
					"name": "ERC20InsufficientAllowance",
					"type": "error"
				},
				{
					"inputs": [
						{
							"internalType": "address",
							"name": "sender",
							"type": "address"
						},
						{
							"internalType": "uint256",
							"name": "balance",
							"type": "uint256"
						},
						{
							"internalType": "uint256",
							"name": "needed",
							"type": "uint256"
						}
					],
					"name": "ERC20InsufficientBalance",
					"type": "error"
				},
				{
					"inputs": [
						{
							"internalType": "address",
							"name": "approver",
							"type": "address"
						}
					],
					"name": "ERC20InvalidApprover",
					"type": "error"
				},
				{
					"inputs": [
						{
							"internalType": "address",
							"name": "receiver",
							"type": "address"
						}
					],
					"name": "ERC20InvalidReceiver",
					"type": "error"
				},
				{
					"inputs": [
						{
							"internalType": "address",
							"name": "sender",
							"type": "address"
						}
					],
					"name": "ERC20InvalidSender",
					"type": "error"
				},
				{
					"inputs": [
						{
							"internalType": "address",
							"name": "spender",
							"type": "address"
						}
					],
					"name": "ERC20InvalidSpender",
					"type": "error"
				},
				{
					"inputs": [],
					"name": "EnforcedPause",
					"type": "error"
				},
				{
					"inputs": [],
					"name": "ExpectedPause",
					"type": "error"
				},
				{
					"inputs": [
						{
							"internalType": "address",
							"name": "owner",
							"type": "address"
						}
					],
					"name": "OwnableInvalidOwner",
					"type": "error"
				},
				{
					"inputs": [
						{
							"internalType": "address",
							"name": "account",
							"type": "address"
						}
					],
					"name": "OwnableUnauthorizedAccount",
					"type": "error"
				},
				{
					"anonymous": false,
					"inputs": [
						{
							"indexed": true,
							"internalType": "address",
							"name": "owner",
							"type": "address"
						},
						{
							"indexed": true,
							"internalType": "address",
							"name": "spender",
							"type": "address"
						},
						{
							"indexed": false,
							"internalType": "uint256",
							"name": "value",
							"type": "uint256"
						}
					],
					"name": "Approval",
					"type": "event"
				},
				{
					"anonymous": false,
					"inputs": [
						{
							"indexed": true,
							"internalType": "address",
							"name": "previousOwner",
							"type": "address"
						},
						{
							"indexed": true,
							"internalType": "address",
							"name": "newOwner",
							"type": "address"
						}
					],
					"name": "OwnershipTransferred",
					"type": "event"
				},
				{
					"anonymous": false,
					"inputs": [
						{
							"indexed": false,
							"internalType": "address",
							"name": "account",
							"type": "address"
						}
					],
					"name": "Paused",
					"type": "event"
				},
				{
					"anonymous": false,
					"inputs": [
						{
							"indexed": true,
							"internalType": "address",
							"name": "from",
							"type": "address"
						},
						{
							"indexed": true,
							"internalType": "address",
							"name": "to",
							"type": "address"
						},
						{
							"indexed": false,
							"internalType": "uint256",
							"name": "value",
							"type": "uint256"
						}
					],
					"name": "Transfer",
					"type": "event"
				},
				{
					"anonymous": false,
					"inputs": [
						{
							"indexed": false,
							"internalType": "address",
							"name": "account",
							"type": "address"
						}
					],
					"name": "Unpaused",
					"type": "event"
				},
				{
					"inputs": [
						{
							"internalType": "address",
							"name": "owner",
							"type": "address"
						},
						{
							"internalType": "address",
							"name": "spender",
							"type": "address"
						}
					],
					"name": "allowance",
					"outputs": [
						{
							"internalType": "uint256",
							"name": "",
							"type": "uint256"
						}
					],
					"stateMutability": "view",
					"type": "function"
				},
				{
					"inputs": [
						{
							"internalType": "address",
							"name": "spender",
							"type": "address"
						},
						{
							"internalType": "uint256",
							"name": "value",
							"type": "uint256"
						}
					],
					"name": "approve",
					"outputs": [
						{
							"internalType": "bool",
							"name": "",
							"type": "bool"
						}
					],
					"stateMutability": "nonpayable",
					"type": "function"
				},
				{
					"inputs": [
						{
							"internalType": "address",
							"name": "account",
							"type": "address"
						}
					],
					"name": "balanceOf",
					"outputs": [
						{
							"internalType": "uint256",
							"name": "",
							"type": "uint256"
						}
					],
					"stateMutability": "view",
					"type": "function"
				},
				{
					"inputs": [],
					"name": "decimals",
					"outputs": [
						{
							"internalType": "uint8",
							"name": "",
							"type": "uint8"
						}
					],
					"stateMutability": "view",
					"type": "function"
				},
				{
					"inputs": [
						{
							"internalType": "address",
							"name": "to",
							"type": "address"
						},
						{
							"internalType": "uint256",
							"name": "amount",
							"type": "uint256"
						}
					],
					"name": "mint",
					"outputs": [],
					"stateMutability": "nonpayable",
					"type": "function"
				},
				{
					"inputs": [],
					"name": "name",
					"outputs": [
						{
							"internalType": "string",
							"name": "",
							"type": "string"
						}
					],
					"stateMutability": "view",
					"type": "function"
				},
				{
					"inputs": [],
					"name": "owner",
					"outputs": [
						{
							"internalType": "address",
							"name": "",
							"type": "address"
						}
					],
					"stateMutability": "view",
					"type": "function"
				},
				{
					"inputs": [],
					"name": "pause",
					"outputs": [],
					"stateMutability": "nonpayable",
					"type": "function"
				},
				{
					"inputs": [],
					"name": "paused",
					"outputs": [
						{
							"internalType": "bool",
							"name": "",
							"type": "bool"
						}
					],
					"stateMutability": "view",
					"type": "function"
				},
				{
					"inputs": [],
					"name": "renounceOwnership",
					"outputs": [],
					"stateMutability": "nonpayable",
					"type": "function"
				},
				{
					"inputs": [],
					"name": "symbol",
					"outputs": [
						{
							"internalType": "string",
							"name": "",
							"type": "string"
						}
					],
					"stateMutability": "view",
					"type": "function"
				},
				{
					"inputs": [],
					"name": "totalSupply",
					"outputs": [
						{
							"internalType": "uint256",
							"name": "",
							"type": "uint256"
						}
					],
					"stateMutability": "view",
					"type": "function"
				},
				{
					"inputs": [
						{
							"internalType": "address",
							"name": "to",
							"type": "address"
						},
						{
							"internalType": "uint256",
							"name": "value",
							"type": "uint256"
						}
					],
					"name": "transfer",
					"outputs": [
						{
							"internalType": "bool",
							"name": "",
							"type": "bool"
						}
					],
					"stateMutability": "nonpayable",
					"type": "function"
				},
				{
					"inputs": [
						{
							"internalType": "address",
							"name": "from",
							"type": "address"
						},
						{
							"internalType": "address",
							"name": "to",
							"type": "address"
						},
						{
							"internalType": "uint256",
							"name": "value",
							"type": "uint256"
						}
					],
					"name": "transferFrom",
					"outputs": [
						{
							"internalType": "bool",
							"name": "",
							"type": "bool"
						}
					],
					"stateMutability": "nonpayable",
					"type": "function"
				},
				{
					"inputs": [
						{
							"internalType": "address",
							"name": "newOwner",
							"type": "address"
						}
					],
					"name": "transferOwnership",
					"outputs": [],
					"stateMutability": "nonpayable",
					"type": "function"
				},
				{
					"inputs": [],
					"name": "unpause",
					"outputs": [],
					"stateMutability": "nonpayable",
					"type": "function"
				}
			],
			"devdoc": {
				"custom:security-contact": "mn.wayar@gmail.com",
				"errors": {
					"ERC20InsufficientAllowance(address,uint256,uint256)": [
						{
							"details": "Indicates a failure with the `spender`’s `allowance`. Used in transfers.",
							"params": {
								"allowance": "Amount of tokens a `spender` is allowed to operate with.",
								"needed": "Minimum amount required to perform a transfer.",
								"spender": "Address that may be allowed to operate on tokens without being their owner."
							}
						}
					],
					"ERC20InsufficientBalance(address,uint256,uint256)": [
						{
							"details": "Indicates an error related to the current `balance` of a `sender`. Used in transfers.",
							"params": {
								"balance": "Current balance for the interacting account.",
								"needed": "Minimum amount required to perform a transfer.",
								"sender": "Address whose tokens are being transferred."
							}
						}
					],
					"ERC20InvalidApprover(address)": [
						{
							"details": "Indicates a failure with the `approver` of a token to be approved. Used in approvals.",
							"params": {
								"approver": "Address initiating an approval operation."
							}
						}
					],
					"ERC20InvalidReceiver(address)": [
						{
							"details": "Indicates a failure with the token `receiver`. Used in transfers.",
							"params": {
								"receiver": "Address to which tokens are being transferred."
							}
						}
					],
					"ERC20InvalidSender(address)": [
						{
							"details": "Indicates a failure with the token `sender`. Used in transfers.",
							"params": {
								"sender": "Address whose tokens are being transferred."
							}
						}
					],
					"ERC20InvalidSpender(address)": [
						{
							"details": "Indicates a failure with the `spender` to be approved. Used in approvals.",
							"params": {
								"spender": "Address that may be allowed to operate on tokens without being their owner."
							}
						}
					],
					"EnforcedPause()": [
						{
							"details": "The operation failed because the contract is paused."
						}
					],
					"ExpectedPause()": [
						{
							"details": "The operation failed because the contract is not paused."
						}
					],
					"OwnableInvalidOwner(address)": [
						{
							"details": "The owner is not a valid owner account. (eg. `address(0)`)"
						}
					],
					"OwnableUnauthorizedAccount(address)": [
						{
							"details": "The caller account is not authorized to perform an operation."
						}
					]
				},
				"events": {
					"Approval(address,address,uint256)": {
						"details": "Emitted when the allowance of a `spender` for an `owner` is set by a call to {approve}. `value` is the new allowance."
					},
					"Paused(address)": {
						"details": "Emitted when the pause is triggered by `account`."
					},
					"Transfer(address,address,uint256)": {
						"details": "Emitted when `value` tokens are moved from one account (`from`) to another (`to`). Note that `value` may be zero."
					},
					"Unpaused(address)": {
						"details": "Emitted when the pause is lifted by `account`."
					}
				},
				"kind": "dev",
				"methods": {
					"allowance(address,address)": {
						"details": "See {IERC20-allowance}."
					},
					"approve(address,uint256)": {
						"details": "See {IERC20-approve}. NOTE: If `value` is the maximum `uint256`, the allowance is not updated on `transferFrom`. This is semantically equivalent to an infinite approval. Requirements: - `spender` cannot be the zero address."
					},
					"balanceOf(address)": {
						"details": "See {IERC20-balanceOf}."
					},
					"decimals()": {
						"details": "Returns the number of decimals used to get its user representation. For example, if `decimals` equals `2`, a balance of `505` tokens should be displayed to a user as `5.05` (`505 / 10 ** 2`). Tokens usually opt for a value of 18, imitating the relationship between Ether and Wei. This is the default value returned by this function, unless it's overridden. NOTE: This information is only used for _display_ purposes: it in no way affects any of the arithmetic of the contract, including {IERC20-balanceOf} and {IERC20-transfer}."
					},
					"name()": {
						"details": "Returns the name of the token."
					},
					"owner()": {
						"details": "Returns the address of the current owner."
					},
					"paused()": {
						"details": "Returns true if the contract is paused, and false otherwise."
					},
					"renounceOwnership()": {
						"details": "Leaves the contract without owner. It will not be possible to call `onlyOwner` functions. Can only be called by the current owner. NOTE: Renouncing ownership will leave the contract without an owner, thereby disabling any functionality that is only available to the owner."
					},
					"symbol()": {
						"details": "Returns the symbol of the token, usually a shorter version of the name."
					},
					"totalSupply()": {
						"details": "See {IERC20-totalSupply}."
					},
					"transfer(address,uint256)": {
						"details": "See {IERC20-transfer}. Requirements: - `to` cannot be the zero address. - the caller must have a balance of at least `value`."
					},
					"transferFrom(address,address,uint256)": {
						"details": "See {IERC20-transferFrom}. Skips emitting an {Approval} event indicating an allowance update. This is not required by the ERC. See {xref-ERC20-_approve-address-address-uint256-bool-}[_approve]. NOTE: Does not update the allowance if the current allowance is the maximum `uint256`. Requirements: - `from` and `to` cannot be the zero address. - `from` must have a balance of at least `value`. - the caller must have allowance for ``from``'s tokens of at least `value`."
					},
					"transferOwnership(address)": {
						"details": "Transfers ownership of the contract to a new account (`newOwner`). Can only be called by the current owner."
					}
				},
				"version": 1
			},
			"evm": {
				"assembly": "    /* \"TokenB.sol\":398:1133  contract TokenB is ERC20, ERC20Pausable, Ownable {... */\n  mstore(0x40, 0x80)\n    /* \"TokenB.sol\":454:637  constructor(address recipient, address initialOwner)... */\n  callvalue\n  dup1\n  iszero\n  tag_1\n  jumpi\n  0x00\n  dup1\n  revert\ntag_1:\n  pop\n  mload(0x40)\n  sub(codesize, bytecodeSize)\n  dup1\n  bytecodeSize\n  dup4\n  codecopy\n  dup2\n  dup2\n  add\n  0x40\n  mstore\n  dup2\n  add\n  swap1\n  tag_2\n  swap2\n  swap1\n  tag_3\n  jump\t// in\ntag_2:\n    /* \"TokenB.sol\":557:569  initialOwner */\n  dup1\n    /* \"@openzeppelin/contracts/token/ERC20/ERC20.sol\":1582:1695  constructor(string memory name_, string memory symbol_) {... */\n  mload(0x40)\n  dup1\n  0x40\n  add\n  0x40\n  mstore\n  dup1\n  0x07\n  dup2\n  mstore\n  0x20\n  add\n  0x544f4b454e5f4200000000000000000000000000000000000000000000000000\n  dup2\n  mstore\n  pop\n  mload(0x40)\n  dup1\n  0x40\n  add\n  0x40\n  mstore\n  dup1\n  0x03\n  dup2\n  mstore\n  0x20\n  add\n  0x544b420000000000000000000000000000000000000000000000000000000000\n  dup2\n  mstore\n  pop\n    /* \"@openzeppelin/contracts/token/ERC20/ERC20.sol\":1656:1661  name_ */\n  dup2\n    /* \"@openzeppelin/contracts/token/ERC20/ERC20.sol\":1648:1653  _name */\n  0x03\n    /* \"@openzeppelin/contracts/token/ERC20/ERC20.sol\":1648:1661  _name = name_ */\n  swap1\n  dup2\n  tag_8\n  swap2\n  swap1\n  tag_9\n  jump\t// in\ntag_8:\n  pop\n    /* \"@openzeppelin/contracts/token/ERC20/ERC20.sol\":1681:1688  symbol_ */\n  dup1\n    /* \"@openzeppelin/contracts/token/ERC20/ERC20.sol\":1671:1678  _symbol */\n  0x04\n    /* \"@openzeppelin/contracts/token/ERC20/ERC20.sol\":1671:1688  _symbol = symbol_ */\n  swap1\n  dup2\n  tag_10\n  swap2\n  swap1\n  tag_9\n  jump\t// in\ntag_10:\n  pop\n    /* \"@openzeppelin/contracts/token/ERC20/ERC20.sol\":1582:1695  constructor(string memory name_, string memory symbol_) {... */\n  pop\n  pop\n    /* \"@openzeppelin/contracts/access/Ownable.sol\":1297:1298  0 */\n  0x00\n    /* \"@openzeppelin/contracts/access/Ownable.sol\":1273:1299  initialOwner == address(0) */\n  0xffffffffffffffffffffffffffffffffffffffff\n  and\n    /* \"@openzeppelin/contracts/access/Ownable.sol\":1273:1285  initialOwner */\n  dup2\n    /* \"@openzeppelin/contracts/access/Ownable.sol\":1273:1299  initialOwner == address(0) */\n  0xffffffffffffffffffffffffffffffffffffffff\n  and\n  sub\n    /* \"@openzeppelin/contracts/access/Ownable.sol\":1269:1364  if (initialOwner == address(0)) {... */\n  tag_12\n  jumpi\n    /* \"@openzeppelin/contracts/access/Ownable.sol\":1350:1351  0 */\n  0x00\n    /* \"@openzeppelin/contracts/access/Ownable.sol\":1322:1353  OwnableInvalidOwner(address(0)) */\n  mload(0x40)\n  0x1e4fbdf700000000000000000000000000000000000000000000000000000000\n  dup2\n  mstore\n  0x04\n  add\n  tag_13\n  swap2\n  swap1\n  tag_14\n  jump\t// in\ntag_13:\n  mload(0x40)\n  dup1\n  swap2\n  sub\n  swap1\n  revert\n    /* \"@openzeppelin/contracts/access/Ownable.sol\":1269:1364  if (initialOwner == address(0)) {... */\ntag_12:\n    /* \"@openzeppelin/contracts/access/Ownable.sol\":1373:1405  _transferOwnership(initialOwner) */\n  tag_15\n    /* \"@openzeppelin/contracts/access/Ownable.sol\":1392:1404  initialOwner */\n  dup2\n    /* \"@openzeppelin/contracts/access/Ownable.sol\":1373:1391  _transferOwnership */\n  shl(0x20, tag_16)\n    /* \"@openzeppelin/contracts/access/Ownable.sol\":1373:1405  _transferOwnership(initialOwner) */\n  0x20\n  shr\n  jump\t// in\ntag_15:\n    /* \"@openzeppelin/contracts/access/Ownable.sol\":1225:1412  constructor(address initialOwner) {... */\n  pop\n    /* \"TokenB.sol\":587:629  _mint(recipient, 20000 * 10 ** decimals()) */\n  tag_18\n    /* \"TokenB.sol\":593:602  recipient */\n  dup3\n    /* \"TokenB.sol\":618:628  decimals() */\n  tag_19\n    /* \"TokenB.sol\":618:626  decimals */\n  shl(0x20, tag_20)\n    /* \"TokenB.sol\":618:628  decimals() */\n  0x20\n  shr\n  jump\t// in\ntag_19:\n    /* \"TokenB.sol\":612:614  10 */\n  0x0a\n    /* \"TokenB.sol\":612:628  10 ** decimals() */\n  tag_21\n  swap2\n  swap1\n  tag_22\n  jump\t// in\ntag_21:\n    /* \"TokenB.sol\":604:609  20000 */\n  0x4e20\n    /* \"TokenB.sol\":604:628  20000 * 10 ** decimals() */\n  tag_23\n  swap2\n  swap1\n  tag_24\n  jump\t// in\ntag_23:\n    /* \"TokenB.sol\":587:592  _mint */\n  shl(0x20, tag_25)\n    /* \"TokenB.sol\":587:629  _mint(recipient, 20000 * 10 ** decimals()) */\n  0x20\n  shr\n  jump\t// in\ntag_18:\n    /* \"TokenB.sol\":454:637  constructor(address recipient, address initialOwner)... */\n  pop\n  pop\n    /* \"TokenB.sol\":398:1133  contract TokenB is ERC20, ERC20Pausable, Ownable {... */\n  jump(tag_26)\n    /* \"@openzeppelin/contracts/access/Ownable.sol\":2912:3099  function _transferOwnership(address newOwner) internal virtual {... */\ntag_16:\n    /* \"@openzeppelin/contracts/access/Ownable.sol\":2985:3001  address oldOwner */\n  0x00\n    /* \"@openzeppelin/contracts/access/Ownable.sol\":3004:3010  _owner */\n  0x05\n  0x01\n  swap1\n  sload\n  swap1\n  0x0100\n  exp\n  swap1\n  div\n  0xffffffffffffffffffffffffffffffffffffffff\n  and\n    /* \"@openzeppelin/contracts/access/Ownable.sol\":2985:3010  address oldOwner = _owner */\n  swap1\n  pop\n    /* \"@openzeppelin/contracts/access/Ownable.sol\":3029:3037  newOwner */\n  dup2\n    /* \"@openzeppelin/contracts/access/Ownable.sol\":3020:3026  _owner */\n  0x05\n  0x01\n    /* \"@openzeppelin/contracts/access/Ownable.sol\":3020:3037  _owner = newOwner */\n  0x0100\n  exp\n  dup2\n  sload\n  dup2\n  0xffffffffffffffffffffffffffffffffffffffff\n  mul\n  not\n  and\n  swap1\n  dup4\n  0xffffffffffffffffffffffffffffffffffffffff\n  and\n  mul\n  or\n  swap1\n  sstore\n  pop\n    /* \"@openzeppelin/contracts/access/Ownable.sol\":3083:3091  newOwner */\n  dup2\n    /* \"@openzeppelin/contracts/access/Ownable.sol\":3052:3092  OwnershipTransferred(oldOwner, newOwner) */\n  0xffffffffffffffffffffffffffffffffffffffff\n  and\n    /* \"@openzeppelin/contracts/access/Ownable.sol\":3073:3081  oldOwner */\n  dup2\n    /* \"@openzeppelin/contracts/access/Ownable.sol\":3052:3092  OwnershipTransferred(oldOwner, newOwner) */\n  0xffffffffffffffffffffffffffffffffffffffff\n  and\n  0x8be0079c531659141344cd1fd0a4f28419497f9722a3daafe3b4186f6b6457e0\n  mload(0x40)\n  mload(0x40)\n  dup1\n  swap2\n  sub\n  swap1\n  log3\n    /* \"@openzeppelin/contracts/access/Ownable.sol\":2975:3099  {... */\n  pop\n    /* \"@openzeppelin/contracts/access/Ownable.sol\":2912:3099  function _transferOwnership(address newOwner) internal virtual {... */\n  pop\n  jump\t// out\n    /* \"@openzeppelin/contracts/token/ERC20/ERC20.sol\":2688:2770  function decimals() public view virtual returns (uint8) {... */\ntag_20:\n    /* \"@openzeppelin/contracts/token/ERC20/ERC20.sol\":2737:2742  uint8 */\n  0x00\n    /* \"@openzeppelin/contracts/token/ERC20/ERC20.sol\":2761:2763  18 */\n  0x12\n    /* \"@openzeppelin/contracts/token/ERC20/ERC20.sol\":2754:2763  return 18 */\n  swap1\n  pop\n    /* \"@openzeppelin/contracts/token/ERC20/ERC20.sol\":2688:2770  function decimals() public view virtual returns (uint8) {... */\n  swap1\n  jump\t// out\n    /* \"@openzeppelin/contracts/token/ERC20/ERC20.sol\":7439:7647  function _mint(address account, uint256 value) internal {... */\ntag_25:\n    /* \"@openzeppelin/contracts/token/ERC20/ERC20.sol\":7528:7529  0 */\n  0x00\n    /* \"@openzeppelin/contracts/token/ERC20/ERC20.sol\":7509:7530  account == address(0) */\n  0xffffffffffffffffffffffffffffffffffffffff\n  and\n    /* \"@openzeppelin/contracts/token/ERC20/ERC20.sol\":7509:7516  account */\n  dup3\n    /* \"@openzeppelin/contracts/token/ERC20/ERC20.sol\":7509:7530  account == address(0) */\n  0xffffffffffffffffffffffffffffffffffffffff\n  and\n  sub\n    /* \"@openzeppelin/contracts/token/ERC20/ERC20.sol\":7505:7596  if (account == address(0)) {... */\n  tag_30\n  jumpi\n    /* \"@openzeppelin/contracts/token/ERC20/ERC20.sol\":7582:7583  0 */\n  0x00\n    /* \"@openzeppelin/contracts/token/ERC20/ERC20.sol\":7553:7585  ERC20InvalidReceiver(address(0)) */\n  mload(0x40)\n  0xec442f0500000000000000000000000000000000000000000000000000000000\n  dup2\n  mstore\n  0x04\n  add\n  tag_31\n  swap2\n  swap1\n  tag_14\n  jump\t// in\ntag_31:\n  mload(0x40)\n  dup1\n  swap2\n  sub\n  swap1\n  revert\n    /* \"@openzeppelin/contracts/token/ERC20/ERC20.sol\":7505:7596  if (account == address(0)) {... */\ntag_30:\n    /* \"@openzeppelin/contracts/token/ERC20/ERC20.sol\":7605:7640  _update(address(0), account, value) */\n  tag_32\n    /* \"@openzeppelin/contracts/token/ERC20/ERC20.sol\":7621:7622  0 */\n  0x00\n    /* \"@openzeppelin/contracts/token/ERC20/ERC20.sol\":7625:7632  account */\n  dup4\n    /* \"@openzeppelin/contracts/token/ERC20/ERC20.sol\":7634:7639  value */\n  dup4\n    /* \"@openzeppelin/contracts/token/ERC20/ERC20.sol\":7605:7612  _update */\n  shl(0x20, tag_33)\n    /* \"@openzeppelin/contracts/token/ERC20/ERC20.sol\":7605:7640  _update(address(0), account, value) */\n  0x20\n  shr\n  jump\t// in\ntag_32:\n    /* \"@openzeppelin/contracts/token/ERC20/ERC20.sol\":7439:7647  function _mint(address account, uint256 value) internal {... */\n  pop\n  pop\n  jump\t// out\n    /* \"TokenB.sol\":960:1130  function _update(address from, address to, uint256 value)... */\ntag_33:\n    /* \"TokenB.sol\":1092:1122  super._update(from, to, value) */\n  tag_35\n    /* \"TokenB.sol\":1106:1110  from */\n  dup4\n    /* \"TokenB.sol\":1112:1114  to */\n  dup4\n    /* \"TokenB.sol\":1116:1121  value */\n  dup4\n    /* \"TokenB.sol\":1092:1105  super._update */\n  shl(0x20, tag_36)\n    /* \"TokenB.sol\":1092:1122  super._update(from, to, value) */\n  0x20\n  shr\n  jump\t// in\ntag_35:\n    /* \"TokenB.sol\":960:1130  function _update(address from, address to, uint256 value)... */\n  pop\n  pop\n  pop\n  jump\t// out\n    /* \"@openzeppelin/contracts/token/ERC20/extensions/ERC20Pausable.sol\":1113:1258  function _update(address from, address to, uint256 value) internal virtual override whenNotPaused {... */\ntag_36:\n    /* \"@openzeppelin/contracts/utils/Pausable.sol\":1350:1369  _requireNotPaused() */\n  tag_38\n    /* \"@openzeppelin/contracts/utils/Pausable.sol\":1350:1367  _requireNotPaused */\n  shl(0x20, tag_39)\n    /* \"@openzeppelin/contracts/utils/Pausable.sol\":1350:1369  _requireNotPaused() */\n  0x20\n  shr\n  jump\t// in\ntag_38:\n    /* \"@openzeppelin/contracts/token/ERC20/extensions/ERC20Pausable.sol\":1221:1251  super._update(from, to, value) */\n  tag_41\n    /* \"@openzeppelin/contracts/token/ERC20/extensions/ERC20Pausable.sol\":1235:1239  from */\n  dup4\n    /* \"@openzeppelin/contracts/token/ERC20/extensions/ERC20Pausable.sol\":1241:1243  to */\n  dup4\n    /* \"@openzeppelin/contracts/token/ERC20/extensions/ERC20Pausable.sol\":1245:1250  value */\n  dup4\n    /* \"@openzeppelin/contracts/token/ERC20/extensions/ERC20Pausable.sol\":1221:1234  super._update */\n  shl(0x20, tag_42)\n    /* \"@openzeppelin/contracts/token/ERC20/extensions/ERC20Pausable.sol\":1221:1251  super._update(from, to, value) */\n  0x20\n  shr\n  jump\t// in\ntag_41:\n    /* \"@openzeppelin/contracts/token/ERC20/extensions/ERC20Pausable.sol\":1113:1258  function _update(address from, address to, uint256 value) internal virtual override whenNotPaused {... */\n  pop\n  pop\n  pop\n  jump\t// out\n    /* \"@openzeppelin/contracts/utils/Pausable.sol\":1878:2006  function _requireNotPaused() internal view virtual {... */\ntag_39:\n    /* \"@openzeppelin/contracts/utils/Pausable.sol\":1943:1951  paused() */\n  tag_44\n    /* \"@openzeppelin/contracts/utils/Pausable.sol\":1943:1949  paused */\n  shl(0x20, tag_45)\n    /* \"@openzeppelin/contracts/utils/Pausable.sol\":1943:1951  paused() */\n  0x20\n  shr\n  jump\t// in\ntag_44:\n    /* \"@openzeppelin/contracts/utils/Pausable.sol\":1939:2000  if (paused()) {... */\n  iszero\n  tag_46\n  jumpi\n    /* \"@openzeppelin/contracts/utils/Pausable.sol\":1974:1989  EnforcedPause() */\n  mload(0x40)\n  0xd93c066500000000000000000000000000000000000000000000000000000000\n  dup2\n  mstore\n  0x04\n  add\n  mload(0x40)\n  dup1\n  swap2\n  sub\n  swap1\n  revert\n    /* \"@openzeppelin/contracts/utils/Pausable.sol\":1939:2000  if (paused()) {... */\ntag_46:\n    /* \"@openzeppelin/contracts/utils/Pausable.sol\":1878:2006  function _requireNotPaused() internal view virtual {... */\n  jump\t// out\n    /* \"@openzeppelin/contracts/token/ERC20/ERC20.sol\":5989:7096  function _update(address from, address to, uint256 value) internal virtual {... */\ntag_42:\n    /* \"@openzeppelin/contracts/token/ERC20/ERC20.sol\":6094:6095  0 */\n  0x00\n    /* \"@openzeppelin/contracts/token/ERC20/ERC20.sol\":6078:6096  from == address(0) */\n  0xffffffffffffffffffffffffffffffffffffffff\n  and\n    /* \"@openzeppelin/contracts/token/ERC20/ERC20.sol\":6078:6082  from */\n  dup4\n    /* \"@openzeppelin/contracts/token/ERC20/ERC20.sol\":6078:6096  from == address(0) */\n  0xffffffffffffffffffffffffffffffffffffffff\n  and\n  sub\n    /* \"@openzeppelin/contracts/token/ERC20/ERC20.sol\":6074:6614  if (from == address(0)) {... */\n  tag_48\n  jumpi\n    /* \"@openzeppelin/contracts/token/ERC20/ERC20.sol\":6230:6235  value */\n  dup1\n    /* \"@openzeppelin/contracts/token/ERC20/ERC20.sol\":6214:6226  _totalSupply */\n  0x02\n  0x00\n    /* \"@openzeppelin/contracts/token/ERC20/ERC20.sol\":6214:6235  _totalSupply += value */\n  dup3\n  dup3\n  sload\n  tag_49\n  swap2\n  swap1\n  tag_50\n  jump\t// in\ntag_49:\n  swap3\n  pop\n  pop\n  dup2\n  swap1\n  sstore\n  pop\n    /* \"@openzeppelin/contracts/token/ERC20/ERC20.sol\":6074:6614  if (from == address(0)) {... */\n  jump(tag_51)\ntag_48:\n    /* \"@openzeppelin/contracts/token/ERC20/ERC20.sol\":6266:6285  uint256 fromBalance */\n  0x00\n    /* \"@openzeppelin/contracts/token/ERC20/ERC20.sol\":6288:6297  _balances */\n  dup1\n    /* \"@openzeppelin/contracts/token/ERC20/ERC20.sol\":6288:6303  _balances[from] */\n  0x00\n    /* \"@openzeppelin/contracts/token/ERC20/ERC20.sol\":6298:6302  from */\n  dup6\n    /* \"@openzeppelin/contracts/token/ERC20/ERC20.sol\":6288:6303  _balances[from] */\n  0xffffffffffffffffffffffffffffffffffffffff\n  and\n  0xffffffffffffffffffffffffffffffffffffffff\n  and\n  dup2\n  mstore\n  0x20\n  add\n  swap1\n  dup2\n  mstore\n  0x20\n  add\n  0x00\n  keccak256\n  sload\n    /* \"@openzeppelin/contracts/token/ERC20/ERC20.sol\":6266:6303  uint256 fromBalance = _balances[from] */\n  swap1\n  pop\n    /* \"@openzeppelin/contracts/token/ERC20/ERC20.sol\":6335:6340  value */\n  dup2\n    /* \"@openzeppelin/contracts/token/ERC20/ERC20.sol\":6321:6332  fromBalance */\n  dup2\n    /* \"@openzeppelin/contracts/token/ERC20/ERC20.sol\":6321:6340  fromBalance < value */\n  lt\n    /* \"@openzeppelin/contracts/token/ERC20/ERC20.sol\":6317:6432  if (fromBalance < value) {... */\n  iszero\n  tag_52\n  jumpi\n    /* \"@openzeppelin/contracts/token/ERC20/ERC20.sol\":6392:6396  from */\n  dup4\n    /* \"@openzeppelin/contracts/token/ERC20/ERC20.sol\":6398:6409  fromBalance */\n  dup2\n    /* \"@openzeppelin/contracts/token/ERC20/ERC20.sol\":6411:6416  value */\n  dup4\n    /* \"@openzeppelin/contracts/token/ERC20/ERC20.sol\":6367:6417  ERC20InsufficientBalance(from, fromBalance, value) */\n  mload(0x40)\n  0xe450d38c00000000000000000000000000000000000000000000000000000000\n  dup2\n  mstore\n  0x04\n  add\n  tag_53\n  swap4\n  swap3\n  swap2\n  swap1\n  tag_54\n  jump\t// in\ntag_53:\n  mload(0x40)\n  dup1\n  swap2\n  sub\n  swap1\n  revert\n    /* \"@openzeppelin/contracts/token/ERC20/ERC20.sol\":6317:6432  if (fromBalance < value) {... */\ntag_52:\n    /* \"@openzeppelin/contracts/token/ERC20/ERC20.sol\":6584:6589  value */\n  dup2\n    /* \"@openzeppelin/contracts/token/ERC20/ERC20.sol\":6570:6581  fromBalance */\n  dup2\n    /* \"@openzeppelin/contracts/token/ERC20/ERC20.sol\":6570:6589  fromBalance - value */\n  sub\n    /* \"@openzeppelin/contracts/token/ERC20/ERC20.sol\":6552:6561  _balances */\n  0x00\n    /* \"@openzeppelin/contracts/token/ERC20/ERC20.sol\":6552:6567  _balances[from] */\n  dup1\n    /* \"@openzeppelin/contracts/token/ERC20/ERC20.sol\":6562:6566  from */\n  dup7\n    /* \"@openzeppelin/contracts/token/ERC20/ERC20.sol\":6552:6567  _balances[from] */\n  0xffffffffffffffffffffffffffffffffffffffff\n  and\n  0xffffffffffffffffffffffffffffffffffffffff\n  and\n  dup2\n  mstore\n  0x20\n  add\n  swap1\n  dup2\n  mstore\n  0x20\n  add\n  0x00\n  keccak256\n    /* \"@openzeppelin/contracts/token/ERC20/ERC20.sol\":6552:6589  _balances[from] = fromBalance - value */\n  dup2\n  swap1\n  sstore\n  pop\n    /* \"@openzeppelin/contracts/token/ERC20/ERC20.sol\":6252:6614  {... */\n  pop\n    /* \"@openzeppelin/contracts/token/ERC20/ERC20.sol\":6074:6614  if (from == address(0)) {... */\ntag_51:\n    /* \"@openzeppelin/contracts/token/ERC20/ERC20.sol\":6642:6643  0 */\n  0x00\n    /* \"@openzeppelin/contracts/token/ERC20/ERC20.sol\":6628:6644  to == address(0) */\n  0xffffffffffffffffffffffffffffffffffffffff\n  and\n    /* \"@openzeppelin/contracts/token/ERC20/ERC20.sol\":6628:6630  to */\n  dup3\n    /* \"@openzeppelin/contracts/token/ERC20/ERC20.sol\":6628:6644  to == address(0) */\n  0xffffffffffffffffffffffffffffffffffffffff\n  and\n  sub\n    /* \"@openzeppelin/contracts/token/ERC20/ERC20.sol\":6624:7049  if (to == address(0)) {... */\n  tag_55\n  jumpi\n    /* \"@openzeppelin/contracts/token/ERC20/ERC20.sol\":6807:6812  value */\n  dup1\n    /* \"@openzeppelin/contracts/token/ERC20/ERC20.sol\":6791:6803  _totalSupply */\n  0x02\n  0x00\n    /* \"@openzeppelin/contracts/token/ERC20/ERC20.sol\":6791:6812  _totalSupply -= value */\n  dup3\n  dup3\n  sload\n  sub\n  swap3\n  pop\n  pop\n  dup2\n  swap1\n  sstore\n  pop\n    /* \"@openzeppelin/contracts/token/ERC20/ERC20.sol\":6624:7049  if (to == address(0)) {... */\n  jump(tag_56)\ntag_55:\n    /* \"@openzeppelin/contracts/token/ERC20/ERC20.sol\":7019:7024  value */\n  dup1\n    /* \"@openzeppelin/contracts/token/ERC20/ERC20.sol\":7002:7011  _balances */\n  0x00\n    /* \"@openzeppelin/contracts/token/ERC20/ERC20.sol\":7002:7015  _balances[to] */\n  dup1\n    /* \"@openzeppelin/contracts/token/ERC20/ERC20.sol\":7012:7014  to */\n  dup5\n    /* \"@openzeppelin/contracts/token/ERC20/ERC20.sol\":7002:7015  _balances[to] */\n  0xffffffffffffffffffffffffffffffffffffffff\n  and\n  0xffffffffffffffffffffffffffffffffffffffff\n  and\n  dup2\n  mstore\n  0x20\n  add\n  swap1\n  dup2\n  mstore\n  0x20\n  add\n  0x00\n  keccak256\n  0x00\n    /* \"@openzeppelin/contracts/token/ERC20/ERC20.sol\":7002:7024  _balances[to] += value */\n  dup3\n  dup3\n  sload\n  add\n  swap3\n  pop\n  pop\n  dup2\n  swap1\n  sstore\n  pop\n    /* \"@openzeppelin/contracts/token/ERC20/ERC20.sol\":6624:7049  if (to == address(0)) {... */\ntag_56:\n    /* \"@openzeppelin/contracts/token/ERC20/ERC20.sol\":7079:7081  to */\n  dup2\n    /* \"@openzeppelin/contracts/token/ERC20/ERC20.sol\":7064:7089  Transfer(from, to, value) */\n  0xffffffffffffffffffffffffffffffffffffffff\n  and\n    /* \"@openzeppelin/contracts/token/ERC20/ERC20.sol\":7073:7077  from */\n  dup4\n    /* \"@openzeppelin/contracts/token/ERC20/ERC20.sol\":7064:7089  Transfer(from, to, value) */\n  0xffffffffffffffffffffffffffffffffffffffff\n  and\n  0xddf252ad1be2c89b69c2b068fc378daa952ba7f163c4a11628f55a4df523b3ef\n    /* \"@openzeppelin/contracts/token/ERC20/ERC20.sol\":7083:7088  value */\n  dup4\n    /* \"@openzeppelin/contracts/token/ERC20/ERC20.sol\":7064:7089  Transfer(from, to, value) */\n  mload(0x40)\n  tag_57\n  swap2\n  swap1\n  tag_58\n  jump\t// in\ntag_57:\n  mload(0x40)\n  dup1\n  swap2\n  sub\n  swap1\n  log3\n    /* \"@openzeppelin/contracts/token/ERC20/ERC20.sol\":5989:7096  function _update(address from, address to, uint256 value) internal virtual {... */\n  pop\n  pop\n  pop\n  jump\t// out\n    /* \"@openzeppelin/contracts/utils/Pausable.sol\":1726:1810  function paused() public view virtual returns (bool) {... */\ntag_45:\n    /* \"@openzeppelin/contracts/utils/Pausable.sol\":1773:1777  bool */\n  0x00\n    /* \"@openzeppelin/contracts/utils/Pausable.sol\":1796:1803  _paused */\n  0x05\n  0x00\n  swap1\n  sload\n  swap1\n  0x0100\n  exp\n  swap1\n  div\n  0xff\n  and\n    /* \"@openzeppelin/contracts/utils/Pausable.sol\":1789:1803  return _paused */\n  swap1\n  pop\n    /* \"@openzeppelin/contracts/utils/Pausable.sol\":1726:1810  function paused() public view virtual returns (bool) {... */\n  swap1\n  jump\t// out\n    /* \"#utility.yul\":88:205   */\ntag_61:\n    /* \"#utility.yul\":197:198   */\n  0x00\n    /* \"#utility.yul\":194:195   */\n  dup1\n    /* \"#utility.yul\":187:199   */\n  revert\n    /* \"#utility.yul\":334:460   */\ntag_63:\n    /* \"#utility.yul\":371:378   */\n  0x00\n    /* \"#utility.yul\":411:453   */\n  0xffffffffffffffffffffffffffffffffffffffff\n    /* \"#utility.yul\":404:409   */\n  dup3\n    /* \"#utility.yul\":400:454   */\n  and\n    /* \"#utility.yul\":389:454   */\n  swap1\n  pop\n    /* \"#utility.yul\":334:460   */\n  swap2\n  swap1\n  pop\n  jump\t// out\n    /* \"#utility.yul\":466:562   */\ntag_64:\n    /* \"#utility.yul\":503:510   */\n  0x00\n    /* \"#utility.yul\":532:556   */\n  tag_100\n    /* \"#utility.yul\":550:555   */\n  dup3\n    /* \"#utility.yul\":532:556   */\n  tag_63\n  jump\t// in\ntag_100:\n    /* \"#utility.yul\":521:556   */\n  swap1\n  pop\n    /* \"#utility.yul\":466:562   */\n  swap2\n  swap1\n  pop\n  jump\t// out\n    /* \"#utility.yul\":568:690   */\ntag_65:\n    /* \"#utility.yul\":641:665   */\n  tag_102\n    /* \"#utility.yul\":659:664   */\n  dup2\n    /* \"#utility.yul\":641:665   */\n  tag_64\n  jump\t// in\ntag_102:\n    /* \"#utility.yul\":634:639   */\n  dup2\n    /* \"#utility.yul\":631:666   */\n  eq\n    /* \"#utility.yul\":621:684   */\n  tag_103\n  jumpi\n    /* \"#utility.yul\":680:681   */\n  0x00\n    /* \"#utility.yul\":677:678   */\n  dup1\n    /* \"#utility.yul\":670:682   */\n  revert\n    /* \"#utility.yul\":621:684   */\ntag_103:\n    /* \"#utility.yul\":568:690   */\n  pop\n  jump\t// out\n    /* \"#utility.yul\":696:839   */\ntag_66:\n    /* \"#utility.yul\":753:758   */\n  0x00\n    /* \"#utility.yul\":784:790   */\n  dup2\n    /* \"#utility.yul\":778:791   */\n  mload\n    /* \"#utility.yul\":769:791   */\n  swap1\n  pop\n    /* \"#utility.yul\":800:833   */\n  tag_105\n    /* \"#utility.yul\":827:832   */\n  dup2\n    /* \"#utility.yul\":800:833   */\n  tag_65\n  jump\t// in\ntag_105:\n    /* \"#utility.yul\":696:839   */\n  swap3\n  swap2\n  pop\n  pop\n  jump\t// out\n    /* \"#utility.yul\":845:1352   */\ntag_3:\n    /* \"#utility.yul\":924:930   */\n  0x00\n    /* \"#utility.yul\":932:938   */\n  dup1\n    /* \"#utility.yul\":981:983   */\n  0x40\n    /* \"#utility.yul\":969:978   */\n  dup4\n    /* \"#utility.yul\":960:967   */\n  dup6\n    /* \"#utility.yul\":956:979   */\n  sub\n    /* \"#utility.yul\":952:984   */\n  slt\n    /* \"#utility.yul\":949:1068   */\n  iszero\n  tag_107\n  jumpi\n    /* \"#utility.yul\":987:1066   */\n  tag_108\n  tag_61\n  jump\t// in\ntag_108:\n    /* \"#utility.yul\":949:1068   */\ntag_107:\n    /* \"#utility.yul\":1107:1108   */\n  0x00\n    /* \"#utility.yul\":1132:1196   */\n  tag_109\n    /* \"#utility.yul\":1188:1195   */\n  dup6\n    /* \"#utility.yul\":1179:1185   */\n  dup3\n    /* \"#utility.yul\":1168:1177   */\n  dup7\n    /* \"#utility.yul\":1164:1186   */\n  add\n    /* \"#utility.yul\":1132:1196   */\n  tag_66\n  jump\t// in\ntag_109:\n    /* \"#utility.yul\":1122:1196   */\n  swap3\n  pop\n    /* \"#utility.yul\":1078:1206   */\n  pop\n    /* \"#utility.yul\":1245:1247   */\n  0x20\n    /* \"#utility.yul\":1271:1335   */\n  tag_110\n    /* \"#utility.yul\":1327:1334   */\n  dup6\n    /* \"#utility.yul\":1318:1324   */\n  dup3\n    /* \"#utility.yul\":1307:1316   */\n  dup7\n    /* \"#utility.yul\":1303:1325   */\n  add\n    /* \"#utility.yul\":1271:1335   */\n  tag_66\n  jump\t// in\ntag_110:\n    /* \"#utility.yul\":1261:1335   */\n  swap2\n  pop\n    /* \"#utility.yul\":1216:1345   */\n  pop\n    /* \"#utility.yul\":845:1352   */\n  swap3\n  pop\n  swap3\n  swap1\n  pop\n  jump\t// out\n    /* \"#utility.yul\":1358:1457   */\ntag_67:\n    /* \"#utility.yul\":1410:1416   */\n  0x00\n    /* \"#utility.yul\":1444:1449   */\n  dup2\n    /* \"#utility.yul\":1438:1450   */\n  mload\n    /* \"#utility.yul\":1428:1450   */\n  swap1\n  pop\n    /* \"#utility.yul\":1358:1457   */\n  swap2\n  swap1\n  pop\n  jump\t// out\n    /* \"#utility.yul\":1463:1643   */\ntag_68:\n    /* \"#utility.yul\":1511:1588   */\n  0x4e487b7100000000000000000000000000000000000000000000000000000000\n    /* \"#utility.yul\":1508:1509   */\n  0x00\n    /* \"#utility.yul\":1501:1589   */\n  mstore\n    /* \"#utility.yul\":1608:1612   */\n  0x41\n    /* \"#utility.yul\":1605:1606   */\n  0x04\n    /* \"#utility.yul\":1598:1613   */\n  mstore\n    /* \"#utility.yul\":1632:1636   */\n  0x24\n    /* \"#utility.yul\":1629:1630   */\n  0x00\n    /* \"#utility.yul\":1622:1637   */\n  revert\n    /* \"#utility.yul\":1649:1829   */\ntag_69:\n    /* \"#utility.yul\":1697:1774   */\n  0x4e487b7100000000000000000000000000000000000000000000000000000000\n    /* \"#utility.yul\":1694:1695   */\n  0x00\n    /* \"#utility.yul\":1687:1775   */\n  mstore\n    /* \"#utility.yul\":1794:1798   */\n  0x22\n    /* \"#utility.yul\":1791:1792   */\n  0x04\n    /* \"#utility.yul\":1784:1799   */\n  mstore\n    /* \"#utility.yul\":1818:1822   */\n  0x24\n    /* \"#utility.yul\":1815:1816   */\n  0x00\n    /* \"#utility.yul\":1808:1823   */\n  revert\n    /* \"#utility.yul\":1835:2155   */\ntag_70:\n    /* \"#utility.yul\":1879:1885   */\n  0x00\n    /* \"#utility.yul\":1916:1917   */\n  0x02\n    /* \"#utility.yul\":1910:1914   */\n  dup3\n    /* \"#utility.yul\":1906:1918   */\n  div\n    /* \"#utility.yul\":1896:1918   */\n  swap1\n  pop\n    /* \"#utility.yul\":1963:1964   */\n  0x01\n    /* \"#utility.yul\":1957:1961   */\n  dup3\n    /* \"#utility.yul\":1953:1965   */\n  and\n    /* \"#utility.yul\":1984:2002   */\n  dup1\n    /* \"#utility.yul\":1974:2055   */\n  tag_115\n  jumpi\n    /* \"#utility.yul\":2040:2044   */\n  0x7f\n    /* \"#utility.yul\":2032:2038   */\n  dup3\n    /* \"#utility.yul\":2028:2045   */\n  and\n    /* \"#utility.yul\":2018:2045   */\n  swap2\n  pop\n    /* \"#utility.yul\":1974:2055   */\ntag_115:\n    /* \"#utility.yul\":2102:2104   */\n  0x20\n    /* \"#utility.yul\":2094:2100   */\n  dup3\n    /* \"#utility.yul\":2091:2105   */\n  lt\n    /* \"#utility.yul\":2071:2089   */\n  dup2\n    /* \"#utility.yul\":2068:2106   */\n  sub\n    /* \"#utility.yul\":2065:2149   */\n  tag_116\n  jumpi\n    /* \"#utility.yul\":2121:2139   */\n  tag_117\n  tag_69\n  jump\t// in\ntag_117:\n    /* \"#utility.yul\":2065:2149   */\ntag_116:\n    /* \"#utility.yul\":1886:2155   */\n  pop\n    /* \"#utility.yul\":1835:2155   */\n  swap2\n  swap1\n  pop\n  jump\t// out\n    /* \"#utility.yul\":2161:2302   */\ntag_71:\n    /* \"#utility.yul\":2210:2214   */\n  0x00\n    /* \"#utility.yul\":2233:2236   */\n  dup2\n    /* \"#utility.yul\":2225:2236   */\n  swap1\n  pop\n    /* \"#utility.yul\":2256:2259   */\n  dup2\n    /* \"#utility.yul\":2253:2254   */\n  0x00\n    /* \"#utility.yul\":2246:2260   */\n  mstore\n    /* \"#utility.yul\":2290:2294   */\n  0x20\n    /* \"#utility.yul\":2287:2288   */\n  0x00\n    /* \"#utility.yul\":2277:2295   */\n  keccak256\n    /* \"#utility.yul\":2269:2295   */\n  swap1\n  pop\n    /* \"#utility.yul\":2161:2302   */\n  swap2\n  swap1\n  pop\n  jump\t// out\n    /* \"#utility.yul\":2308:2401   */\ntag_72:\n    /* \"#utility.yul\":2345:2351   */\n  0x00\n    /* \"#utility.yul\":2392:2394   */\n  0x20\n    /* \"#utility.yul\":2387:2389   */\n  0x1f\n    /* \"#utility.yul\":2380:2385   */\n  dup4\n    /* \"#utility.yul\":2376:2390   */\n  add\n    /* \"#utility.yul\":2372:2395   */\n  div\n    /* \"#utility.yul\":2362:2395   */\n  swap1\n  pop\n    /* \"#utility.yul\":2308:2401   */\n  swap2\n  swap1\n  pop\n  jump\t// out\n    /* \"#utility.yul\":2407:2514   */\ntag_73:\n    /* \"#utility.yul\":2451:2459   */\n  0x00\n    /* \"#utility.yul\":2501:2506   */\n  dup3\n    /* \"#utility.yul\":2495:2499   */\n  dup3\n    /* \"#utility.yul\":2491:2507   */\n  shl\n    /* \"#utility.yul\":2470:2507   */\n  swap1\n  pop\n    /* \"#utility.yul\":2407:2514   */\n  swap3\n  swap2\n  pop\n  pop\n  jump\t// out\n    /* \"#utility.yul\":2520:2913   */\ntag_74:\n    /* \"#utility.yul\":2589:2595   */\n  0x00\n    /* \"#utility.yul\":2639:2640   */\n  0x08\n    /* \"#utility.yul\":2627:2637   */\n  dup4\n    /* \"#utility.yul\":2623:2641   */\n  mul\n    /* \"#utility.yul\":2662:2759   */\n  tag_122\n    /* \"#utility.yul\":2692:2758   */\n  0xffffffffffffffffffffffffffffffffffffffffffffffffffffffffffffffff\n    /* \"#utility.yul\":2681:2690   */\n  dup3\n    /* \"#utility.yul\":2662:2759   */\n  tag_73\n  jump\t// in\ntag_122:\n    /* \"#utility.yul\":2780:2819   */\n  tag_123\n    /* \"#utility.yul\":2810:2818   */\n  dup7\n    /* \"#utility.yul\":2799:2808   */\n  dup4\n    /* \"#utility.yul\":2780:2819   */\n  tag_73\n  jump\t// in\ntag_123:\n    /* \"#utility.yul\":2768:2819   */\n  swap6\n  pop\n    /* \"#utility.yul\":2852:2856   */\n  dup1\n    /* \"#utility.yul\":2848:2857   */\n  not\n    /* \"#utility.yul\":2841:2846   */\n  dup5\n    /* \"#utility.yul\":2837:2858   */\n  and\n    /* \"#utility.yul\":2828:2858   */\n  swap4\n  pop\n    /* \"#utility.yul\":2901:2905   */\n  dup1\n    /* \"#utility.yul\":2891:2899   */\n  dup7\n    /* \"#utility.yul\":2887:2906   */\n  and\n    /* \"#utility.yul\":2880:2885   */\n  dup5\n    /* \"#utility.yul\":2877:2907   */\n  or\n    /* \"#utility.yul\":2867:2907   */\n  swap3\n  pop\n    /* \"#utility.yul\":2596:2913   */\n  pop\n  pop\n    /* \"#utility.yul\":2520:2913   */\n  swap4\n  swap3\n  pop\n  pop\n  pop\n  jump\t// out\n    /* \"#utility.yul\":2919:2996   */\ntag_75:\n    /* \"#utility.yul\":2956:2963   */\n  0x00\n    /* \"#utility.yul\":2985:2990   */\n  dup2\n    /* \"#utility.yul\":2974:2990   */\n  swap1\n  pop\n    /* \"#utility.yul\":2919:2996   */\n  swap2\n  swap1\n  pop\n  jump\t// out\n    /* \"#utility.yul\":3002:3062   */\ntag_76:\n    /* \"#utility.yul\":3030:3033   */\n  0x00\n    /* \"#utility.yul\":3051:3056   */\n  dup2\n    /* \"#utility.yul\":3044:3056   */\n  swap1\n  pop\n    /* \"#utility.yul\":3002:3062   */\n  swap2\n  swap1\n  pop\n  jump\t// out\n    /* \"#utility.yul\":3068:3210   */\ntag_77:\n    /* \"#utility.yul\":3118:3127   */\n  0x00\n    /* \"#utility.yul\":3151:3204   */\n  tag_127\n    /* \"#utility.yul\":3169:3203   */\n  tag_128\n    /* \"#utility.yul\":3178:3202   */\n  tag_129\n    /* \"#utility.yul\":3196:3201   */\n  dup5\n    /* \"#utility.yul\":3178:3202   */\n  tag_75\n  jump\t// in\ntag_129:\n    /* \"#utility.yul\":3169:3203   */\n  tag_76\n  jump\t// in\ntag_128:\n    /* \"#utility.yul\":3151:3204   */\n  tag_75\n  jump\t// in\ntag_127:\n    /* \"#utility.yul\":3138:3204   */\n  swap1\n  pop\n    /* \"#utility.yul\":3068:3210   */\n  swap2\n  swap1\n  pop\n  jump\t// out\n    /* \"#utility.yul\":3216:3291   */\ntag_78:\n    /* \"#utility.yul\":3259:3262   */\n  0x00\n    /* \"#utility.yul\":3280:3285   */\n  dup2\n    /* \"#utility.yul\":3273:3285   */\n  swap1\n  pop\n    /* \"#utility.yul\":3216:3291   */\n  swap2\n  swap1\n  pop\n  jump\t// out\n    /* \"#utility.yul\":3297:3566   */\ntag_79:\n    /* \"#utility.yul\":3407:3446   */\n  tag_132\n    /* \"#utility.yul\":3438:3445   */\n  dup4\n    /* \"#utility.yul\":3407:3446   */\n  tag_77\n  jump\t// in\ntag_132:\n    /* \"#utility.yul\":3468:3559   */\n  tag_133\n    /* \"#utility.yul\":3517:3558   */\n  tag_134\n    /* \"#utility.yul\":3541:3557   */\n  dup3\n    /* \"#utility.yul\":3517:3558   */\n  tag_78\n  jump\t// in\ntag_134:\n    /* \"#utility.yul\":3509:3515   */\n  dup5\n    /* \"#utility.yul\":3502:3506   */\n  dup5\n    /* \"#utility.yul\":3496:3507   */\n  sload\n    /* \"#utility.yul\":3468:3559   */\n  tag_74\n  jump\t// in\ntag_133:\n    /* \"#utility.yul\":3462:3466   */\n  dup3\n    /* \"#utility.yul\":3455:3560   */\n  sstore\n    /* \"#utility.yul\":3373:3566   */\n  pop\n    /* \"#utility.yul\":3297:3566   */\n  pop\n  pop\n  pop\n  jump\t// out\n    /* \"#utility.yul\":3572:3645   */\ntag_80:\n    /* \"#utility.yul\":3617:3620   */\n  0x00\n    /* \"#utility.yul\":3572:3645   */\n  swap1\n  jump\t// out\n    /* \"#utility.yul\":3651:3840   */\ntag_81:\n    /* \"#utility.yul\":3728:3760   */\n  tag_137\n  tag_80\n  jump\t// in\ntag_137:\n    /* \"#utility.yul\":3769:3834   */\n  tag_138\n    /* \"#utility.yul\":3827:3833   */\n  dup2\n    /* \"#utility.yul\":3819:3825   */\n  dup5\n    /* \"#utility.yul\":3813:3817   */\n  dup5\n    /* \"#utility.yul\":3769:3834   */\n  tag_79\n  jump\t// in\ntag_138:\n    /* \"#utility.yul\":3704:3840   */\n  pop\n    /* \"#utility.yul\":3651:3840   */\n  pop\n  pop\n  jump\t// out\n    /* \"#utility.yul\":3846:4032   */\ntag_82:\n    /* \"#utility.yul\":3906:4026   */\ntag_140:\n    /* \"#utility.yul\":3923:3926   */\n  dup2\n    /* \"#utility.yul\":3916:3921   */\n  dup2\n    /* \"#utility.yul\":3913:3927   */\n  lt\n    /* \"#utility.yul\":3906:4026   */\n  iszero\n  tag_142\n  jumpi\n    /* \"#utility.yul\":3977:4016   */\n  tag_143\n    /* \"#utility.yul\":4014:4015   */\n  0x00\n    /* \"#utility.yul\":4007:4012   */\n  dup3\n    /* \"#utility.yul\":3977:4016   */\n  tag_81\n  jump\t// in\ntag_143:\n    /* \"#utility.yul\":3950:3951   */\n  0x01\n    /* \"#utility.yul\":3943:3948   */\n  dup2\n    /* \"#utility.yul\":3939:3952   */\n  add\n    /* \"#utility.yul\":3930:3952   */\n  swap1\n  pop\n    /* \"#utility.yul\":3906:4026   */\n  jump(tag_140)\ntag_142:\n    /* \"#utility.yul\":3846:4032   */\n  pop\n  pop\n  jump\t// out\n    /* \"#utility.yul\":4038:4581   */\ntag_83:\n    /* \"#utility.yul\":4139:4141   */\n  0x1f\n    /* \"#utility.yul\":4134:4137   */\n  dup3\n    /* \"#utility.yul\":4131:4142   */\n  gt\n    /* \"#utility.yul\":4128:4574   */\n  iszero\n  tag_145\n  jumpi\n    /* \"#utility.yul\":4173:4211   */\n  tag_146\n    /* \"#utility.yul\":4205:4210   */\n  dup2\n    /* \"#utility.yul\":4173:4211   */\n  tag_71\n  jump\t// in\ntag_146:\n    /* \"#utility.yul\":4257:4286   */\n  tag_147\n    /* \"#utility.yul\":4275:4285   */\n  dup5\n    /* \"#utility.yul\":4257:4286   */\n  tag_72\n  jump\t// in\ntag_147:\n    /* \"#utility.yul\":4247:4255   */\n  dup2\n    /* \"#utility.yul\":4243:4287   */\n  add\n    /* \"#utility.yul\":4440:4442   */\n  0x20\n    /* \"#utility.yul\":4428:4438   */\n  dup6\n    /* \"#utility.yul\":4425:4443   */\n  lt\n    /* \"#utility.yul\":4422:4471   */\n  iszero\n  tag_148\n  jumpi\n    /* \"#utility.yul\":4461:4469   */\n  dup2\n    /* \"#utility.yul\":4446:4469   */\n  swap1\n  pop\n    /* \"#utility.yul\":4422:4471   */\ntag_148:\n    /* \"#utility.yul\":4484:4564   */\n  tag_149\n    /* \"#utility.yul\":4540:4562   */\n  tag_150\n    /* \"#utility.yul\":4558:4561   */\n  dup6\n    /* \"#utility.yul\":4540:4562   */\n  tag_72\n  jump\t// in\ntag_150:\n    /* \"#utility.yul\":4530:4538   */\n  dup4\n    /* \"#utility.yul\":4526:4563   */\n  add\n    /* \"#utility.yul\":4513:4524   */\n  dup3\n    /* \"#utility.yul\":4484:4564   */\n  tag_82\n  jump\t// in\ntag_149:\n    /* \"#utility.yul\":4143:4574   */\n  pop\n  pop\n    /* \"#utility.yul\":4128:4574   */\ntag_145:\n    /* \"#utility.yul\":4038:4581   */\n  pop\n  pop\n  pop\n  jump\t// out\n    /* \"#utility.yul\":4587:4704   */\ntag_84:\n    /* \"#utility.yul\":4641:4649   */\n  0x00\n    /* \"#utility.yul\":4691:4696   */\n  dup3\n    /* \"#utility.yul\":4685:4689   */\n  dup3\n    /* \"#utility.yul\":4681:4697   */\n  shr\n    /* \"#utility.yul\":4660:4697   */\n  swap1\n  pop\n    /* \"#utility.yul\":4587:4704   */\n  swap3\n  swap2\n  pop\n  pop\n  jump\t// out\n    /* \"#utility.yul\":4710:4879   */\ntag_85:\n    /* \"#utility.yul\":4754:4760   */\n  0x00\n    /* \"#utility.yul\":4787:4838   */\n  tag_153\n    /* \"#utility.yul\":4835:4836   */\n  0x00\n    /* \"#utility.yul\":4831:4837   */\n  not\n    /* \"#utility.yul\":4823:4828   */\n  dup5\n    /* \"#utility.yul\":4820:4821   */\n  0x08\n    /* \"#utility.yul\":4816:4829   */\n  mul\n    /* \"#utility.yul\":4787:4838   */\n  tag_84\n  jump\t// in\ntag_153:\n    /* \"#utility.yul\":4783:4839   */\n  not\n    /* \"#utility.yul\":4868:4872   */\n  dup1\n    /* \"#utility.yul\":4862:4866   */\n  dup4\n    /* \"#utility.yul\":4858:4873   */\n  and\n    /* \"#utility.yul\":4848:4873   */\n  swap2\n  pop\n    /* \"#utility.yul\":4761:4879   */\n  pop\n    /* \"#utility.yul\":4710:4879   */\n  swap3\n  swap2\n  pop\n  pop\n  jump\t// out\n    /* \"#utility.yul\":4884:5179   */\ntag_86:\n    /* \"#utility.yul\":4960:4964   */\n  0x00\n    /* \"#utility.yul\":5106:5135   */\n  tag_155\n    /* \"#utility.yul\":5131:5134   */\n  dup4\n    /* \"#utility.yul\":5125:5129   */\n  dup4\n    /* \"#utility.yul\":5106:5135   */\n  tag_85\n  jump\t// in\ntag_155:\n    /* \"#utility.yul\":5098:5135   */\n  swap2\n  pop\n    /* \"#utility.yul\":5168:5171   */\n  dup3\n    /* \"#utility.yul\":5165:5166   */\n  0x02\n    /* \"#utility.yul\":5161:5172   */\n  mul\n    /* \"#utility.yul\":5155:5159   */\n  dup3\n    /* \"#utility.yul\":5152:5173   */\n  or\n    /* \"#utility.yul\":5144:5173   */\n  swap1\n  pop\n    /* \"#utility.yul\":4884:5179   */\n  swap3\n  swap2\n  pop\n  pop\n  jump\t// out\n    /* \"#utility.yul\":5184:6579   */\ntag_9:\n    /* \"#utility.yul\":5301:5338   */\n  tag_157\n    /* \"#utility.yul\":5334:5337   */\n  dup3\n    /* \"#utility.yul\":5301:5338   */\n  tag_67\n  jump\t// in\ntag_157:\n    /* \"#utility.yul\":5403:5421   */\n  0xffffffffffffffff\n    /* \"#utility.yul\":5395:5401   */\n  dup2\n    /* \"#utility.yul\":5392:5422   */\n  gt\n    /* \"#utility.yul\":5389:5445   */\n  iszero\n  tag_158\n  jumpi\n    /* \"#utility.yul\":5425:5443   */\n  tag_159\n  tag_68\n  jump\t// in\ntag_159:\n    /* \"#utility.yul\":5389:5445   */\ntag_158:\n    /* \"#utility.yul\":5469:5507   */\n  tag_160\n    /* \"#utility.yul\":5501:5505   */\n  dup3\n    /* \"#utility.yul\":5495:5506   */\n  sload\n    /* \"#utility.yul\":5469:5507   */\n  tag_70\n  jump\t// in\ntag_160:\n    /* \"#utility.yul\":5554:5621   */\n  tag_161\n    /* \"#utility.yul\":5614:5620   */\n  dup3\n    /* \"#utility.yul\":5606:5612   */\n  dup3\n    /* \"#utility.yul\":5600:5604   */\n  dup6\n    /* \"#utility.yul\":5554:5621   */\n  tag_83\n  jump\t// in\ntag_161:\n    /* \"#utility.yul\":5648:5649   */\n  0x00\n    /* \"#utility.yul\":5672:5676   */\n  0x20\n    /* \"#utility.yul\":5659:5676   */\n  swap1\n  pop\n    /* \"#utility.yul\":5704:5706   */\n  0x1f\n    /* \"#utility.yul\":5696:5702   */\n  dup4\n    /* \"#utility.yul\":5693:5707   */\n  gt\n    /* \"#utility.yul\":5721:5722   */\n  0x01\n    /* \"#utility.yul\":5716:6334   */\n  dup2\n  eq\n  tag_163\n  jumpi\n    /* \"#utility.yul\":6378:6379   */\n  0x00\n    /* \"#utility.yul\":6395:6401   */\n  dup5\n    /* \"#utility.yul\":6392:6469   */\n  iszero\n  tag_164\n  jumpi\n    /* \"#utility.yul\":6444:6453   */\n  dup3\n    /* \"#utility.yul\":6439:6442   */\n  dup8\n    /* \"#utility.yul\":6435:6454   */\n  add\n    /* \"#utility.yul\":6429:6455   */\n  mload\n    /* \"#utility.yul\":6420:6455   */\n  swap1\n  pop\n    /* \"#utility.yul\":6392:6469   */\ntag_164:\n    /* \"#utility.yul\":6495:6562   */\n  tag_165\n    /* \"#utility.yul\":6555:6561   */\n  dup6\n    /* \"#utility.yul\":6548:6553   */\n  dup3\n    /* \"#utility.yul\":6495:6562   */\n  tag_86\n  jump\t// in\ntag_165:\n    /* \"#utility.yul\":6489:6493   */\n  dup7\n    /* \"#utility.yul\":6482:6563   */\n  sstore\n    /* \"#utility.yul\":6351:6573   */\n  pop\n    /* \"#utility.yul\":5686:6573   */\n  jump(tag_162)\n    /* \"#utility.yul\":5716:6334   */\ntag_163:\n    /* \"#utility.yul\":5768:5772   */\n  0x1f\n    /* \"#utility.yul\":5764:5773   */\n  not\n    /* \"#utility.yul\":5756:5762   */\n  dup5\n    /* \"#utility.yul\":5752:5774   */\n  and\n    /* \"#utility.yul\":5802:5839   */\n  tag_166\n    /* \"#utility.yul\":5834:5838   */\n  dup7\n    /* \"#utility.yul\":5802:5839   */\n  tag_71\n  jump\t// in\ntag_166:\n    /* \"#utility.yul\":5861:5862   */\n  0x00\n    /* \"#utility.yul\":5875:6083   */\ntag_167:\n    /* \"#utility.yul\":5889:5896   */\n  dup3\n    /* \"#utility.yul\":5886:5887   */\n  dup2\n    /* \"#utility.yul\":5883:5897   */\n  lt\n    /* \"#utility.yul\":5875:6083   */\n  iszero\n  tag_169\n  jumpi\n    /* \"#utility.yul\":5968:5977   */\n  dup5\n    /* \"#utility.yul\":5963:5966   */\n  dup10\n    /* \"#utility.yul\":5959:5978   */\n  add\n    /* \"#utility.yul\":5953:5979   */\n  mload\n    /* \"#utility.yul\":5945:5951   */\n  dup3\n    /* \"#utility.yul\":5938:5980   */\n  sstore\n    /* \"#utility.yul\":6019:6020   */\n  0x01\n    /* \"#utility.yul\":6011:6017   */\n  dup3\n    /* \"#utility.yul\":6007:6021   */\n  add\n    /* \"#utility.yul\":5997:6021   */\n  swap2\n  pop\n    /* \"#utility.yul\":6066:6068   */\n  0x20\n    /* \"#utility.yul\":6055:6064   */\n  dup6\n    /* \"#utility.yul\":6051:6069   */\n  add\n    /* \"#utility.yul\":6038:6069   */\n  swap5\n  pop\n    /* \"#utility.yul\":5912:5916   */\n  0x20\n    /* \"#utility.yul\":5909:5910   */\n  dup2\n    /* \"#utility.yul\":5905:5917   */\n  add\n    /* \"#utility.yul\":5900:5917   */\n  swap1\n  pop\n    /* \"#utility.yul\":5875:6083   */\n  jump(tag_167)\ntag_169:\n    /* \"#utility.yul\":6111:6117   */\n  dup7\n    /* \"#utility.yul\":6102:6109   */\n  dup4\n    /* \"#utility.yul\":6099:6118   */\n  lt\n    /* \"#utility.yul\":6096:6275   */\n  iszero\n  tag_170\n  jumpi\n    /* \"#utility.yul\":6169:6178   */\n  dup5\n    /* \"#utility.yul\":6164:6167   */\n  dup10\n    /* \"#utility.yul\":6160:6179   */\n  add\n    /* \"#utility.yul\":6154:6180   */\n  mload\n    /* \"#utility.yul\":6212:6260   */\n  tag_171\n    /* \"#utility.yul\":6254:6258   */\n  0x1f\n    /* \"#utility.yul\":6246:6252   */\n  dup10\n    /* \"#utility.yul\":6242:6259   */\n  and\n    /* \"#utility.yul\":6231:6240   */\n  dup3\n    /* \"#utility.yul\":6212:6260   */\n  tag_85\n  jump\t// in\ntag_171:\n    /* \"#utility.yul\":6204:6210   */\n  dup4\n    /* \"#utility.yul\":6197:6261   */\n  sstore\n    /* \"#utility.yul\":6119:6275   */\n  pop\n    /* \"#utility.yul\":6096:6275   */\ntag_170:\n    /* \"#utility.yul\":6321:6322   */\n  0x01\n    /* \"#utility.yul\":6317:6318   */\n  0x02\n    /* \"#utility.yul\":6309:6315   */\n  dup9\n    /* \"#utility.yul\":6305:6319   */\n  mul\n    /* \"#utility.yul\":6301:6323   */\n  add\n    /* \"#utility.yul\":6295:6299   */\n  dup9\n    /* \"#utility.yul\":6288:6324   */\n  sstore\n    /* \"#utility.yul\":5723:6334   */\n  pop\n  pop\n  pop\n    /* \"#utility.yul\":5686:6573   */\ntag_162:\n  pop\n    /* \"#utility.yul\":5276:6579   */\n  pop\n  pop\n  pop\n    /* \"#utility.yul\":5184:6579   */\n  pop\n  pop\n  jump\t// out\n    /* \"#utility.yul\":6585:6703   */\ntag_87:\n    /* \"#utility.yul\":6672:6696   */\n  tag_173\n    /* \"#utility.yul\":6690:6695   */\n  dup2\n    /* \"#utility.yul\":6672:6696   */\n  tag_64\n  jump\t// in\ntag_173:\n    /* \"#utility.yul\":6667:6670   */\n  dup3\n    /* \"#utility.yul\":6660:6697   */\n  mstore\n    /* \"#utility.yul\":6585:6703   */\n  pop\n  pop\n  jump\t// out\n    /* \"#utility.yul\":6709:6931   */\ntag_14:\n    /* \"#utility.yul\":6802:6806   */\n  0x00\n    /* \"#utility.yul\":6840:6842   */\n  0x20\n    /* \"#utility.yul\":6829:6838   */\n  dup3\n    /* \"#utility.yul\":6825:6843   */\n  add\n    /* \"#utility.yul\":6817:6843   */\n  swap1\n  pop\n    /* \"#utility.yul\":6853:6924   */\n  tag_175\n    /* \"#utility.yul\":6921:6922   */\n  0x00\n    /* \"#utility.yul\":6910:6919   */\n  dup4\n    /* \"#utility.yul\":6906:6923   */\n  add\n    /* \"#utility.yul\":6897:6903   */\n  dup5\n    /* \"#utility.yul\":6853:6924   */\n  tag_87\n  jump\t// in\ntag_175:\n    /* \"#utility.yul\":6709:6931   */\n  swap3\n  swap2\n  pop\n  pop\n  jump\t// out\n    /* \"#utility.yul\":6937:7117   */\ntag_88:\n    /* \"#utility.yul\":6985:7062   */\n  0x4e487b7100000000000000000000000000000000000000000000000000000000\n    /* \"#utility.yul\":6982:6983   */\n  0x00\n    /* \"#utility.yul\":6975:7063   */\n  mstore\n    /* \"#utility.yul\":7082:7086   */\n  0x11\n    /* \"#utility.yul\":7079:7080   */\n  0x04\n    /* \"#utility.yul\":7072:7087   */\n  mstore\n    /* \"#utility.yul\":7106:7110   */\n  0x24\n    /* \"#utility.yul\":7103:7104   */\n  0x00\n    /* \"#utility.yul\":7096:7111   */\n  revert\n    /* \"#utility.yul\":7123:7225   */\ntag_89:\n    /* \"#utility.yul\":7165:7173   */\n  0x00\n    /* \"#utility.yul\":7212:7217   */\n  dup2\n    /* \"#utility.yul\":7209:7210   */\n  0x01\n    /* \"#utility.yul\":7205:7218   */\n  shr\n    /* \"#utility.yul\":7184:7218   */\n  swap1\n  pop\n    /* \"#utility.yul\":7123:7225   */\n  swap2\n  swap1\n  pop\n  jump\t// out\n    /* \"#utility.yul\":7231:8079   */\ntag_90:\n    /* \"#utility.yul\":7292:7297   */\n  0x00\n    /* \"#utility.yul\":7299:7303   */\n  dup1\n    /* \"#utility.yul\":7323:7329   */\n  dup3\n    /* \"#utility.yul\":7314:7329   */\n  swap2\n  pop\n    /* \"#utility.yul\":7347:7352   */\n  dup4\n    /* \"#utility.yul\":7338:7352   */\n  swap1\n  pop\n    /* \"#utility.yul\":7361:8073   */\ntag_179:\n    /* \"#utility.yul\":7382:7383   */\n  0x01\n    /* \"#utility.yul\":7372:7380   */\n  dup6\n    /* \"#utility.yul\":7369:7384   */\n  gt\n    /* \"#utility.yul\":7361:8073   */\n  iszero\n  tag_181\n  jumpi\n    /* \"#utility.yul\":7477:7481   */\n  dup1\n    /* \"#utility.yul\":7472:7475   */\n  dup7\n    /* \"#utility.yul\":7468:7482   */\n  div\n    /* \"#utility.yul\":7462:7466   */\n  dup2\n    /* \"#utility.yul\":7459:7483   */\n  gt\n    /* \"#utility.yul\":7456:7506   */\n  iszero\n  tag_182\n  jumpi\n    /* \"#utility.yul\":7486:7504   */\n  tag_183\n  tag_88\n  jump\t// in\ntag_183:\n    /* \"#utility.yul\":7456:7506   */\ntag_182:\n    /* \"#utility.yul\":7536:7537   */\n  0x01\n    /* \"#utility.yul\":7526:7534   */\n  dup6\n    /* \"#utility.yul\":7522:7538   */\n  and\n    /* \"#utility.yul\":7519:7970   */\n  iszero\n  tag_184\n  jumpi\n    /* \"#utility.yul\":7951:7955   */\n  dup1\n    /* \"#utility.yul\":7944:7949   */\n  dup3\n    /* \"#utility.yul\":7940:7956   */\n  mul\n    /* \"#utility.yul\":7931:7956   */\n  swap2\n  pop\n    /* \"#utility.yul\":7519:7970   */\ntag_184:\n    /* \"#utility.yul\":8001:8005   */\n  dup1\n    /* \"#utility.yul\":7995:7999   */\n  dup2\n    /* \"#utility.yul\":7991:8006   */\n  mul\n    /* \"#utility.yul\":7983:8006   */\n  swap1\n  pop\n    /* \"#utility.yul\":8031:8063   */\n  tag_185\n    /* \"#utility.yul\":8054:8062   */\n  dup6\n    /* \"#utility.yul\":8031:8063   */\n  tag_89\n  jump\t// in\ntag_185:\n    /* \"#utility.yul\":8019:8063   */\n  swap5\n  pop\n    /* \"#utility.yul\":7361:8073   */\n  jump(tag_179)\ntag_181:\n    /* \"#utility.yul\":7231:8079   */\n  swap5\n  pop\n  swap5\n  swap3\n  pop\n  pop\n  pop\n  jump\t// out\n    /* \"#utility.yul\":8085:9158   */\ntag_91:\n    /* \"#utility.yul\":8139:8144   */\n  0x00\n    /* \"#utility.yul\":8330:8338   */\n  dup3\n    /* \"#utility.yul\":8320:8360   */\n  tag_187\n  jumpi\n    /* \"#utility.yul\":8351:8352   */\n  0x01\n    /* \"#utility.yul\":8342:8352   */\n  swap1\n  pop\n    /* \"#utility.yul\":8353:8358   */\n  jump(tag_186)\n    /* \"#utility.yul\":8320:8360   */\ntag_187:\n    /* \"#utility.yul\":8379:8383   */\n  dup2\n    /* \"#utility.yul\":8369:8405   */\n  tag_188\n  jumpi\n    /* \"#utility.yul\":8396:8397   */\n  0x00\n    /* \"#utility.yul\":8387:8397   */\n  swap1\n  pop\n    /* \"#utility.yul\":8398:8403   */\n  jump(tag_186)\n    /* \"#utility.yul\":8369:8405   */\ntag_188:\n    /* \"#utility.yul\":8465:8469   */\n  dup2\n    /* \"#utility.yul\":8513:8514   */\n  0x01\n    /* \"#utility.yul\":8508:8535   */\n  dup2\n  eq\n  tag_190\n  jumpi\n    /* \"#utility.yul\":8549:8550   */\n  0x02\n    /* \"#utility.yul\":8544:8735   */\n  dup2\n  eq\n  tag_191\n  jumpi\n    /* \"#utility.yul\":8458:8735   */\n  jump(tag_189)\n    /* \"#utility.yul\":8508:8535   */\ntag_190:\n    /* \"#utility.yul\":8526:8527   */\n  0x01\n    /* \"#utility.yul\":8517:8527   */\n  swap2\n  pop\n    /* \"#utility.yul\":8528:8533   */\n  pop\n  jump(tag_186)\n    /* \"#utility.yul\":8544:8735   */\ntag_191:\n    /* \"#utility.yul\":8589:8592   */\n  0xff\n    /* \"#utility.yul\":8579:8587   */\n  dup5\n    /* \"#utility.yul\":8576:8593   */\n  gt\n    /* \"#utility.yul\":8573:8616   */\n  iszero\n  tag_192\n  jumpi\n    /* \"#utility.yul\":8596:8614   */\n  tag_193\n  tag_88\n  jump\t// in\ntag_193:\n    /* \"#utility.yul\":8573:8616   */\ntag_192:\n    /* \"#utility.yul\":8645:8653   */\n  dup4\n    /* \"#utility.yul\":8642:8643   */\n  0x02\n    /* \"#utility.yul\":8638:8654   */\n  exp\n    /* \"#utility.yul\":8629:8654   */\n  swap2\n  pop\n    /* \"#utility.yul\":8680:8683   */\n  dup5\n    /* \"#utility.yul\":8673:8678   */\n  dup3\n    /* \"#utility.yul\":8670:8684   */\n  gt\n    /* \"#utility.yul\":8667:8707   */\n  iszero\n  tag_194\n  jumpi\n    /* \"#utility.yul\":8687:8705   */\n  tag_195\n  tag_88\n  jump\t// in\ntag_195:\n    /* \"#utility.yul\":8667:8707   */\ntag_194:\n    /* \"#utility.yul\":8720:8725   */\n  pop\n  jump(tag_186)\n    /* \"#utility.yul\":8458:8735   */\ntag_189:\n  pop\n    /* \"#utility.yul\":8844:8846   */\n  0x20\n    /* \"#utility.yul\":8834:8842   */\n  dup4\n    /* \"#utility.yul\":8831:8847   */\n  lt\n    /* \"#utility.yul\":8825:8828   */\n  0x0133\n    /* \"#utility.yul\":8819:8823   */\n  dup4\n    /* \"#utility.yul\":8816:8829   */\n  lt\n    /* \"#utility.yul\":8812:8848   */\n  and\n    /* \"#utility.yul\":8794:8796   */\n  0x4e\n    /* \"#utility.yul\":8784:8792   */\n  dup5\n    /* \"#utility.yul\":8781:8797   */\n  lt\n    /* \"#utility.yul\":8776:8778   */\n  0x0b\n    /* \"#utility.yul\":8770:8774   */\n  dup5\n    /* \"#utility.yul\":8767:8779   */\n  lt\n    /* \"#utility.yul\":8763:8798   */\n  and\n    /* \"#utility.yul\":8747:8858   */\n  or\n    /* \"#utility.yul\":8744:8990   */\n  iszero\n  tag_196\n  jumpi\n    /* \"#utility.yul\":8900:8908   */\n  dup3\n    /* \"#utility.yul\":8894:8898   */\n  dup3\n    /* \"#utility.yul\":8890:8909   */\n  exp\n    /* \"#utility.yul\":8881:8909   */\n  swap1\n  pop\n    /* \"#utility.yul\":8935:8938   */\n  dup4\n    /* \"#utility.yul\":8928:8933   */\n  dup2\n    /* \"#utility.yul\":8925:8939   */\n  gt\n    /* \"#utility.yul\":8922:8962   */\n  iszero\n  tag_197\n  jumpi\n    /* \"#utility.yul\":8942:8960   */\n  tag_198\n  tag_88\n  jump\t// in\ntag_198:\n    /* \"#utility.yul\":8922:8962   */\ntag_197:\n    /* \"#utility.yul\":8975:8980   */\n  jump(tag_186)\n    /* \"#utility.yul\":8744:8990   */\ntag_196:\n    /* \"#utility.yul\":9015:9057   */\n  tag_199\n    /* \"#utility.yul\":9053:9056   */\n  dup5\n    /* \"#utility.yul\":9043:9051   */\n  dup5\n    /* \"#utility.yul\":9037:9041   */\n  dup5\n    /* \"#utility.yul\":9034:9035   */\n  0x01\n    /* \"#utility.yul\":9015:9057   */\n  tag_90\n  jump\t// in\ntag_199:\n    /* \"#utility.yul\":9000:9057   */\n  swap3\n  pop\n  swap1\n  pop\n    /* \"#utility.yul\":9089:9093   */\n  dup2\n    /* \"#utility.yul\":9084:9087   */\n  dup5\n    /* \"#utility.yul\":9080:9094   */\n  div\n    /* \"#utility.yul\":9073:9078   */\n  dup2\n    /* \"#utility.yul\":9070:9095   */\n  gt\n    /* \"#utility.yul\":9067:9118   */\n  iszero\n  tag_200\n  jumpi\n    /* \"#utility.yul\":9098:9116   */\n  tag_201\n  tag_88\n  jump\t// in\ntag_201:\n    /* \"#utility.yul\":9067:9118   */\ntag_200:\n    /* \"#utility.yul\":9147:9151   */\n  dup2\n    /* \"#utility.yul\":9140:9145   */\n  dup2\n    /* \"#utility.yul\":9136:9152   */\n  mul\n    /* \"#utility.yul\":9127:9152   */\n  swap1\n  pop\n    /* \"#utility.yul\":8085:9158   */\ntag_186:\n  swap4\n  swap3\n  pop\n  pop\n  pop\n  jump\t// out\n    /* \"#utility.yul\":9164:9250   */\ntag_92:\n    /* \"#utility.yul\":9199:9206   */\n  0x00\n    /* \"#utility.yul\":9239:9243   */\n  0xff\n    /* \"#utility.yul\":9232:9237   */\n  dup3\n    /* \"#utility.yul\":9228:9244   */\n  and\n    /* \"#utility.yul\":9217:9244   */\n  swap1\n  pop\n    /* \"#utility.yul\":9164:9250   */\n  swap2\n  swap1\n  pop\n  jump\t// out\n    /* \"#utility.yul\":9256:9537   */\ntag_22:\n    /* \"#utility.yul\":9314:9319   */\n  0x00\n    /* \"#utility.yul\":9338:9361   */\n  tag_204\n    /* \"#utility.yul\":9356:9360   */\n  dup3\n    /* \"#utility.yul\":9338:9361   */\n  tag_75\n  jump\t// in\ntag_204:\n    /* \"#utility.yul\":9330:9361   */\n  swap2\n  pop\n    /* \"#utility.yul\":9382:9407   */\n  tag_205\n    /* \"#utility.yul\":9398:9406   */\n  dup4\n    /* \"#utility.yul\":9382:9407   */\n  tag_92\n  jump\t// in\ntag_205:\n    /* \"#utility.yul\":9370:9407   */\n  swap3\n  pop\n    /* \"#utility.yul\":9426:9530   */\n  tag_206\n    /* \"#utility.yul\":9463:9529   */\n  0xffffffffffffffffffffffffffffffffffffffffffffffffffffffffffffffff\n    /* \"#utility.yul\":9453:9461   */\n  dup5\n    /* \"#utility.yul\":9447:9451   */\n  dup5\n    /* \"#utility.yul\":9426:9530   */\n  tag_91\n  jump\t// in\ntag_206:\n    /* \"#utility.yul\":9417:9530   */\n  swap1\n  pop\n    /* \"#utility.yul\":9256:9537   */\n  swap3\n  swap2\n  pop\n  pop\n  jump\t// out\n    /* \"#utility.yul\":9543:9953   */\ntag_24:\n    /* \"#utility.yul\":9583:9590   */\n  0x00\n    /* \"#utility.yul\":9606:9626   */\n  tag_208\n    /* \"#utility.yul\":9624:9625   */\n  dup3\n    /* \"#utility.yul\":9606:9626   */\n  tag_75\n  jump\t// in\ntag_208:\n    /* \"#utility.yul\":9601:9626   */\n  swap2\n  pop\n    /* \"#utility.yul\":9640:9660   */\n  tag_209\n    /* \"#utility.yul\":9658:9659   */\n  dup4\n    /* \"#utility.yul\":9640:9660   */\n  tag_75\n  jump\t// in\ntag_209:\n    /* \"#utility.yul\":9635:9660   */\n  swap3\n  pop\n    /* \"#utility.yul\":9695:9696   */\n  dup3\n    /* \"#utility.yul\":9692:9693   */\n  dup3\n    /* \"#utility.yul\":9688:9697   */\n  mul\n    /* \"#utility.yul\":9717:9747   */\n  tag_210\n    /* \"#utility.yul\":9735:9746   */\n  dup2\n    /* \"#utility.yul\":9717:9747   */\n  tag_75\n  jump\t// in\ntag_210:\n    /* \"#utility.yul\":9706:9747   */\n  swap2\n  pop\n    /* \"#utility.yul\":9896:9897   */\n  dup3\n    /* \"#utility.yul\":9887:9894   */\n  dup3\n    /* \"#utility.yul\":9883:9898   */\n  div\n    /* \"#utility.yul\":9880:9881   */\n  dup5\n    /* \"#utility.yul\":9877:9899   */\n  eq\n    /* \"#utility.yul\":9857:9858   */\n  dup4\n    /* \"#utility.yul\":9850:9859   */\n  iszero\n    /* \"#utility.yul\":9830:9913   */\n  or\n    /* \"#utility.yul\":9807:9946   */\n  tag_211\n  jumpi\n    /* \"#utility.yul\":9926:9944   */\n  tag_212\n  tag_88\n  jump\t// in\ntag_212:\n    /* \"#utility.yul\":9807:9946   */\ntag_211:\n    /* \"#utility.yul\":9591:9953   */\n  pop\n    /* \"#utility.yul\":9543:9953   */\n  swap3\n  swap2\n  pop\n  pop\n  jump\t// out\n    /* \"#utility.yul\":9959:10150   */\ntag_50:\n    /* \"#utility.yul\":9999:10002   */\n  0x00\n    /* \"#utility.yul\":10018:10038   */\n  tag_214\n    /* \"#utility.yul\":10036:10037   */\n  dup3\n    /* \"#utility.yul\":10018:10038   */\n  tag_75\n  jump\t// in\ntag_214:\n    /* \"#utility.yul\":10013:10038   */\n  swap2\n  pop\n    /* \"#utility.yul\":10052:10072   */\n  tag_215\n    /* \"#utility.yul\":10070:10071   */\n  dup4\n    /* \"#utility.yul\":10052:10072   */\n  tag_75\n  jump\t// in\ntag_215:\n    /* \"#utility.yul\":10047:10072   */\n  swap3\n  pop\n    /* \"#utility.yul\":10095:10096   */\n  dup3\n    /* \"#utility.yul\":10092:10093   */\n  dup3\n    /* \"#utility.yul\":10088:10097   */\n  add\n    /* \"#utility.yul\":10081:10097   */\n  swap1\n  pop\n    /* \"#utility.yul\":10116:10119   */\n  dup1\n    /* \"#utility.yul\":10113:10114   */\n  dup3\n    /* \"#utility.yul\":10110:10120   */\n  gt\n    /* \"#utility.yul\":10107:10143   */\n  iszero\n  tag_216\n  jumpi\n    /* \"#utility.yul\":10123:10141   */\n  tag_217\n  tag_88\n  jump\t// in\ntag_217:\n    /* \"#utility.yul\":10107:10143   */\ntag_216:\n    /* \"#utility.yul\":9959:10150   */\n  swap3\n  swap2\n  pop\n  pop\n  jump\t// out\n    /* \"#utility.yul\":10156:10274   */\ntag_93:\n    /* \"#utility.yul\":10243:10267   */\n  tag_219\n    /* \"#utility.yul\":10261:10266   */\n  dup2\n    /* \"#utility.yul\":10243:10267   */\n  tag_75\n  jump\t// in\ntag_219:\n    /* \"#utility.yul\":10238:10241   */\n  dup3\n    /* \"#utility.yul\":10231:10268   */\n  mstore\n    /* \"#utility.yul\":10156:10274   */\n  pop\n  pop\n  jump\t// out\n    /* \"#utility.yul\":10280:10722   */\ntag_54:\n    /* \"#utility.yul\":10429:10433   */\n  0x00\n    /* \"#utility.yul\":10467:10469   */\n  0x60\n    /* \"#utility.yul\":10456:10465   */\n  dup3\n    /* \"#utility.yul\":10452:10470   */\n  add\n    /* \"#utility.yul\":10444:10470   */\n  swap1\n  pop\n    /* \"#utility.yul\":10480:10551   */\n  tag_221\n    /* \"#utility.yul\":10548:10549   */\n  0x00\n    /* \"#utility.yul\":10537:10546   */\n  dup4\n    /* \"#utility.yul\":10533:10550   */\n  add\n    /* \"#utility.yul\":10524:10530   */\n  dup7\n    /* \"#utility.yul\":10480:10551   */\n  tag_87\n  jump\t// in\ntag_221:\n    /* \"#utility.yul\":10561:10633   */\n  tag_222\n    /* \"#utility.yul\":10629:10631   */\n  0x20\n    /* \"#utility.yul\":10618:10627   */\n  dup4\n    /* \"#utility.yul\":10614:10632   */\n  add\n    /* \"#utility.yul\":10605:10611   */\n  dup6\n    /* \"#utility.yul\":10561:10633   */\n  tag_93\n  jump\t// in\ntag_222:\n    /* \"#utility.yul\":10643:10715   */\n  tag_223\n    /* \"#utility.yul\":10711:10713   */\n  0x40\n    /* \"#utility.yul\":10700:10709   */\n  dup4\n    /* \"#utility.yul\":10696:10714   */\n  add\n    /* \"#utility.yul\":10687:10693   */\n  dup5\n    /* \"#utility.yul\":10643:10715   */\n  tag_93\n  jump\t// in\ntag_223:\n    /* \"#utility.yul\":10280:10722   */\n  swap5\n  swap4\n  pop\n  pop\n  pop\n  pop\n  jump\t// out\n    /* \"#utility.yul\":10728:10950   */\ntag_58:\n    /* \"#utility.yul\":10821:10825   */\n  0x00\n    /* \"#utility.yul\":10859:10861   */\n  0x20\n    /* \"#utility.yul\":10848:10857   */\n  dup3\n    /* \"#utility.yul\":10844:10862   */\n  add\n    /* \"#utility.yul\":10836:10862   */\n  swap1\n  pop\n    /* \"#utility.yul\":10872:10943   */\n  tag_225\n    /* \"#utility.yul\":10940:10941   */\n  0x00\n    /* \"#utility.yul\":10929:10938   */\n  dup4\n    /* \"#utility.yul\":10925:10942   */\n  add\n    /* \"#utility.yul\":10916:10922   */\n  dup5\n    /* \"#utility.yul\":10872:10943   */\n  tag_93\n  jump\t// in\ntag_225:\n    /* \"#utility.yul\":10728:10950   */\n  swap3\n  swap2\n  pop\n  pop\n  jump\t// out\n    /* \"TokenB.sol\":398:1133  contract TokenB is ERC20, ERC20Pausable, Ownable {... */\ntag_26:\n  dataSize(sub_0)\n  dup1\n  dataOffset(sub_0)\n  0x00\n  codecopy\n  0x00\n  return\nstop\n\nsub_0: assembly {\n        /* \"TokenB.sol\":398:1133  contract TokenB is ERC20, ERC20Pausable, Ownable {... */\n      mstore(0x40, 0x80)\n      callvalue\n      dup1\n      iszero\n      tag_1\n      jumpi\n      0x00\n      dup1\n      revert\n    tag_1:\n      pop\n      jumpi(tag_2, lt(calldatasize, 0x04))\n      shr(0xe0, calldataload(0x00))\n      dup1\n      0x70a08231\n      gt\n      tag_19\n      jumpi\n      dup1\n      0x95d89b41\n      gt\n      tag_20\n      jumpi\n      dup1\n      0x95d89b41\n      eq\n      tag_15\n      jumpi\n      dup1\n      0xa9059cbb\n      eq\n      tag_16\n      jumpi\n      dup1\n      0xdd62ed3e\n      eq\n      tag_17\n      jumpi\n      dup1\n      0xf2fde38b\n      eq\n      tag_18\n      jumpi\n      jump(tag_2)\n    tag_20:\n      dup1\n      0x70a08231\n      eq\n      tag_11\n      jumpi\n      dup1\n      0x715018a6\n      eq\n      tag_12\n      jumpi\n      dup1\n      0x8456cb59\n      eq\n      tag_13\n      jumpi\n      dup1\n      0x8da5cb5b\n      eq\n      tag_14\n      jumpi\n      jump(tag_2)\n    tag_19:\n      dup1\n      0x313ce567\n      gt\n      tag_21\n      jumpi\n      dup1\n      0x313ce567\n      eq\n      tag_7\n      jumpi\n      dup1\n      0x3f4ba83a\n      eq\n      tag_8\n      jumpi\n      dup1\n      0x40c10f19\n      eq\n      tag_9\n      jumpi\n      dup1\n      0x5c975abb\n      eq\n      tag_10\n      jumpi\n      jump(tag_2)\n    tag_21:\n      dup1\n      0x06fdde03\n      eq\n      tag_3\n      jumpi\n      dup1\n      0x095ea7b3\n      eq\n      tag_4\n      jumpi\n      dup1\n      0x18160ddd\n      eq\n      tag_5\n      jumpi\n      dup1\n      0x23b872dd\n      eq\n      tag_6\n      jumpi\n    tag_2:\n      0x00\n      dup1\n      revert\n        /* \"@openzeppelin/contracts/token/ERC20/ERC20.sol\":1760:1849  function name() public view virtual returns (string memory) {... */\n    tag_3:\n      tag_22\n      tag_23\n      jump\t// in\n    tag_22:\n      mload(0x40)\n      tag_24\n      swap2\n      swap1\n      tag_25\n      jump\t// in\n    tag_24:\n      mload(0x40)\n      dup1\n      swap2\n      sub\n      swap1\n      return\n        /* \"@openzeppelin/contracts/token/ERC20/ERC20.sol\":3979:4165  function approve(address spender, uint256 value) public virtual returns (bool) {... */\n    tag_4:\n      tag_26\n      0x04\n      dup1\n      calldatasize\n      sub\n      dup2\n      add\n      swap1\n      tag_27\n      swap2\n      swap1\n      tag_28\n      jump\t// in\n    tag_27:\n      tag_29\n      jump\t// in\n    tag_26:\n      mload(0x40)\n      tag_30\n      swap2\n      swap1\n      tag_31\n      jump\t// in\n    tag_30:\n      mload(0x40)\n      dup1\n      swap2\n      sub\n      swap1\n      return\n        /* \"@openzeppelin/contracts/token/ERC20/ERC20.sol\":2830:2927  function totalSupply() public view virtual returns (uint256) {... */\n    tag_5:\n      tag_32\n      tag_33\n      jump\t// in\n    tag_32:\n      mload(0x40)\n      tag_34\n      swap2\n      swap1\n      tag_35\n      jump\t// in\n    tag_34:\n      mload(0x40)\n      dup1\n      swap2\n      sub\n      swap1\n      return\n        /* \"@openzeppelin/contracts/token/ERC20/ERC20.sol\":4757:5001  function transferFrom(address from, address to, uint256 value) public virtual returns (bool) {... */\n    tag_6:\n      tag_36\n      0x04\n      dup1\n      calldatasize\n      sub\n      dup2\n      add\n      swap1\n      tag_37\n      swap2\n      swap1\n      tag_38\n      jump\t// in\n    tag_37:\n      tag_39\n      jump\t// in\n    tag_36:\n      mload(0x40)\n      tag_40\n      swap2\n      swap1\n      tag_31\n      jump\t// in\n    tag_40:\n      mload(0x40)\n      dup1\n      swap2\n      sub\n      swap1\n      return\n        /* \"@openzeppelin/contracts/token/ERC20/ERC20.sol\":2688:2770  function decimals() public view virtual returns (uint8) {... */\n    tag_7:\n      tag_41\n      tag_42\n      jump\t// in\n    tag_41:\n      mload(0x40)\n      tag_43\n      swap2\n      swap1\n      tag_44\n      jump\t// in\n    tag_43:\n      mload(0x40)\n      dup1\n      swap2\n      sub\n      swap1\n      return\n        /* \"TokenB.sol\":714:779  function unpause() public onlyOwner {... */\n    tag_8:\n      tag_45\n      tag_46\n      jump\t// in\n    tag_45:\n      stop\n        /* \"TokenB.sol\":787:882  function mint(address to, uint256 amount) public onlyOwner {... */\n    tag_9:\n      tag_47\n      0x04\n      dup1\n      calldatasize\n      sub\n      dup2\n      add\n      swap1\n      tag_48\n      swap2\n      swap1\n      tag_28\n      jump\t// in\n    tag_48:\n      tag_49\n      jump\t// in\n    tag_47:\n      stop\n        /* \"@openzeppelin/contracts/utils/Pausable.sol\":1726:1810  function paused() public view virtual returns (bool) {... */\n    tag_10:\n      tag_50\n      tag_51\n      jump\t// in\n    tag_50:\n      mload(0x40)\n      tag_52\n      swap2\n      swap1\n      tag_31\n      jump\t// in\n    tag_52:\n      mload(0x40)\n      dup1\n      swap2\n      sub\n      swap1\n      return\n        /* \"@openzeppelin/contracts/token/ERC20/ERC20.sol\":2985:3101  function balanceOf(address account) public view virtual returns (uint256) {... */\n    tag_11:\n      tag_53\n      0x04\n      dup1\n      calldatasize\n      sub\n      dup2\n      add\n      swap1\n      tag_54\n      swap2\n      swap1\n      tag_55\n      jump\t// in\n    tag_54:\n      tag_56\n      jump\t// in\n    tag_53:\n      mload(0x40)\n      tag_57\n      swap2\n      swap1\n      tag_35\n      jump\t// in\n    tag_57:\n      mload(0x40)\n      dup1\n      swap2\n      sub\n      swap1\n      return\n        /* \"@openzeppelin/contracts/access/Ownable.sol\":2293:2394  function renounceOwnership() public virtual onlyOwner {... */\n    tag_12:\n      tag_58\n      tag_59\n      jump\t// in\n    tag_58:\n      stop\n        /* \"TokenB.sol\":645:706  function pause() public onlyOwner {... */\n    tag_13:\n      tag_60\n      tag_61\n      jump\t// in\n    tag_60:\n      stop\n        /* \"@openzeppelin/contracts/access/Ownable.sol\":1638:1723  function owner() public view virtual returns (address) {... */\n    tag_14:\n      tag_62\n      tag_63\n      jump\t// in\n    tag_62:\n      mload(0x40)\n      tag_64\n      swap2\n      swap1\n      tag_65\n      jump\t// in\n    tag_64:\n      mload(0x40)\n      dup1\n      swap2\n      sub\n      swap1\n      return\n        /* \"@openzeppelin/contracts/token/ERC20/ERC20.sol\":1962:2055  function symbol() public view virtual returns (string memory) {... */\n    tag_15:\n      tag_66\n      tag_67\n      jump\t// in\n    tag_66:\n      mload(0x40)\n      tag_68\n      swap2\n      swap1\n      tag_25\n      jump\t// in\n    tag_68:\n      mload(0x40)\n      dup1\n      swap2\n      sub\n      swap1\n      return\n        /* \"@openzeppelin/contracts/token/ERC20/ERC20.sol\":3296:3474  function transfer(address to, uint256 value) public virtual returns (bool) {... */\n    tag_16:\n      tag_69\n      0x04\n      dup1\n      calldatasize\n      sub\n      dup2\n      add\n      swap1\n      tag_70\n      swap2\n      swap1\n      tag_28\n      jump\t// in\n    tag_70:\n      tag_71\n      jump\t// in\n    tag_69:\n      mload(0x40)\n      tag_72\n      swap2\n      swap1\n      tag_31\n      jump\t// in\n    tag_72:\n      mload(0x40)\n      dup1\n      swap2\n      sub\n      swap1\n      return\n        /* \"@openzeppelin/contracts/token/ERC20/ERC20.sol\":3532:3672  function allowance(address owner, address spender) public view virtual returns (uint256) {... */\n    tag_17:\n      tag_73\n      0x04\n      dup1\n      calldatasize\n      sub\n      dup2\n      add\n      swap1\n      tag_74\n      swap2\n      swap1\n      tag_75\n      jump\t// in\n    tag_74:\n      tag_76\n      jump\t// in\n    tag_73:\n      mload(0x40)\n      tag_77\n      swap2\n      swap1\n      tag_35\n      jump\t// in\n    tag_77:\n      mload(0x40)\n      dup1\n      swap2\n      sub\n      swap1\n      return\n        /* \"@openzeppelin/contracts/access/Ownable.sol\":2543:2758  function transferOwnership(address newOwner) public virtual onlyOwner {... */\n    tag_18:\n      tag_78\n      0x04\n      dup1\n      calldatasize\n      sub\n      dup2\n      add\n      swap1\n      tag_79\n      swap2\n      swap1\n      tag_55\n      jump\t// in\n    tag_79:\n      tag_80\n      jump\t// in\n    tag_78:\n      stop\n        /* \"@openzeppelin/contracts/token/ERC20/ERC20.sol\":1760:1849  function name() public view virtual returns (string memory) {... */\n    tag_23:\n        /* \"@openzeppelin/contracts/token/ERC20/ERC20.sol\":1805:1818  string memory */\n      0x60\n        /* \"@openzeppelin/contracts/token/ERC20/ERC20.sol\":1837:1842  _name */\n      0x03\n        /* \"@openzeppelin/contracts/token/ERC20/ERC20.sol\":1830:1842  return _name */\n      dup1\n      sload\n      tag_82\n      swap1\n      tag_83\n      jump\t// in\n    tag_82:\n      dup1\n      0x1f\n      add\n      0x20\n      dup1\n      swap2\n      div\n      mul\n      0x20\n      add\n      mload(0x40)\n      swap1\n      dup2\n      add\n      0x40\n      mstore\n      dup1\n      swap3\n      swap2\n      swap1\n      dup2\n      dup2\n      mstore\n      0x20\n      add\n      dup3\n      dup1\n      sload\n      tag_84\n      swap1\n      tag_83\n      jump\t// in\n    tag_84:\n      dup1\n      iszero\n      tag_85\n      jumpi\n      dup1\n      0x1f\n      lt\n      tag_86\n      jumpi\n      0x0100\n      dup1\n      dup4\n      sload\n      div\n      mul\n      dup4\n      mstore\n      swap2\n      0x20\n      add\n      swap2\n      jump(tag_85)\n    tag_86:\n      dup3\n      add\n      swap2\n      swap1\n      0x00\n      mstore\n      keccak256(0x00, 0x20)\n      swap1\n    tag_87:\n      dup2\n      sload\n      dup2\n      mstore\n      swap1\n      0x01\n      add\n      swap1\n      0x20\n      add\n      dup1\n      dup4\n      gt\n      tag_87\n      jumpi\n      dup3\n      swap1\n      sub\n      0x1f\n      and\n      dup3\n      add\n      swap2\n    tag_85:\n      pop\n      pop\n      pop\n      pop\n      pop\n      swap1\n      pop\n        /* \"@openzeppelin/contracts/token/ERC20/ERC20.sol\":1760:1849  function name() public view virtual returns (string memory) {... */\n      swap1\n      jump\t// out\n        /* \"@openzeppelin/contracts/token/ERC20/ERC20.sol\":3979:4165  function approve(address spender, uint256 value) public virtual returns (bool) {... */\n    tag_29:\n        /* \"@openzeppelin/contracts/token/ERC20/ERC20.sol\":4052:4056  bool */\n      0x00\n        /* \"@openzeppelin/contracts/token/ERC20/ERC20.sol\":4068:4081  address owner */\n      dup1\n        /* \"@openzeppelin/contracts/token/ERC20/ERC20.sol\":4084:4096  _msgSender() */\n      tag_89\n        /* \"@openzeppelin/contracts/token/ERC20/ERC20.sol\":4084:4094  _msgSender */\n      tag_90\n        /* \"@openzeppelin/contracts/token/ERC20/ERC20.sol\":4084:4096  _msgSender() */\n      jump\t// in\n    tag_89:\n        /* \"@openzeppelin/contracts/token/ERC20/ERC20.sol\":4068:4096  address owner = _msgSender() */\n      swap1\n      pop\n        /* \"@openzeppelin/contracts/token/ERC20/ERC20.sol\":4106:4137  _approve(owner, spender, value) */\n      tag_91\n        /* \"@openzeppelin/contracts/token/ERC20/ERC20.sol\":4115:4120  owner */\n      dup2\n        /* \"@openzeppelin/contracts/token/ERC20/ERC20.sol\":4122:4129  spender */\n      dup6\n        /* \"@openzeppelin/contracts/token/ERC20/ERC20.sol\":4131:4136  value */\n      dup6\n        /* \"@openzeppelin/contracts/token/ERC20/ERC20.sol\":4106:4114  _approve */\n      tag_92\n        /* \"@openzeppelin/contracts/token/ERC20/ERC20.sol\":4106:4137  _approve(owner, spender, value) */\n      jump\t// in\n    tag_91:\n        /* \"@openzeppelin/contracts/token/ERC20/ERC20.sol\":4154:4158  true */\n      0x01\n        /* \"@openzeppelin/contracts/token/ERC20/ERC20.sol\":4147:4158  return true */\n      swap2\n      pop\n      pop\n        /* \"@openzeppelin/contracts/token/ERC20/ERC20.sol\":3979:4165  function approve(address spender, uint256 value) public virtual returns (bool) {... */\n      swap3\n      swap2\n      pop\n      pop\n      jump\t// out\n        /* \"@openzeppelin/contracts/token/ERC20/ERC20.sol\":2830:2927  function totalSupply() public view virtual returns (uint256) {... */\n    tag_33:\n        /* \"@openzeppelin/contracts/token/ERC20/ERC20.sol\":2882:2889  uint256 */\n      0x00\n        /* \"@openzeppelin/contracts/token/ERC20/ERC20.sol\":2908:2920  _totalSupply */\n      sload(0x02)\n        /* \"@openzeppelin/contracts/token/ERC20/ERC20.sol\":2901:2920  return _totalSupply */\n      swap1\n      pop\n        /* \"@openzeppelin/contracts/token/ERC20/ERC20.sol\":2830:2927  function totalSupply() public view virtual returns (uint256) {... */\n      swap1\n      jump\t// out\n        /* \"@openzeppelin/contracts/token/ERC20/ERC20.sol\":4757:5001  function transferFrom(address from, address to, uint256 value) public virtual returns (bool) {... */\n    tag_39:\n        /* \"@openzeppelin/contracts/token/ERC20/ERC20.sol\":4844:4848  bool */\n      0x00\n        /* \"@openzeppelin/contracts/token/ERC20/ERC20.sol\":4860:4875  address spender */\n      dup1\n        /* \"@openzeppelin/contracts/token/ERC20/ERC20.sol\":4878:4890  _msgSender() */\n      tag_95\n        /* \"@openzeppelin/contracts/token/ERC20/ERC20.sol\":4878:4888  _msgSender */\n      tag_90\n        /* \"@openzeppelin/contracts/token/ERC20/ERC20.sol\":4878:4890  _msgSender() */\n      jump\t// in\n    tag_95:\n        /* \"@openzeppelin/contracts/token/ERC20/ERC20.sol\":4860:4890  address spender = _msgSender() */\n      swap1\n      pop\n        /* \"@openzeppelin/contracts/token/ERC20/ERC20.sol\":4900:4937  _spendAllowance(from, spender, value) */\n      tag_96\n        /* \"@openzeppelin/contracts/token/ERC20/ERC20.sol\":4916:4920  from */\n      dup6\n        /* \"@openzeppelin/contracts/token/ERC20/ERC20.sol\":4922:4929  spender */\n      dup3\n        /* \"@openzeppelin/contracts/token/ERC20/ERC20.sol\":4931:4936  value */\n      dup6\n        /* \"@openzeppelin/contracts/token/ERC20/ERC20.sol\":4900:4915  _spendAllowance */\n      tag_97\n        /* \"@openzeppelin/contracts/token/ERC20/ERC20.sol\":4900:4937  _spendAllowance(from, spender, value) */\n      jump\t// in\n    tag_96:\n        /* \"@openzeppelin/contracts/token/ERC20/ERC20.sol\":4947:4973  _transfer(from, to, value) */\n      tag_98\n        /* \"@openzeppelin/contracts/token/ERC20/ERC20.sol\":4957:4961  from */\n      dup6\n        /* \"@openzeppelin/contracts/token/ERC20/ERC20.sol\":4963:4965  to */\n      dup6\n        /* \"@openzeppelin/contracts/token/ERC20/ERC20.sol\":4967:4972  value */\n      dup6\n        /* \"@openzeppelin/contracts/token/ERC20/ERC20.sol\":4947:4956  _transfer */\n      tag_99\n        /* \"@openzeppelin/contracts/token/ERC20/ERC20.sol\":4947:4973  _transfer(from, to, value) */\n      jump\t// in\n    tag_98:\n        /* \"@openzeppelin/contracts/token/ERC20/ERC20.sol\":4990:4994  true */\n      0x01\n        /* \"@openzeppelin/contracts/token/ERC20/ERC20.sol\":4983:4994  return true */\n      swap2\n      pop\n      pop\n        /* \"@openzeppelin/contracts/token/ERC20/ERC20.sol\":4757:5001  function transferFrom(address from, address to, uint256 value) public virtual returns (bool) {... */\n      swap4\n      swap3\n      pop\n      pop\n      pop\n      jump\t// out\n        /* \"@openzeppelin/contracts/token/ERC20/ERC20.sol\":2688:2770  function decimals() public view virtual returns (uint8) {... */\n    tag_42:\n        /* \"@openzeppelin/contracts/token/ERC20/ERC20.sol\":2737:2742  uint8 */\n      0x00\n        /* \"@openzeppelin/contracts/token/ERC20/ERC20.sol\":2761:2763  18 */\n      0x12\n        /* \"@openzeppelin/contracts/token/ERC20/ERC20.sol\":2754:2763  return 18 */\n      swap1\n      pop\n        /* \"@openzeppelin/contracts/token/ERC20/ERC20.sol\":2688:2770  function decimals() public view virtual returns (uint8) {... */\n      swap1\n      jump\t// out\n        /* \"TokenB.sol\":714:779  function unpause() public onlyOwner {... */\n    tag_46:\n        /* \"@openzeppelin/contracts/access/Ownable.sol\":1531:1544  _checkOwner() */\n      tag_102\n        /* \"@openzeppelin/contracts/access/Ownable.sol\":1531:1542  _checkOwner */\n      tag_103\n        /* \"@openzeppelin/contracts/access/Ownable.sol\":1531:1544  _checkOwner() */\n      jump\t// in\n    tag_102:\n        /* \"TokenB.sol\":761:771  _unpause() */\n      tag_105\n        /* \"TokenB.sol\":761:769  _unpause */\n      tag_106\n        /* \"TokenB.sol\":761:771  _unpause() */\n      jump\t// in\n    tag_105:\n        /* \"TokenB.sol\":714:779  function unpause() public onlyOwner {... */\n      jump\t// out\n        /* \"TokenB.sol\":787:882  function mint(address to, uint256 amount) public onlyOwner {... */\n    tag_49:\n        /* \"@openzeppelin/contracts/access/Ownable.sol\":1531:1544  _checkOwner() */\n      tag_108\n        /* \"@openzeppelin/contracts/access/Ownable.sol\":1531:1542  _checkOwner */\n      tag_103\n        /* \"@openzeppelin/contracts/access/Ownable.sol\":1531:1544  _checkOwner() */\n      jump\t// in\n    tag_108:\n        /* \"TokenB.sol\":857:874  _mint(to, amount) */\n      tag_110\n        /* \"TokenB.sol\":863:865  to */\n      dup3\n        /* \"TokenB.sol\":867:873  amount */\n      dup3\n        /* \"TokenB.sol\":857:862  _mint */\n      tag_111\n        /* \"TokenB.sol\":857:874  _mint(to, amount) */\n      jump\t// in\n    tag_110:\n        /* \"TokenB.sol\":787:882  function mint(address to, uint256 amount) public onlyOwner {... */\n      pop\n      pop\n      jump\t// out\n        /* \"@openzeppelin/contracts/utils/Pausable.sol\":1726:1810  function paused() public view virtual returns (bool) {... */\n    tag_51:\n        /* \"@openzeppelin/contracts/utils/Pausable.sol\":1773:1777  bool */\n      0x00\n        /* \"@openzeppelin/contracts/utils/Pausable.sol\":1796:1803  _paused */\n      0x05\n      0x00\n      swap1\n      sload\n      swap1\n      0x0100\n      exp\n      swap1\n      div\n      0xff\n      and\n        /* \"@openzeppelin/contracts/utils/Pausable.sol\":1789:1803  return _paused */\n      swap1\n      pop\n        /* \"@openzeppelin/contracts/utils/Pausable.sol\":1726:1810  function paused() public view virtual returns (bool) {... */\n      swap1\n      jump\t// out\n        /* \"@openzeppelin/contracts/token/ERC20/ERC20.sol\":2985:3101  function balanceOf(address account) public view virtual returns (uint256) {... */\n    tag_56:\n        /* \"@openzeppelin/contracts/token/ERC20/ERC20.sol\":3050:3057  uint256 */\n      0x00\n        /* \"@openzeppelin/contracts/token/ERC20/ERC20.sol\":3076:3085  _balances */\n      dup1\n        /* \"@openzeppelin/contracts/token/ERC20/ERC20.sol\":3076:3094  _balances[account] */\n      0x00\n        /* \"@openzeppelin/contracts/token/ERC20/ERC20.sol\":3086:3093  account */\n      dup4\n        /* \"@openzeppelin/contracts/token/ERC20/ERC20.sol\":3076:3094  _balances[account] */\n      0xffffffffffffffffffffffffffffffffffffffff\n      and\n      0xffffffffffffffffffffffffffffffffffffffff\n      and\n      dup2\n      mstore\n      0x20\n      add\n      swap1\n      dup2\n      mstore\n      0x20\n      add\n      0x00\n      keccak256\n      sload\n        /* \"@openzeppelin/contracts/token/ERC20/ERC20.sol\":3069:3094  return _balances[account] */\n      swap1\n      pop\n        /* \"@openzeppelin/contracts/token/ERC20/ERC20.sol\":2985:3101  function balanceOf(address account) public view virtual returns (uint256) {... */\n      swap2\n      swap1\n      pop\n      jump\t// out\n        /* \"@openzeppelin/contracts/access/Ownable.sol\":2293:2394  function renounceOwnership() public virtual onlyOwner {... */\n    tag_59:\n        /* \"@openzeppelin/contracts/access/Ownable.sol\":1531:1544  _checkOwner() */\n      tag_115\n        /* \"@openzeppelin/contracts/access/Ownable.sol\":1531:1542  _checkOwner */\n      tag_103\n        /* \"@openzeppelin/contracts/access/Ownable.sol\":1531:1544  _checkOwner() */\n      jump\t// in\n    tag_115:\n        /* \"@openzeppelin/contracts/access/Ownable.sol\":2357:2387  _transferOwnership(address(0)) */\n      tag_117\n        /* \"@openzeppelin/contracts/access/Ownable.sol\":2384:2385  0 */\n      0x00\n        /* \"@openzeppelin/contracts/access/Ownable.sol\":2357:2375  _transferOwnership */\n      tag_118\n        /* \"@openzeppelin/contracts/access/Ownable.sol\":2357:2387  _transferOwnership(address(0)) */\n      jump\t// in\n    tag_117:\n        /* \"@openzeppelin/contracts/access/Ownable.sol\":2293:2394  function renounceOwnership() public virtual onlyOwner {... */\n      jump\t// out\n        /* \"TokenB.sol\":645:706  function pause() public onlyOwner {... */\n    tag_61:\n        /* \"@openzeppelin/contracts/access/Ownable.sol\":1531:1544  _checkOwner() */\n      tag_120\n        /* \"@openzeppelin/contracts/access/Ownable.sol\":1531:1542  _checkOwner */\n      tag_103\n        /* \"@openzeppelin/contracts/access/Ownable.sol\":1531:1544  _checkOwner() */\n      jump\t// in\n    tag_120:\n        /* \"TokenB.sol\":690:698  _pause() */\n      tag_122\n        /* \"TokenB.sol\":690:696  _pause */\n      tag_123\n        /* \"TokenB.sol\":690:698  _pause() */\n      jump\t// in\n    tag_122:\n        /* \"TokenB.sol\":645:706  function pause() public onlyOwner {... */\n      jump\t// out\n        /* \"@openzeppelin/contracts/access/Ownable.sol\":1638:1723  function owner() public view virtual returns (address) {... */\n    tag_63:\n        /* \"@openzeppelin/contracts/access/Ownable.sol\":1684:1691  address */\n      0x00\n        /* \"@openzeppelin/contracts/access/Ownable.sol\":1710:1716  _owner */\n      0x05\n      0x01\n      swap1\n      sload\n      swap1\n      0x0100\n      exp\n      swap1\n      div\n      0xffffffffffffffffffffffffffffffffffffffff\n      and\n        /* \"@openzeppelin/contracts/access/Ownable.sol\":1703:1716  return _owner */\n      swap1\n      pop\n        /* \"@openzeppelin/contracts/access/Ownable.sol\":1638:1723  function owner() public view virtual returns (address) {... */\n      swap1\n      jump\t// out\n        /* \"@openzeppelin/contracts/token/ERC20/ERC20.sol\":1962:2055  function symbol() public view virtual returns (string memory) {... */\n    tag_67:\n        /* \"@openzeppelin/contracts/token/ERC20/ERC20.sol\":2009:2022  string memory */\n      0x60\n        /* \"@openzeppelin/contracts/token/ERC20/ERC20.sol\":2041:2048  _symbol */\n      0x04\n        /* \"@openzeppelin/contracts/token/ERC20/ERC20.sol\":2034:2048  return _symbol */\n      dup1\n      sload\n      tag_126\n      swap1\n      tag_83\n      jump\t// in\n    tag_126:\n      dup1\n      0x1f\n      add\n      0x20\n      dup1\n      swap2\n      div\n      mul\n      0x20\n      add\n      mload(0x40)\n      swap1\n      dup2\n      add\n      0x40\n      mstore\n      dup1\n      swap3\n      swap2\n      swap1\n      dup2\n      dup2\n      mstore\n      0x20\n      add\n      dup3\n      dup1\n      sload\n      tag_127\n      swap1\n      tag_83\n      jump\t// in\n    tag_127:\n      dup1\n      iszero\n      tag_128\n      jumpi\n      dup1\n      0x1f\n      lt\n      tag_129\n      jumpi\n      0x0100\n      dup1\n      dup4\n      sload\n      div\n      mul\n      dup4\n      mstore\n      swap2\n      0x20\n      add\n      swap2\n      jump(tag_128)\n    tag_129:\n      dup3\n      add\n      swap2\n      swap1\n      0x00\n      mstore\n      keccak256(0x00, 0x20)\n      swap1\n    tag_130:\n      dup2\n      sload\n      dup2\n      mstore\n      swap1\n      0x01\n      add\n      swap1\n      0x20\n      add\n      dup1\n      dup4\n      gt\n      tag_130\n      jumpi\n      dup3\n      swap1\n      sub\n      0x1f\n      and\n      dup3\n      add\n      swap2\n    tag_128:\n      pop\n      pop\n      pop\n      pop\n      pop\n      swap1\n      pop\n        /* \"@openzeppelin/contracts/token/ERC20/ERC20.sol\":1962:2055  function symbol() public view virtual returns (string memory) {... */\n      swap1\n      jump\t// out\n        /* \"@openzeppelin/contracts/token/ERC20/ERC20.sol\":3296:3474  function transfer(address to, uint256 value) public virtual returns (bool) {... */\n    tag_71:\n        /* \"@openzeppelin/contracts/token/ERC20/ERC20.sol\":3365:3369  bool */\n      0x00\n        /* \"@openzeppelin/contracts/token/ERC20/ERC20.sol\":3381:3394  address owner */\n      dup1\n        /* \"@openzeppelin/contracts/token/ERC20/ERC20.sol\":3397:3409  _msgSender() */\n      tag_132\n        /* \"@openzeppelin/contracts/token/ERC20/ERC20.sol\":3397:3407  _msgSender */\n      tag_90\n        /* \"@openzeppelin/contracts/token/ERC20/ERC20.sol\":3397:3409  _msgSender() */\n      jump\t// in\n    tag_132:\n        /* \"@openzeppelin/contracts/token/ERC20/ERC20.sol\":3381:3409  address owner = _msgSender() */\n      swap1\n      pop\n        /* \"@openzeppelin/contracts/token/ERC20/ERC20.sol\":3419:3446  _transfer(owner, to, value) */\n      tag_133\n        /* \"@openzeppelin/contracts/token/ERC20/ERC20.sol\":3429:3434  owner */\n      dup2\n        /* \"@openzeppelin/contracts/token/ERC20/ERC20.sol\":3436:3438  to */\n      dup6\n        /* \"@openzeppelin/contracts/token/ERC20/ERC20.sol\":3440:3445  value */\n      dup6\n        /* \"@openzeppelin/contracts/token/ERC20/ERC20.sol\":3419:3428  _transfer */\n      tag_99\n        /* \"@openzeppelin/contracts/token/ERC20/ERC20.sol\":3419:3446  _transfer(owner, to, value) */\n      jump\t// in\n    tag_133:\n        /* \"@openzeppelin/contracts/token/ERC20/ERC20.sol\":3463:3467  true */\n      0x01\n        /* \"@openzeppelin/contracts/token/ERC20/ERC20.sol\":3456:3467  return true */\n      swap2\n      pop\n      pop\n        /* \"@openzeppelin/contracts/token/ERC20/ERC20.sol\":3296:3474  function transfer(address to, uint256 value) public virtual returns (bool) {... */\n      swap3\n      swap2\n      pop\n      pop\n      jump\t// out\n        /* \"@openzeppelin/contracts/token/ERC20/ERC20.sol\":3532:3672  function allowance(address owner, address spender) public view virtual returns (uint256) {... */\n    tag_76:\n        /* \"@openzeppelin/contracts/token/ERC20/ERC20.sol\":3612:3619  uint256 */\n      0x00\n        /* \"@openzeppelin/contracts/token/ERC20/ERC20.sol\":3638:3649  _allowances */\n      0x01\n        /* \"@openzeppelin/contracts/token/ERC20/ERC20.sol\":3638:3656  _allowances[owner] */\n      0x00\n        /* \"@openzeppelin/contracts/token/ERC20/ERC20.sol\":3650:3655  owner */\n      dup5\n        /* \"@openzeppelin/contracts/token/ERC20/ERC20.sol\":3638:3656  _allowances[owner] */\n      0xffffffffffffffffffffffffffffffffffffffff\n      and\n      0xffffffffffffffffffffffffffffffffffffffff\n      and\n      dup2\n      mstore\n      0x20\n      add\n      swap1\n      dup2\n      mstore\n      0x20\n      add\n      0x00\n      keccak256\n        /* \"@openzeppelin/contracts/token/ERC20/ERC20.sol\":3638:3665  _allowances[owner][spender] */\n      0x00\n        /* \"@openzeppelin/contracts/token/ERC20/ERC20.sol\":3657:3664  spender */\n      dup4\n        /* \"@openzeppelin/contracts/token/ERC20/ERC20.sol\":3638:3665  _allowances[owner][spender] */\n      0xffffffffffffffffffffffffffffffffffffffff\n      and\n      0xffffffffffffffffffffffffffffffffffffffff\n      and\n      dup2\n      mstore\n      0x20\n      add\n      swap1\n      dup2\n      mstore\n      0x20\n      add\n      0x00\n      keccak256\n      sload\n        /* \"@openzeppelin/contracts/token/ERC20/ERC20.sol\":3631:3665  return _allowances[owner][spender] */\n      swap1\n      pop\n        /* \"@openzeppelin/contracts/token/ERC20/ERC20.sol\":3532:3672  function allowance(address owner, address spender) public view virtual returns (uint256) {... */\n      swap3\n      swap2\n      pop\n      pop\n      jump\t// out\n        /* \"@openzeppelin/contracts/access/Ownable.sol\":2543:2758  function transferOwnership(address newOwner) public virtual onlyOwner {... */\n    tag_80:\n        /* \"@openzeppelin/contracts/access/Ownable.sol\":1531:1544  _checkOwner() */\n      tag_136\n        /* \"@openzeppelin/contracts/access/Ownable.sol\":1531:1542  _checkOwner */\n      tag_103\n        /* \"@openzeppelin/contracts/access/Ownable.sol\":1531:1544  _checkOwner() */\n      jump\t// in\n    tag_136:\n        /* \"@openzeppelin/contracts/access/Ownable.sol\":2647:2648  0 */\n      0x00\n        /* \"@openzeppelin/contracts/access/Ownable.sol\":2627:2649  newOwner == address(0) */\n      0xffffffffffffffffffffffffffffffffffffffff\n      and\n        /* \"@openzeppelin/contracts/access/Ownable.sol\":2627:2635  newOwner */\n      dup2\n        /* \"@openzeppelin/contracts/access/Ownable.sol\":2627:2649  newOwner == address(0) */\n      0xffffffffffffffffffffffffffffffffffffffff\n      and\n      sub\n        /* \"@openzeppelin/contracts/access/Ownable.sol\":2623:2714  if (newOwner == address(0)) {... */\n      tag_138\n      jumpi\n        /* \"@openzeppelin/contracts/access/Ownable.sol\":2700:2701  0 */\n      0x00\n        /* \"@openzeppelin/contracts/access/Ownable.sol\":2672:2703  OwnableInvalidOwner(address(0)) */\n      mload(0x40)\n      0x1e4fbdf700000000000000000000000000000000000000000000000000000000\n      dup2\n      mstore\n      0x04\n      add\n      tag_139\n      swap2\n      swap1\n      tag_65\n      jump\t// in\n    tag_139:\n      mload(0x40)\n      dup1\n      swap2\n      sub\n      swap1\n      revert\n        /* \"@openzeppelin/contracts/access/Ownable.sol\":2623:2714  if (newOwner == address(0)) {... */\n    tag_138:\n        /* \"@openzeppelin/contracts/access/Ownable.sol\":2723:2751  _transferOwnership(newOwner) */\n      tag_140\n        /* \"@openzeppelin/contracts/access/Ownable.sol\":2742:2750  newOwner */\n      dup2\n        /* \"@openzeppelin/contracts/access/Ownable.sol\":2723:2741  _transferOwnership */\n      tag_118\n        /* \"@openzeppelin/contracts/access/Ownable.sol\":2723:2751  _transferOwnership(newOwner) */\n      jump\t// in\n    tag_140:\n        /* \"@openzeppelin/contracts/access/Ownable.sol\":2543:2758  function transferOwnership(address newOwner) public virtual onlyOwner {... */\n      pop\n      jump\t// out\n        /* \"@openzeppelin/contracts/utils/Context.sol\":656:752  function _msgSender() internal view virtual returns (address) {... */\n    tag_90:\n        /* \"@openzeppelin/contracts/utils/Context.sol\":709:716  address */\n      0x00\n        /* \"@openzeppelin/contracts/utils/Context.sol\":735:745  msg.sender */\n      caller\n        /* \"@openzeppelin/contracts/utils/Context.sol\":728:745  return msg.sender */\n      swap1\n      pop\n        /* \"@openzeppelin/contracts/utils/Context.sol\":656:752  function _msgSender() internal view virtual returns (address) {... */\n      swap1\n      jump\t// out\n        /* \"@openzeppelin/contracts/token/ERC20/ERC20.sol\":8707:8835  function _approve(address owner, address spender, uint256 value) internal {... */\n    tag_92:\n        /* \"@openzeppelin/contracts/token/ERC20/ERC20.sol\":8791:8828  _approve(owner, spender, value, true) */\n      tag_143\n        /* \"@openzeppelin/contracts/token/ERC20/ERC20.sol\":8800:8805  owner */\n      dup4\n        /* \"@openzeppelin/contracts/token/ERC20/ERC20.sol\":8807:8814  spender */\n      dup4\n        /* \"@openzeppelin/contracts/token/ERC20/ERC20.sol\":8816:8821  value */\n      dup4\n        /* \"@openzeppelin/contracts/token/ERC20/ERC20.sol\":8823:8827  true */\n      0x01\n        /* \"@openzeppelin/contracts/token/ERC20/ERC20.sol\":8791:8799  _approve */\n      tag_144\n        /* \"@openzeppelin/contracts/token/ERC20/ERC20.sol\":8791:8828  _approve(owner, spender, value, true) */\n      jump\t// in\n    tag_143:\n        /* \"@openzeppelin/contracts/token/ERC20/ERC20.sol\":8707:8835  function _approve(address owner, address spender, uint256 value) internal {... */\n      pop\n      pop\n      pop\n      jump\t// out\n        /* \"@openzeppelin/contracts/token/ERC20/ERC20.sol\":10396:10872  function _spendAllowance(address owner, address spender, uint256 value) internal virtual {... */\n    tag_97:\n        /* \"@openzeppelin/contracts/token/ERC20/ERC20.sol\":10495:10519  uint256 currentAllowance */\n      0x00\n        /* \"@openzeppelin/contracts/token/ERC20/ERC20.sol\":10522:10547  allowance(owner, spender) */\n      tag_146\n        /* \"@openzeppelin/contracts/token/ERC20/ERC20.sol\":10532:10537  owner */\n      dup5\n        /* \"@openzeppelin/contracts/token/ERC20/ERC20.sol\":10539:10546  spender */\n      dup5\n        /* \"@openzeppelin/contracts/token/ERC20/ERC20.sol\":10522:10531  allowance */\n      tag_76\n        /* \"@openzeppelin/contracts/token/ERC20/ERC20.sol\":10522:10547  allowance(owner, spender) */\n      jump\t// in\n    tag_146:\n        /* \"@openzeppelin/contracts/token/ERC20/ERC20.sol\":10495:10547  uint256 currentAllowance = allowance(owner, spender) */\n      swap1\n      pop\n        /* \"@openzeppelin/contracts/token/ERC20/ERC20.sol\":10580:10597  type(uint256).max */\n      0xffffffffffffffffffffffffffffffffffffffffffffffffffffffffffffffff\n        /* \"@openzeppelin/contracts/token/ERC20/ERC20.sol\":10561:10577  currentAllowance */\n      dup2\n        /* \"@openzeppelin/contracts/token/ERC20/ERC20.sol\":10561:10597  currentAllowance < type(uint256).max */\n      lt\n        /* \"@openzeppelin/contracts/token/ERC20/ERC20.sol\":10557:10866  if (currentAllowance < type(uint256).max) {... */\n      iszero\n      tag_147\n      jumpi\n        /* \"@openzeppelin/contracts/token/ERC20/ERC20.sol\":10636:10641  value */\n      dup2\n        /* \"@openzeppelin/contracts/token/ERC20/ERC20.sol\":10617:10633  currentAllowance */\n      dup2\n        /* \"@openzeppelin/contracts/token/ERC20/ERC20.sol\":10617:10641  currentAllowance < value */\n      lt\n        /* \"@openzeppelin/contracts/token/ERC20/ERC20.sol\":10613:10743  if (currentAllowance < value) {... */\n      iszero\n      tag_148\n      jumpi\n        /* \"@openzeppelin/contracts/token/ERC20/ERC20.sol\":10695:10702  spender */\n      dup3\n        /* \"@openzeppelin/contracts/token/ERC20/ERC20.sol\":10704:10720  currentAllowance */\n      dup2\n        /* \"@openzeppelin/contracts/token/ERC20/ERC20.sol\":10722:10727  value */\n      dup4\n        /* \"@openzeppelin/contracts/token/ERC20/ERC20.sol\":10668:10728  ERC20InsufficientAllowance(spender, currentAllowance, value) */\n      mload(0x40)\n      0xfb8f41b200000000000000000000000000000000000000000000000000000000\n      dup2\n      mstore\n      0x04\n      add\n      tag_149\n      swap4\n      swap3\n      swap2\n      swap1\n      tag_150\n      jump\t// in\n    tag_149:\n      mload(0x40)\n      dup1\n      swap2\n      sub\n      swap1\n      revert\n        /* \"@openzeppelin/contracts/token/ERC20/ERC20.sol\":10613:10743  if (currentAllowance < value) {... */\n    tag_148:\n        /* \"@openzeppelin/contracts/token/ERC20/ERC20.sol\":10784:10841  _approve(owner, spender, currentAllowance - value, false) */\n      tag_151\n        /* \"@openzeppelin/contracts/token/ERC20/ERC20.sol\":10793:10798  owner */\n      dup5\n        /* \"@openzeppelin/contracts/token/ERC20/ERC20.sol\":10800:10807  spender */\n      dup5\n        /* \"@openzeppelin/contracts/token/ERC20/ERC20.sol\":10828:10833  value */\n      dup5\n        /* \"@openzeppelin/contracts/token/ERC20/ERC20.sol\":10809:10825  currentAllowance */\n      dup5\n        /* \"@openzeppelin/contracts/token/ERC20/ERC20.sol\":10809:10833  currentAllowance - value */\n      sub\n        /* \"@openzeppelin/contracts/token/ERC20/ERC20.sol\":10835:10840  false */\n      0x00\n        /* \"@openzeppelin/contracts/token/ERC20/ERC20.sol\":10784:10792  _approve */\n      tag_144\n        /* \"@openzeppelin/contracts/token/ERC20/ERC20.sol\":10784:10841  _approve(owner, spender, currentAllowance - value, false) */\n      jump\t// in\n    tag_151:\n        /* \"@openzeppelin/contracts/token/ERC20/ERC20.sol\":10557:10866  if (currentAllowance < type(uint256).max) {... */\n    tag_147:\n        /* \"@openzeppelin/contracts/token/ERC20/ERC20.sol\":10485:10872  {... */\n      pop\n        /* \"@openzeppelin/contracts/token/ERC20/ERC20.sol\":10396:10872  function _spendAllowance(address owner, address spender, uint256 value) internal virtual {... */\n      pop\n      pop\n      pop\n      jump\t// out\n        /* \"@openzeppelin/contracts/token/ERC20/ERC20.sol\":5374:5674  function _transfer(address from, address to, uint256 value) internal {... */\n    tag_99:\n        /* \"@openzeppelin/contracts/token/ERC20/ERC20.sol\":5473:5474  0 */\n      0x00\n        /* \"@openzeppelin/contracts/token/ERC20/ERC20.sol\":5457:5475  from == address(0) */\n      0xffffffffffffffffffffffffffffffffffffffff\n      and\n        /* \"@openzeppelin/contracts/token/ERC20/ERC20.sol\":5457:5461  from */\n      dup4\n        /* \"@openzeppelin/contracts/token/ERC20/ERC20.sol\":5457:5475  from == address(0) */\n      0xffffffffffffffffffffffffffffffffffffffff\n      and\n      sub\n        /* \"@openzeppelin/contracts/token/ERC20/ERC20.sol\":5453:5539  if (from == address(0)) {... */\n      tag_153\n      jumpi\n        /* \"@openzeppelin/contracts/token/ERC20/ERC20.sol\":5525:5526  0 */\n      0x00\n        /* \"@openzeppelin/contracts/token/ERC20/ERC20.sol\":5498:5528  ERC20InvalidSender(address(0)) */\n      mload(0x40)\n      0x96c6fd1e00000000000000000000000000000000000000000000000000000000\n      dup2\n      mstore\n      0x04\n      add\n      tag_154\n      swap2\n      swap1\n      tag_65\n      jump\t// in\n    tag_154:\n      mload(0x40)\n      dup1\n      swap2\n      sub\n      swap1\n      revert\n        /* \"@openzeppelin/contracts/token/ERC20/ERC20.sol\":5453:5539  if (from == address(0)) {... */\n    tag_153:\n        /* \"@openzeppelin/contracts/token/ERC20/ERC20.sol\":5566:5567  0 */\n      0x00\n        /* \"@openzeppelin/contracts/token/ERC20/ERC20.sol\":5552:5568  to == address(0) */\n      0xffffffffffffffffffffffffffffffffffffffff\n      and\n        /* \"@openzeppelin/contracts/token/ERC20/ERC20.sol\":5552:5554  to */\n      dup3\n        /* \"@openzeppelin/contracts/token/ERC20/ERC20.sol\":5552:5568  to == address(0) */\n      0xffffffffffffffffffffffffffffffffffffffff\n      and\n      sub\n        /* \"@openzeppelin/contracts/token/ERC20/ERC20.sol\":5548:5634  if (to == address(0)) {... */\n      tag_155\n      jumpi\n        /* \"@openzeppelin/contracts/token/ERC20/ERC20.sol\":5620:5621  0 */\n      0x00\n        /* \"@openzeppelin/contracts/token/ERC20/ERC20.sol\":5591:5623  ERC20InvalidReceiver(address(0)) */\n      mload(0x40)\n      0xec442f0500000000000000000000000000000000000000000000000000000000\n      dup2\n      mstore\n      0x04\n      add\n      tag_156\n      swap2\n      swap1\n      tag_65\n      jump\t// in\n    tag_156:\n      mload(0x40)\n      dup1\n      swap2\n      sub\n      swap1\n      revert\n        /* \"@openzeppelin/contracts/token/ERC20/ERC20.sol\":5548:5634  if (to == address(0)) {... */\n    tag_155:\n        /* \"@openzeppelin/contracts/token/ERC20/ERC20.sol\":5643:5667  _update(from, to, value) */\n      tag_157\n        /* \"@openzeppelin/contracts/token/ERC20/ERC20.sol\":5651:5655  from */\n      dup4\n        /* \"@openzeppelin/contracts/token/ERC20/ERC20.sol\":5657:5659  to */\n      dup4\n        /* \"@openzeppelin/contracts/token/ERC20/ERC20.sol\":5661:5666  value */\n      dup4\n        /* \"@openzeppelin/contracts/token/ERC20/ERC20.sol\":5643:5650  _update */\n      tag_158\n        /* \"@openzeppelin/contracts/token/ERC20/ERC20.sol\":5643:5667  _update(from, to, value) */\n      jump\t// in\n    tag_157:\n        /* \"@openzeppelin/contracts/token/ERC20/ERC20.sol\":5374:5674  function _transfer(address from, address to, uint256 value) internal {... */\n      pop\n      pop\n      pop\n      jump\t// out\n        /* \"@openzeppelin/contracts/access/Ownable.sol\":1796:1958  function _checkOwner() internal view virtual {... */\n    tag_103:\n        /* \"@openzeppelin/contracts/access/Ownable.sol\":1866:1878  _msgSender() */\n      tag_160\n        /* \"@openzeppelin/contracts/access/Ownable.sol\":1866:1876  _msgSender */\n      tag_90\n        /* \"@openzeppelin/contracts/access/Ownable.sol\":1866:1878  _msgSender() */\n      jump\t// in\n    tag_160:\n        /* \"@openzeppelin/contracts/access/Ownable.sol\":1855:1878  owner() != _msgSender() */\n      0xffffffffffffffffffffffffffffffffffffffff\n      and\n        /* \"@openzeppelin/contracts/access/Ownable.sol\":1855:1862  owner() */\n      tag_161\n        /* \"@openzeppelin/contracts/access/Ownable.sol\":1855:1860  owner */\n      tag_63\n        /* \"@openzeppelin/contracts/access/Ownable.sol\":1855:1862  owner() */\n      jump\t// in\n    tag_161:\n        /* \"@openzeppelin/contracts/access/Ownable.sol\":1855:1878  owner() != _msgSender() */\n      0xffffffffffffffffffffffffffffffffffffffff\n      and\n      eq\n        /* \"@openzeppelin/contracts/access/Ownable.sol\":1851:1952  if (owner() != _msgSender()) {... */\n      tag_162\n      jumpi\n        /* \"@openzeppelin/contracts/access/Ownable.sol\":1928:1940  _msgSender() */\n      tag_163\n        /* \"@openzeppelin/contracts/access/Ownable.sol\":1928:1938  _msgSender */\n      tag_90\n        /* \"@openzeppelin/contracts/access/Ownable.sol\":1928:1940  _msgSender() */\n      jump\t// in\n    tag_163:\n        /* \"@openzeppelin/contracts/access/Ownable.sol\":1901:1941  OwnableUnauthorizedAccount(_msgSender()) */\n      mload(0x40)\n      0x118cdaa700000000000000000000000000000000000000000000000000000000\n      dup2\n      mstore\n      0x04\n      add\n      tag_164\n      swap2\n      swap1\n      tag_65\n      jump\t// in\n    tag_164:\n      mload(0x40)\n      dup1\n      swap2\n      sub\n      swap1\n      revert\n        /* \"@openzeppelin/contracts/access/Ownable.sol\":1851:1952  if (owner() != _msgSender()) {... */\n    tag_162:\n        /* \"@openzeppelin/contracts/access/Ownable.sol\":1796:1958  function _checkOwner() internal view virtual {... */\n      jump\t// out\n        /* \"@openzeppelin/contracts/utils/Pausable.sol\":2586:2703  function _unpause() internal virtual whenPaused {... */\n    tag_106:\n        /* \"@openzeppelin/contracts/utils/Pausable.sol\":1597:1613  _requirePaused() */\n      tag_166\n        /* \"@openzeppelin/contracts/utils/Pausable.sol\":1597:1611  _requirePaused */\n      tag_167\n        /* \"@openzeppelin/contracts/utils/Pausable.sol\":1597:1613  _requirePaused() */\n      jump\t// in\n    tag_166:\n        /* \"@openzeppelin/contracts/utils/Pausable.sol\":2654:2659  false */\n      0x00\n        /* \"@openzeppelin/contracts/utils/Pausable.sol\":2644:2651  _paused */\n      0x05\n      0x00\n        /* \"@openzeppelin/contracts/utils/Pausable.sol\":2644:2659  _paused = false */\n      0x0100\n      exp\n      dup2\n      sload\n      dup2\n      0xff\n      mul\n      not\n      and\n      swap1\n      dup4\n      iszero\n      iszero\n      mul\n      or\n      swap1\n      sstore\n      pop\n        /* \"@openzeppelin/contracts/utils/Pausable.sol\":2674:2696  Unpaused(_msgSender()) */\n      0x5db9ee0a495bf2e6ff9c91a7834c1ba4fdd244a5e8aa4e537bd38aeae4b073aa\n        /* \"@openzeppelin/contracts/utils/Pausable.sol\":2683:2695  _msgSender() */\n      tag_169\n        /* \"@openzeppelin/contracts/utils/Pausable.sol\":2683:2693  _msgSender */\n      tag_90\n        /* \"@openzeppelin/contracts/utils/Pausable.sol\":2683:2695  _msgSender() */\n      jump\t// in\n    tag_169:\n        /* \"@openzeppelin/contracts/utils/Pausable.sol\":2674:2696  Unpaused(_msgSender()) */\n      mload(0x40)\n      tag_170\n      swap2\n      swap1\n      tag_65\n      jump\t// in\n    tag_170:\n      mload(0x40)\n      dup1\n      swap2\n      sub\n      swap1\n      log1\n        /* \"@openzeppelin/contracts/utils/Pausable.sol\":2586:2703  function _unpause() internal virtual whenPaused {... */\n      jump\t// out\n        /* \"@openzeppelin/contracts/token/ERC20/ERC20.sol\":7439:7647  function _mint(address account, uint256 value) internal {... */\n    tag_111:\n        /* \"@openzeppelin/contracts/token/ERC20/ERC20.sol\":7528:7529  0 */\n      0x00\n        /* \"@openzeppelin/contracts/token/ERC20/ERC20.sol\":7509:7530  account == address(0) */\n      0xffffffffffffffffffffffffffffffffffffffff\n      and\n        /* \"@openzeppelin/contracts/token/ERC20/ERC20.sol\":7509:7516  account */\n      dup3\n        /* \"@openzeppelin/contracts/token/ERC20/ERC20.sol\":7509:7530  account == address(0) */\n      0xffffffffffffffffffffffffffffffffffffffff\n      and\n      sub\n        /* \"@openzeppelin/contracts/token/ERC20/ERC20.sol\":7505:7596  if (account == address(0)) {... */\n      tag_172\n      jumpi\n        /* \"@openzeppelin/contracts/token/ERC20/ERC20.sol\":7582:7583  0 */\n      0x00\n        /* \"@openzeppelin/contracts/token/ERC20/ERC20.sol\":7553:7585  ERC20InvalidReceiver(address(0)) */\n      mload(0x40)\n      0xec442f0500000000000000000000000000000000000000000000000000000000\n      dup2\n      mstore\n      0x04\n      add\n      tag_173\n      swap2\n      swap1\n      tag_65\n      jump\t// in\n    tag_173:\n      mload(0x40)\n      dup1\n      swap2\n      sub\n      swap1\n      revert\n        /* \"@openzeppelin/contracts/token/ERC20/ERC20.sol\":7505:7596  if (account == address(0)) {... */\n    tag_172:\n        /* \"@openzeppelin/contracts/token/ERC20/ERC20.sol\":7605:7640  _update(address(0), account, value) */\n      tag_174\n        /* \"@openzeppelin/contracts/token/ERC20/ERC20.sol\":7621:7622  0 */\n      0x00\n        /* \"@openzeppelin/contracts/token/ERC20/ERC20.sol\":7625:7632  account */\n      dup4\n        /* \"@openzeppelin/contracts/token/ERC20/ERC20.sol\":7634:7639  value */\n      dup4\n        /* \"@openzeppelin/contracts/token/ERC20/ERC20.sol\":7605:7612  _update */\n      tag_158\n        /* \"@openzeppelin/contracts/token/ERC20/ERC20.sol\":7605:7640  _update(address(0), account, value) */\n      jump\t// in\n    tag_174:\n        /* \"@openzeppelin/contracts/token/ERC20/ERC20.sol\":7439:7647  function _mint(address account, uint256 value) internal {... */\n      pop\n      pop\n      jump\t// out\n        /* \"@openzeppelin/contracts/access/Ownable.sol\":2912:3099  function _transferOwnership(address newOwner) internal virtual {... */\n    tag_118:\n        /* \"@openzeppelin/contracts/access/Ownable.sol\":2985:3001  address oldOwner */\n      0x00\n        /* \"@openzeppelin/contracts/access/Ownable.sol\":3004:3010  _owner */\n      0x05\n      0x01\n      swap1\n      sload\n      swap1\n      0x0100\n      exp\n      swap1\n      div\n      0xffffffffffffffffffffffffffffffffffffffff\n      and\n        /* \"@openzeppelin/contracts/access/Ownable.sol\":2985:3010  address oldOwner = _owner */\n      swap1\n      pop\n        /* \"@openzeppelin/contracts/access/Ownable.sol\":3029:3037  newOwner */\n      dup2\n        /* \"@openzeppelin/contracts/access/Ownable.sol\":3020:3026  _owner */\n      0x05\n      0x01\n        /* \"@openzeppelin/contracts/access/Ownable.sol\":3020:3037  _owner = newOwner */\n      0x0100\n      exp\n      dup2\n      sload\n      dup2\n      0xffffffffffffffffffffffffffffffffffffffff\n      mul\n      not\n      and\n      swap1\n      dup4\n      0xffffffffffffffffffffffffffffffffffffffff\n      and\n      mul\n      or\n      swap1\n      sstore\n      pop\n        /* \"@openzeppelin/contracts/access/Ownable.sol\":3083:3091  newOwner */\n      dup2\n        /* \"@openzeppelin/contracts/access/Ownable.sol\":3052:3092  OwnershipTransferred(oldOwner, newOwner) */\n      0xffffffffffffffffffffffffffffffffffffffff\n      and\n        /* \"@openzeppelin/contracts/access/Ownable.sol\":3073:3081  oldOwner */\n      dup2\n        /* \"@openzeppelin/contracts/access/Ownable.sol\":3052:3092  OwnershipTransferred(oldOwner, newOwner) */\n      0xffffffffffffffffffffffffffffffffffffffff\n      and\n      0x8be0079c531659141344cd1fd0a4f28419497f9722a3daafe3b4186f6b6457e0\n      mload(0x40)\n      mload(0x40)\n      dup1\n      swap2\n      sub\n      swap1\n      log3\n        /* \"@openzeppelin/contracts/access/Ownable.sol\":2975:3099  {... */\n      pop\n        /* \"@openzeppelin/contracts/access/Ownable.sol\":2912:3099  function _transferOwnership(address newOwner) internal virtual {... */\n      pop\n      jump\t// out\n        /* \"@openzeppelin/contracts/utils/Pausable.sol\":2339:2454  function _pause() internal virtual whenNotPaused {... */\n    tag_123:\n        /* \"@openzeppelin/contracts/utils/Pausable.sol\":1350:1369  _requireNotPaused() */\n      tag_177\n        /* \"@openzeppelin/contracts/utils/Pausable.sol\":1350:1367  _requireNotPaused */\n      tag_178\n        /* \"@openzeppelin/contracts/utils/Pausable.sol\":1350:1369  _requireNotPaused() */\n      jump\t// in\n    tag_177:\n        /* \"@openzeppelin/contracts/utils/Pausable.sol\":2408:2412  true */\n      0x01\n        /* \"@openzeppelin/contracts/utils/Pausable.sol\":2398:2405  _paused */\n      0x05\n      0x00\n        /* \"@openzeppelin/contracts/utils/Pausable.sol\":2398:2412  _paused = true */\n      0x0100\n      exp\n      dup2\n      sload\n      dup2\n      0xff\n      mul\n      not\n      and\n      swap1\n      dup4\n      iszero\n      iszero\n      mul\n      or\n      swap1\n      sstore\n      pop\n        /* \"@openzeppelin/contracts/utils/Pausable.sol\":2427:2447  Paused(_msgSender()) */\n      0x62e78cea01bee320cd4e420270b5ea74000d11b0c9f74754ebdbfc544b05a258\n        /* \"@openzeppelin/contracts/utils/Pausable.sol\":2434:2446  _msgSender() */\n      tag_180\n        /* \"@openzeppelin/contracts/utils/Pausable.sol\":2434:2444  _msgSender */\n      tag_90\n        /* \"@openzeppelin/contracts/utils/Pausable.sol\":2434:2446  _msgSender() */\n      jump\t// in\n    tag_180:\n        /* \"@openzeppelin/contracts/utils/Pausable.sol\":2427:2447  Paused(_msgSender()) */\n      mload(0x40)\n      tag_181\n      swap2\n      swap1\n      tag_65\n      jump\t// in\n    tag_181:\n      mload(0x40)\n      dup1\n      swap2\n      sub\n      swap1\n      log1\n        /* \"@openzeppelin/contracts/utils/Pausable.sol\":2339:2454  function _pause() internal virtual whenNotPaused {... */\n      jump\t// out\n        /* \"@openzeppelin/contracts/token/ERC20/ERC20.sol\":9682:10114  function _approve(address owner, address spender, uint256 value, bool emitEvent) internal virtual {... */\n    tag_144:\n        /* \"@openzeppelin/contracts/token/ERC20/ERC20.sol\":9811:9812  0 */\n      0x00\n        /* \"@openzeppelin/contracts/token/ERC20/ERC20.sol\":9794:9813  owner == address(0) */\n      0xffffffffffffffffffffffffffffffffffffffff\n      and\n        /* \"@openzeppelin/contracts/token/ERC20/ERC20.sol\":9794:9799  owner */\n      dup5\n        /* \"@openzeppelin/contracts/token/ERC20/ERC20.sol\":9794:9813  owner == address(0) */\n      0xffffffffffffffffffffffffffffffffffffffff\n      and\n      sub\n        /* \"@openzeppelin/contracts/token/ERC20/ERC20.sol\":9790:9879  if (owner == address(0)) {... */\n      tag_183\n      jumpi\n        /* \"@openzeppelin/contracts/token/ERC20/ERC20.sol\":9865:9866  0 */\n      0x00\n        /* \"@openzeppelin/contracts/token/ERC20/ERC20.sol\":9836:9868  ERC20InvalidApprover(address(0)) */\n      mload(0x40)\n      0xe602df0500000000000000000000000000000000000000000000000000000000\n      dup2\n      mstore\n      0x04\n      add\n      tag_184\n      swap2\n      swap1\n      tag_65\n      jump\t// in\n    tag_184:\n      mload(0x40)\n      dup1\n      swap2\n      sub\n      swap1\n      revert\n        /* \"@openzeppelin/contracts/token/ERC20/ERC20.sol\":9790:9879  if (owner == address(0)) {... */\n    tag_183:\n        /* \"@openzeppelin/contracts/token/ERC20/ERC20.sol\":9911:9912  0 */\n      0x00\n        /* \"@openzeppelin/contracts/token/ERC20/ERC20.sol\":9892:9913  spender == address(0) */\n      0xffffffffffffffffffffffffffffffffffffffff\n      and\n        /* \"@openzeppelin/contracts/token/ERC20/ERC20.sol\":9892:9899  spender */\n      dup4\n        /* \"@openzeppelin/contracts/token/ERC20/ERC20.sol\":9892:9913  spender == address(0) */\n      0xffffffffffffffffffffffffffffffffffffffff\n      and\n      sub\n        /* \"@openzeppelin/contracts/token/ERC20/ERC20.sol\":9888:9978  if (spender == address(0)) {... */\n      tag_185\n      jumpi\n        /* \"@openzeppelin/contracts/token/ERC20/ERC20.sol\":9964:9965  0 */\n      0x00\n        /* \"@openzeppelin/contracts/token/ERC20/ERC20.sol\":9936:9967  ERC20InvalidSpender(address(0)) */\n      mload(0x40)\n      0x94280d6200000000000000000000000000000000000000000000000000000000\n      dup2\n      mstore\n      0x04\n      add\n      tag_186\n      swap2\n      swap1\n      tag_65\n      jump\t// in\n    tag_186:\n      mload(0x40)\n      dup1\n      swap2\n      sub\n      swap1\n      revert\n        /* \"@openzeppelin/contracts/token/ERC20/ERC20.sol\":9888:9978  if (spender == address(0)) {... */\n    tag_185:\n        /* \"@openzeppelin/contracts/token/ERC20/ERC20.sol\":10017:10022  value */\n      dup2\n        /* \"@openzeppelin/contracts/token/ERC20/ERC20.sol\":9987:9998  _allowances */\n      0x01\n        /* \"@openzeppelin/contracts/token/ERC20/ERC20.sol\":9987:10005  _allowances[owner] */\n      0x00\n        /* \"@openzeppelin/contracts/token/ERC20/ERC20.sol\":9999:10004  owner */\n      dup7\n        /* \"@openzeppelin/contracts/token/ERC20/ERC20.sol\":9987:10005  _allowances[owner] */\n      0xffffffffffffffffffffffffffffffffffffffff\n      and\n      0xffffffffffffffffffffffffffffffffffffffff\n      and\n      dup2\n      mstore\n      0x20\n      add\n      swap1\n      dup2\n      mstore\n      0x20\n      add\n      0x00\n      keccak256\n        /* \"@openzeppelin/contracts/token/ERC20/ERC20.sol\":9987:10014  _allowances[owner][spender] */\n      0x00\n        /* \"@openzeppelin/contracts/token/ERC20/ERC20.sol\":10006:10013  spender */\n      dup6\n        /* \"@openzeppelin/contracts/token/ERC20/ERC20.sol\":9987:10014  _allowances[owner][spender] */\n      0xffffffffffffffffffffffffffffffffffffffff\n      and\n      0xffffffffffffffffffffffffffffffffffffffff\n      and\n      dup2\n      mstore\n      0x20\n      add\n      swap1\n      dup2\n      mstore\n      0x20\n      add\n      0x00\n      keccak256\n        /* \"@openzeppelin/contracts/token/ERC20/ERC20.sol\":9987:10022  _allowances[owner][spender] = value */\n      dup2\n      swap1\n      sstore\n      pop\n        /* \"@openzeppelin/contracts/token/ERC20/ERC20.sol\":10036:10045  emitEvent */\n      dup1\n        /* \"@openzeppelin/contracts/token/ERC20/ERC20.sol\":10032:10108  if (emitEvent) {... */\n      iszero\n      tag_187\n      jumpi\n        /* \"@openzeppelin/contracts/token/ERC20/ERC20.sol\":10082:10089  spender */\n      dup3\n        /* \"@openzeppelin/contracts/token/ERC20/ERC20.sol\":10066:10097  Approval(owner, spender, value) */\n      0xffffffffffffffffffffffffffffffffffffffff\n      and\n        /* \"@openzeppelin/contracts/token/ERC20/ERC20.sol\":10075:10080  owner */\n      dup5\n        /* \"@openzeppelin/contracts/token/ERC20/ERC20.sol\":10066:10097  Approval(owner, spender, value) */\n      0xffffffffffffffffffffffffffffffffffffffff\n      and\n      0x8c5be1e5ebec7d5bd14f71427d1e84f3dd0314c0f7b2291e5b200ac8c7c3b925\n        /* \"@openzeppelin/contracts/token/ERC20/ERC20.sol\":10091:10096  value */\n      dup5\n        /* \"@openzeppelin/contracts/token/ERC20/ERC20.sol\":10066:10097  Approval(owner, spender, value) */\n      mload(0x40)\n      tag_188\n      swap2\n      swap1\n      tag_35\n      jump\t// in\n    tag_188:\n      mload(0x40)\n      dup1\n      swap2\n      sub\n      swap1\n      log3\n        /* \"@openzeppelin/contracts/token/ERC20/ERC20.sol\":10032:10108  if (emitEvent) {... */\n    tag_187:\n        /* \"@openzeppelin/contracts/token/ERC20/ERC20.sol\":9682:10114  function _approve(address owner, address spender, uint256 value, bool emitEvent) internal virtual {... */\n      pop\n      pop\n      pop\n      pop\n      jump\t// out\n        /* \"TokenB.sol\":960:1130  function _update(address from, address to, uint256 value)... */\n    tag_158:\n        /* \"TokenB.sol\":1092:1122  super._update(from, to, value) */\n      tag_190\n        /* \"TokenB.sol\":1106:1110  from */\n      dup4\n        /* \"TokenB.sol\":1112:1114  to */\n      dup4\n        /* \"TokenB.sol\":1116:1121  value */\n      dup4\n        /* \"TokenB.sol\":1092:1105  super._update */\n      tag_191\n        /* \"TokenB.sol\":1092:1122  super._update(from, to, value) */\n      jump\t// in\n    tag_190:\n        /* \"TokenB.sol\":960:1130  function _update(address from, address to, uint256 value)... */\n      pop\n      pop\n      pop\n      jump\t// out\n        /* \"@openzeppelin/contracts/utils/Pausable.sol\":2078:2204  function _requirePaused() internal view virtual {... */\n    tag_167:\n        /* \"@openzeppelin/contracts/utils/Pausable.sol\":2141:2149  paused() */\n      tag_193\n        /* \"@openzeppelin/contracts/utils/Pausable.sol\":2141:2147  paused */\n      tag_51\n        /* \"@openzeppelin/contracts/utils/Pausable.sol\":2141:2149  paused() */\n      jump\t// in\n    tag_193:\n        /* \"@openzeppelin/contracts/utils/Pausable.sol\":2136:2198  if (!paused()) {... */\n      tag_194\n      jumpi\n        /* \"@openzeppelin/contracts/utils/Pausable.sol\":2172:2187  ExpectedPause() */\n      mload(0x40)\n      0x8dfc202b00000000000000000000000000000000000000000000000000000000\n      dup2\n      mstore\n      0x04\n      add\n      mload(0x40)\n      dup1\n      swap2\n      sub\n      swap1\n      revert\n        /* \"@openzeppelin/contracts/utils/Pausable.sol\":2136:2198  if (!paused()) {... */\n    tag_194:\n        /* \"@openzeppelin/contracts/utils/Pausable.sol\":2078:2204  function _requirePaused() internal view virtual {... */\n      jump\t// out\n        /* \"@openzeppelin/contracts/utils/Pausable.sol\":1878:2006  function _requireNotPaused() internal view virtual {... */\n    tag_178:\n        /* \"@openzeppelin/contracts/utils/Pausable.sol\":1943:1951  paused() */\n      tag_196\n        /* \"@openzeppelin/contracts/utils/Pausable.sol\":1943:1949  paused */\n      tag_51\n        /* \"@openzeppelin/contracts/utils/Pausable.sol\":1943:1951  paused() */\n      jump\t// in\n    tag_196:\n        /* \"@openzeppelin/contracts/utils/Pausable.sol\":1939:2000  if (paused()) {... */\n      iszero\n      tag_197\n      jumpi\n        /* \"@openzeppelin/contracts/utils/Pausable.sol\":1974:1989  EnforcedPause() */\n      mload(0x40)\n      0xd93c066500000000000000000000000000000000000000000000000000000000\n      dup2\n      mstore\n      0x04\n      add\n      mload(0x40)\n      dup1\n      swap2\n      sub\n      swap1\n      revert\n        /* \"@openzeppelin/contracts/utils/Pausable.sol\":1939:2000  if (paused()) {... */\n    tag_197:\n        /* \"@openzeppelin/contracts/utils/Pausable.sol\":1878:2006  function _requireNotPaused() internal view virtual {... */\n      jump\t// out\n        /* \"@openzeppelin/contracts/token/ERC20/extensions/ERC20Pausable.sol\":1113:1258  function _update(address from, address to, uint256 value) internal virtual override whenNotPaused {... */\n    tag_191:\n        /* \"@openzeppelin/contracts/utils/Pausable.sol\":1350:1369  _requireNotPaused() */\n      tag_199\n        /* \"@openzeppelin/contracts/utils/Pausable.sol\":1350:1367  _requireNotPaused */\n      tag_178\n        /* \"@openzeppelin/contracts/utils/Pausable.sol\":1350:1369  _requireNotPaused() */\n      jump\t// in\n    tag_199:\n        /* \"@openzeppelin/contracts/token/ERC20/extensions/ERC20Pausable.sol\":1221:1251  super._update(from, to, value) */\n      tag_201\n        /* \"@openzeppelin/contracts/token/ERC20/extensions/ERC20Pausable.sol\":1235:1239  from */\n      dup4\n        /* \"@openzeppelin/contracts/token/ERC20/extensions/ERC20Pausable.sol\":1241:1243  to */\n      dup4\n        /* \"@openzeppelin/contracts/token/ERC20/extensions/ERC20Pausable.sol\":1245:1250  value */\n      dup4\n        /* \"@openzeppelin/contracts/token/ERC20/extensions/ERC20Pausable.sol\":1221:1234  super._update */\n      tag_202\n        /* \"@openzeppelin/contracts/token/ERC20/extensions/ERC20Pausable.sol\":1221:1251  super._update(from, to, value) */\n      jump\t// in\n    tag_201:\n        /* \"@openzeppelin/contracts/token/ERC20/extensions/ERC20Pausable.sol\":1113:1258  function _update(address from, address to, uint256 value) internal virtual override whenNotPaused {... */\n      pop\n      pop\n      pop\n      jump\t// out\n        /* \"@openzeppelin/contracts/token/ERC20/ERC20.sol\":5989:7096  function _update(address from, address to, uint256 value) internal virtual {... */\n    tag_202:\n        /* \"@openzeppelin/contracts/token/ERC20/ERC20.sol\":6094:6095  0 */\n      0x00\n        /* \"@openzeppelin/contracts/token/ERC20/ERC20.sol\":6078:6096  from == address(0) */\n      0xffffffffffffffffffffffffffffffffffffffff\n      and\n        /* \"@openzeppelin/contracts/token/ERC20/ERC20.sol\":6078:6082  from */\n      dup4\n        /* \"@openzeppelin/contracts/token/ERC20/ERC20.sol\":6078:6096  from == address(0) */\n      0xffffffffffffffffffffffffffffffffffffffff\n      and\n      sub\n        /* \"@openzeppelin/contracts/token/ERC20/ERC20.sol\":6074:6614  if (from == address(0)) {... */\n      tag_204\n      jumpi\n        /* \"@openzeppelin/contracts/token/ERC20/ERC20.sol\":6230:6235  value */\n      dup1\n        /* \"@openzeppelin/contracts/token/ERC20/ERC20.sol\":6214:6226  _totalSupply */\n      0x02\n      0x00\n        /* \"@openzeppelin/contracts/token/ERC20/ERC20.sol\":6214:6235  _totalSupply += value */\n      dup3\n      dup3\n      sload\n      tag_205\n      swap2\n      swap1\n      tag_206\n      jump\t// in\n    tag_205:\n      swap3\n      pop\n      pop\n      dup2\n      swap1\n      sstore\n      pop\n        /* \"@openzeppelin/contracts/token/ERC20/ERC20.sol\":6074:6614  if (from == address(0)) {... */\n      jump(tag_207)\n    tag_204:\n        /* \"@openzeppelin/contracts/token/ERC20/ERC20.sol\":6266:6285  uint256 fromBalance */\n      0x00\n        /* \"@openzeppelin/contracts/token/ERC20/ERC20.sol\":6288:6297  _balances */\n      dup1\n        /* \"@openzeppelin/contracts/token/ERC20/ERC20.sol\":6288:6303  _balances[from] */\n      0x00\n        /* \"@openzeppelin/contracts/token/ERC20/ERC20.sol\":6298:6302  from */\n      dup6\n        /* \"@openzeppelin/contracts/token/ERC20/ERC20.sol\":6288:6303  _balances[from] */\n      0xffffffffffffffffffffffffffffffffffffffff\n      and\n      0xffffffffffffffffffffffffffffffffffffffff\n      and\n      dup2\n      mstore\n      0x20\n      add\n      swap1\n      dup2\n      mstore\n      0x20\n      add\n      0x00\n      keccak256\n      sload\n        /* \"@openzeppelin/contracts/token/ERC20/ERC20.sol\":6266:6303  uint256 fromBalance = _balances[from] */\n      swap1\n      pop\n        /* \"@openzeppelin/contracts/token/ERC20/ERC20.sol\":6335:6340  value */\n      dup2\n        /* \"@openzeppelin/contracts/token/ERC20/ERC20.sol\":6321:6332  fromBalance */\n      dup2\n        /* \"@openzeppelin/contracts/token/ERC20/ERC20.sol\":6321:6340  fromBalance < value */\n      lt\n        /* \"@openzeppelin/contracts/token/ERC20/ERC20.sol\":6317:6432  if (fromBalance < value) {... */\n      iszero\n      tag_208\n      jumpi\n        /* \"@openzeppelin/contracts/token/ERC20/ERC20.sol\":6392:6396  from */\n      dup4\n        /* \"@openzeppelin/contracts/token/ERC20/ERC20.sol\":6398:6409  fromBalance */\n      dup2\n        /* \"@openzeppelin/contracts/token/ERC20/ERC20.sol\":6411:6416  value */\n      dup4\n        /* \"@openzeppelin/contracts/token/ERC20/ERC20.sol\":6367:6417  ERC20InsufficientBalance(from, fromBalance, value) */\n      mload(0x40)\n      0xe450d38c00000000000000000000000000000000000000000000000000000000\n      dup2\n      mstore\n      0x04\n      add\n      tag_209\n      swap4\n      swap3\n      swap2\n      swap1\n      tag_150\n      jump\t// in\n    tag_209:\n      mload(0x40)\n      dup1\n      swap2\n      sub\n      swap1\n      revert\n        /* \"@openzeppelin/contracts/token/ERC20/ERC20.sol\":6317:6432  if (fromBalance < value) {... */\n    tag_208:\n        /* \"@openzeppelin/contracts/token/ERC20/ERC20.sol\":6584:6589  value */\n      dup2\n        /* \"@openzeppelin/contracts/token/ERC20/ERC20.sol\":6570:6581  fromBalance */\n      dup2\n        /* \"@openzeppelin/contracts/token/ERC20/ERC20.sol\":6570:6589  fromBalance - value */\n      sub\n        /* \"@openzeppelin/contracts/token/ERC20/ERC20.sol\":6552:6561  _balances */\n      0x00\n        /* \"@openzeppelin/contracts/token/ERC20/ERC20.sol\":6552:6567  _balances[from] */\n      dup1\n        /* \"@openzeppelin/contracts/token/ERC20/ERC20.sol\":6562:6566  from */\n      dup7\n        /* \"@openzeppelin/contracts/token/ERC20/ERC20.sol\":6552:6567  _balances[from] */\n      0xffffffffffffffffffffffffffffffffffffffff\n      and\n      0xffffffffffffffffffffffffffffffffffffffff\n      and\n      dup2\n      mstore\n      0x20\n      add\n      swap1\n      dup2\n      mstore\n      0x20\n      add\n      0x00\n      keccak256\n        /* \"@openzeppelin/contracts/token/ERC20/ERC20.sol\":6552:6589  _balances[from] = fromBalance - value */\n      dup2\n      swap1\n      sstore\n      pop\n        /* \"@openzeppelin/contracts/token/ERC20/ERC20.sol\":6252:6614  {... */\n      pop\n        /* \"@openzeppelin/contracts/token/ERC20/ERC20.sol\":6074:6614  if (from == address(0)) {... */\n    tag_207:\n        /* \"@openzeppelin/contracts/token/ERC20/ERC20.sol\":6642:6643  0 */\n      0x00\n        /* \"@openzeppelin/contracts/token/ERC20/ERC20.sol\":6628:6644  to == address(0) */\n      0xffffffffffffffffffffffffffffffffffffffff\n      and\n        /* \"@openzeppelin/contracts/token/ERC20/ERC20.sol\":6628:6630  to */\n      dup3\n        /* \"@openzeppelin/contracts/token/ERC20/ERC20.sol\":6628:6644  to == address(0) */\n      0xffffffffffffffffffffffffffffffffffffffff\n      and\n      sub\n        /* \"@openzeppelin/contracts/token/ERC20/ERC20.sol\":6624:7049  if (to == address(0)) {... */\n      tag_210\n      jumpi\n        /* \"@openzeppelin/contracts/token/ERC20/ERC20.sol\":6807:6812  value */\n      dup1\n        /* \"@openzeppelin/contracts/token/ERC20/ERC20.sol\":6791:6803  _totalSupply */\n      0x02\n      0x00\n        /* \"@openzeppelin/contracts/token/ERC20/ERC20.sol\":6791:6812  _totalSupply -= value */\n      dup3\n      dup3\n      sload\n      sub\n      swap3\n      pop\n      pop\n      dup2\n      swap1\n      sstore\n      pop\n        /* \"@openzeppelin/contracts/token/ERC20/ERC20.sol\":6624:7049  if (to == address(0)) {... */\n      jump(tag_211)\n    tag_210:\n        /* \"@openzeppelin/contracts/token/ERC20/ERC20.sol\":7019:7024  value */\n      dup1\n        /* \"@openzeppelin/contracts/token/ERC20/ERC20.sol\":7002:7011  _balances */\n      0x00\n        /* \"@openzeppelin/contracts/token/ERC20/ERC20.sol\":7002:7015  _balances[to] */\n      dup1\n        /* \"@openzeppelin/contracts/token/ERC20/ERC20.sol\":7012:7014  to */\n      dup5\n        /* \"@openzeppelin/contracts/token/ERC20/ERC20.sol\":7002:7015  _balances[to] */\n      0xffffffffffffffffffffffffffffffffffffffff\n      and\n      0xffffffffffffffffffffffffffffffffffffffff\n      and\n      dup2\n      mstore\n      0x20\n      add\n      swap1\n      dup2\n      mstore\n      0x20\n      add\n      0x00\n      keccak256\n      0x00\n        /* \"@openzeppelin/contracts/token/ERC20/ERC20.sol\":7002:7024  _balances[to] += value */\n      dup3\n      dup3\n      sload\n      add\n      swap3\n      pop\n      pop\n      dup2\n      swap1\n      sstore\n      pop\n        /* \"@openzeppelin/contracts/token/ERC20/ERC20.sol\":6624:7049  if (to == address(0)) {... */\n    tag_211:\n        /* \"@openzeppelin/contracts/token/ERC20/ERC20.sol\":7079:7081  to */\n      dup2\n        /* \"@openzeppelin/contracts/token/ERC20/ERC20.sol\":7064:7089  Transfer(from, to, value) */\n      0xffffffffffffffffffffffffffffffffffffffff\n      and\n        /* \"@openzeppelin/contracts/token/ERC20/ERC20.sol\":7073:7077  from */\n      dup4\n        /* \"@openzeppelin/contracts/token/ERC20/ERC20.sol\":7064:7089  Transfer(from, to, value) */\n      0xffffffffffffffffffffffffffffffffffffffff\n      and\n      0xddf252ad1be2c89b69c2b068fc378daa952ba7f163c4a11628f55a4df523b3ef\n        /* \"@openzeppelin/contracts/token/ERC20/ERC20.sol\":7083:7088  value */\n      dup4\n        /* \"@openzeppelin/contracts/token/ERC20/ERC20.sol\":7064:7089  Transfer(from, to, value) */\n      mload(0x40)\n      tag_212\n      swap2\n      swap1\n      tag_35\n      jump\t// in\n    tag_212:\n      mload(0x40)\n      dup1\n      swap2\n      sub\n      swap1\n      log3\n        /* \"@openzeppelin/contracts/token/ERC20/ERC20.sol\":5989:7096  function _update(address from, address to, uint256 value) internal virtual {... */\n      pop\n      pop\n      pop\n      jump\t// out\n        /* \"#utility.yul\":7:106   */\n    tag_213:\n        /* \"#utility.yul\":59:65   */\n      0x00\n        /* \"#utility.yul\":93:98   */\n      dup2\n        /* \"#utility.yul\":87:99   */\n      mload\n        /* \"#utility.yul\":77:99   */\n      swap1\n      pop\n        /* \"#utility.yul\":7:106   */\n      swap2\n      swap1\n      pop\n      jump\t// out\n        /* \"#utility.yul\":112:281   */\n    tag_214:\n        /* \"#utility.yul\":196:207   */\n      0x00\n        /* \"#utility.yul\":230:236   */\n      dup3\n        /* \"#utility.yul\":225:228   */\n      dup3\n        /* \"#utility.yul\":218:237   */\n      mstore\n        /* \"#utility.yul\":270:274   */\n      0x20\n        /* \"#utility.yul\":265:268   */\n      dup3\n        /* \"#utility.yul\":261:275   */\n      add\n        /* \"#utility.yul\":246:275   */\n      swap1\n      pop\n        /* \"#utility.yul\":112:281   */\n      swap3\n      swap2\n      pop\n      pop\n      jump\t// out\n        /* \"#utility.yul\":287:535   */\n    tag_215:\n        /* \"#utility.yul\":369:370   */\n      0x00\n        /* \"#utility.yul\":379:492   */\n    tag_240:\n        /* \"#utility.yul\":393:399   */\n      dup4\n        /* \"#utility.yul\":390:391   */\n      dup2\n        /* \"#utility.yul\":387:400   */\n      lt\n        /* \"#utility.yul\":379:492   */\n      iszero\n      tag_242\n      jumpi\n        /* \"#utility.yul\":478:479   */\n      dup1\n        /* \"#utility.yul\":473:476   */\n      dup3\n        /* \"#utility.yul\":469:480   */\n      add\n        /* \"#utility.yul\":463:481   */\n      mload\n        /* \"#utility.yul\":459:460   */\n      dup2\n        /* \"#utility.yul\":454:457   */\n      dup5\n        /* \"#utility.yul\":450:461   */\n      add\n        /* \"#utility.yul\":443:482   */\n      mstore\n        /* \"#utility.yul\":415:417   */\n      0x20\n        /* \"#utility.yul\":412:413   */\n      dup2\n        /* \"#utility.yul\":408:418   */\n      add\n        /* \"#utility.yul\":403:418   */\n      swap1\n      pop\n        /* \"#utility.yul\":379:492   */\n      jump(tag_240)\n    tag_242:\n        /* \"#utility.yul\":526:527   */\n      0x00\n        /* \"#utility.yul\":517:523   */\n      dup5\n        /* \"#utility.yul\":512:515   */\n      dup5\n        /* \"#utility.yul\":508:524   */\n      add\n        /* \"#utility.yul\":501:528   */\n      mstore\n        /* \"#utility.yul\":349:535   */\n      pop\n        /* \"#utility.yul\":287:535   */\n      pop\n      pop\n      pop\n      jump\t// out\n        /* \"#utility.yul\":541:643   */\n    tag_216:\n        /* \"#utility.yul\":582:588   */\n      0x00\n        /* \"#utility.yul\":633:635   */\n      0x1f\n        /* \"#utility.yul\":629:636   */\n      not\n        /* \"#utility.yul\":624:626   */\n      0x1f\n        /* \"#utility.yul\":617:622   */\n      dup4\n        /* \"#utility.yul\":613:627   */\n      add\n        /* \"#utility.yul\":609:637   */\n      and\n        /* \"#utility.yul\":599:637   */\n      swap1\n      pop\n        /* \"#utility.yul\":541:643   */\n      swap2\n      swap1\n      pop\n      jump\t// out\n        /* \"#utility.yul\":649:1026   */\n    tag_217:\n        /* \"#utility.yul\":737:740   */\n      0x00\n        /* \"#utility.yul\":765:804   */\n      tag_245\n        /* \"#utility.yul\":798:803   */\n      dup3\n        /* \"#utility.yul\":765:804   */\n      tag_213\n      jump\t// in\n    tag_245:\n        /* \"#utility.yul\":820:891   */\n      tag_246\n        /* \"#utility.yul\":884:890   */\n      dup2\n        /* \"#utility.yul\":879:882   */\n      dup6\n        /* \"#utility.yul\":820:891   */\n      tag_214\n      jump\t// in\n    tag_246:\n        /* \"#utility.yul\":813:891   */\n      swap4\n      pop\n        /* \"#utility.yul\":900:965   */\n      tag_247\n        /* \"#utility.yul\":958:964   */\n      dup2\n        /* \"#utility.yul\":953:956   */\n      dup6\n        /* \"#utility.yul\":946:950   */\n      0x20\n        /* \"#utility.yul\":939:944   */\n      dup7\n        /* \"#utility.yul\":935:951   */\n      add\n        /* \"#utility.yul\":900:965   */\n      tag_215\n      jump\t// in\n    tag_247:\n        /* \"#utility.yul\":990:1019   */\n      tag_248\n        /* \"#utility.yul\":1012:1018   */\n      dup2\n        /* \"#utility.yul\":990:1019   */\n      tag_216\n      jump\t// in\n    tag_248:\n        /* \"#utility.yul\":985:988   */\n      dup5\n        /* \"#utility.yul\":981:1020   */\n      add\n        /* \"#utility.yul\":974:1020   */\n      swap2\n      pop\n        /* \"#utility.yul\":741:1026   */\n      pop\n        /* \"#utility.yul\":649:1026   */\n      swap3\n      swap2\n      pop\n      pop\n      jump\t// out\n        /* \"#utility.yul\":1032:1345   */\n    tag_25:\n        /* \"#utility.yul\":1145:1149   */\n      0x00\n        /* \"#utility.yul\":1183:1185   */\n      0x20\n        /* \"#utility.yul\":1172:1181   */\n      dup3\n        /* \"#utility.yul\":1168:1186   */\n      add\n        /* \"#utility.yul\":1160:1186   */\n      swap1\n      pop\n        /* \"#utility.yul\":1232:1241   */\n      dup2\n        /* \"#utility.yul\":1226:1230   */\n      dup2\n        /* \"#utility.yul\":1222:1242   */\n      sub\n        /* \"#utility.yul\":1218:1219   */\n      0x00\n        /* \"#utility.yul\":1207:1216   */\n      dup4\n        /* \"#utility.yul\":1203:1220   */\n      add\n        /* \"#utility.yul\":1196:1243   */\n      mstore\n        /* \"#utility.yul\":1260:1338   */\n      tag_250\n        /* \"#utility.yul\":1333:1337   */\n      dup2\n        /* \"#utility.yul\":1324:1330   */\n      dup5\n        /* \"#utility.yul\":1260:1338   */\n      tag_217\n      jump\t// in\n    tag_250:\n        /* \"#utility.yul\":1252:1338   */\n      swap1\n      pop\n        /* \"#utility.yul\":1032:1345   */\n      swap3\n      swap2\n      pop\n      pop\n      jump\t// out\n        /* \"#utility.yul\":1432:1549   */\n    tag_219:\n        /* \"#utility.yul\":1541:1542   */\n      0x00\n        /* \"#utility.yul\":1538:1539   */\n      dup1\n        /* \"#utility.yul\":1531:1543   */\n      revert\n        /* \"#utility.yul\":1678:1804   */\n    tag_221:\n        /* \"#utility.yul\":1715:1722   */\n      0x00\n        /* \"#utility.yul\":1755:1797   */\n      0xffffffffffffffffffffffffffffffffffffffff\n        /* \"#utility.yul\":1748:1753   */\n      dup3\n        /* \"#utility.yul\":1744:1798   */\n      and\n        /* \"#utility.yul\":1733:1798   */\n      swap1\n      pop\n        /* \"#utility.yul\":1678:1804   */\n      swap2\n      swap1\n      pop\n      jump\t// out\n        /* \"#utility.yul\":1810:1906   */\n    tag_222:\n        /* \"#utility.yul\":1847:1854   */\n      0x00\n        /* \"#utility.yul\":1876:1900   */\n      tag_256\n        /* \"#utility.yul\":1894:1899   */\n      dup3\n        /* \"#utility.yul\":1876:1900   */\n      tag_221\n      jump\t// in\n    tag_256:\n        /* \"#utility.yul\":1865:1900   */\n      swap1\n      pop\n        /* \"#utility.yul\":1810:1906   */\n      swap2\n      swap1\n      pop\n      jump\t// out\n        /* \"#utility.yul\":1912:2034   */\n    tag_223:\n        /* \"#utility.yul\":1985:2009   */\n      tag_258\n        /* \"#utility.yul\":2003:2008   */\n      dup2\n        /* \"#utility.yul\":1985:2009   */\n      tag_222\n      jump\t// in\n    tag_258:\n        /* \"#utility.yul\":1978:1983   */\n      dup2\n        /* \"#utility.yul\":1975:2010   */\n      eq\n        /* \"#utility.yul\":1965:2028   */\n      tag_259\n      jumpi\n        /* \"#utility.yul\":2024:2025   */\n      0x00\n        /* \"#utility.yul\":2021:2022   */\n      dup1\n        /* \"#utility.yul\":2014:2026   */\n      revert\n        /* \"#utility.yul\":1965:2028   */\n    tag_259:\n        /* \"#utility.yul\":1912:2034   */\n      pop\n      jump\t// out\n        /* \"#utility.yul\":2040:2179   */\n    tag_224:\n        /* \"#utility.yul\":2086:2091   */\n      0x00\n        /* \"#utility.yul\":2124:2130   */\n      dup2\n        /* \"#utility.yul\":2111:2131   */\n      calldataload\n        /* \"#utility.yul\":2102:2131   */\n      swap1\n      pop\n        /* \"#utility.yul\":2140:2173   */\n      tag_261\n        /* \"#utility.yul\":2167:2172   */\n      dup2\n        /* \"#utility.yul\":2140:2173   */\n      tag_223\n      jump\t// in\n    tag_261:\n        /* \"#utility.yul\":2040:2179   */\n      swap3\n      swap2\n      pop\n      pop\n      jump\t// out\n        /* \"#utility.yul\":2185:2262   */\n    tag_225:\n        /* \"#utility.yul\":2222:2229   */\n      0x00\n        /* \"#utility.yul\":2251:2256   */\n      dup2\n        /* \"#utility.yul\":2240:2256   */\n      swap1\n      pop\n        /* \"#utility.yul\":2185:2262   */\n      swap2\n      swap1\n      pop\n      jump\t// out\n        /* \"#utility.yul\":2268:2390   */\n    tag_226:\n        /* \"#utility.yul\":2341:2365   */\n      tag_264\n        /* \"#utility.yul\":2359:2364   */\n      dup2\n        /* \"#utility.yul\":2341:2365   */\n      tag_225\n      jump\t// in\n    tag_264:\n        /* \"#utility.yul\":2334:2339   */\n      dup2\n        /* \"#utility.yul\":2331:2366   */\n      eq\n        /* \"#utility.yul\":2321:2384   */\n      tag_265\n      jumpi\n        /* \"#utility.yul\":2380:2381   */\n      0x00\n        /* \"#utility.yul\":2377:2378   */\n      dup1\n        /* \"#utility.yul\":2370:2382   */\n      revert\n        /* \"#utility.yul\":2321:2384   */\n    tag_265:\n        /* \"#utility.yul\":2268:2390   */\n      pop\n      jump\t// out\n        /* \"#utility.yul\":2396:2535   */\n    tag_227:\n        /* \"#utility.yul\":2442:2447   */\n      0x00\n        /* \"#utility.yul\":2480:2486   */\n      dup2\n        /* \"#utility.yul\":2467:2487   */\n      calldataload\n        /* \"#utility.yul\":2458:2487   */\n      swap1\n      pop\n        /* \"#utility.yul\":2496:2529   */\n      tag_267\n        /* \"#utility.yul\":2523:2528   */\n      dup2\n        /* \"#utility.yul\":2496:2529   */\n      tag_226\n      jump\t// in\n    tag_267:\n        /* \"#utility.yul\":2396:2535   */\n      swap3\n      swap2\n      pop\n      pop\n      jump\t// out\n        /* \"#utility.yul\":2541:3015   */\n    tag_28:\n        /* \"#utility.yul\":2609:2615   */\n      0x00\n        /* \"#utility.yul\":2617:2623   */\n      dup1\n        /* \"#utility.yul\":2666:2668   */\n      0x40\n        /* \"#utility.yul\":2654:2663   */\n      dup4\n        /* \"#utility.yul\":2645:2652   */\n      dup6\n        /* \"#utility.yul\":2641:2664   */\n      sub\n        /* \"#utility.yul\":2637:2669   */\n      slt\n        /* \"#utility.yul\":2634:2753   */\n      iszero\n      tag_269\n      jumpi\n        /* \"#utility.yul\":2672:2751   */\n      tag_270\n      tag_219\n      jump\t// in\n    tag_270:\n        /* \"#utility.yul\":2634:2753   */\n    tag_269:\n        /* \"#utility.yul\":2792:2793   */\n      0x00\n        /* \"#utility.yul\":2817:2870   */\n      tag_271\n        /* \"#utility.yul\":2862:2869   */\n      dup6\n        /* \"#utility.yul\":2853:2859   */\n      dup3\n        /* \"#utility.yul\":2842:2851   */\n      dup7\n        /* \"#utility.yul\":2838:2860   */\n      add\n        /* \"#utility.yul\":2817:2870   */\n      tag_224\n      jump\t// in\n    tag_271:\n        /* \"#utility.yul\":2807:2870   */\n      swap3\n      pop\n        /* \"#utility.yul\":2763:2880   */\n      pop\n        /* \"#utility.yul\":2919:2921   */\n      0x20\n        /* \"#utility.yul\":2945:2998   */\n      tag_272\n        /* \"#utility.yul\":2990:2997   */\n      dup6\n        /* \"#utility.yul\":2981:2987   */\n      dup3\n        /* \"#utility.yul\":2970:2979   */\n      dup7\n        /* \"#utility.yul\":2966:2988   */\n      add\n        /* \"#utility.yul\":2945:2998   */\n      tag_227\n      jump\t// in\n    tag_272:\n        /* \"#utility.yul\":2935:2998   */\n      swap2\n      pop\n        /* \"#utility.yul\":2890:3008   */\n      pop\n        /* \"#utility.yul\":2541:3015   */\n      swap3\n      pop\n      swap3\n      swap1\n      pop\n      jump\t// out\n        /* \"#utility.yul\":3021:3111   */\n    tag_228:\n        /* \"#utility.yul\":3055:3062   */\n      0x00\n        /* \"#utility.yul\":3098:3103   */\n      dup2\n        /* \"#utility.yul\":3091:3104   */\n      iszero\n        /* \"#utility.yul\":3084:3105   */\n      iszero\n        /* \"#utility.yul\":3073:3105   */\n      swap1\n      pop\n        /* \"#utility.yul\":3021:3111   */\n      swap2\n      swap1\n      pop\n      jump\t// out\n        /* \"#utility.yul\":3117:3226   */\n    tag_229:\n        /* \"#utility.yul\":3198:3219   */\n      tag_275\n        /* \"#utility.yul\":3213:3218   */\n      dup2\n        /* \"#utility.yul\":3198:3219   */\n      tag_228\n      jump\t// in\n    tag_275:\n        /* \"#utility.yul\":3193:3196   */\n      dup3\n        /* \"#utility.yul\":3186:3220   */\n      mstore\n        /* \"#utility.yul\":3117:3226   */\n      pop\n      pop\n      jump\t// out\n        /* \"#utility.yul\":3232:3442   */\n    tag_31:\n        /* \"#utility.yul\":3319:3323   */\n      0x00\n        /* \"#utility.yul\":3357:3359   */\n      0x20\n        /* \"#utility.yul\":3346:3355   */\n      dup3\n        /* \"#utility.yul\":3342:3360   */\n      add\n        /* \"#utility.yul\":3334:3360   */\n      swap1\n      pop\n        /* \"#utility.yul\":3370:3435   */\n      tag_277\n        /* \"#utility.yul\":3432:3433   */\n      0x00\n        /* \"#utility.yul\":3421:3430   */\n      dup4\n        /* \"#utility.yul\":3417:3434   */\n      add\n        /* \"#utility.yul\":3408:3414   */\n      dup5\n        /* \"#utility.yul\":3370:3435   */\n      tag_229\n      jump\t// in\n    tag_277:\n        /* \"#utility.yul\":3232:3442   */\n      swap3\n      swap2\n      pop\n      pop\n      jump\t// out\n        /* \"#utility.yul\":3448:3566   */\n    tag_230:\n        /* \"#utility.yul\":3535:3559   */\n      tag_279\n        /* \"#utility.yul\":3553:3558   */\n      dup2\n        /* \"#utility.yul\":3535:3559   */\n      tag_225\n      jump\t// in\n    tag_279:\n        /* \"#utility.yul\":3530:3533   */\n      dup3\n        /* \"#utility.yul\":3523:3560   */\n      mstore\n        /* \"#utility.yul\":3448:3566   */\n      pop\n      pop\n      jump\t// out\n        /* \"#utility.yul\":3572:3794   */\n    tag_35:\n        /* \"#utility.yul\":3665:3669   */\n      0x00\n        /* \"#utility.yul\":3703:3705   */\n      0x20\n        /* \"#utility.yul\":3692:3701   */\n      dup3\n        /* \"#utility.yul\":3688:3706   */\n      add\n        /* \"#utility.yul\":3680:3706   */\n      swap1\n      pop\n        /* \"#utility.yul\":3716:3787   */\n      tag_281\n        /* \"#utility.yul\":3784:3785   */\n      0x00\n        /* \"#utility.yul\":3773:3782   */\n      dup4\n        /* \"#utility.yul\":3769:3786   */\n      add\n        /* \"#utility.yul\":3760:3766   */\n      dup5\n        /* \"#utility.yul\":3716:3787   */\n      tag_230\n      jump\t// in\n    tag_281:\n        /* \"#utility.yul\":3572:3794   */\n      swap3\n      swap2\n      pop\n      pop\n      jump\t// out\n        /* \"#utility.yul\":3800:4419   */\n    tag_38:\n        /* \"#utility.yul\":3877:3883   */\n      0x00\n        /* \"#utility.yul\":3885:3891   */\n      dup1\n        /* \"#utility.yul\":3893:3899   */\n      0x00\n        /* \"#utility.yul\":3942:3944   */\n      0x60\n        /* \"#utility.yul\":3930:3939   */\n      dup5\n        /* \"#utility.yul\":3921:3928   */\n      dup7\n        /* \"#utility.yul\":3917:3940   */\n      sub\n        /* \"#utility.yul\":3913:3945   */\n      slt\n        /* \"#utility.yul\":3910:4029   */\n      iszero\n      tag_283\n      jumpi\n        /* \"#utility.yul\":3948:4027   */\n      tag_284\n      tag_219\n      jump\t// in\n    tag_284:\n        /* \"#utility.yul\":3910:4029   */\n    tag_283:\n        /* \"#utility.yul\":4068:4069   */\n      0x00\n        /* \"#utility.yul\":4093:4146   */\n      tag_285\n        /* \"#utility.yul\":4138:4145   */\n      dup7\n        /* \"#utility.yul\":4129:4135   */\n      dup3\n        /* \"#utility.yul\":4118:4127   */\n      dup8\n        /* \"#utility.yul\":4114:4136   */\n      add\n        /* \"#utility.yul\":4093:4146   */\n      tag_224\n      jump\t// in\n    tag_285:\n        /* \"#utility.yul\":4083:4146   */\n      swap4\n      pop\n        /* \"#utility.yul\":4039:4156   */\n      pop\n        /* \"#utility.yul\":4195:4197   */\n      0x20\n        /* \"#utility.yul\":4221:4274   */\n      tag_286\n        /* \"#utility.yul\":4266:4273   */\n      dup7\n        /* \"#utility.yul\":4257:4263   */\n      dup3\n        /* \"#utility.yul\":4246:4255   */\n      dup8\n        /* \"#utility.yul\":4242:4264   */\n      add\n        /* \"#utility.yul\":4221:4274   */\n      tag_224\n      jump\t// in\n    tag_286:\n        /* \"#utility.yul\":4211:4274   */\n      swap3\n      pop\n        /* \"#utility.yul\":4166:4284   */\n      pop\n        /* \"#utility.yul\":4323:4325   */\n      0x40\n        /* \"#utility.yul\":4349:4402   */\n      tag_287\n        /* \"#utility.yul\":4394:4401   */\n      dup7\n        /* \"#utility.yul\":4385:4391   */\n      dup3\n        /* \"#utility.yul\":4374:4383   */\n      dup8\n        /* \"#utility.yul\":4370:4392   */\n      add\n        /* \"#utility.yul\":4349:4402   */\n      tag_227\n      jump\t// in\n    tag_287:\n        /* \"#utility.yul\":4339:4402   */\n      swap2\n      pop\n        /* \"#utility.yul\":4294:4412   */\n      pop\n        /* \"#utility.yul\":3800:4419   */\n      swap3\n      pop\n      swap3\n      pop\n      swap3\n      jump\t// out\n        /* \"#utility.yul\":4425:4511   */\n    tag_231:\n        /* \"#utility.yul\":4460:4467   */\n      0x00\n        /* \"#utility.yul\":4500:4504   */\n      0xff\n        /* \"#utility.yul\":4493:4498   */\n      dup3\n        /* \"#utility.yul\":4489:4505   */\n      and\n        /* \"#utility.yul\":4478:4505   */\n      swap1\n      pop\n        /* \"#utility.yul\":4425:4511   */\n      swap2\n      swap1\n      pop\n      jump\t// out\n        /* \"#utility.yul\":4517:4629   */\n    tag_232:\n        /* \"#utility.yul\":4600:4622   */\n      tag_290\n        /* \"#utility.yul\":4616:4621   */\n      dup2\n        /* \"#utility.yul\":4600:4622   */\n      tag_231\n      jump\t// in\n    tag_290:\n        /* \"#utility.yul\":4595:4598   */\n      dup3\n        /* \"#utility.yul\":4588:4623   */\n      mstore\n        /* \"#utility.yul\":4517:4629   */\n      pop\n      pop\n      jump\t// out\n        /* \"#utility.yul\":4635:4849   */\n    tag_44:\n        /* \"#utility.yul\":4724:4728   */\n      0x00\n        /* \"#utility.yul\":4762:4764   */\n      0x20\n        /* \"#utility.yul\":4751:4760   */\n      dup3\n        /* \"#utility.yul\":4747:4765   */\n      add\n        /* \"#utility.yul\":4739:4765   */\n      swap1\n      pop\n        /* \"#utility.yul\":4775:4842   */\n      tag_292\n        /* \"#utility.yul\":4839:4840   */\n      0x00\n        /* \"#utility.yul\":4828:4837   */\n      dup4\n        /* \"#utility.yul\":4824:4841   */\n      add\n        /* \"#utility.yul\":4815:4821   */\n      dup5\n        /* \"#utility.yul\":4775:4842   */\n      tag_232\n      jump\t// in\n    tag_292:\n        /* \"#utility.yul\":4635:4849   */\n      swap3\n      swap2\n      pop\n      pop\n      jump\t// out\n        /* \"#utility.yul\":4855:5184   */\n    tag_55:\n        /* \"#utility.yul\":4914:4920   */\n      0x00\n        /* \"#utility.yul\":4963:4965   */\n      0x20\n        /* \"#utility.yul\":4951:4960   */\n      dup3\n        /* \"#utility.yul\":4942:4949   */\n      dup5\n        /* \"#utility.yul\":4938:4961   */\n      sub\n        /* \"#utility.yul\":4934:4966   */\n      slt\n        /* \"#utility.yul\":4931:5050   */\n      iszero\n      tag_294\n      jumpi\n        /* \"#utility.yul\":4969:5048   */\n      tag_295\n      tag_219\n      jump\t// in\n    tag_295:\n        /* \"#utility.yul\":4931:5050   */\n    tag_294:\n        /* \"#utility.yul\":5089:5090   */\n      0x00\n        /* \"#utility.yul\":5114:5167   */\n      tag_296\n        /* \"#utility.yul\":5159:5166   */\n      dup5\n        /* \"#utility.yul\":5150:5156   */\n      dup3\n        /* \"#utility.yul\":5139:5148   */\n      dup6\n        /* \"#utility.yul\":5135:5157   */\n      add\n        /* \"#utility.yul\":5114:5167   */\n      tag_224\n      jump\t// in\n    tag_296:\n        /* \"#utility.yul\":5104:5167   */\n      swap2\n      pop\n        /* \"#utility.yul\":5060:5177   */\n      pop\n        /* \"#utility.yul\":4855:5184   */\n      swap3\n      swap2\n      pop\n      pop\n      jump\t// out\n        /* \"#utility.yul\":5190:5308   */\n    tag_233:\n        /* \"#utility.yul\":5277:5301   */\n      tag_298\n        /* \"#utility.yul\":5295:5300   */\n      dup2\n        /* \"#utility.yul\":5277:5301   */\n      tag_222\n      jump\t// in\n    tag_298:\n        /* \"#utility.yul\":5272:5275   */\n      dup3\n        /* \"#utility.yul\":5265:5302   */\n      mstore\n        /* \"#utility.yul\":5190:5308   */\n      pop\n      pop\n      jump\t// out\n        /* \"#utility.yul\":5314:5536   */\n    tag_65:\n        /* \"#utility.yul\":5407:5411   */\n      0x00\n        /* \"#utility.yul\":5445:5447   */\n      0x20\n        /* \"#utility.yul\":5434:5443   */\n      dup3\n        /* \"#utility.yul\":5430:5448   */\n      add\n        /* \"#utility.yul\":5422:5448   */\n      swap1\n      pop\n        /* \"#utility.yul\":5458:5529   */\n      tag_300\n        /* \"#utility.yul\":5526:5527   */\n      0x00\n        /* \"#utility.yul\":5515:5524   */\n      dup4\n        /* \"#utility.yul\":5511:5528   */\n      add\n        /* \"#utility.yul\":5502:5508   */\n      dup5\n        /* \"#utility.yul\":5458:5529   */\n      tag_233\n      jump\t// in\n    tag_300:\n        /* \"#utility.yul\":5314:5536   */\n      swap3\n      swap2\n      pop\n      pop\n      jump\t// out\n        /* \"#utility.yul\":5542:6016   */\n    tag_75:\n        /* \"#utility.yul\":5610:5616   */\n      0x00\n        /* \"#utility.yul\":5618:5624   */\n      dup1\n        /* \"#utility.yul\":5667:5669   */\n      0x40\n        /* \"#utility.yul\":5655:5664   */\n      dup4\n        /* \"#utility.yul\":5646:5653   */\n      dup6\n        /* \"#utility.yul\":5642:5665   */\n      sub\n        /* \"#utility.yul\":5638:5670   */\n      slt\n        /* \"#utility.yul\":5635:5754   */\n      iszero\n      tag_302\n      jumpi\n        /* \"#utility.yul\":5673:5752   */\n      tag_303\n      tag_219\n      jump\t// in\n    tag_303:\n        /* \"#utility.yul\":5635:5754   */\n    tag_302:\n        /* \"#utility.yul\":5793:5794   */\n      0x00\n        /* \"#utility.yul\":5818:5871   */\n      tag_304\n        /* \"#utility.yul\":5863:5870   */\n      dup6\n        /* \"#utility.yul\":5854:5860   */\n      dup3\n        /* \"#utility.yul\":5843:5852   */\n      dup7\n        /* \"#utility.yul\":5839:5861   */\n      add\n        /* \"#utility.yul\":5818:5871   */\n      tag_224\n      jump\t// in\n    tag_304:\n        /* \"#utility.yul\":5808:5871   */\n      swap3\n      pop\n        /* \"#utility.yul\":5764:5881   */\n      pop\n        /* \"#utility.yul\":5920:5922   */\n      0x20\n        /* \"#utility.yul\":5946:5999   */\n      tag_305\n        /* \"#utility.yul\":5991:5998   */\n      dup6\n        /* \"#utility.yul\":5982:5988   */\n      dup3\n        /* \"#utility.yul\":5971:5980   */\n      dup7\n        /* \"#utility.yul\":5967:5989   */\n      add\n        /* \"#utility.yul\":5946:5999   */\n      tag_224\n      jump\t// in\n    tag_305:\n        /* \"#utility.yul\":5936:5999   */\n      swap2\n      pop\n        /* \"#utility.yul\":5891:6009   */\n      pop\n        /* \"#utility.yul\":5542:6016   */\n      swap3\n      pop\n      swap3\n      swap1\n      pop\n      jump\t// out\n        /* \"#utility.yul\":6022:6202   */\n    tag_234:\n        /* \"#utility.yul\":6070:6147   */\n      0x4e487b7100000000000000000000000000000000000000000000000000000000\n        /* \"#utility.yul\":6067:6068   */\n      0x00\n        /* \"#utility.yul\":6060:6148   */\n      mstore\n        /* \"#utility.yul\":6167:6171   */\n      0x22\n        /* \"#utility.yul\":6164:6165   */\n      0x04\n        /* \"#utility.yul\":6157:6172   */\n      mstore\n        /* \"#utility.yul\":6191:6195   */\n      0x24\n        /* \"#utility.yul\":6188:6189   */\n      0x00\n        /* \"#utility.yul\":6181:6196   */\n      revert\n        /* \"#utility.yul\":6208:6528   */\n    tag_83:\n        /* \"#utility.yul\":6252:6258   */\n      0x00\n        /* \"#utility.yul\":6289:6290   */\n      0x02\n        /* \"#utility.yul\":6283:6287   */\n      dup3\n        /* \"#utility.yul\":6279:6291   */\n      div\n        /* \"#utility.yul\":6269:6291   */\n      swap1\n      pop\n        /* \"#utility.yul\":6336:6337   */\n      0x01\n        /* \"#utility.yul\":6330:6334   */\n      dup3\n        /* \"#utility.yul\":6326:6338   */\n      and\n        /* \"#utility.yul\":6357:6375   */\n      dup1\n        /* \"#utility.yul\":6347:6428   */\n      tag_308\n      jumpi\n        /* \"#utility.yul\":6413:6417   */\n      0x7f\n        /* \"#utility.yul\":6405:6411   */\n      dup3\n        /* \"#utility.yul\":6401:6418   */\n      and\n        /* \"#utility.yul\":6391:6418   */\n      swap2\n      pop\n        /* \"#utility.yul\":6347:6428   */\n    tag_308:\n        /* \"#utility.yul\":6475:6477   */\n      0x20\n        /* \"#utility.yul\":6467:6473   */\n      dup3\n        /* \"#utility.yul\":6464:6478   */\n      lt\n        /* \"#utility.yul\":6444:6462   */\n      dup2\n        /* \"#utility.yul\":6441:6479   */\n      sub\n        /* \"#utility.yul\":6438:6522   */\n      tag_309\n      jumpi\n        /* \"#utility.yul\":6494:6512   */\n      tag_310\n      tag_234\n      jump\t// in\n    tag_310:\n        /* \"#utility.yul\":6438:6522   */\n    tag_309:\n        /* \"#utility.yul\":6259:6528   */\n      pop\n        /* \"#utility.yul\":6208:6528   */\n      swap2\n      swap1\n      pop\n      jump\t// out\n        /* \"#utility.yul\":6534:6976   */\n    tag_150:\n        /* \"#utility.yul\":6683:6687   */\n      0x00\n        /* \"#utility.yul\":6721:6723   */\n      0x60\n        /* \"#utility.yul\":6710:6719   */\n      dup3\n        /* \"#utility.yul\":6706:6724   */\n      add\n        /* \"#utility.yul\":6698:6724   */\n      swap1\n      pop\n        /* \"#utility.yul\":6734:6805   */\n      tag_312\n        /* \"#utility.yul\":6802:6803   */\n      0x00\n        /* \"#utility.yul\":6791:6800   */\n      dup4\n        /* \"#utility.yul\":6787:6804   */\n      add\n        /* \"#utility.yul\":6778:6784   */\n      dup7\n        /* \"#utility.yul\":6734:6805   */\n      tag_233\n      jump\t// in\n    tag_312:\n        /* \"#utility.yul\":6815:6887   */\n      tag_313\n        /* \"#utility.yul\":6883:6885   */\n      0x20\n        /* \"#utility.yul\":6872:6881   */\n      dup4\n        /* \"#utility.yul\":6868:6886   */\n      add\n        /* \"#utility.yul\":6859:6865   */\n      dup6\n        /* \"#utility.yul\":6815:6887   */\n      tag_230\n      jump\t// in\n    tag_313:\n        /* \"#utility.yul\":6897:6969   */\n      tag_314\n        /* \"#utility.yul\":6965:6967   */\n      0x40\n        /* \"#utility.yul\":6954:6963   */\n      dup4\n        /* \"#utility.yul\":6950:6968   */\n      add\n        /* \"#utility.yul\":6941:6947   */\n      dup5\n        /* \"#utility.yul\":6897:6969   */\n      tag_230\n      jump\t// in\n    tag_314:\n        /* \"#utility.yul\":6534:6976   */\n      swap5\n      swap4\n      pop\n      pop\n      pop\n      pop\n      jump\t// out\n        /* \"#utility.yul\":6982:7162   */\n    tag_235:\n        /* \"#utility.yul\":7030:7107   */\n      0x4e487b7100000000000000000000000000000000000000000000000000000000\n        /* \"#utility.yul\":7027:7028   */\n      0x00\n        /* \"#utility.yul\":7020:7108   */\n      mstore\n        /* \"#utility.yul\":7127:7131   */\n      0x11\n        /* \"#utility.yul\":7124:7125   */\n      0x04\n        /* \"#utility.yul\":7117:7132   */\n      mstore\n        /* \"#utility.yul\":7151:7155   */\n      0x24\n        /* \"#utility.yul\":7148:7149   */\n      0x00\n        /* \"#utility.yul\":7141:7156   */\n      revert\n        /* \"#utility.yul\":7168:7359   */\n    tag_206:\n        /* \"#utility.yul\":7208:7211   */\n      0x00\n        /* \"#utility.yul\":7227:7247   */\n      tag_317\n        /* \"#utility.yul\":7245:7246   */\n      dup3\n        /* \"#utility.yul\":7227:7247   */\n      tag_225\n      jump\t// in\n    tag_317:\n        /* \"#utility.yul\":7222:7247   */\n      swap2\n      pop\n        /* \"#utility.yul\":7261:7281   */\n      tag_318\n        /* \"#utility.yul\":7279:7280   */\n      dup4\n        /* \"#utility.yul\":7261:7281   */\n      tag_225\n      jump\t// in\n    tag_318:\n        /* \"#utility.yul\":7256:7281   */\n      swap3\n      pop\n        /* \"#utility.yul\":7304:7305   */\n      dup3\n        /* \"#utility.yul\":7301:7302   */\n      dup3\n        /* \"#utility.yul\":7297:7306   */\n      add\n        /* \"#utility.yul\":7290:7306   */\n      swap1\n      pop\n        /* \"#utility.yul\":7325:7328   */\n      dup1\n        /* \"#utility.yul\":7322:7323   */\n      dup3\n        /* \"#utility.yul\":7319:7329   */\n      gt\n        /* \"#utility.yul\":7316:7352   */\n      iszero\n      tag_319\n      jumpi\n        /* \"#utility.yul\":7332:7350   */\n      tag_320\n      tag_235\n      jump\t// in\n    tag_320:\n        /* \"#utility.yul\":7316:7352   */\n    tag_319:\n        /* \"#utility.yul\":7168:7359   */\n      swap3\n      swap2\n      pop\n      pop\n      jump\t// out\n\n    auxdata: 0xa2646970667358221220f4174274ac5d1590ecbf94770e2fe823596fccdaed48d3e4c72cf5941fa5c14464736f6c634300081a0033\n}\n",
				"bytecode": {
					"linkReferences": {},
					"object": "608060405234801561001057600080fd5b50604051611fcb380380611fcb833981810160405281019061003291906105f7565b806040518060400160405280600781526020017f544f4b454e5f42000000000000000000000000000000000000000000000000008152506040518060400160405280600381526020017f544b42000000000000000000000000000000000000000000000000000000000081525081600390816100ae9190610887565b5080600490816100be9190610887565b505050600073ffffffffffffffffffffffffffffffffffffffff168173ffffffffffffffffffffffffffffffffffffffff16036101335760006040517f1e4fbdf700000000000000000000000000000000000000000000000000000000815260040161012a9190610968565b60405180910390fd5b6101428161018060201b60201c565b506101798261015561024660201b60201c565b600a6101619190610af2565b614e2061016e9190610b3d565b61024f60201b60201c565b5050610c14565b6000600560019054906101000a900473ffffffffffffffffffffffffffffffffffffffff16905081600560016101000a81548173ffffffffffffffffffffffffffffffffffffffff021916908373ffffffffffffffffffffffffffffffffffffffff1602179055508173ffffffffffffffffffffffffffffffffffffffff168173ffffffffffffffffffffffffffffffffffffffff167f8be0079c531659141344cd1fd0a4f28419497f9722a3daafe3b4186f6b6457e060405160405180910390a35050565b60006012905090565b600073ffffffffffffffffffffffffffffffffffffffff168273ffffffffffffffffffffffffffffffffffffffff16036102c15760006040517fec442f050000000000000000000000000000000000000000000000000000000081526004016102b89190610968565b60405180910390fd5b6102d3600083836102d760201b60201c565b5050565b6102e88383836102ed60201b60201c565b505050565b6102fb61031160201b60201c565b61030c83838361035860201b60201c565b505050565b61031f61057d60201b60201c565b15610356576040517fd93c066500000000000000000000000000000000000000000000000000000000815260040160405180910390fd5b565b600073ffffffffffffffffffffffffffffffffffffffff168373ffffffffffffffffffffffffffffffffffffffff16036103aa57806002600082825461039e9190610b7f565b9250508190555061047d565b60008060008573ffffffffffffffffffffffffffffffffffffffff1673ffffffffffffffffffffffffffffffffffffffff16815260200190815260200160002054905081811015610436578381836040517fe450d38c00000000000000000000000000000000000000000000000000000000815260040161042d93929190610bc2565b60405180910390fd5b8181036000808673ffffffffffffffffffffffffffffffffffffffff1673ffffffffffffffffffffffffffffffffffffffff16815260200190815260200160002081905550505b600073ffffffffffffffffffffffffffffffffffffffff168273ffffffffffffffffffffffffffffffffffffffff16036104c65780600260008282540392505081905550610513565b806000808473ffffffffffffffffffffffffffffffffffffffff1673ffffffffffffffffffffffffffffffffffffffff168152602001908152602001600020600082825401925050819055505b8173ffffffffffffffffffffffffffffffffffffffff168373ffffffffffffffffffffffffffffffffffffffff167fddf252ad1be2c89b69c2b068fc378daa952ba7f163c4a11628f55a4df523b3ef836040516105709190610bf9565b60405180910390a3505050565b6000600560009054906101000a900460ff16905090565b600080fd5b600073ffffffffffffffffffffffffffffffffffffffff82169050919050565b60006105c482610599565b9050919050565b6105d4816105b9565b81146105df57600080fd5b50565b6000815190506105f1816105cb565b92915050565b6000806040838503121561060e5761060d610594565b5b600061061c858286016105e2565b925050602061062d858286016105e2565b9150509250929050565b600081519050919050565b7f4e487b7100000000000000000000000000000000000000000000000000000000600052604160045260246000fd5b7f4e487b7100000000000000000000000000000000000000000000000000000000600052602260045260246000fd5b600060028204905060018216806106b857607f821691505b6020821081036106cb576106ca610671565b5b50919050565b60008190508160005260206000209050919050565b60006020601f8301049050919050565b600082821b905092915050565b6000600883026107337fffffffffffffffffffffffffffffffffffffffffffffffffffffffffffffffff826106f6565b61073d86836106f6565b95508019841693508086168417925050509392505050565b6000819050919050565b6000819050919050565b600061078461077f61077a84610755565b61075f565b610755565b9050919050565b6000819050919050565b61079e83610769565b6107b26107aa8261078b565b848454610703565b825550505050565b600090565b6107c76107ba565b6107d2818484610795565b505050565b5b818110156107f6576107eb6000826107bf565b6001810190506107d8565b5050565b601f82111561083b5761080c816106d1565b610815846106e6565b81016020851015610824578190505b610838610830856106e6565b8301826107d7565b50505b505050565b600082821c905092915050565b600061085e60001984600802610840565b1980831691505092915050565b6000610877838361084d565b9150826002028217905092915050565b61089082610637565b67ffffffffffffffff8111156108a9576108a8610642565b5b6108b382546106a0565b6108be8282856107fa565b600060209050601f8311600181146108f157600084156108df578287015190505b6108e9858261086b565b865550610951565b601f1984166108ff866106d1565b60005b8281101561092757848901518255600182019150602085019450602081019050610902565b868310156109445784890151610940601f89168261084d565b8355505b6001600288020188555050505b505050505050565b610962816105b9565b82525050565b600060208201905061097d6000830184610959565b92915050565b7f4e487b7100000000000000000000000000000000000000000000000000000000600052601160045260246000fd5b60008160011c9050919050565b6000808291508390505b6001851115610a09578086048111156109e5576109e4610983565b5b60018516156109f45780820291505b8081029050610a02856109b2565b94506109c9565b94509492505050565b600082610a225760019050610ade565b81610a305760009050610ade565b8160018114610a465760028114610a5057610a7f565b6001915050610ade565b60ff841115610a6257610a61610983565b5b8360020a915084821115610a7957610a78610983565b5b50610ade565b5060208310610133831016604e8410600b8410161715610ab45782820a905083811115610aaf57610aae610983565b5b610ade565b610ac184848460016109bf565b92509050818404811115610ad857610ad7610983565b5b81810290505b9392505050565b600060ff82169050919050565b6000610afd82610755565b9150610b0883610ae5565b9250610b357fffffffffffffffffffffffffffffffffffffffffffffffffffffffffffffffff8484610a12565b905092915050565b6000610b4882610755565b9150610b5383610755565b9250828202610b6181610755565b91508282048414831517610b7857610b77610983565b5b5092915050565b6000610b8a82610755565b9150610b9583610755565b9250828201905080821115610bad57610bac610983565b5b92915050565b610bbc81610755565b82525050565b6000606082019050610bd76000830186610959565b610be46020830185610bb3565b610bf16040830184610bb3565b949350505050565b6000602082019050610c0e6000830184610bb3565b92915050565b6113a880610c236000396000f3fe608060405234801561001057600080fd5b50600436106101005760003560e01c806370a082311161009757806395d89b411161006657806395d89b4114610265578063a9059cbb14610283578063dd62ed3e146102b3578063f2fde38b146102e357610100565b806370a0823114610203578063715018a6146102335780638456cb591461023d5780638da5cb5b1461024757610100565b8063313ce567116100d3578063313ce567146101a15780633f4ba83a146101bf57806340c10f19146101c95780635c975abb146101e557610100565b806306fdde0314610105578063095ea7b31461012357806318160ddd1461015357806323b872dd14610171575b600080fd5b61010d6102ff565b60405161011a9190610ffc565b60405180910390f35b61013d600480360381019061013891906110b7565b610391565b60405161014a9190611112565b60405180910390f35b61015b6103b4565b604051610168919061113c565b60405180910390f35b61018b60048036038101906101869190611157565b6103be565b6040516101989190611112565b60405180910390f35b6101a96103ed565b6040516101b691906111c6565b60405180910390f35b6101c76103f6565b005b6101e360048036038101906101de91906110b7565b610408565b005b6101ed61041e565b6040516101fa9190611112565b60405180910390f35b61021d600480360381019061021891906111e1565b610435565b60405161022a919061113c565b60405180910390f35b61023b61047d565b005b610245610491565b005b61024f6104a3565b60405161025c919061121d565b60405180910390f35b61026d6104cd565b60405161027a9190610ffc565b60405180910390f35b61029d600480360381019061029891906110b7565b61055f565b6040516102aa9190611112565b60405180910390f35b6102cd60048036038101906102c89190611238565b610582565b6040516102da919061113c565b60405180910390f35b6102fd60048036038101906102f891906111e1565b610609565b005b60606003805461030e906112a7565b80601f016020809104026020016040519081016040528092919081815260200182805461033a906112a7565b80156103875780601f1061035c57610100808354040283529160200191610387565b820191906000526020600020905b81548152906001019060200180831161036a57829003601f168201915b5050505050905090565b60008061039c61068f565b90506103a9818585610697565b600191505092915050565b6000600254905090565b6000806103c961068f565b90506103d68582856106a9565b6103e185858561073e565b60019150509392505050565b60006012905090565b6103fe610832565b6104066108b9565b565b610410610832565b61041a828261091c565b5050565b6000600560009054906101000a900460ff16905090565b60008060008373ffffffffffffffffffffffffffffffffffffffff1673ffffffffffffffffffffffffffffffffffffffff168152602001908152602001600020549050919050565b610485610832565b61048f600061099e565b565b610499610832565b6104a1610a64565b565b6000600560019054906101000a900473ffffffffffffffffffffffffffffffffffffffff16905090565b6060600480546104dc906112a7565b80601f0160208091040260200160405190810160405280929190818152602001828054610508906112a7565b80156105555780601f1061052a57610100808354040283529160200191610555565b820191906000526020600020905b81548152906001019060200180831161053857829003601f168201915b5050505050905090565b60008061056a61068f565b905061057781858561073e565b600191505092915050565b6000600160008473ffffffffffffffffffffffffffffffffffffffff1673ffffffffffffffffffffffffffffffffffffffff16815260200190815260200160002060008373ffffffffffffffffffffffffffffffffffffffff1673ffffffffffffffffffffffffffffffffffffffff16815260200190815260200160002054905092915050565b610611610832565b600073ffffffffffffffffffffffffffffffffffffffff168173ffffffffffffffffffffffffffffffffffffffff16036106835760006040517f1e4fbdf700000000000000000000000000000000000000000000000000000000815260040161067a919061121d565b60405180910390fd5b61068c8161099e565b50565b600033905090565b6106a48383836001610ac7565b505050565b60006106b58484610582565b90507fffffffffffffffffffffffffffffffffffffffffffffffffffffffffffffffff8110156107385781811015610728578281836040517ffb8f41b200000000000000000000000000000000000000000000000000000000815260040161071f939291906112d8565b60405180910390fd5b61073784848484036000610ac7565b5b50505050565b600073ffffffffffffffffffffffffffffffffffffffff168373ffffffffffffffffffffffffffffffffffffffff16036107b05760006040517f96c6fd1e0000000000000000000000000000000000000000000000000000000081526004016107a7919061121d565b60405180910390fd5b600073ffffffffffffffffffffffffffffffffffffffff168273ffffffffffffffffffffffffffffffffffffffff16036108225760006040517fec442f05000000000000000000000000000000000000000000000000000000008152600401610819919061121d565b60405180910390fd5b61082d838383610c9e565b505050565b61083a61068f565b73ffffffffffffffffffffffffffffffffffffffff166108586104a3565b73ffffffffffffffffffffffffffffffffffffffff16146108b75761087b61068f565b6040517f118cdaa70000000000000000000000000000000000000000000000000000000081526004016108ae919061121d565b60405180910390fd5b565b6108c1610cae565b6000600560006101000a81548160ff0219169083151502179055507f5db9ee0a495bf2e6ff9c91a7834c1ba4fdd244a5e8aa4e537bd38aeae4b073aa61090561068f565b604051610912919061121d565b60405180910390a1565b600073ffffffffffffffffffffffffffffffffffffffff168273ffffffffffffffffffffffffffffffffffffffff160361098e5760006040517fec442f05000000000000000000000000000000000000000000000000000000008152600401610985919061121d565b60405180910390fd5b61099a60008383610c9e565b5050565b6000600560019054906101000a900473ffffffffffffffffffffffffffffffffffffffff16905081600560016101000a81548173ffffffffffffffffffffffffffffffffffffffff021916908373ffffffffffffffffffffffffffffffffffffffff1602179055508173ffffffffffffffffffffffffffffffffffffffff168173ffffffffffffffffffffffffffffffffffffffff167f8be0079c531659141344cd1fd0a4f28419497f9722a3daafe3b4186f6b6457e060405160405180910390a35050565b610a6c610cee565b6001600560006101000a81548160ff0219169083151502179055507f62e78cea01bee320cd4e420270b5ea74000d11b0c9f74754ebdbfc544b05a258610ab061068f565b604051610abd919061121d565b60405180910390a1565b600073ffffffffffffffffffffffffffffffffffffffff168473ffffffffffffffffffffffffffffffffffffffff1603610b395760006040517fe602df05000000000000000000000000000000000000000000000000000000008152600401610b30919061121d565b60405180910390fd5b600073ffffffffffffffffffffffffffffffffffffffff168373ffffffffffffffffffffffffffffffffffffffff1603610bab5760006040517f94280d62000000000000000000000000000000000000000000000000000000008152600401610ba2919061121d565b60405180910390fd5b81600160008673ffffffffffffffffffffffffffffffffffffffff1673ffffffffffffffffffffffffffffffffffffffff16815260200190815260200160002060008573ffffffffffffffffffffffffffffffffffffffff1673ffffffffffffffffffffffffffffffffffffffff168152602001908152602001600020819055508015610c98578273ffffffffffffffffffffffffffffffffffffffff168473ffffffffffffffffffffffffffffffffffffffff167f8c5be1e5ebec7d5bd14f71427d1e84f3dd0314c0f7b2291e5b200ac8c7c3b92584604051610c8f919061113c565b60405180910390a35b50505050565b610ca9838383610d2f565b505050565b610cb661041e565b610cec576040517f8dfc202b00000000000000000000000000000000000000000000000000000000815260040160405180910390fd5b565b610cf661041e565b15610d2d576040517fd93c066500000000000000000000000000000000000000000000000000000000815260040160405180910390fd5b565b610d37610cee565b610d42838383610d47565b505050565b600073ffffffffffffffffffffffffffffffffffffffff168373ffffffffffffffffffffffffffffffffffffffff1603610d99578060026000828254610d8d919061133e565b92505081905550610e6c565b60008060008573ffffffffffffffffffffffffffffffffffffffff1673ffffffffffffffffffffffffffffffffffffffff16815260200190815260200160002054905081811015610e25578381836040517fe450d38c000000000000000000000000000000000000000000000000000000008152600401610e1c939291906112d8565b60405180910390fd5b8181036000808673ffffffffffffffffffffffffffffffffffffffff1673ffffffffffffffffffffffffffffffffffffffff16815260200190815260200160002081905550505b600073ffffffffffffffffffffffffffffffffffffffff168273ffffffffffffffffffffffffffffffffffffffff1603610eb55780600260008282540392505081905550610f02565b806000808473ffffffffffffffffffffffffffffffffffffffff1673ffffffffffffffffffffffffffffffffffffffff168152602001908152602001600020600082825401925050819055505b8173ffffffffffffffffffffffffffffffffffffffff168373ffffffffffffffffffffffffffffffffffffffff167fddf252ad1be2c89b69c2b068fc378daa952ba7f163c4a11628f55a4df523b3ef83604051610f5f919061113c565b60405180910390a3505050565b600081519050919050565b600082825260208201905092915050565b60005b83811015610fa6578082015181840152602081019050610f8b565b60008484015250505050565b6000601f19601f8301169050919050565b6000610fce82610f6c565b610fd88185610f77565b9350610fe8818560208601610f88565b610ff181610fb2565b840191505092915050565b600060208201905081810360008301526110168184610fc3565b905092915050565b600080fd5b600073ffffffffffffffffffffffffffffffffffffffff82169050919050565b600061104e82611023565b9050919050565b61105e81611043565b811461106957600080fd5b50565b60008135905061107b81611055565b92915050565b6000819050919050565b61109481611081565b811461109f57600080fd5b50565b6000813590506110b18161108b565b92915050565b600080604083850312156110ce576110cd61101e565b5b60006110dc8582860161106c565b92505060206110ed858286016110a2565b9150509250929050565b60008115159050919050565b61110c816110f7565b82525050565b60006020820190506111276000830184611103565b92915050565b61113681611081565b82525050565b6000602082019050611151600083018461112d565b92915050565b6000806000606084860312156111705761116f61101e565b5b600061117e8682870161106c565b935050602061118f8682870161106c565b92505060406111a0868287016110a2565b9150509250925092565b600060ff82169050919050565b6111c0816111aa565b82525050565b60006020820190506111db60008301846111b7565b92915050565b6000602082840312156111f7576111f661101e565b5b60006112058482850161106c565b91505092915050565b61121781611043565b82525050565b6000602082019050611232600083018461120e565b92915050565b6000806040838503121561124f5761124e61101e565b5b600061125d8582860161106c565b925050602061126e8582860161106c565b9150509250929050565b7f4e487b7100000000000000000000000000000000000000000000000000000000600052602260045260246000fd5b600060028204905060018216806112bf57607f821691505b6020821081036112d2576112d1611278565b5b50919050565b60006060820190506112ed600083018661120e565b6112fa602083018561112d565b611307604083018461112d565b949350505050565b7f4e487b7100000000000000000000000000000000000000000000000000000000600052601160045260246000fd5b600061134982611081565b915061135483611081565b925082820190508082111561136c5761136b61130f565b5b9291505056fea2646970667358221220f4174274ac5d1590ecbf94770e2fe823596fccdaed48d3e4c72cf5941fa5c14464736f6c634300081a0033",
					"opcodes": "PUSH1 0x80 PUSH1 0x40 MSTORE CALLVALUE DUP1 ISZERO PUSH2 0x10 JUMPI PUSH1 0x0 DUP1 REVERT JUMPDEST POP PUSH1 0x40 MLOAD PUSH2 0x1FCB CODESIZE SUB DUP1 PUSH2 0x1FCB DUP4 CODECOPY DUP2 DUP2 ADD PUSH1 0x40 MSTORE DUP2 ADD SWAP1 PUSH2 0x32 SWAP2 SWAP1 PUSH2 0x5F7 JUMP JUMPDEST DUP1 PUSH1 0x40 MLOAD DUP1 PUSH1 0x40 ADD PUSH1 0x40 MSTORE DUP1 PUSH1 0x7 DUP2 MSTORE PUSH1 0x20 ADD PUSH32 0x544F4B454E5F4200000000000000000000000000000000000000000000000000 DUP2 MSTORE POP PUSH1 0x40 MLOAD DUP1 PUSH1 0x40 ADD PUSH1 0x40 MSTORE DUP1 PUSH1 0x3 DUP2 MSTORE PUSH1 0x20 ADD PUSH32 0x544B420000000000000000000000000000000000000000000000000000000000 DUP2 MSTORE POP DUP2 PUSH1 0x3 SWAP1 DUP2 PUSH2 0xAE SWAP2 SWAP1 PUSH2 0x887 JUMP JUMPDEST POP DUP1 PUSH1 0x4 SWAP1 DUP2 PUSH2 0xBE SWAP2 SWAP1 PUSH2 0x887 JUMP JUMPDEST POP POP POP PUSH1 0x0 PUSH20 0xFFFFFFFFFFFFFFFFFFFFFFFFFFFFFFFFFFFFFFFF AND DUP2 PUSH20 0xFFFFFFFFFFFFFFFFFFFFFFFFFFFFFFFFFFFFFFFF AND SUB PUSH2 0x133 JUMPI PUSH1 0x0 PUSH1 0x40 MLOAD PUSH32 0x1E4FBDF700000000000000000000000000000000000000000000000000000000 DUP2 MSTORE PUSH1 0x4 ADD PUSH2 0x12A SWAP2 SWAP1 PUSH2 0x968 JUMP JUMPDEST PUSH1 0x40 MLOAD DUP1 SWAP2 SUB SWAP1 REVERT JUMPDEST PUSH2 0x142 DUP2 PUSH2 0x180 PUSH1 0x20 SHL PUSH1 0x20 SHR JUMP JUMPDEST POP PUSH2 0x179 DUP3 PUSH2 0x155 PUSH2 0x246 PUSH1 0x20 SHL PUSH1 0x20 SHR JUMP JUMPDEST PUSH1 0xA PUSH2 0x161 SWAP2 SWAP1 PUSH2 0xAF2 JUMP JUMPDEST PUSH2 0x4E20 PUSH2 0x16E SWAP2 SWAP1 PUSH2 0xB3D JUMP JUMPDEST PUSH2 0x24F PUSH1 0x20 SHL PUSH1 0x20 SHR JUMP JUMPDEST POP POP PUSH2 0xC14 JUMP JUMPDEST PUSH1 0x0 PUSH1 0x5 PUSH1 0x1 SWAP1 SLOAD SWAP1 PUSH2 0x100 EXP SWAP1 DIV PUSH20 0xFFFFFFFFFFFFFFFFFFFFFFFFFFFFFFFFFFFFFFFF AND SWAP1 POP DUP2 PUSH1 0x5 PUSH1 0x1 PUSH2 0x100 EXP DUP2 SLOAD DUP2 PUSH20 0xFFFFFFFFFFFFFFFFFFFFFFFFFFFFFFFFFFFFFFFF MUL NOT AND SWAP1 DUP4 PUSH20 0xFFFFFFFFFFFFFFFFFFFFFFFFFFFFFFFFFFFFFFFF AND MUL OR SWAP1 SSTORE POP DUP2 PUSH20 0xFFFFFFFFFFFFFFFFFFFFFFFFFFFFFFFFFFFFFFFF AND DUP2 PUSH20 0xFFFFFFFFFFFFFFFFFFFFFFFFFFFFFFFFFFFFFFFF AND PUSH32 0x8BE0079C531659141344CD1FD0A4F28419497F9722A3DAAFE3B4186F6B6457E0 PUSH1 0x40 MLOAD PUSH1 0x40 MLOAD DUP1 SWAP2 SUB SWAP1 LOG3 POP POP JUMP JUMPDEST PUSH1 0x0 PUSH1 0x12 SWAP1 POP SWAP1 JUMP JUMPDEST PUSH1 0x0 PUSH20 0xFFFFFFFFFFFFFFFFFFFFFFFFFFFFFFFFFFFFFFFF AND DUP3 PUSH20 0xFFFFFFFFFFFFFFFFFFFFFFFFFFFFFFFFFFFFFFFF AND SUB PUSH2 0x2C1 JUMPI PUSH1 0x0 PUSH1 0x40 MLOAD PUSH32 0xEC442F0500000000000000000000000000000000000000000000000000000000 DUP2 MSTORE PUSH1 0x4 ADD PUSH2 0x2B8 SWAP2 SWAP1 PUSH2 0x968 JUMP JUMPDEST PUSH1 0x40 MLOAD DUP1 SWAP2 SUB SWAP1 REVERT JUMPDEST PUSH2 0x2D3 PUSH1 0x0 DUP4 DUP4 PUSH2 0x2D7 PUSH1 0x20 SHL PUSH1 0x20 SHR JUMP JUMPDEST POP POP JUMP JUMPDEST PUSH2 0x2E8 DUP4 DUP4 DUP4 PUSH2 0x2ED PUSH1 0x20 SHL PUSH1 0x20 SHR JUMP JUMPDEST POP POP POP JUMP JUMPDEST PUSH2 0x2FB PUSH2 0x311 PUSH1 0x20 SHL PUSH1 0x20 SHR JUMP JUMPDEST PUSH2 0x30C DUP4 DUP4 DUP4 PUSH2 0x358 PUSH1 0x20 SHL PUSH1 0x20 SHR JUMP JUMPDEST POP POP POP JUMP JUMPDEST PUSH2 0x31F PUSH2 0x57D PUSH1 0x20 SHL PUSH1 0x20 SHR JUMP JUMPDEST ISZERO PUSH2 0x356 JUMPI PUSH1 0x40 MLOAD PUSH32 0xD93C066500000000000000000000000000000000000000000000000000000000 DUP2 MSTORE PUSH1 0x4 ADD PUSH1 0x40 MLOAD DUP1 SWAP2 SUB SWAP1 REVERT JUMPDEST JUMP JUMPDEST PUSH1 0x0 PUSH20 0xFFFFFFFFFFFFFFFFFFFFFFFFFFFFFFFFFFFFFFFF AND DUP4 PUSH20 0xFFFFFFFFFFFFFFFFFFFFFFFFFFFFFFFFFFFFFFFF AND SUB PUSH2 0x3AA JUMPI DUP1 PUSH1 0x2 PUSH1 0x0 DUP3 DUP3 SLOAD PUSH2 0x39E SWAP2 SWAP1 PUSH2 0xB7F JUMP JUMPDEST SWAP3 POP POP DUP2 SWAP1 SSTORE POP PUSH2 0x47D JUMP JUMPDEST PUSH1 0x0 DUP1 PUSH1 0x0 DUP6 PUSH20 0xFFFFFFFFFFFFFFFFFFFFFFFFFFFFFFFFFFFFFFFF AND PUSH20 0xFFFFFFFFFFFFFFFFFFFFFFFFFFFFFFFFFFFFFFFF AND DUP2 MSTORE PUSH1 0x20 ADD SWAP1 DUP2 MSTORE PUSH1 0x20 ADD PUSH1 0x0 KECCAK256 SLOAD SWAP1 POP DUP2 DUP2 LT ISZERO PUSH2 0x436 JUMPI DUP4 DUP2 DUP4 PUSH1 0x40 MLOAD PUSH32 0xE450D38C00000000000000000000000000000000000000000000000000000000 DUP2 MSTORE PUSH1 0x4 ADD PUSH2 0x42D SWAP4 SWAP3 SWAP2 SWAP1 PUSH2 0xBC2 JUMP JUMPDEST PUSH1 0x40 MLOAD DUP1 SWAP2 SUB SWAP1 REVERT JUMPDEST DUP2 DUP2 SUB PUSH1 0x0 DUP1 DUP7 PUSH20 0xFFFFFFFFFFFFFFFFFFFFFFFFFFFFFFFFFFFFFFFF AND PUSH20 0xFFFFFFFFFFFFFFFFFFFFFFFFFFFFFFFFFFFFFFFF AND DUP2 MSTORE PUSH1 0x20 ADD SWAP1 DUP2 MSTORE PUSH1 0x20 ADD PUSH1 0x0 KECCAK256 DUP2 SWAP1 SSTORE POP POP JUMPDEST PUSH1 0x0 PUSH20 0xFFFFFFFFFFFFFFFFFFFFFFFFFFFFFFFFFFFFFFFF AND DUP3 PUSH20 0xFFFFFFFFFFFFFFFFFFFFFFFFFFFFFFFFFFFFFFFF AND SUB PUSH2 0x4C6 JUMPI DUP1 PUSH1 0x2 PUSH1 0x0 DUP3 DUP3 SLOAD SUB SWAP3 POP POP DUP2 SWAP1 SSTORE POP PUSH2 0x513 JUMP JUMPDEST DUP1 PUSH1 0x0 DUP1 DUP5 PUSH20 0xFFFFFFFFFFFFFFFFFFFFFFFFFFFFFFFFFFFFFFFF AND PUSH20 0xFFFFFFFFFFFFFFFFFFFFFFFFFFFFFFFFFFFFFFFF AND DUP2 MSTORE PUSH1 0x20 ADD SWAP1 DUP2 MSTORE PUSH1 0x20 ADD PUSH1 0x0 KECCAK256 PUSH1 0x0 DUP3 DUP3 SLOAD ADD SWAP3 POP POP DUP2 SWAP1 SSTORE POP JUMPDEST DUP2 PUSH20 0xFFFFFFFFFFFFFFFFFFFFFFFFFFFFFFFFFFFFFFFF AND DUP4 PUSH20 0xFFFFFFFFFFFFFFFFFFFFFFFFFFFFFFFFFFFFFFFF AND PUSH32 0xDDF252AD1BE2C89B69C2B068FC378DAA952BA7F163C4A11628F55A4DF523B3EF DUP4 PUSH1 0x40 MLOAD PUSH2 0x570 SWAP2 SWAP1 PUSH2 0xBF9 JUMP JUMPDEST PUSH1 0x40 MLOAD DUP1 SWAP2 SUB SWAP1 LOG3 POP POP POP JUMP JUMPDEST PUSH1 0x0 PUSH1 0x5 PUSH1 0x0 SWAP1 SLOAD SWAP1 PUSH2 0x100 EXP SWAP1 DIV PUSH1 0xFF AND SWAP1 POP SWAP1 JUMP JUMPDEST PUSH1 0x0 DUP1 REVERT JUMPDEST PUSH1 0x0 PUSH20 0xFFFFFFFFFFFFFFFFFFFFFFFFFFFFFFFFFFFFFFFF DUP3 AND SWAP1 POP SWAP2 SWAP1 POP JUMP JUMPDEST PUSH1 0x0 PUSH2 0x5C4 DUP3 PUSH2 0x599 JUMP JUMPDEST SWAP1 POP SWAP2 SWAP1 POP JUMP JUMPDEST PUSH2 0x5D4 DUP2 PUSH2 0x5B9 JUMP JUMPDEST DUP2 EQ PUSH2 0x5DF JUMPI PUSH1 0x0 DUP1 REVERT JUMPDEST POP JUMP JUMPDEST PUSH1 0x0 DUP2 MLOAD SWAP1 POP PUSH2 0x5F1 DUP2 PUSH2 0x5CB JUMP JUMPDEST SWAP3 SWAP2 POP POP JUMP JUMPDEST PUSH1 0x0 DUP1 PUSH1 0x40 DUP4 DUP6 SUB SLT ISZERO PUSH2 0x60E JUMPI PUSH2 0x60D PUSH2 0x594 JUMP JUMPDEST JUMPDEST PUSH1 0x0 PUSH2 0x61C DUP6 DUP3 DUP7 ADD PUSH2 0x5E2 JUMP JUMPDEST SWAP3 POP POP PUSH1 0x20 PUSH2 0x62D DUP6 DUP3 DUP7 ADD PUSH2 0x5E2 JUMP JUMPDEST SWAP2 POP POP SWAP3 POP SWAP3 SWAP1 POP JUMP JUMPDEST PUSH1 0x0 DUP2 MLOAD SWAP1 POP SWAP2 SWAP1 POP JUMP JUMPDEST PUSH32 0x4E487B7100000000000000000000000000000000000000000000000000000000 PUSH1 0x0 MSTORE PUSH1 0x41 PUSH1 0x4 MSTORE PUSH1 0x24 PUSH1 0x0 REVERT JUMPDEST PUSH32 0x4E487B7100000000000000000000000000000000000000000000000000000000 PUSH1 0x0 MSTORE PUSH1 0x22 PUSH1 0x4 MSTORE PUSH1 0x24 PUSH1 0x0 REVERT JUMPDEST PUSH1 0x0 PUSH1 0x2 DUP3 DIV SWAP1 POP PUSH1 0x1 DUP3 AND DUP1 PUSH2 0x6B8 JUMPI PUSH1 0x7F DUP3 AND SWAP2 POP JUMPDEST PUSH1 0x20 DUP3 LT DUP2 SUB PUSH2 0x6CB JUMPI PUSH2 0x6CA PUSH2 0x671 JUMP JUMPDEST JUMPDEST POP SWAP2 SWAP1 POP JUMP JUMPDEST PUSH1 0x0 DUP2 SWAP1 POP DUP2 PUSH1 0x0 MSTORE PUSH1 0x20 PUSH1 0x0 KECCAK256 SWAP1 POP SWAP2 SWAP1 POP JUMP JUMPDEST PUSH1 0x0 PUSH1 0x20 PUSH1 0x1F DUP4 ADD DIV SWAP1 POP SWAP2 SWAP1 POP JUMP JUMPDEST PUSH1 0x0 DUP3 DUP3 SHL SWAP1 POP SWAP3 SWAP2 POP POP JUMP JUMPDEST PUSH1 0x0 PUSH1 0x8 DUP4 MUL PUSH2 0x733 PUSH32 0xFFFFFFFFFFFFFFFFFFFFFFFFFFFFFFFFFFFFFFFFFFFFFFFFFFFFFFFFFFFFFFFF DUP3 PUSH2 0x6F6 JUMP JUMPDEST PUSH2 0x73D DUP7 DUP4 PUSH2 0x6F6 JUMP JUMPDEST SWAP6 POP DUP1 NOT DUP5 AND SWAP4 POP DUP1 DUP7 AND DUP5 OR SWAP3 POP POP POP SWAP4 SWAP3 POP POP POP JUMP JUMPDEST PUSH1 0x0 DUP2 SWAP1 POP SWAP2 SWAP1 POP JUMP JUMPDEST PUSH1 0x0 DUP2 SWAP1 POP SWAP2 SWAP1 POP JUMP JUMPDEST PUSH1 0x0 PUSH2 0x784 PUSH2 0x77F PUSH2 0x77A DUP5 PUSH2 0x755 JUMP JUMPDEST PUSH2 0x75F JUMP JUMPDEST PUSH2 0x755 JUMP JUMPDEST SWAP1 POP SWAP2 SWAP1 POP JUMP JUMPDEST PUSH1 0x0 DUP2 SWAP1 POP SWAP2 SWAP1 POP JUMP JUMPDEST PUSH2 0x79E DUP4 PUSH2 0x769 JUMP JUMPDEST PUSH2 0x7B2 PUSH2 0x7AA DUP3 PUSH2 0x78B JUMP JUMPDEST DUP5 DUP5 SLOAD PUSH2 0x703 JUMP JUMPDEST DUP3 SSTORE POP POP POP POP JUMP JUMPDEST PUSH1 0x0 SWAP1 JUMP JUMPDEST PUSH2 0x7C7 PUSH2 0x7BA JUMP JUMPDEST PUSH2 0x7D2 DUP2 DUP5 DUP5 PUSH2 0x795 JUMP JUMPDEST POP POP POP JUMP JUMPDEST JUMPDEST DUP2 DUP2 LT ISZERO PUSH2 0x7F6 JUMPI PUSH2 0x7EB PUSH1 0x0 DUP3 PUSH2 0x7BF JUMP JUMPDEST PUSH1 0x1 DUP2 ADD SWAP1 POP PUSH2 0x7D8 JUMP JUMPDEST POP POP JUMP JUMPDEST PUSH1 0x1F DUP3 GT ISZERO PUSH2 0x83B JUMPI PUSH2 0x80C DUP2 PUSH2 0x6D1 JUMP JUMPDEST PUSH2 0x815 DUP5 PUSH2 0x6E6 JUMP JUMPDEST DUP2 ADD PUSH1 0x20 DUP6 LT ISZERO PUSH2 0x824 JUMPI DUP2 SWAP1 POP JUMPDEST PUSH2 0x838 PUSH2 0x830 DUP6 PUSH2 0x6E6 JUMP JUMPDEST DUP4 ADD DUP3 PUSH2 0x7D7 JUMP JUMPDEST POP POP JUMPDEST POP POP POP JUMP JUMPDEST PUSH1 0x0 DUP3 DUP3 SHR SWAP1 POP SWAP3 SWAP2 POP POP JUMP JUMPDEST PUSH1 0x0 PUSH2 0x85E PUSH1 0x0 NOT DUP5 PUSH1 0x8 MUL PUSH2 0x840 JUMP JUMPDEST NOT DUP1 DUP4 AND SWAP2 POP POP SWAP3 SWAP2 POP POP JUMP JUMPDEST PUSH1 0x0 PUSH2 0x877 DUP4 DUP4 PUSH2 0x84D JUMP JUMPDEST SWAP2 POP DUP3 PUSH1 0x2 MUL DUP3 OR SWAP1 POP SWAP3 SWAP2 POP POP JUMP JUMPDEST PUSH2 0x890 DUP3 PUSH2 0x637 JUMP JUMPDEST PUSH8 0xFFFFFFFFFFFFFFFF DUP2 GT ISZERO PUSH2 0x8A9 JUMPI PUSH2 0x8A8 PUSH2 0x642 JUMP JUMPDEST JUMPDEST PUSH2 0x8B3 DUP3 SLOAD PUSH2 0x6A0 JUMP JUMPDEST PUSH2 0x8BE DUP3 DUP3 DUP6 PUSH2 0x7FA JUMP JUMPDEST PUSH1 0x0 PUSH1 0x20 SWAP1 POP PUSH1 0x1F DUP4 GT PUSH1 0x1 DUP2 EQ PUSH2 0x8F1 JUMPI PUSH1 0x0 DUP5 ISZERO PUSH2 0x8DF JUMPI DUP3 DUP8 ADD MLOAD SWAP1 POP JUMPDEST PUSH2 0x8E9 DUP6 DUP3 PUSH2 0x86B JUMP JUMPDEST DUP7 SSTORE POP PUSH2 0x951 JUMP JUMPDEST PUSH1 0x1F NOT DUP5 AND PUSH2 0x8FF DUP7 PUSH2 0x6D1 JUMP JUMPDEST PUSH1 0x0 JUMPDEST DUP3 DUP2 LT ISZERO PUSH2 0x927 JUMPI DUP5 DUP10 ADD MLOAD DUP3 SSTORE PUSH1 0x1 DUP3 ADD SWAP2 POP PUSH1 0x20 DUP6 ADD SWAP5 POP PUSH1 0x20 DUP2 ADD SWAP1 POP PUSH2 0x902 JUMP JUMPDEST DUP7 DUP4 LT ISZERO PUSH2 0x944 JUMPI DUP5 DUP10 ADD MLOAD PUSH2 0x940 PUSH1 0x1F DUP10 AND DUP3 PUSH2 0x84D JUMP JUMPDEST DUP4 SSTORE POP JUMPDEST PUSH1 0x1 PUSH1 0x2 DUP9 MUL ADD DUP9 SSTORE POP POP POP JUMPDEST POP POP POP POP POP POP JUMP JUMPDEST PUSH2 0x962 DUP2 PUSH2 0x5B9 JUMP JUMPDEST DUP3 MSTORE POP POP JUMP JUMPDEST PUSH1 0x0 PUSH1 0x20 DUP3 ADD SWAP1 POP PUSH2 0x97D PUSH1 0x0 DUP4 ADD DUP5 PUSH2 0x959 JUMP JUMPDEST SWAP3 SWAP2 POP POP JUMP JUMPDEST PUSH32 0x4E487B7100000000000000000000000000000000000000000000000000000000 PUSH1 0x0 MSTORE PUSH1 0x11 PUSH1 0x4 MSTORE PUSH1 0x24 PUSH1 0x0 REVERT JUMPDEST PUSH1 0x0 DUP2 PUSH1 0x1 SHR SWAP1 POP SWAP2 SWAP1 POP JUMP JUMPDEST PUSH1 0x0 DUP1 DUP3 SWAP2 POP DUP4 SWAP1 POP JUMPDEST PUSH1 0x1 DUP6 GT ISZERO PUSH2 0xA09 JUMPI DUP1 DUP7 DIV DUP2 GT ISZERO PUSH2 0x9E5 JUMPI PUSH2 0x9E4 PUSH2 0x983 JUMP JUMPDEST JUMPDEST PUSH1 0x1 DUP6 AND ISZERO PUSH2 0x9F4 JUMPI DUP1 DUP3 MUL SWAP2 POP JUMPDEST DUP1 DUP2 MUL SWAP1 POP PUSH2 0xA02 DUP6 PUSH2 0x9B2 JUMP JUMPDEST SWAP5 POP PUSH2 0x9C9 JUMP JUMPDEST SWAP5 POP SWAP5 SWAP3 POP POP POP JUMP JUMPDEST PUSH1 0x0 DUP3 PUSH2 0xA22 JUMPI PUSH1 0x1 SWAP1 POP PUSH2 0xADE JUMP JUMPDEST DUP2 PUSH2 0xA30 JUMPI PUSH1 0x0 SWAP1 POP PUSH2 0xADE JUMP JUMPDEST DUP2 PUSH1 0x1 DUP2 EQ PUSH2 0xA46 JUMPI PUSH1 0x2 DUP2 EQ PUSH2 0xA50 JUMPI PUSH2 0xA7F JUMP JUMPDEST PUSH1 0x1 SWAP2 POP POP PUSH2 0xADE JUMP JUMPDEST PUSH1 0xFF DUP5 GT ISZERO PUSH2 0xA62 JUMPI PUSH2 0xA61 PUSH2 0x983 JUMP JUMPDEST JUMPDEST DUP4 PUSH1 0x2 EXP SWAP2 POP DUP5 DUP3 GT ISZERO PUSH2 0xA79 JUMPI PUSH2 0xA78 PUSH2 0x983 JUMP JUMPDEST JUMPDEST POP PUSH2 0xADE JUMP JUMPDEST POP PUSH1 0x20 DUP4 LT PUSH2 0x133 DUP4 LT AND PUSH1 0x4E DUP5 LT PUSH1 0xB DUP5 LT AND OR ISZERO PUSH2 0xAB4 JUMPI DUP3 DUP3 EXP SWAP1 POP DUP4 DUP2 GT ISZERO PUSH2 0xAAF JUMPI PUSH2 0xAAE PUSH2 0x983 JUMP JUMPDEST JUMPDEST PUSH2 0xADE JUMP JUMPDEST PUSH2 0xAC1 DUP5 DUP5 DUP5 PUSH1 0x1 PUSH2 0x9BF JUMP JUMPDEST SWAP3 POP SWAP1 POP DUP2 DUP5 DIV DUP2 GT ISZERO PUSH2 0xAD8 JUMPI PUSH2 0xAD7 PUSH2 0x983 JUMP JUMPDEST JUMPDEST DUP2 DUP2 MUL SWAP1 POP JUMPDEST SWAP4 SWAP3 POP POP POP JUMP JUMPDEST PUSH1 0x0 PUSH1 0xFF DUP3 AND SWAP1 POP SWAP2 SWAP1 POP JUMP JUMPDEST PUSH1 0x0 PUSH2 0xAFD DUP3 PUSH2 0x755 JUMP JUMPDEST SWAP2 POP PUSH2 0xB08 DUP4 PUSH2 0xAE5 JUMP JUMPDEST SWAP3 POP PUSH2 0xB35 PUSH32 0xFFFFFFFFFFFFFFFFFFFFFFFFFFFFFFFFFFFFFFFFFFFFFFFFFFFFFFFFFFFFFFFF DUP5 DUP5 PUSH2 0xA12 JUMP JUMPDEST SWAP1 POP SWAP3 SWAP2 POP POP JUMP JUMPDEST PUSH1 0x0 PUSH2 0xB48 DUP3 PUSH2 0x755 JUMP JUMPDEST SWAP2 POP PUSH2 0xB53 DUP4 PUSH2 0x755 JUMP JUMPDEST SWAP3 POP DUP3 DUP3 MUL PUSH2 0xB61 DUP2 PUSH2 0x755 JUMP JUMPDEST SWAP2 POP DUP3 DUP3 DIV DUP5 EQ DUP4 ISZERO OR PUSH2 0xB78 JUMPI PUSH2 0xB77 PUSH2 0x983 JUMP JUMPDEST JUMPDEST POP SWAP3 SWAP2 POP POP JUMP JUMPDEST PUSH1 0x0 PUSH2 0xB8A DUP3 PUSH2 0x755 JUMP JUMPDEST SWAP2 POP PUSH2 0xB95 DUP4 PUSH2 0x755 JUMP JUMPDEST SWAP3 POP DUP3 DUP3 ADD SWAP1 POP DUP1 DUP3 GT ISZERO PUSH2 0xBAD JUMPI PUSH2 0xBAC PUSH2 0x983 JUMP JUMPDEST JUMPDEST SWAP3 SWAP2 POP POP JUMP JUMPDEST PUSH2 0xBBC DUP2 PUSH2 0x755 JUMP JUMPDEST DUP3 MSTORE POP POP JUMP JUMPDEST PUSH1 0x0 PUSH1 0x60 DUP3 ADD SWAP1 POP PUSH2 0xBD7 PUSH1 0x0 DUP4 ADD DUP7 PUSH2 0x959 JUMP JUMPDEST PUSH2 0xBE4 PUSH1 0x20 DUP4 ADD DUP6 PUSH2 0xBB3 JUMP JUMPDEST PUSH2 0xBF1 PUSH1 0x40 DUP4 ADD DUP5 PUSH2 0xBB3 JUMP JUMPDEST SWAP5 SWAP4 POP POP POP POP JUMP JUMPDEST PUSH1 0x0 PUSH1 0x20 DUP3 ADD SWAP1 POP PUSH2 0xC0E PUSH1 0x0 DUP4 ADD DUP5 PUSH2 0xBB3 JUMP JUMPDEST SWAP3 SWAP2 POP POP JUMP JUMPDEST PUSH2 0x13A8 DUP1 PUSH2 0xC23 PUSH1 0x0 CODECOPY PUSH1 0x0 RETURN INVALID PUSH1 0x80 PUSH1 0x40 MSTORE CALLVALUE DUP1 ISZERO PUSH2 0x10 JUMPI PUSH1 0x0 DUP1 REVERT JUMPDEST POP PUSH1 0x4 CALLDATASIZE LT PUSH2 0x100 JUMPI PUSH1 0x0 CALLDATALOAD PUSH1 0xE0 SHR DUP1 PUSH4 0x70A08231 GT PUSH2 0x97 JUMPI DUP1 PUSH4 0x95D89B41 GT PUSH2 0x66 JUMPI DUP1 PUSH4 0x95D89B41 EQ PUSH2 0x265 JUMPI DUP1 PUSH4 0xA9059CBB EQ PUSH2 0x283 JUMPI DUP1 PUSH4 0xDD62ED3E EQ PUSH2 0x2B3 JUMPI DUP1 PUSH4 0xF2FDE38B EQ PUSH2 0x2E3 JUMPI PUSH2 0x100 JUMP JUMPDEST DUP1 PUSH4 0x70A08231 EQ PUSH2 0x203 JUMPI DUP1 PUSH4 0x715018A6 EQ PUSH2 0x233 JUMPI DUP1 PUSH4 0x8456CB59 EQ PUSH2 0x23D JUMPI DUP1 PUSH4 0x8DA5CB5B EQ PUSH2 0x247 JUMPI PUSH2 0x100 JUMP JUMPDEST DUP1 PUSH4 0x313CE567 GT PUSH2 0xD3 JUMPI DUP1 PUSH4 0x313CE567 EQ PUSH2 0x1A1 JUMPI DUP1 PUSH4 0x3F4BA83A EQ PUSH2 0x1BF JUMPI DUP1 PUSH4 0x40C10F19 EQ PUSH2 0x1C9 JUMPI DUP1 PUSH4 0x5C975ABB EQ PUSH2 0x1E5 JUMPI PUSH2 0x100 JUMP JUMPDEST DUP1 PUSH4 0x6FDDE03 EQ PUSH2 0x105 JUMPI DUP1 PUSH4 0x95EA7B3 EQ PUSH2 0x123 JUMPI DUP1 PUSH4 0x18160DDD EQ PUSH2 0x153 JUMPI DUP1 PUSH4 0x23B872DD EQ PUSH2 0x171 JUMPI JUMPDEST PUSH1 0x0 DUP1 REVERT JUMPDEST PUSH2 0x10D PUSH2 0x2FF JUMP JUMPDEST PUSH1 0x40 MLOAD PUSH2 0x11A SWAP2 SWAP1 PUSH2 0xFFC JUMP JUMPDEST PUSH1 0x40 MLOAD DUP1 SWAP2 SUB SWAP1 RETURN JUMPDEST PUSH2 0x13D PUSH1 0x4 DUP1 CALLDATASIZE SUB DUP2 ADD SWAP1 PUSH2 0x138 SWAP2 SWAP1 PUSH2 0x10B7 JUMP JUMPDEST PUSH2 0x391 JUMP JUMPDEST PUSH1 0x40 MLOAD PUSH2 0x14A SWAP2 SWAP1 PUSH2 0x1112 JUMP JUMPDEST PUSH1 0x40 MLOAD DUP1 SWAP2 SUB SWAP1 RETURN JUMPDEST PUSH2 0x15B PUSH2 0x3B4 JUMP JUMPDEST PUSH1 0x40 MLOAD PUSH2 0x168 SWAP2 SWAP1 PUSH2 0x113C JUMP JUMPDEST PUSH1 0x40 MLOAD DUP1 SWAP2 SUB SWAP1 RETURN JUMPDEST PUSH2 0x18B PUSH1 0x4 DUP1 CALLDATASIZE SUB DUP2 ADD SWAP1 PUSH2 0x186 SWAP2 SWAP1 PUSH2 0x1157 JUMP JUMPDEST PUSH2 0x3BE JUMP JUMPDEST PUSH1 0x40 MLOAD PUSH2 0x198 SWAP2 SWAP1 PUSH2 0x1112 JUMP JUMPDEST PUSH1 0x40 MLOAD DUP1 SWAP2 SUB SWAP1 RETURN JUMPDEST PUSH2 0x1A9 PUSH2 0x3ED JUMP JUMPDEST PUSH1 0x40 MLOAD PUSH2 0x1B6 SWAP2 SWAP1 PUSH2 0x11C6 JUMP JUMPDEST PUSH1 0x40 MLOAD DUP1 SWAP2 SUB SWAP1 RETURN JUMPDEST PUSH2 0x1C7 PUSH2 0x3F6 JUMP JUMPDEST STOP JUMPDEST PUSH2 0x1E3 PUSH1 0x4 DUP1 CALLDATASIZE SUB DUP2 ADD SWAP1 PUSH2 0x1DE SWAP2 SWAP1 PUSH2 0x10B7 JUMP JUMPDEST PUSH2 0x408 JUMP JUMPDEST STOP JUMPDEST PUSH2 0x1ED PUSH2 0x41E JUMP JUMPDEST PUSH1 0x40 MLOAD PUSH2 0x1FA SWAP2 SWAP1 PUSH2 0x1112 JUMP JUMPDEST PUSH1 0x40 MLOAD DUP1 SWAP2 SUB SWAP1 RETURN JUMPDEST PUSH2 0x21D PUSH1 0x4 DUP1 CALLDATASIZE SUB DUP2 ADD SWAP1 PUSH2 0x218 SWAP2 SWAP1 PUSH2 0x11E1 JUMP JUMPDEST PUSH2 0x435 JUMP JUMPDEST PUSH1 0x40 MLOAD PUSH2 0x22A SWAP2 SWAP1 PUSH2 0x113C JUMP JUMPDEST PUSH1 0x40 MLOAD DUP1 SWAP2 SUB SWAP1 RETURN JUMPDEST PUSH2 0x23B PUSH2 0x47D JUMP JUMPDEST STOP JUMPDEST PUSH2 0x245 PUSH2 0x491 JUMP JUMPDEST STOP JUMPDEST PUSH2 0x24F PUSH2 0x4A3 JUMP JUMPDEST PUSH1 0x40 MLOAD PUSH2 0x25C SWAP2 SWAP1 PUSH2 0x121D JUMP JUMPDEST PUSH1 0x40 MLOAD DUP1 SWAP2 SUB SWAP1 RETURN JUMPDEST PUSH2 0x26D PUSH2 0x4CD JUMP JUMPDEST PUSH1 0x40 MLOAD PUSH2 0x27A SWAP2 SWAP1 PUSH2 0xFFC JUMP JUMPDEST PUSH1 0x40 MLOAD DUP1 SWAP2 SUB SWAP1 RETURN JUMPDEST PUSH2 0x29D PUSH1 0x4 DUP1 CALLDATASIZE SUB DUP2 ADD SWAP1 PUSH2 0x298 SWAP2 SWAP1 PUSH2 0x10B7 JUMP JUMPDEST PUSH2 0x55F JUMP JUMPDEST PUSH1 0x40 MLOAD PUSH2 0x2AA SWAP2 SWAP1 PUSH2 0x1112 JUMP JUMPDEST PUSH1 0x40 MLOAD DUP1 SWAP2 SUB SWAP1 RETURN JUMPDEST PUSH2 0x2CD PUSH1 0x4 DUP1 CALLDATASIZE SUB DUP2 ADD SWAP1 PUSH2 0x2C8 SWAP2 SWAP1 PUSH2 0x1238 JUMP JUMPDEST PUSH2 0x582 JUMP JUMPDEST PUSH1 0x40 MLOAD PUSH2 0x2DA SWAP2 SWAP1 PUSH2 0x113C JUMP JUMPDEST PUSH1 0x40 MLOAD DUP1 SWAP2 SUB SWAP1 RETURN JUMPDEST PUSH2 0x2FD PUSH1 0x4 DUP1 CALLDATASIZE SUB DUP2 ADD SWAP1 PUSH2 0x2F8 SWAP2 SWAP1 PUSH2 0x11E1 JUMP JUMPDEST PUSH2 0x609 JUMP JUMPDEST STOP JUMPDEST PUSH1 0x60 PUSH1 0x3 DUP1 SLOAD PUSH2 0x30E SWAP1 PUSH2 0x12A7 JUMP JUMPDEST DUP1 PUSH1 0x1F ADD PUSH1 0x20 DUP1 SWAP2 DIV MUL PUSH1 0x20 ADD PUSH1 0x40 MLOAD SWAP1 DUP2 ADD PUSH1 0x40 MSTORE DUP1 SWAP3 SWAP2 SWAP1 DUP2 DUP2 MSTORE PUSH1 0x20 ADD DUP3 DUP1 SLOAD PUSH2 0x33A SWAP1 PUSH2 0x12A7 JUMP JUMPDEST DUP1 ISZERO PUSH2 0x387 JUMPI DUP1 PUSH1 0x1F LT PUSH2 0x35C JUMPI PUSH2 0x100 DUP1 DUP4 SLOAD DIV MUL DUP4 MSTORE SWAP2 PUSH1 0x20 ADD SWAP2 PUSH2 0x387 JUMP JUMPDEST DUP3 ADD SWAP2 SWAP1 PUSH1 0x0 MSTORE PUSH1 0x20 PUSH1 0x0 KECCAK256 SWAP1 JUMPDEST DUP2 SLOAD DUP2 MSTORE SWAP1 PUSH1 0x1 ADD SWAP1 PUSH1 0x20 ADD DUP1 DUP4 GT PUSH2 0x36A JUMPI DUP3 SWAP1 SUB PUSH1 0x1F AND DUP3 ADD SWAP2 JUMPDEST POP POP POP POP POP SWAP1 POP SWAP1 JUMP JUMPDEST PUSH1 0x0 DUP1 PUSH2 0x39C PUSH2 0x68F JUMP JUMPDEST SWAP1 POP PUSH2 0x3A9 DUP2 DUP6 DUP6 PUSH2 0x697 JUMP JUMPDEST PUSH1 0x1 SWAP2 POP POP SWAP3 SWAP2 POP POP JUMP JUMPDEST PUSH1 0x0 PUSH1 0x2 SLOAD SWAP1 POP SWAP1 JUMP JUMPDEST PUSH1 0x0 DUP1 PUSH2 0x3C9 PUSH2 0x68F JUMP JUMPDEST SWAP1 POP PUSH2 0x3D6 DUP6 DUP3 DUP6 PUSH2 0x6A9 JUMP JUMPDEST PUSH2 0x3E1 DUP6 DUP6 DUP6 PUSH2 0x73E JUMP JUMPDEST PUSH1 0x1 SWAP2 POP POP SWAP4 SWAP3 POP POP POP JUMP JUMPDEST PUSH1 0x0 PUSH1 0x12 SWAP1 POP SWAP1 JUMP JUMPDEST PUSH2 0x3FE PUSH2 0x832 JUMP JUMPDEST PUSH2 0x406 PUSH2 0x8B9 JUMP JUMPDEST JUMP JUMPDEST PUSH2 0x410 PUSH2 0x832 JUMP JUMPDEST PUSH2 0x41A DUP3 DUP3 PUSH2 0x91C JUMP JUMPDEST POP POP JUMP JUMPDEST PUSH1 0x0 PUSH1 0x5 PUSH1 0x0 SWAP1 SLOAD SWAP1 PUSH2 0x100 EXP SWAP1 DIV PUSH1 0xFF AND SWAP1 POP SWAP1 JUMP JUMPDEST PUSH1 0x0 DUP1 PUSH1 0x0 DUP4 PUSH20 0xFFFFFFFFFFFFFFFFFFFFFFFFFFFFFFFFFFFFFFFF AND PUSH20 0xFFFFFFFFFFFFFFFFFFFFFFFFFFFFFFFFFFFFFFFF AND DUP2 MSTORE PUSH1 0x20 ADD SWAP1 DUP2 MSTORE PUSH1 0x20 ADD PUSH1 0x0 KECCAK256 SLOAD SWAP1 POP SWAP2 SWAP1 POP JUMP JUMPDEST PUSH2 0x485 PUSH2 0x832 JUMP JUMPDEST PUSH2 0x48F PUSH1 0x0 PUSH2 0x99E JUMP JUMPDEST JUMP JUMPDEST PUSH2 0x499 PUSH2 0x832 JUMP JUMPDEST PUSH2 0x4A1 PUSH2 0xA64 JUMP JUMPDEST JUMP JUMPDEST PUSH1 0x0 PUSH1 0x5 PUSH1 0x1 SWAP1 SLOAD SWAP1 PUSH2 0x100 EXP SWAP1 DIV PUSH20 0xFFFFFFFFFFFFFFFFFFFFFFFFFFFFFFFFFFFFFFFF AND SWAP1 POP SWAP1 JUMP JUMPDEST PUSH1 0x60 PUSH1 0x4 DUP1 SLOAD PUSH2 0x4DC SWAP1 PUSH2 0x12A7 JUMP JUMPDEST DUP1 PUSH1 0x1F ADD PUSH1 0x20 DUP1 SWAP2 DIV MUL PUSH1 0x20 ADD PUSH1 0x40 MLOAD SWAP1 DUP2 ADD PUSH1 0x40 MSTORE DUP1 SWAP3 SWAP2 SWAP1 DUP2 DUP2 MSTORE PUSH1 0x20 ADD DUP3 DUP1 SLOAD PUSH2 0x508 SWAP1 PUSH2 0x12A7 JUMP JUMPDEST DUP1 ISZERO PUSH2 0x555 JUMPI DUP1 PUSH1 0x1F LT PUSH2 0x52A JUMPI PUSH2 0x100 DUP1 DUP4 SLOAD DIV MUL DUP4 MSTORE SWAP2 PUSH1 0x20 ADD SWAP2 PUSH2 0x555 JUMP JUMPDEST DUP3 ADD SWAP2 SWAP1 PUSH1 0x0 MSTORE PUSH1 0x20 PUSH1 0x0 KECCAK256 SWAP1 JUMPDEST DUP2 SLOAD DUP2 MSTORE SWAP1 PUSH1 0x1 ADD SWAP1 PUSH1 0x20 ADD DUP1 DUP4 GT PUSH2 0x538 JUMPI DUP3 SWAP1 SUB PUSH1 0x1F AND DUP3 ADD SWAP2 JUMPDEST POP POP POP POP POP SWAP1 POP SWAP1 JUMP JUMPDEST PUSH1 0x0 DUP1 PUSH2 0x56A PUSH2 0x68F JUMP JUMPDEST SWAP1 POP PUSH2 0x577 DUP2 DUP6 DUP6 PUSH2 0x73E JUMP JUMPDEST PUSH1 0x1 SWAP2 POP POP SWAP3 SWAP2 POP POP JUMP JUMPDEST PUSH1 0x0 PUSH1 0x1 PUSH1 0x0 DUP5 PUSH20 0xFFFFFFFFFFFFFFFFFFFFFFFFFFFFFFFFFFFFFFFF AND PUSH20 0xFFFFFFFFFFFFFFFFFFFFFFFFFFFFFFFFFFFFFFFF AND DUP2 MSTORE PUSH1 0x20 ADD SWAP1 DUP2 MSTORE PUSH1 0x20 ADD PUSH1 0x0 KECCAK256 PUSH1 0x0 DUP4 PUSH20 0xFFFFFFFFFFFFFFFFFFFFFFFFFFFFFFFFFFFFFFFF AND PUSH20 0xFFFFFFFFFFFFFFFFFFFFFFFFFFFFFFFFFFFFFFFF AND DUP2 MSTORE PUSH1 0x20 ADD SWAP1 DUP2 MSTORE PUSH1 0x20 ADD PUSH1 0x0 KECCAK256 SLOAD SWAP1 POP SWAP3 SWAP2 POP POP JUMP JUMPDEST PUSH2 0x611 PUSH2 0x832 JUMP JUMPDEST PUSH1 0x0 PUSH20 0xFFFFFFFFFFFFFFFFFFFFFFFFFFFFFFFFFFFFFFFF AND DUP2 PUSH20 0xFFFFFFFFFFFFFFFFFFFFFFFFFFFFFFFFFFFFFFFF AND SUB PUSH2 0x683 JUMPI PUSH1 0x0 PUSH1 0x40 MLOAD PUSH32 0x1E4FBDF700000000000000000000000000000000000000000000000000000000 DUP2 MSTORE PUSH1 0x4 ADD PUSH2 0x67A SWAP2 SWAP1 PUSH2 0x121D JUMP JUMPDEST PUSH1 0x40 MLOAD DUP1 SWAP2 SUB SWAP1 REVERT JUMPDEST PUSH2 0x68C DUP2 PUSH2 0x99E JUMP JUMPDEST POP JUMP JUMPDEST PUSH1 0x0 CALLER SWAP1 POP SWAP1 JUMP JUMPDEST PUSH2 0x6A4 DUP4 DUP4 DUP4 PUSH1 0x1 PUSH2 0xAC7 JUMP JUMPDEST POP POP POP JUMP JUMPDEST PUSH1 0x0 PUSH2 0x6B5 DUP5 DUP5 PUSH2 0x582 JUMP JUMPDEST SWAP1 POP PUSH32 0xFFFFFFFFFFFFFFFFFFFFFFFFFFFFFFFFFFFFFFFFFFFFFFFFFFFFFFFFFFFFFFFF DUP2 LT ISZERO PUSH2 0x738 JUMPI DUP2 DUP2 LT ISZERO PUSH2 0x728 JUMPI DUP3 DUP2 DUP4 PUSH1 0x40 MLOAD PUSH32 0xFB8F41B200000000000000000000000000000000000000000000000000000000 DUP2 MSTORE PUSH1 0x4 ADD PUSH2 0x71F SWAP4 SWAP3 SWAP2 SWAP1 PUSH2 0x12D8 JUMP JUMPDEST PUSH1 0x40 MLOAD DUP1 SWAP2 SUB SWAP1 REVERT JUMPDEST PUSH2 0x737 DUP5 DUP5 DUP5 DUP5 SUB PUSH1 0x0 PUSH2 0xAC7 JUMP JUMPDEST JUMPDEST POP POP POP POP JUMP JUMPDEST PUSH1 0x0 PUSH20 0xFFFFFFFFFFFFFFFFFFFFFFFFFFFFFFFFFFFFFFFF AND DUP4 PUSH20 0xFFFFFFFFFFFFFFFFFFFFFFFFFFFFFFFFFFFFFFFF AND SUB PUSH2 0x7B0 JUMPI PUSH1 0x0 PUSH1 0x40 MLOAD PUSH32 0x96C6FD1E00000000000000000000000000000000000000000000000000000000 DUP2 MSTORE PUSH1 0x4 ADD PUSH2 0x7A7 SWAP2 SWAP1 PUSH2 0x121D JUMP JUMPDEST PUSH1 0x40 MLOAD DUP1 SWAP2 SUB SWAP1 REVERT JUMPDEST PUSH1 0x0 PUSH20 0xFFFFFFFFFFFFFFFFFFFFFFFFFFFFFFFFFFFFFFFF AND DUP3 PUSH20 0xFFFFFFFFFFFFFFFFFFFFFFFFFFFFFFFFFFFFFFFF AND SUB PUSH2 0x822 JUMPI PUSH1 0x0 PUSH1 0x40 MLOAD PUSH32 0xEC442F0500000000000000000000000000000000000000000000000000000000 DUP2 MSTORE PUSH1 0x4 ADD PUSH2 0x819 SWAP2 SWAP1 PUSH2 0x121D JUMP JUMPDEST PUSH1 0x40 MLOAD DUP1 SWAP2 SUB SWAP1 REVERT JUMPDEST PUSH2 0x82D DUP4 DUP4 DUP4 PUSH2 0xC9E JUMP JUMPDEST POP POP POP JUMP JUMPDEST PUSH2 0x83A PUSH2 0x68F JUMP JUMPDEST PUSH20 0xFFFFFFFFFFFFFFFFFFFFFFFFFFFFFFFFFFFFFFFF AND PUSH2 0x858 PUSH2 0x4A3 JUMP JUMPDEST PUSH20 0xFFFFFFFFFFFFFFFFFFFFFFFFFFFFFFFFFFFFFFFF AND EQ PUSH2 0x8B7 JUMPI PUSH2 0x87B PUSH2 0x68F JUMP JUMPDEST PUSH1 0x40 MLOAD PUSH32 0x118CDAA700000000000000000000000000000000000000000000000000000000 DUP2 MSTORE PUSH1 0x4 ADD PUSH2 0x8AE SWAP2 SWAP1 PUSH2 0x121D JUMP JUMPDEST PUSH1 0x40 MLOAD DUP1 SWAP2 SUB SWAP1 REVERT JUMPDEST JUMP JUMPDEST PUSH2 0x8C1 PUSH2 0xCAE JUMP JUMPDEST PUSH1 0x0 PUSH1 0x5 PUSH1 0x0 PUSH2 0x100 EXP DUP2 SLOAD DUP2 PUSH1 0xFF MUL NOT AND SWAP1 DUP4 ISZERO ISZERO MUL OR SWAP1 SSTORE POP PUSH32 0x5DB9EE0A495BF2E6FF9C91A7834C1BA4FDD244A5E8AA4E537BD38AEAE4B073AA PUSH2 0x905 PUSH2 0x68F JUMP JUMPDEST PUSH1 0x40 MLOAD PUSH2 0x912 SWAP2 SWAP1 PUSH2 0x121D JUMP JUMPDEST PUSH1 0x40 MLOAD DUP1 SWAP2 SUB SWAP1 LOG1 JUMP JUMPDEST PUSH1 0x0 PUSH20 0xFFFFFFFFFFFFFFFFFFFFFFFFFFFFFFFFFFFFFFFF AND DUP3 PUSH20 0xFFFFFFFFFFFFFFFFFFFFFFFFFFFFFFFFFFFFFFFF AND SUB PUSH2 0x98E JUMPI PUSH1 0x0 PUSH1 0x40 MLOAD PUSH32 0xEC442F0500000000000000000000000000000000000000000000000000000000 DUP2 MSTORE PUSH1 0x4 ADD PUSH2 0x985 SWAP2 SWAP1 PUSH2 0x121D JUMP JUMPDEST PUSH1 0x40 MLOAD DUP1 SWAP2 SUB SWAP1 REVERT JUMPDEST PUSH2 0x99A PUSH1 0x0 DUP4 DUP4 PUSH2 0xC9E JUMP JUMPDEST POP POP JUMP JUMPDEST PUSH1 0x0 PUSH1 0x5 PUSH1 0x1 SWAP1 SLOAD SWAP1 PUSH2 0x100 EXP SWAP1 DIV PUSH20 0xFFFFFFFFFFFFFFFFFFFFFFFFFFFFFFFFFFFFFFFF AND SWAP1 POP DUP2 PUSH1 0x5 PUSH1 0x1 PUSH2 0x100 EXP DUP2 SLOAD DUP2 PUSH20 0xFFFFFFFFFFFFFFFFFFFFFFFFFFFFFFFFFFFFFFFF MUL NOT AND SWAP1 DUP4 PUSH20 0xFFFFFFFFFFFFFFFFFFFFFFFFFFFFFFFFFFFFFFFF AND MUL OR SWAP1 SSTORE POP DUP2 PUSH20 0xFFFFFFFFFFFFFFFFFFFFFFFFFFFFFFFFFFFFFFFF AND DUP2 PUSH20 0xFFFFFFFFFFFFFFFFFFFFFFFFFFFFFFFFFFFFFFFF AND PUSH32 0x8BE0079C531659141344CD1FD0A4F28419497F9722A3DAAFE3B4186F6B6457E0 PUSH1 0x40 MLOAD PUSH1 0x40 MLOAD DUP1 SWAP2 SUB SWAP1 LOG3 POP POP JUMP JUMPDEST PUSH2 0xA6C PUSH2 0xCEE JUMP JUMPDEST PUSH1 0x1 PUSH1 0x5 PUSH1 0x0 PUSH2 0x100 EXP DUP2 SLOAD DUP2 PUSH1 0xFF MUL NOT AND SWAP1 DUP4 ISZERO ISZERO MUL OR SWAP1 SSTORE POP PUSH32 0x62E78CEA01BEE320CD4E420270B5EA74000D11B0C9F74754EBDBFC544B05A258 PUSH2 0xAB0 PUSH2 0x68F JUMP JUMPDEST PUSH1 0x40 MLOAD PUSH2 0xABD SWAP2 SWAP1 PUSH2 0x121D JUMP JUMPDEST PUSH1 0x40 MLOAD DUP1 SWAP2 SUB SWAP1 LOG1 JUMP JUMPDEST PUSH1 0x0 PUSH20 0xFFFFFFFFFFFFFFFFFFFFFFFFFFFFFFFFFFFFFFFF AND DUP5 PUSH20 0xFFFFFFFFFFFFFFFFFFFFFFFFFFFFFFFFFFFFFFFF AND SUB PUSH2 0xB39 JUMPI PUSH1 0x0 PUSH1 0x40 MLOAD PUSH32 0xE602DF0500000000000000000000000000000000000000000000000000000000 DUP2 MSTORE PUSH1 0x4 ADD PUSH2 0xB30 SWAP2 SWAP1 PUSH2 0x121D JUMP JUMPDEST PUSH1 0x40 MLOAD DUP1 SWAP2 SUB SWAP1 REVERT JUMPDEST PUSH1 0x0 PUSH20 0xFFFFFFFFFFFFFFFFFFFFFFFFFFFFFFFFFFFFFFFF AND DUP4 PUSH20 0xFFFFFFFFFFFFFFFFFFFFFFFFFFFFFFFFFFFFFFFF AND SUB PUSH2 0xBAB JUMPI PUSH1 0x0 PUSH1 0x40 MLOAD PUSH32 0x94280D6200000000000000000000000000000000000000000000000000000000 DUP2 MSTORE PUSH1 0x4 ADD PUSH2 0xBA2 SWAP2 SWAP1 PUSH2 0x121D JUMP JUMPDEST PUSH1 0x40 MLOAD DUP1 SWAP2 SUB SWAP1 REVERT JUMPDEST DUP2 PUSH1 0x1 PUSH1 0x0 DUP7 PUSH20 0xFFFFFFFFFFFFFFFFFFFFFFFFFFFFFFFFFFFFFFFF AND PUSH20 0xFFFFFFFFFFFFFFFFFFFFFFFFFFFFFFFFFFFFFFFF AND DUP2 MSTORE PUSH1 0x20 ADD SWAP1 DUP2 MSTORE PUSH1 0x20 ADD PUSH1 0x0 KECCAK256 PUSH1 0x0 DUP6 PUSH20 0xFFFFFFFFFFFFFFFFFFFFFFFFFFFFFFFFFFFFFFFF AND PUSH20 0xFFFFFFFFFFFFFFFFFFFFFFFFFFFFFFFFFFFFFFFF AND DUP2 MSTORE PUSH1 0x20 ADD SWAP1 DUP2 MSTORE PUSH1 0x20 ADD PUSH1 0x0 KECCAK256 DUP2 SWAP1 SSTORE POP DUP1 ISZERO PUSH2 0xC98 JUMPI DUP3 PUSH20 0xFFFFFFFFFFFFFFFFFFFFFFFFFFFFFFFFFFFFFFFF AND DUP5 PUSH20 0xFFFFFFFFFFFFFFFFFFFFFFFFFFFFFFFFFFFFFFFF AND PUSH32 0x8C5BE1E5EBEC7D5BD14F71427D1E84F3DD0314C0F7B2291E5B200AC8C7C3B925 DUP5 PUSH1 0x40 MLOAD PUSH2 0xC8F SWAP2 SWAP1 PUSH2 0x113C JUMP JUMPDEST PUSH1 0x40 MLOAD DUP1 SWAP2 SUB SWAP1 LOG3 JUMPDEST POP POP POP POP JUMP JUMPDEST PUSH2 0xCA9 DUP4 DUP4 DUP4 PUSH2 0xD2F JUMP JUMPDEST POP POP POP JUMP JUMPDEST PUSH2 0xCB6 PUSH2 0x41E JUMP JUMPDEST PUSH2 0xCEC JUMPI PUSH1 0x40 MLOAD PUSH32 0x8DFC202B00000000000000000000000000000000000000000000000000000000 DUP2 MSTORE PUSH1 0x4 ADD PUSH1 0x40 MLOAD DUP1 SWAP2 SUB SWAP1 REVERT JUMPDEST JUMP JUMPDEST PUSH2 0xCF6 PUSH2 0x41E JUMP JUMPDEST ISZERO PUSH2 0xD2D JUMPI PUSH1 0x40 MLOAD PUSH32 0xD93C066500000000000000000000000000000000000000000000000000000000 DUP2 MSTORE PUSH1 0x4 ADD PUSH1 0x40 MLOAD DUP1 SWAP2 SUB SWAP1 REVERT JUMPDEST JUMP JUMPDEST PUSH2 0xD37 PUSH2 0xCEE JUMP JUMPDEST PUSH2 0xD42 DUP4 DUP4 DUP4 PUSH2 0xD47 JUMP JUMPDEST POP POP POP JUMP JUMPDEST PUSH1 0x0 PUSH20 0xFFFFFFFFFFFFFFFFFFFFFFFFFFFFFFFFFFFFFFFF AND DUP4 PUSH20 0xFFFFFFFFFFFFFFFFFFFFFFFFFFFFFFFFFFFFFFFF AND SUB PUSH2 0xD99 JUMPI DUP1 PUSH1 0x2 PUSH1 0x0 DUP3 DUP3 SLOAD PUSH2 0xD8D SWAP2 SWAP1 PUSH2 0x133E JUMP JUMPDEST SWAP3 POP POP DUP2 SWAP1 SSTORE POP PUSH2 0xE6C JUMP JUMPDEST PUSH1 0x0 DUP1 PUSH1 0x0 DUP6 PUSH20 0xFFFFFFFFFFFFFFFFFFFFFFFFFFFFFFFFFFFFFFFF AND PUSH20 0xFFFFFFFFFFFFFFFFFFFFFFFFFFFFFFFFFFFFFFFF AND DUP2 MSTORE PUSH1 0x20 ADD SWAP1 DUP2 MSTORE PUSH1 0x20 ADD PUSH1 0x0 KECCAK256 SLOAD SWAP1 POP DUP2 DUP2 LT ISZERO PUSH2 0xE25 JUMPI DUP4 DUP2 DUP4 PUSH1 0x40 MLOAD PUSH32 0xE450D38C00000000000000000000000000000000000000000000000000000000 DUP2 MSTORE PUSH1 0x4 ADD PUSH2 0xE1C SWAP4 SWAP3 SWAP2 SWAP1 PUSH2 0x12D8 JUMP JUMPDEST PUSH1 0x40 MLOAD DUP1 SWAP2 SUB SWAP1 REVERT JUMPDEST DUP2 DUP2 SUB PUSH1 0x0 DUP1 DUP7 PUSH20 0xFFFFFFFFFFFFFFFFFFFFFFFFFFFFFFFFFFFFFFFF AND PUSH20 0xFFFFFFFFFFFFFFFFFFFFFFFFFFFFFFFFFFFFFFFF AND DUP2 MSTORE PUSH1 0x20 ADD SWAP1 DUP2 MSTORE PUSH1 0x20 ADD PUSH1 0x0 KECCAK256 DUP2 SWAP1 SSTORE POP POP JUMPDEST PUSH1 0x0 PUSH20 0xFFFFFFFFFFFFFFFFFFFFFFFFFFFFFFFFFFFFFFFF AND DUP3 PUSH20 0xFFFFFFFFFFFFFFFFFFFFFFFFFFFFFFFFFFFFFFFF AND SUB PUSH2 0xEB5 JUMPI DUP1 PUSH1 0x2 PUSH1 0x0 DUP3 DUP3 SLOAD SUB SWAP3 POP POP DUP2 SWAP1 SSTORE POP PUSH2 0xF02 JUMP JUMPDEST DUP1 PUSH1 0x0 DUP1 DUP5 PUSH20 0xFFFFFFFFFFFFFFFFFFFFFFFFFFFFFFFFFFFFFFFF AND PUSH20 0xFFFFFFFFFFFFFFFFFFFFFFFFFFFFFFFFFFFFFFFF AND DUP2 MSTORE PUSH1 0x20 ADD SWAP1 DUP2 MSTORE PUSH1 0x20 ADD PUSH1 0x0 KECCAK256 PUSH1 0x0 DUP3 DUP3 SLOAD ADD SWAP3 POP POP DUP2 SWAP1 SSTORE POP JUMPDEST DUP2 PUSH20 0xFFFFFFFFFFFFFFFFFFFFFFFFFFFFFFFFFFFFFFFF AND DUP4 PUSH20 0xFFFFFFFFFFFFFFFFFFFFFFFFFFFFFFFFFFFFFFFF AND PUSH32 0xDDF252AD1BE2C89B69C2B068FC378DAA952BA7F163C4A11628F55A4DF523B3EF DUP4 PUSH1 0x40 MLOAD PUSH2 0xF5F SWAP2 SWAP1 PUSH2 0x113C JUMP JUMPDEST PUSH1 0x40 MLOAD DUP1 SWAP2 SUB SWAP1 LOG3 POP POP POP JUMP JUMPDEST PUSH1 0x0 DUP2 MLOAD SWAP1 POP SWAP2 SWAP1 POP JUMP JUMPDEST PUSH1 0x0 DUP3 DUP3 MSTORE PUSH1 0x20 DUP3 ADD SWAP1 POP SWAP3 SWAP2 POP POP JUMP JUMPDEST PUSH1 0x0 JUMPDEST DUP4 DUP2 LT ISZERO PUSH2 0xFA6 JUMPI DUP1 DUP3 ADD MLOAD DUP2 DUP5 ADD MSTORE PUSH1 0x20 DUP2 ADD SWAP1 POP PUSH2 0xF8B JUMP JUMPDEST PUSH1 0x0 DUP5 DUP5 ADD MSTORE POP POP POP POP JUMP JUMPDEST PUSH1 0x0 PUSH1 0x1F NOT PUSH1 0x1F DUP4 ADD AND SWAP1 POP SWAP2 SWAP1 POP JUMP JUMPDEST PUSH1 0x0 PUSH2 0xFCE DUP3 PUSH2 0xF6C JUMP JUMPDEST PUSH2 0xFD8 DUP2 DUP6 PUSH2 0xF77 JUMP JUMPDEST SWAP4 POP PUSH2 0xFE8 DUP2 DUP6 PUSH1 0x20 DUP7 ADD PUSH2 0xF88 JUMP JUMPDEST PUSH2 0xFF1 DUP2 PUSH2 0xFB2 JUMP JUMPDEST DUP5 ADD SWAP2 POP POP SWAP3 SWAP2 POP POP JUMP JUMPDEST PUSH1 0x0 PUSH1 0x20 DUP3 ADD SWAP1 POP DUP2 DUP2 SUB PUSH1 0x0 DUP4 ADD MSTORE PUSH2 0x1016 DUP2 DUP5 PUSH2 0xFC3 JUMP JUMPDEST SWAP1 POP SWAP3 SWAP2 POP POP JUMP JUMPDEST PUSH1 0x0 DUP1 REVERT JUMPDEST PUSH1 0x0 PUSH20 0xFFFFFFFFFFFFFFFFFFFFFFFFFFFFFFFFFFFFFFFF DUP3 AND SWAP1 POP SWAP2 SWAP1 POP JUMP JUMPDEST PUSH1 0x0 PUSH2 0x104E DUP3 PUSH2 0x1023 JUMP JUMPDEST SWAP1 POP SWAP2 SWAP1 POP JUMP JUMPDEST PUSH2 0x105E DUP2 PUSH2 0x1043 JUMP JUMPDEST DUP2 EQ PUSH2 0x1069 JUMPI PUSH1 0x0 DUP1 REVERT JUMPDEST POP JUMP JUMPDEST PUSH1 0x0 DUP2 CALLDATALOAD SWAP1 POP PUSH2 0x107B DUP2 PUSH2 0x1055 JUMP JUMPDEST SWAP3 SWAP2 POP POP JUMP JUMPDEST PUSH1 0x0 DUP2 SWAP1 POP SWAP2 SWAP1 POP JUMP JUMPDEST PUSH2 0x1094 DUP2 PUSH2 0x1081 JUMP JUMPDEST DUP2 EQ PUSH2 0x109F JUMPI PUSH1 0x0 DUP1 REVERT JUMPDEST POP JUMP JUMPDEST PUSH1 0x0 DUP2 CALLDATALOAD SWAP1 POP PUSH2 0x10B1 DUP2 PUSH2 0x108B JUMP JUMPDEST SWAP3 SWAP2 POP POP JUMP JUMPDEST PUSH1 0x0 DUP1 PUSH1 0x40 DUP4 DUP6 SUB SLT ISZERO PUSH2 0x10CE JUMPI PUSH2 0x10CD PUSH2 0x101E JUMP JUMPDEST JUMPDEST PUSH1 0x0 PUSH2 0x10DC DUP6 DUP3 DUP7 ADD PUSH2 0x106C JUMP JUMPDEST SWAP3 POP POP PUSH1 0x20 PUSH2 0x10ED DUP6 DUP3 DUP7 ADD PUSH2 0x10A2 JUMP JUMPDEST SWAP2 POP POP SWAP3 POP SWAP3 SWAP1 POP JUMP JUMPDEST PUSH1 0x0 DUP2 ISZERO ISZERO SWAP1 POP SWAP2 SWAP1 POP JUMP JUMPDEST PUSH2 0x110C DUP2 PUSH2 0x10F7 JUMP JUMPDEST DUP3 MSTORE POP POP JUMP JUMPDEST PUSH1 0x0 PUSH1 0x20 DUP3 ADD SWAP1 POP PUSH2 0x1127 PUSH1 0x0 DUP4 ADD DUP5 PUSH2 0x1103 JUMP JUMPDEST SWAP3 SWAP2 POP POP JUMP JUMPDEST PUSH2 0x1136 DUP2 PUSH2 0x1081 JUMP JUMPDEST DUP3 MSTORE POP POP JUMP JUMPDEST PUSH1 0x0 PUSH1 0x20 DUP3 ADD SWAP1 POP PUSH2 0x1151 PUSH1 0x0 DUP4 ADD DUP5 PUSH2 0x112D JUMP JUMPDEST SWAP3 SWAP2 POP POP JUMP JUMPDEST PUSH1 0x0 DUP1 PUSH1 0x0 PUSH1 0x60 DUP5 DUP7 SUB SLT ISZERO PUSH2 0x1170 JUMPI PUSH2 0x116F PUSH2 0x101E JUMP JUMPDEST JUMPDEST PUSH1 0x0 PUSH2 0x117E DUP7 DUP3 DUP8 ADD PUSH2 0x106C JUMP JUMPDEST SWAP4 POP POP PUSH1 0x20 PUSH2 0x118F DUP7 DUP3 DUP8 ADD PUSH2 0x106C JUMP JUMPDEST SWAP3 POP POP PUSH1 0x40 PUSH2 0x11A0 DUP7 DUP3 DUP8 ADD PUSH2 0x10A2 JUMP JUMPDEST SWAP2 POP POP SWAP3 POP SWAP3 POP SWAP3 JUMP JUMPDEST PUSH1 0x0 PUSH1 0xFF DUP3 AND SWAP1 POP SWAP2 SWAP1 POP JUMP JUMPDEST PUSH2 0x11C0 DUP2 PUSH2 0x11AA JUMP JUMPDEST DUP3 MSTORE POP POP JUMP JUMPDEST PUSH1 0x0 PUSH1 0x20 DUP3 ADD SWAP1 POP PUSH2 0x11DB PUSH1 0x0 DUP4 ADD DUP5 PUSH2 0x11B7 JUMP JUMPDEST SWAP3 SWAP2 POP POP JUMP JUMPDEST PUSH1 0x0 PUSH1 0x20 DUP3 DUP5 SUB SLT ISZERO PUSH2 0x11F7 JUMPI PUSH2 0x11F6 PUSH2 0x101E JUMP JUMPDEST JUMPDEST PUSH1 0x0 PUSH2 0x1205 DUP5 DUP3 DUP6 ADD PUSH2 0x106C JUMP JUMPDEST SWAP2 POP POP SWAP3 SWAP2 POP POP JUMP JUMPDEST PUSH2 0x1217 DUP2 PUSH2 0x1043 JUMP JUMPDEST DUP3 MSTORE POP POP JUMP JUMPDEST PUSH1 0x0 PUSH1 0x20 DUP3 ADD SWAP1 POP PUSH2 0x1232 PUSH1 0x0 DUP4 ADD DUP5 PUSH2 0x120E JUMP JUMPDEST SWAP3 SWAP2 POP POP JUMP JUMPDEST PUSH1 0x0 DUP1 PUSH1 0x40 DUP4 DUP6 SUB SLT ISZERO PUSH2 0x124F JUMPI PUSH2 0x124E PUSH2 0x101E JUMP JUMPDEST JUMPDEST PUSH1 0x0 PUSH2 0x125D DUP6 DUP3 DUP7 ADD PUSH2 0x106C JUMP JUMPDEST SWAP3 POP POP PUSH1 0x20 PUSH2 0x126E DUP6 DUP3 DUP7 ADD PUSH2 0x106C JUMP JUMPDEST SWAP2 POP POP SWAP3 POP SWAP3 SWAP1 POP JUMP JUMPDEST PUSH32 0x4E487B7100000000000000000000000000000000000000000000000000000000 PUSH1 0x0 MSTORE PUSH1 0x22 PUSH1 0x4 MSTORE PUSH1 0x24 PUSH1 0x0 REVERT JUMPDEST PUSH1 0x0 PUSH1 0x2 DUP3 DIV SWAP1 POP PUSH1 0x1 DUP3 AND DUP1 PUSH2 0x12BF JUMPI PUSH1 0x7F DUP3 AND SWAP2 POP JUMPDEST PUSH1 0x20 DUP3 LT DUP2 SUB PUSH2 0x12D2 JUMPI PUSH2 0x12D1 PUSH2 0x1278 JUMP JUMPDEST JUMPDEST POP SWAP2 SWAP1 POP JUMP JUMPDEST PUSH1 0x0 PUSH1 0x60 DUP3 ADD SWAP1 POP PUSH2 0x12ED PUSH1 0x0 DUP4 ADD DUP7 PUSH2 0x120E JUMP JUMPDEST PUSH2 0x12FA PUSH1 0x20 DUP4 ADD DUP6 PUSH2 0x112D JUMP JUMPDEST PUSH2 0x1307 PUSH1 0x40 DUP4 ADD DUP5 PUSH2 0x112D JUMP JUMPDEST SWAP5 SWAP4 POP POP POP POP JUMP JUMPDEST PUSH32 0x4E487B7100000000000000000000000000000000000000000000000000000000 PUSH1 0x0 MSTORE PUSH1 0x11 PUSH1 0x4 MSTORE PUSH1 0x24 PUSH1 0x0 REVERT JUMPDEST PUSH1 0x0 PUSH2 0x1349 DUP3 PUSH2 0x1081 JUMP JUMPDEST SWAP2 POP PUSH2 0x1354 DUP4 PUSH2 0x1081 JUMP JUMPDEST SWAP3 POP DUP3 DUP3 ADD SWAP1 POP DUP1 DUP3 GT ISZERO PUSH2 0x136C JUMPI PUSH2 0x136B PUSH2 0x130F JUMP JUMPDEST JUMPDEST SWAP3 SWAP2 POP POP JUMP INVALID LOG2 PUSH5 0x6970667358 0x22 SLT KECCAK256 DELEGATECALL OR TIMESTAMP PUSH21 0xAC5D1590ECBF94770E2FE823596FCCDAED48D3E4C7 0x2C CREATE2 SWAP5 0x1F 0xA5 0xC1 DIFFICULTY PUSH5 0x736F6C6343 STOP ADDMOD BYTE STOP CALLER "
				},
				"gasEstimates": {
					"creation": {
						"codeDepositCost": "1006400",
						"executionCost": "infinite",
						"totalCost": "infinite"
					},
					"external": {
						"allowance(address,address)": "infinite",
						"approve(address,uint256)": "infinite",
						"balanceOf(address)": "2864",
						"decimals()": "366",
						"mint(address,uint256)": "infinite",
						"name()": "infinite",
						"owner()": "2661",
						"pause()": "infinite",
						"paused()": "2568",
						"renounceOwnership()": "infinite",
						"symbol()": "infinite",
						"totalSupply()": "2505",
						"transfer(address,uint256)": "infinite",
						"transferFrom(address,address,uint256)": "infinite",
						"transferOwnership(address)": "infinite",
						"unpause()": "infinite"
					},
					"internal": {
						"_update(address,address,uint256)": "infinite"
					}
				},
				"methodIdentifiers": {
					"allowance(address,address)": "dd62ed3e",
					"approve(address,uint256)": "095ea7b3",
					"balanceOf(address)": "70a08231",
					"decimals()": "313ce567",
					"mint(address,uint256)": "40c10f19",
					"name()": "06fdde03",
					"owner()": "8da5cb5b",
					"pause()": "8456cb59",
					"paused()": "5c975abb",
					"renounceOwnership()": "715018a6",
					"symbol()": "95d89b41",
					"totalSupply()": "18160ddd",
					"transfer(address,uint256)": "a9059cbb",
					"transferFrom(address,address,uint256)": "23b872dd",
					"transferOwnership(address)": "f2fde38b",
					"unpause()": "3f4ba83a"
				}
			},
			"storageLayout": {
				"storage": [
					{
						"astId": 307,
						"contract": "TokenB.sol:TokenB",
						"label": "_balances",
						"offset": 0,
						"slot": "0",
						"type": "t_mapping(t_address,t_uint256)"
					},
					{
						"astId": 313,
						"contract": "TokenB.sol:TokenB",
						"label": "_allowances",
						"offset": 0,
						"slot": "1",
						"type": "t_mapping(t_address,t_mapping(t_address,t_uint256))"
					},
					{
						"astId": 315,
						"contract": "TokenB.sol:TokenB",
						"label": "_totalSupply",
						"offset": 0,
						"slot": "2",
						"type": "t_uint256"
					},
					{
						"astId": 317,
						"contract": "TokenB.sol:TokenB",
						"label": "_name",
						"offset": 0,
						"slot": "3",
						"type": "t_string_storage"
					},
					{
						"astId": 319,
						"contract": "TokenB.sol:TokenB",
						"label": "_symbol",
						"offset": 0,
						"slot": "4",
						"type": "t_string_storage"
					},
					{
						"astId": 976,
						"contract": "TokenB.sol:TokenB",
						"label": "_paused",
						"offset": 0,
						"slot": "5",
						"type": "t_bool"
					},
					{
						"astId": 8,
						"contract": "TokenB.sol:TokenB",
						"label": "_owner",
						"offset": 1,
						"slot": "5",
						"type": "t_address"
					}
				],
				"types": {
					"t_address": {
						"encoding": "inplace",
						"label": "address",
						"numberOfBytes": "20"
					},
					"t_bool": {
						"encoding": "inplace",
						"label": "bool",
						"numberOfBytes": "1"
					},
					"t_mapping(t_address,t_mapping(t_address,t_uint256))": {
						"encoding": "mapping",
						"key": "t_address",
						"label": "mapping(address => mapping(address => uint256))",
						"numberOfBytes": "32",
						"value": "t_mapping(t_address,t_uint256)"
					},
					"t_mapping(t_address,t_uint256)": {
						"encoding": "mapping",
						"key": "t_address",
						"label": "mapping(address => uint256)",
						"numberOfBytes": "32",
						"value": "t_uint256"
					},
					"t_string_storage": {
						"encoding": "bytes",
						"label": "string",
						"numberOfBytes": "32"
					},
					"t_uint256": {
						"encoding": "inplace",
						"label": "uint256",
						"numberOfBytes": "32"
					}
				}
			},
			"userdoc": {
				"kind": "user",
				"methods": {},
				"version": 1
			}
		}
	}
}