{
	"data": {
		"bytecode": {
			"linkReferences": {},
			"object": "608060405234801561001057600080fd5b50604051613aaa380380613aaa8339818101604052810190610032919061021a565b6040518060400160405280600e81526020017f4c49515549444954595f504f4f4c0000000000000000000000000000000000008152506040518060400160405280600381526020017f4c5150000000000000000000000000000000000000000000000000000000000081525081600390816100ad91906104aa565b5080600490816100bd91906104aa565b5050508073ffffffffffffffffffffffffffffffffffffffff168273ffffffffffffffffffffffffffffffffffffffff160361012e576040517f08c379a0000000000000000000000000000000000000000000000000000000008152600401610125906105d9565b60405180910390fd5b81600560006101000a81548173ffffffffffffffffffffffffffffffffffffffff021916908373ffffffffffffffffffffffffffffffffffffffff16021790555080600660006101000a81548173ffffffffffffffffffffffffffffffffffffffff021916908373ffffffffffffffffffffffffffffffffffffffff16021790555050506105f9565b600080fd5b600073ffffffffffffffffffffffffffffffffffffffff82169050919050565b60006101e7826101bc565b9050919050565b6101f7816101dc565b811461020257600080fd5b50565b600081519050610214816101ee565b92915050565b60008060408385031215610231576102306101b7565b5b600061023f85828601610205565b925050602061025085828601610205565b9150509250929050565b600081519050919050565b7f4e487b7100000000000000000000000000000000000000000000000000000000600052604160045260246000fd5b7f4e487b7100000000000000000000000000000000000000000000000000000000600052602260045260246000fd5b600060028204905060018216806102db57607f821691505b6020821081036102ee576102ed610294565b5b50919050565b60008190508160005260206000209050919050565b60006020601f8301049050919050565b600082821b905092915050565b6000600883026103567fffffffffffffffffffffffffffffffffffffffffffffffffffffffffffffffff82610319565b6103608683610319565b95508019841693508086168417925050509392505050565b6000819050919050565b6000819050919050565b60006103a76103a261039d84610378565b610382565b610378565b9050919050565b6000819050919050565b6103c18361038c565b6103d56103cd826103ae565b848454610326565b825550505050565b600090565b6103ea6103dd565b6103f58184846103b8565b505050565b5b818110156104195761040e6000826103e2565b6001810190506103fb565b5050565b601f82111561045e5761042f816102f4565b61043884610309565b81016020851015610447578190505b61045b61045385610309565b8301826103fa565b50505b505050565b600082821c905092915050565b600061048160001984600802610463565b1980831691505092915050565b600061049a8383610470565b9150826002028217905092915050565b6104b38261025a565b67ffffffffffffffff8111156104cc576104cb610265565b5b6104d682546102c3565b6104e182828561041d565b600060209050601f8311600181146105145760008415610502578287015190505b61050c858261048e565b865550610574565b601f198416610522866102f4565b60005b8281101561054a57848901518255600182019150602085019450602081019050610525565b868310156105675784890151610563601f891682610470565b8355505b6001600288020188555050505b505050505050565b600082825260208201905092915050565b7f746f6b656e7320657175616c7321000000000000000000000000000000000000600082015250565b60006105c3600e8361057c565b91506105ce8261058d565b602082019050919050565b600060208201905081810360008301526105f2816105b6565b9050919050565b6134a2806106086000396000f3fe608060405234801561001057600080fd5b50600436106101165760003560e01c80636f6515c3116100a2578063ac41865a11610071578063ac41865a1461030d578063baa2abde1461033d578063dd62ed3e1461036e578063e250c5481461039e578063e8e33700146103bc57610116565b80636f6515c31461027157806370a082311461028f57806395d89b41146102bf578063a9059cbb146102dd57610116565b806321415ade116100e957806321415ade146101b757806323b872dd146101d5578063313ce5671461020557806338ed173914610223578063411110f31461025357610116565b8063054d50d41461011b57806306fdde031461014b578063095ea7b31461016957806318160ddd14610199575b600080fd5b61013560048036038101906101309190612562565b6103ee565b60405161014291906125c4565b60405180910390f35b610153610481565b604051610160919061266f565b60405180910390f35b610183600480360381019061017e91906126ef565b610513565b604051610190919061274a565b60405180910390f35b6101a1610536565b6040516101ae91906125c4565b60405180910390f35b6101bf610540565b6040516101cc91906125c4565b60405180910390f35b6101ef60048036038101906101ea9190612765565b610546565b6040516101fc919061274a565b60405180910390f35b61020d610575565b60405161021a91906127d4565b60405180910390f35b61023d60048036038101906102389190612854565b61057e565b60405161024a91906129ac565b60405180910390f35b61025b610b02565b60405161026891906129dd565b60405180910390f35b610279610b28565b60405161028691906125c4565b60405180910390f35b6102a960048036038101906102a491906129f8565b610b2e565b6040516102b691906125c4565b60405180910390f35b6102c7610b76565b6040516102d4919061266f565b60405180910390f35b6102f760048036038101906102f291906126ef565b610c08565b604051610304919061274a565b60405180910390f35b61032760048036038101906103229190612a25565b610c2b565b60405161033491906125c4565b60405180910390f35b61035760048036038101906103529190612a65565b610ecc565b604051610365929190612b07565b60405180910390f35b61038860048036038101906103839190612a25565b61141f565b60405161039591906125c4565b60405180910390f35b6103a66114a6565b6040516103b391906129dd565b60405180910390f35b6103d660048036038101906103d19190612b30565b6114cc565b6040516103e593929190612be6565b60405180910390f35b600080841180156103ff5750600083115b801561040b5750600082115b61044a576040517f08c379a000000000000000000000000000000000000000000000000000000000815260040161044190612c69565b60405180910390fd5b600082856104589190612cb8565b9050600085856104689190612cfa565b905080826104769190612d5d565b925050509392505050565b60606003805461049090612dbd565b80601f01602080910402602001604051908101604052809291908181526020018280546104bc90612dbd565b80156105095780601f106104de57610100808354040283529160200191610509565b820191906000526020600020905b8154815290600101906020018083116104ec57829003601f168201915b5050505050905090565b60008061051e611b02565b905061052b818585611b0a565b600191505092915050565b6000600254905090565b60075481565b600080610551611b02565b905061055e858285611b1c565b610569858585611bb1565b60019150509392505050565b60006012905090565b6060814211156105c3576040517f08c379a00000000000000000000000000000000000000000000000000000000081526004016105ba90612e3a565b60405180910390fd5b60028585905014610609576040517f08c379a000000000000000000000000000000000000000000000000000000000815260040161060090612ea6565b60405180910390fd5b600073ffffffffffffffffffffffffffffffffffffffff168373ffffffffffffffffffffffffffffffffffffffff1603610678576040517f08c379a000000000000000000000000000000000000000000000000000000000815260040161066f90612f12565b60405180910390fd5b60008585600081811061068e5761068d612f32565b5b90506020020160208101906106a391906129f8565b90506000868660018181106106bb576106ba612f32565b5b90506020020160208101906106d091906129f8565b9050600560009054906101000a900473ffffffffffffffffffffffffffffffffffffffff1673ffffffffffffffffffffffffffffffffffffffff168273ffffffffffffffffffffffffffffffffffffffff1614801561077c5750600660009054906101000a900473ffffffffffffffffffffffffffffffffffffffff1673ffffffffffffffffffffffffffffffffffffffff168173ffffffffffffffffffffffffffffffffffffffff16145b8061082d5750600660009054906101000a900473ffffffffffffffffffffffffffffffffffffffff1673ffffffffffffffffffffffffffffffffffffffff168273ffffffffffffffffffffffffffffffffffffffff1614801561082c5750600560009054906101000a900473ffffffffffffffffffffffffffffffffffffffff1673ffffffffffffffffffffffffffffffffffffffff168173ffffffffffffffffffffffffffffffffffffffff16145b5b61086c576040517f08c379a000000000000000000000000000000000000000000000000000000000815260040161086390612fad565b60405180910390fd5b6000600560009054906101000a900473ffffffffffffffffffffffffffffffffffffffff1673ffffffffffffffffffffffffffffffffffffffff168373ffffffffffffffffffffffffffffffffffffffff1614905060008a826108d1576008546108d5565b6007545b6108df9190612cfa565b826108ec576007546108f0565b6008545b8c6108fb9190612cb8565b6109059190612d5d565b90508981101561094a576040517f08c379a000000000000000000000000000000000000000000000000000000000815260040161094190613019565b60405180910390fd5b8115610987578a600760008282546109629190612cfa565b92505081905550806008600082825461097b9190613039565b925050819055506109ba565b8a600860008282546109999190612cfa565b9250508190555080600760008282546109b29190613039565b925050819055505b600267ffffffffffffffff8111156109d5576109d461306d565b5b604051908082528060200260200182016040528015610a035781602001602082028036833780820191505090505b5094508a85600081518110610a1b57610a1a612f32565b5b6020026020010181815250508085600181518110610a3c57610a3b612f32565b5b602002602001018181525050610a7533308d8773ffffffffffffffffffffffffffffffffffffffff16611ca5909392919063ffffffff16565b610aa087828573ffffffffffffffffffffffffffffffffffffffff16611d279092919063ffffffff16565b3373ffffffffffffffffffffffffffffffffffffffff167fad56699d0f375866eb895ed27203058a36a713382aaded78eb6b67da266d433285858e85604051610aec949392919061309c565b60405180910390a2505050509695505050505050565b600560009054906101000a900473ffffffffffffffffffffffffffffffffffffffff1681565b60085481565b60008060008373ffffffffffffffffffffffffffffffffffffffff1673ffffffffffffffffffffffffffffffffffffffff168152602001908152602001600020549050919050565b606060048054610b8590612dbd565b80601f0160208091040260200160405190810160405280929190818152602001828054610bb190612dbd565b8015610bfe5780601f10610bd357610100808354040283529160200191610bfe565b820191906000526020600020905b815481529060010190602001808311610be157829003601f168201915b5050505050905090565b600080610c13611b02565b9050610c20818585611bb1565b600191505092915050565b6000600560009054906101000a900473ffffffffffffffffffffffffffffffffffffffff1673ffffffffffffffffffffffffffffffffffffffff168373ffffffffffffffffffffffffffffffffffffffff16148015610cd75750600660009054906101000a900473ffffffffffffffffffffffffffffffffffffffff1673ffffffffffffffffffffffffffffffffffffffff168273ffffffffffffffffffffffffffffffffffffffff16145b80610d885750600660009054906101000a900473ffffffffffffffffffffffffffffffffffffffff1673ffffffffffffffffffffffffffffffffffffffff168373ffffffffffffffffffffffffffffffffffffffff16148015610d875750600560009054906101000a900473ffffffffffffffffffffffffffffffffffffffff1673ffffffffffffffffffffffffffffffffffffffff168273ffffffffffffffffffffffffffffffffffffffff16145b5b610dc7576040517f08c379a0000000000000000000000000000000000000000000000000000000008152600401610dbe90612fad565b60405180910390fd5b6000600754118015610ddb57506000600854115b610e1a576040517f08c379a0000000000000000000000000000000000000000000000000000000008152600401610e119061312d565b60405180910390fd5b6000600560009054906101000a900473ffffffffffffffffffffffffffffffffffffffff1673ffffffffffffffffffffffffffffffffffffffff168473ffffffffffffffffffffffffffffffffffffffff161490508015610e9f57600754670de0b6b3a7640000600854610e8e9190612cb8565b610e989190612d5d565b9150610ec5565b600854670de0b6b3a7640000600754610eb89190612cb8565b610ec29190612d5d565b91505b5092915050565b60008082421115610f12576040517f08c379a0000000000000000000000000000000000000000000000000000000008152600401610f0990612e3a565b60405180910390fd5b600560009054906101000a900473ffffffffffffffffffffffffffffffffffffffff1673ffffffffffffffffffffffffffffffffffffffff168973ffffffffffffffffffffffffffffffffffffffff16148015610fbc5750600660009054906101000a900473ffffffffffffffffffffffffffffffffffffffff1673ffffffffffffffffffffffffffffffffffffffff168873ffffffffffffffffffffffffffffffffffffffff16145b8061106d5750600660009054906101000a900473ffffffffffffffffffffffffffffffffffffffff1673ffffffffffffffffffffffffffffffffffffffff168973ffffffffffffffffffffffffffffffffffffffff1614801561106c5750600560009054906101000a900473ffffffffffffffffffffffffffffffffffffffff1673ffffffffffffffffffffffffffffffffffffffff168873ffffffffffffffffffffffffffffffffffffffff16145b5b6110ac576040517f08c379a00000000000000000000000000000000000000000000000000000000081526004016110a390613199565b60405180910390fd5b600073ffffffffffffffffffffffffffffffffffffffff168473ffffffffffffffffffffffffffffffffffffffff160361111b576040517f08c379a000000000000000000000000000000000000000000000000000000000815260040161111290612f12565b60405180910390fd5b60006007549050600060085490506000611133610536565b90508961113f33610b2e565b1015611180576040517f08c379a000000000000000000000000000000000000000000000000000000000815260040161117790613205565b60405180910390fd5b80838b61118d9190612cb8565b6111979190612d5d565b945080828b6111a69190612cb8565b6111b09190612d5d565b93508885101580156111c25750878410155b611201576040517f08c379a00000000000000000000000000000000000000000000000000000000081526004016111f890613271565b60405180910390fd5b848361120d9190613039565b600781905550838261121f9190613039565b600881905550600560009054906101000a900473ffffffffffffffffffffffffffffffffffffffff1673ffffffffffffffffffffffffffffffffffffffff168c73ffffffffffffffffffffffffffffffffffffffff1603611319576112c78786600560009054906101000a900473ffffffffffffffffffffffffffffffffffffffff1673ffffffffffffffffffffffffffffffffffffffff16611d279092919063ffffffff16565b6113148785600660009054906101000a900473ffffffffffffffffffffffffffffffffffffffff1673ffffffffffffffffffffffffffffffffffffffff16611d279092919063ffffffff16565b6113b4565b6113668785600560009054906101000a900473ffffffffffffffffffffffffffffffffffffffff1673ffffffffffffffffffffffffffffffffffffffff16611d279092919063ffffffff16565b6113b38786600660009054906101000a900473ffffffffffffffffffffffffffffffffffffffff1673ffffffffffffffffffffffffffffffffffffffff16611d279092919063ffffffff16565b5b6113be338b611da6565b8673ffffffffffffffffffffffffffffffffffffffff167f1dc8bb69df2b8e91fbdcbfcf93d951b3f0000f085a95fe3f7946d6161439245d86868d60405161140893929190612be6565b60405180910390a250505097509795505050505050565b6000600160008473ffffffffffffffffffffffffffffffffffffffff1673ffffffffffffffffffffffffffffffffffffffff16815260200190815260200160002060008373ffffffffffffffffffffffffffffffffffffffff1673ffffffffffffffffffffffffffffffffffffffff16815260200190815260200160002054905092915050565b600660009054906101000a900473ffffffffffffffffffffffffffffffffffffffff1681565b600080600083421115611514576040517f08c379a000000000000000000000000000000000000000000000000000000000815260040161150b90612e3a565b60405180910390fd5b600560009054906101000a900473ffffffffffffffffffffffffffffffffffffffff1673ffffffffffffffffffffffffffffffffffffffff168b73ffffffffffffffffffffffffffffffffffffffff161480156115be5750600660009054906101000a900473ffffffffffffffffffffffffffffffffffffffff1673ffffffffffffffffffffffffffffffffffffffff168a73ffffffffffffffffffffffffffffffffffffffff16145b8061166f5750600660009054906101000a900473ffffffffffffffffffffffffffffffffffffffff1673ffffffffffffffffffffffffffffffffffffffff168b73ffffffffffffffffffffffffffffffffffffffff1614801561166e5750600560009054906101000a900473ffffffffffffffffffffffffffffffffffffffff1673ffffffffffffffffffffffffffffffffffffffff168a73ffffffffffffffffffffffffffffffffffffffff16145b5b6116ae576040517f08c379a00000000000000000000000000000000000000000000000000000000081526004016116a590613199565b60405180910390fd5b600073ffffffffffffffffffffffffffffffffffffffff168573ffffffffffffffffffffffffffffffffffffffff160361171d576040517f08c379a000000000000000000000000000000000000000000000000000000000815260040161171490612f12565b60405180910390fd5b60006007549050600060085490506000611735610536565b90506000831480156117475750600082145b1561175b578b8b809650819750505061183b565b600083838e61176a9190612cb8565b6117749190612d5d565b90508b81116117cf57898110156117c0576040517f08c379a00000000000000000000000000000000000000000000000000000000081526004016117b7906132dd565b60405180910390fd5b8c818097508198505050611839565b600083858e6117de9190612cb8565b6117e89190612d5d565b90508b81101561182d576040517f08c379a000000000000000000000000000000000000000000000000000000000815260040161182490613349565b60405180910390fd5b808d8098508199505050505b505b600560009054906101000a900473ffffffffffffffffffffffffffffffffffffffff1673ffffffffffffffffffffffffffffffffffffffff168e73ffffffffffffffffffffffffffffffffffffffff1603611933576118df333088600560009054906101000a900473ffffffffffffffffffffffffffffffffffffffff1673ffffffffffffffffffffffffffffffffffffffff16611ca5909392919063ffffffff16565b61192e333087600660009054906101000a900473ffffffffffffffffffffffffffffffffffffffff1673ffffffffffffffffffffffffffffffffffffffff16611ca5909392919063ffffffff16565b6119d2565b611982333087600560009054906101000a900473ffffffffffffffffffffffffffffffffffffffff1673ffffffffffffffffffffffffffffffffffffffff16611ca5909392919063ffffffff16565b6119d1333088600660009054906101000a900473ffffffffffffffffffffffffffffffffffffffff1673ffffffffffffffffffffffffffffffffffffffff16611ca5909392919063ffffffff16565b5b600081036119f5576119ee85876119e99190612cb8565b611e28565b9350611a2e565b611a2b838288611a059190612cb8565b611a0f9190612d5d565b838388611a1c9190612cb8565b611a269190612d5d565b611fc5565b93505b60008411611a71576040517f08c379a0000000000000000000000000000000000000000000000000000000008152600401611a68906133b5565b60405180910390fd5b8583611a7d9190612cfa565b6007819055508482611a8f9190612cfa565b600881905550611a9f8885611fdc565b8773ffffffffffffffffffffffffffffffffffffffff167f64b83944e79c3ce8d4c297411de637c3e102d064677aac0c163976ebdcd6f50e878787604051611ae993929190612be6565b60405180910390a2505050985098509895505050505050565b600033905090565b611b17838383600161205e565b505050565b6000611b28848461141f565b90507fffffffffffffffffffffffffffffffffffffffffffffffffffffffffffffffff811015611bab5781811015611b9b578281836040517ffb8f41b2000000000000000000000000000000000000000000000000000000008152600401611b92939291906133d5565b60405180910390fd5b611baa8484848403600061205e565b5b50505050565b600073ffffffffffffffffffffffffffffffffffffffff168373ffffffffffffffffffffffffffffffffffffffff1603611c235760006040517f96c6fd1e000000000000000000000000000000000000000000000000000000008152600401611c1a91906129dd565b60405180910390fd5b600073ffffffffffffffffffffffffffffffffffffffff168273ffffffffffffffffffffffffffffffffffffffff1603611c955760006040517fec442f05000000000000000000000000000000000000000000000000000000008152600401611c8c91906129dd565b60405180910390fd5b611ca0838383612235565b505050565b611d21848573ffffffffffffffffffffffffffffffffffffffff166323b872dd868686604051602401611cda9392919061340c565b604051602081830303815290604052915060e01b6020820180517bffffffffffffffffffffffffffffffffffffffffffffffffffffffff838183161783525050505061245a565b50505050565b611da1838473ffffffffffffffffffffffffffffffffffffffff1663a9059cbb8585604051602401611d5a929190613443565b604051602081830303815290604052915060e01b6020820180517bffffffffffffffffffffffffffffffffffffffffffffffffffffffff838183161783525050505061245a565b505050565b600073ffffffffffffffffffffffffffffffffffffffff168273ffffffffffffffffffffffffffffffffffffffff1603611e185760006040517f96c6fd1e000000000000000000000000000000000000000000000000000000008152600401611e0f91906129dd565b60405180910390fd5b611e2482600083612235565b5050565b600060018211611e3a57819050611fc0565b60008290506000600190507001000000000000000000000000000000008210611e6c57608082901c9150604081901b90505b680100000000000000008210611e8b57604082901c9150602081901b90505b6401000000008210611ea657602082901c9150601081901b90505b620100008210611ebf57601082901c9150600881901b90505b6101008210611ed757600882901c9150600481901b90505b60108210611eee57600482901c9150600281901b90505b60048210611efe57600181901b90505b600181600302901c90506001818581611f1a57611f19612d2e565b5b048201901c90506001818581611f3357611f32612d2e565b5b048201901c90506001818581611f4c57611f4b612d2e565b5b048201901c90506001818581611f6557611f64612d2e565b5b048201901c90506001818581611f7e57611f7d612d2e565b5b048201901c90506001818581611f9757611f96612d2e565b5b048201901c9050611fb9818581611fb157611fb0612d2e565b5b0482116124fc565b8103925050505b919050565b6000611fd48284108484612508565b905092915050565b600073ffffffffffffffffffffffffffffffffffffffff168273ffffffffffffffffffffffffffffffffffffffff160361204e5760006040517fec442f0500000000000000000000000000000000000000000000000000000000815260040161204591906129dd565b60405180910390fd5b61205a60008383612235565b5050565b600073ffffffffffffffffffffffffffffffffffffffff168473ffffffffffffffffffffffffffffffffffffffff16036120d05760006040517fe602df050000000000000000000000000000000000000000000000000000000081526004016120c791906129dd565b60405180910390fd5b600073ffffffffffffffffffffffffffffffffffffffff168373ffffffffffffffffffffffffffffffffffffffff16036121425760006040517f94280d6200000000000000000000000000000000000000000000000000000000815260040161213991906129dd565b60405180910390fd5b81600160008673ffffffffffffffffffffffffffffffffffffffff1673ffffffffffffffffffffffffffffffffffffffff16815260200190815260200160002060008573ffffffffffffffffffffffffffffffffffffffff1673ffffffffffffffffffffffffffffffffffffffff16815260200190815260200160002081905550801561222f578273ffffffffffffffffffffffffffffffffffffffff168473ffffffffffffffffffffffffffffffffffffffff167f8c5be1e5ebec7d5bd14f71427d1e84f3dd0314c0f7b2291e5b200ac8c7c3b9258460405161222691906125c4565b60405180910390a35b50505050565b600073ffffffffffffffffffffffffffffffffffffffff168373ffffffffffffffffffffffffffffffffffffffff160361228757806002600082825461227b9190612cfa565b9250508190555061235a565b60008060008573ffffffffffffffffffffffffffffffffffffffff1673ffffffffffffffffffffffffffffffffffffffff16815260200190815260200160002054905081811015612313578381836040517fe450d38c00000000000000000000000000000000000000000000000000000000815260040161230a939291906133d5565b60405180910390fd5b8181036000808673ffffffffffffffffffffffffffffffffffffffff1673ffffffffffffffffffffffffffffffffffffffff16815260200190815260200160002081905550505b600073ffffffffffffffffffffffffffffffffffffffff168273ffffffffffffffffffffffffffffffffffffffff16036123a357806002600082825403925050819055506123f0565b806000808473ffffffffffffffffffffffffffffffffffffffff1673ffffffffffffffffffffffffffffffffffffffff168152602001908152602001600020600082825401925050819055505b8173ffffffffffffffffffffffffffffffffffffffff168373ffffffffffffffffffffffffffffffffffffffff167fddf252ad1be2c89b69c2b068fc378daa952ba7f163c4a11628f55a4df523b3ef8360405161244d91906125c4565b60405180910390a3505050565b600080602060008451602086016000885af18061247d576040513d6000823e3d81fd5b3d9250600051915050600082146124985760018114156124b4565b60008473ffffffffffffffffffffffffffffffffffffffff163b145b156124f657836040517f5274afe70000000000000000000000000000000000000000000000000000000081526004016124ed91906129dd565b60405180910390fd5b50505050565b60008115159050919050565b6000612513846124fc565b82841802821890509392505050565b600080fd5b600080fd5b6000819050919050565b61253f8161252c565b811461254a57600080fd5b50565b60008135905061255c81612536565b92915050565b60008060006060848603121561257b5761257a612522565b5b60006125898682870161254d565b935050602061259a8682870161254d565b92505060406125ab8682870161254d565b9150509250925092565b6125be8161252c565b82525050565b60006020820190506125d960008301846125b5565b92915050565b600081519050919050565b600082825260208201905092915050565b60005b838110156126195780820151818401526020810190506125fe565b60008484015250505050565b6000601f19601f8301169050919050565b6000612641826125df565b61264b81856125ea565b935061265b8185602086016125fb565b61266481612625565b840191505092915050565b600060208201905081810360008301526126898184612636565b905092915050565b600073ffffffffffffffffffffffffffffffffffffffff82169050919050565b60006126bc82612691565b9050919050565b6126cc816126b1565b81146126d757600080fd5b50565b6000813590506126e9816126c3565b92915050565b6000806040838503121561270657612705612522565b5b6000612714858286016126da565b92505060206127258582860161254d565b9150509250929050565b60008115159050919050565b6127448161272f565b82525050565b600060208201905061275f600083018461273b565b92915050565b60008060006060848603121561277e5761277d612522565b5b600061278c868287016126da565b935050602061279d868287016126da565b92505060406127ae8682870161254d565b9150509250925092565b600060ff82169050919050565b6127ce816127b8565b82525050565b60006020820190506127e960008301846127c5565b92915050565b600080fd5b600080fd5b600080fd5b60008083601f840112612814576128136127ef565b5b8235905067ffffffffffffffff811115612831576128306127f4565b5b60208301915083602082028301111561284d5761284c6127f9565b5b9250929050565b60008060008060008060a0878903121561287157612870612522565b5b600061287f89828a0161254d565b965050602061289089828a0161254d565b955050604087013567ffffffffffffffff8111156128b1576128b0612527565b5b6128bd89828a016127fe565b945094505060606128d089828a016126da565b92505060806128e189828a0161254d565b9150509295509295509295565b600081519050919050565b600082825260208201905092915050565b6000819050602082019050919050565b6129238161252c565b82525050565b6000612935838361291a565b60208301905092915050565b6000602082019050919050565b6000612959826128ee565b61296381856128f9565b935061296e8361290a565b8060005b8381101561299f5781516129868882612929565b975061299183612941565b925050600181019050612972565b5085935050505092915050565b600060208201905081810360008301526129c6818461294e565b905092915050565b6129d7816126b1565b82525050565b60006020820190506129f260008301846129ce565b92915050565b600060208284031215612a0e57612a0d612522565b5b6000612a1c848285016126da565b91505092915050565b60008060408385031215612a3c57612a3b612522565b5b6000612a4a858286016126da565b9250506020612a5b858286016126da565b9150509250929050565b600080600080600080600060e0888a031215612a8457612a83612522565b5b6000612a928a828b016126da565b9750506020612aa38a828b016126da565b9650506040612ab48a828b0161254d565b9550506060612ac58a828b0161254d565b9450506080612ad68a828b0161254d565b93505060a0612ae78a828b016126da565b92505060c0612af88a828b0161254d565b91505092959891949750929550565b6000604082019050612b1c60008301856125b5565b612b2960208301846125b5565b9392505050565b600080600080600080600080610100898b031215612b5157612b50612522565b5b6000612b5f8b828c016126da565b9850506020612b708b828c016126da565b9750506040612b818b828c0161254d565b9650506060612b928b828c0161254d565b9550506080612ba38b828c0161254d565b94505060a0612bb48b828c0161254d565b93505060c0612bc58b828c016126da565b92505060e0612bd68b828c0161254d565b9150509295985092959890939650565b6000606082019050612bfb60008301866125b5565b612c0860208301856125b5565b612c1560408301846125b5565b949350505050565b7f496e76616c6964207265736572766573206f7220616d6f756e74000000000000600082015250565b6000612c53601a836125ea565b9150612c5e82612c1d565b602082019050919050565b60006020820190508181036000830152612c8281612c46565b9050919050565b7f4e487b7100000000000000000000000000000000000000000000000000000000600052601160045260246000fd5b6000612cc38261252c565b9150612cce8361252c565b9250828202612cdc8161252c565b91508282048414831517612cf357612cf2612c89565b5b5092915050565b6000612d058261252c565b9150612d108361252c565b9250828201905080821115612d2857612d27612c89565b5b92915050565b7f4e487b7100000000000000000000000000000000000000000000000000000000600052601260045260246000fd5b6000612d688261252c565b9150612d738361252c565b925082612d8357612d82612d2e565b5b828204905092915050565b7f4e487b7100000000000000000000000000000000000000000000000000000000600052602260045260246000fd5b60006002820490506001821680612dd557607f821691505b602082108103612de857612de7612d8e565b5b50919050565b7f5472616e73616374696f6e206578706972656400000000000000000000000000600082015250565b6000612e246013836125ea565b9150612e2f82612dee565b602082019050919050565b60006020820190508181036000830152612e5381612e17565b9050919050565b7f496e76616c69642070617468206c656e67746800000000000000000000000000600082015250565b6000612e906013836125ea565b9150612e9b82612e5a565b602082019050919050565b60006020820190508181036000830152612ebf81612e83565b9050919050565b7f496e76616c69642027746f272061646472657373000000000000000000000000600082015250565b6000612efc6014836125ea565b9150612f0782612ec6565b602082019050919050565b60006020820190508181036000830152612f2b81612eef565b9050919050565b7f4e487b7100000000000000000000000000000000000000000000000000000000600052603260045260246000fd5b7f496e76616c696420746f6b656e73000000000000000000000000000000000000600082015250565b6000612f97600e836125ea565b9150612fa282612f61565b602082019050919050565b60006020820190508181036000830152612fc681612f8a565b9050919050565b7f496e73756666696369656e74206f757470757420616d6f756e74000000000000600082015250565b6000613003601a836125ea565b915061300e82612fcd565b602082019050919050565b6000602082019050818103600083015261303281612ff6565b9050919050565b60006130448261252c565b915061304f8361252c565b925082820390508181111561306757613066612c89565b5b92915050565b7f4e487b7100000000000000000000000000000000000000000000000000000000600052604160045260246000fd5b60006080820190506130b160008301876129ce565b6130be60208301866129ce565b6130cb60408301856125b5565b6130d860608301846125b5565b95945050505050565b7f4e6f206c69717569646974790000000000000000000000000000000000000000600082015250565b6000613117600c836125ea565b9150613122826130e1565b602082019050919050565b600060208201905081810360008301526131468161310a565b9050919050565b7f496e76616c696420746f6b656e20706169720000000000000000000000000000600082015250565b60006131836012836125ea565b915061318e8261314d565b602082019050919050565b600060208201905081810360008301526131b281613176565b9050919050565b7f4e6f7420656e6f756768206c6971756964697479000000000000000000000000600082015250565b60006131ef6014836125ea565b91506131fa826131b9565b602082019050919050565b6000602082019050818103600083015261321e816131e2565b9050919050565b7f536c697070616765206c696d6974000000000000000000000000000000000000600082015250565b600061325b600e836125ea565b915061326682613225565b602082019050919050565b6000602082019050818103600083015261328a8161324e565b9050919050565b7f496e73756666696369656e74204220616d6f756e740000000000000000000000600082015250565b60006132c76015836125ea565b91506132d282613291565b602082019050919050565b600060208201905081810360008301526132f6816132ba565b9050919050565b7f496e73756666696369656e74204120616d6f756e740000000000000000000000600082015250565b60006133336015836125ea565b915061333e826132fd565b602082019050919050565b6000602082019050818103600083015261336281613326565b9050919050565b7f496e73756666696369656e74206c697175696469747900000000000000000000600082015250565b600061339f6016836125ea565b91506133aa82613369565b602082019050919050565b600060208201905081810360008301526133ce81613392565b9050919050565b60006060820190506133ea60008301866129ce565b6133f760208301856125b5565b61340460408301846125b5565b949350505050565b600060608201905061342160008301866129ce565b61342e60208301856129ce565b61343b60408301846125b5565b949350505050565b600060408201905061345860008301856129ce565b61346560208301846125b5565b939250505056fea264697066735822122095a254824e629f36c084cd20d66b20e50ce02f6618a8abd86df89d426007a68164736f6c634300081a0033",
			"opcodes": "PUSH1 0x80 PUSH1 0x40 MSTORE CALLVALUE DUP1 ISZERO PUSH2 0x10 JUMPI PUSH1 0x0 DUP1 REVERT JUMPDEST POP PUSH1 0x40 MLOAD PUSH2 0x3AAA CODESIZE SUB DUP1 PUSH2 0x3AAA DUP4 CODECOPY DUP2 DUP2 ADD PUSH1 0x40 MSTORE DUP2 ADD SWAP1 PUSH2 0x32 SWAP2 SWAP1 PUSH2 0x21A JUMP JUMPDEST PUSH1 0x40 MLOAD DUP1 PUSH1 0x40 ADD PUSH1 0x40 MSTORE DUP1 PUSH1 0xE DUP2 MSTORE PUSH1 0x20 ADD PUSH32 0x4C49515549444954595F504F4F4C000000000000000000000000000000000000 DUP2 MSTORE POP PUSH1 0x40 MLOAD DUP1 PUSH1 0x40 ADD PUSH1 0x40 MSTORE DUP1 PUSH1 0x3 DUP2 MSTORE PUSH1 0x20 ADD PUSH32 0x4C51500000000000000000000000000000000000000000000000000000000000 DUP2 MSTORE POP DUP2 PUSH1 0x3 SWAP1 DUP2 PUSH2 0xAD SWAP2 SWAP1 PUSH2 0x4AA JUMP JUMPDEST POP DUP1 PUSH1 0x4 SWAP1 DUP2 PUSH2 0xBD SWAP2 SWAP1 PUSH2 0x4AA JUMP JUMPDEST POP POP POP DUP1 PUSH20 0xFFFFFFFFFFFFFFFFFFFFFFFFFFFFFFFFFFFFFFFF AND DUP3 PUSH20 0xFFFFFFFFFFFFFFFFFFFFFFFFFFFFFFFFFFFFFFFF AND SUB PUSH2 0x12E JUMPI PUSH1 0x40 MLOAD PUSH32 0x8C379A000000000000000000000000000000000000000000000000000000000 DUP2 MSTORE PUSH1 0x4 ADD PUSH2 0x125 SWAP1 PUSH2 0x5D9 JUMP JUMPDEST PUSH1 0x40 MLOAD DUP1 SWAP2 SUB SWAP1 REVERT JUMPDEST DUP2 PUSH1 0x5 PUSH1 0x0 PUSH2 0x100 EXP DUP2 SLOAD DUP2 PUSH20 0xFFFFFFFFFFFFFFFFFFFFFFFFFFFFFFFFFFFFFFFF MUL NOT AND SWAP1 DUP4 PUSH20 0xFFFFFFFFFFFFFFFFFFFFFFFFFFFFFFFFFFFFFFFF AND MUL OR SWAP1 SSTORE POP DUP1 PUSH1 0x6 PUSH1 0x0 PUSH2 0x100 EXP DUP2 SLOAD DUP2 PUSH20 0xFFFFFFFFFFFFFFFFFFFFFFFFFFFFFFFFFFFFFFFF MUL NOT AND SWAP1 DUP4 PUSH20 0xFFFFFFFFFFFFFFFFFFFFFFFFFFFFFFFFFFFFFFFF AND MUL OR SWAP1 SSTORE POP POP POP PUSH2 0x5F9 JUMP JUMPDEST PUSH1 0x0 DUP1 REVERT JUMPDEST PUSH1 0x0 PUSH20 0xFFFFFFFFFFFFFFFFFFFFFFFFFFFFFFFFFFFFFFFF DUP3 AND SWAP1 POP SWAP2 SWAP1 POP JUMP JUMPDEST PUSH1 0x0 PUSH2 0x1E7 DUP3 PUSH2 0x1BC JUMP JUMPDEST SWAP1 POP SWAP2 SWAP1 POP JUMP JUMPDEST PUSH2 0x1F7 DUP2 PUSH2 0x1DC JUMP JUMPDEST DUP2 EQ PUSH2 0x202 JUMPI PUSH1 0x0 DUP1 REVERT JUMPDEST POP JUMP JUMPDEST PUSH1 0x0 DUP2 MLOAD SWAP1 POP PUSH2 0x214 DUP2 PUSH2 0x1EE JUMP JUMPDEST SWAP3 SWAP2 POP POP JUMP JUMPDEST PUSH1 0x0 DUP1 PUSH1 0x40 DUP4 DUP6 SUB SLT ISZERO PUSH2 0x231 JUMPI PUSH2 0x230 PUSH2 0x1B7 JUMP JUMPDEST JUMPDEST PUSH1 0x0 PUSH2 0x23F DUP6 DUP3 DUP7 ADD PUSH2 0x205 JUMP JUMPDEST SWAP3 POP POP PUSH1 0x20 PUSH2 0x250 DUP6 DUP3 DUP7 ADD PUSH2 0x205 JUMP JUMPDEST SWAP2 POP POP SWAP3 POP SWAP3 SWAP1 POP JUMP JUMPDEST PUSH1 0x0 DUP2 MLOAD SWAP1 POP SWAP2 SWAP1 POP JUMP JUMPDEST PUSH32 0x4E487B7100000000000000000000000000000000000000000000000000000000 PUSH1 0x0 MSTORE PUSH1 0x41 PUSH1 0x4 MSTORE PUSH1 0x24 PUSH1 0x0 REVERT JUMPDEST PUSH32 0x4E487B7100000000000000000000000000000000000000000000000000000000 PUSH1 0x0 MSTORE PUSH1 0x22 PUSH1 0x4 MSTORE PUSH1 0x24 PUSH1 0x0 REVERT JUMPDEST PUSH1 0x0 PUSH1 0x2 DUP3 DIV SWAP1 POP PUSH1 0x1 DUP3 AND DUP1 PUSH2 0x2DB JUMPI PUSH1 0x7F DUP3 AND SWAP2 POP JUMPDEST PUSH1 0x20 DUP3 LT DUP2 SUB PUSH2 0x2EE JUMPI PUSH2 0x2ED PUSH2 0x294 JUMP JUMPDEST JUMPDEST POP SWAP2 SWAP1 POP JUMP JUMPDEST PUSH1 0x0 DUP2 SWAP1 POP DUP2 PUSH1 0x0 MSTORE PUSH1 0x20 PUSH1 0x0 KECCAK256 SWAP1 POP SWAP2 SWAP1 POP JUMP JUMPDEST PUSH1 0x0 PUSH1 0x20 PUSH1 0x1F DUP4 ADD DIV SWAP1 POP SWAP2 SWAP1 POP JUMP JUMPDEST PUSH1 0x0 DUP3 DUP3 SHL SWAP1 POP SWAP3 SWAP2 POP POP JUMP JUMPDEST PUSH1 0x0 PUSH1 0x8 DUP4 MUL PUSH2 0x356 PUSH32 0xFFFFFFFFFFFFFFFFFFFFFFFFFFFFFFFFFFFFFFFFFFFFFFFFFFFFFFFFFFFFFFFF DUP3 PUSH2 0x319 JUMP JUMPDEST PUSH2 0x360 DUP7 DUP4 PUSH2 0x319 JUMP JUMPDEST SWAP6 POP DUP1 NOT DUP5 AND SWAP4 POP DUP1 DUP7 AND DUP5 OR SWAP3 POP POP POP SWAP4 SWAP3 POP POP POP JUMP JUMPDEST PUSH1 0x0 DUP2 SWAP1 POP SWAP2 SWAP1 POP JUMP JUMPDEST PUSH1 0x0 DUP2 SWAP1 POP SWAP2 SWAP1 POP JUMP JUMPDEST PUSH1 0x0 PUSH2 0x3A7 PUSH2 0x3A2 PUSH2 0x39D DUP5 PUSH2 0x378 JUMP JUMPDEST PUSH2 0x382 JUMP JUMPDEST PUSH2 0x378 JUMP JUMPDEST SWAP1 POP SWAP2 SWAP1 POP JUMP JUMPDEST PUSH1 0x0 DUP2 SWAP1 POP SWAP2 SWAP1 POP JUMP JUMPDEST PUSH2 0x3C1 DUP4 PUSH2 0x38C JUMP JUMPDEST PUSH2 0x3D5 PUSH2 0x3CD DUP3 PUSH2 0x3AE JUMP JUMPDEST DUP5 DUP5 SLOAD PUSH2 0x326 JUMP JUMPDEST DUP3 SSTORE POP POP POP POP JUMP JUMPDEST PUSH1 0x0 SWAP1 JUMP JUMPDEST PUSH2 0x3EA PUSH2 0x3DD JUMP JUMPDEST PUSH2 0x3F5 DUP2 DUP5 DUP5 PUSH2 0x3B8 JUMP JUMPDEST POP POP POP JUMP JUMPDEST JUMPDEST DUP2 DUP2 LT ISZERO PUSH2 0x419 JUMPI PUSH2 0x40E PUSH1 0x0 DUP3 PUSH2 0x3E2 JUMP JUMPDEST PUSH1 0x1 DUP2 ADD SWAP1 POP PUSH2 0x3FB JUMP JUMPDEST POP POP JUMP JUMPDEST PUSH1 0x1F DUP3 GT ISZERO PUSH2 0x45E JUMPI PUSH2 0x42F DUP2 PUSH2 0x2F4 JUMP JUMPDEST PUSH2 0x438 DUP5 PUSH2 0x309 JUMP JUMPDEST DUP2 ADD PUSH1 0x20 DUP6 LT ISZERO PUSH2 0x447 JUMPI DUP2 SWAP1 POP JUMPDEST PUSH2 0x45B PUSH2 0x453 DUP6 PUSH2 0x309 JUMP JUMPDEST DUP4 ADD DUP3 PUSH2 0x3FA JUMP JUMPDEST POP POP JUMPDEST POP POP POP JUMP JUMPDEST PUSH1 0x0 DUP3 DUP3 SHR SWAP1 POP SWAP3 SWAP2 POP POP JUMP JUMPDEST PUSH1 0x0 PUSH2 0x481 PUSH1 0x0 NOT DUP5 PUSH1 0x8 MUL PUSH2 0x463 JUMP JUMPDEST NOT DUP1 DUP4 AND SWAP2 POP POP SWAP3 SWAP2 POP POP JUMP JUMPDEST PUSH1 0x0 PUSH2 0x49A DUP4 DUP4 PUSH2 0x470 JUMP JUMPDEST SWAP2 POP DUP3 PUSH1 0x2 MUL DUP3 OR SWAP1 POP SWAP3 SWAP2 POP POP JUMP JUMPDEST PUSH2 0x4B3 DUP3 PUSH2 0x25A JUMP JUMPDEST PUSH8 0xFFFFFFFFFFFFFFFF DUP2 GT ISZERO PUSH2 0x4CC JUMPI PUSH2 0x4CB PUSH2 0x265 JUMP JUMPDEST JUMPDEST PUSH2 0x4D6 DUP3 SLOAD PUSH2 0x2C3 JUMP JUMPDEST PUSH2 0x4E1 DUP3 DUP3 DUP6 PUSH2 0x41D JUMP JUMPDEST PUSH1 0x0 PUSH1 0x20 SWAP1 POP PUSH1 0x1F DUP4 GT PUSH1 0x1 DUP2 EQ PUSH2 0x514 JUMPI PUSH1 0x0 DUP5 ISZERO PUSH2 0x502 JUMPI DUP3 DUP8 ADD MLOAD SWAP1 POP JUMPDEST PUSH2 0x50C DUP6 DUP3 PUSH2 0x48E JUMP JUMPDEST DUP7 SSTORE POP PUSH2 0x574 JUMP JUMPDEST PUSH1 0x1F NOT DUP5 AND PUSH2 0x522 DUP7 PUSH2 0x2F4 JUMP JUMPDEST PUSH1 0x0 JUMPDEST DUP3 DUP2 LT ISZERO PUSH2 0x54A JUMPI DUP5 DUP10 ADD MLOAD DUP3 SSTORE PUSH1 0x1 DUP3 ADD SWAP2 POP PUSH1 0x20 DUP6 ADD SWAP5 POP PUSH1 0x20 DUP2 ADD SWAP1 POP PUSH2 0x525 JUMP JUMPDEST DUP7 DUP4 LT ISZERO PUSH2 0x567 JUMPI DUP5 DUP10 ADD MLOAD PUSH2 0x563 PUSH1 0x1F DUP10 AND DUP3 PUSH2 0x470 JUMP JUMPDEST DUP4 SSTORE POP JUMPDEST PUSH1 0x1 PUSH1 0x2 DUP9 MUL ADD DUP9 SSTORE POP POP POP JUMPDEST POP POP POP POP POP POP JUMP JUMPDEST PUSH1 0x0 DUP3 DUP3 MSTORE PUSH1 0x20 DUP3 ADD SWAP1 POP SWAP3 SWAP2 POP POP JUMP JUMPDEST PUSH32 0x746F6B656E7320657175616C7321000000000000000000000000000000000000 PUSH1 0x0 DUP3 ADD MSTORE POP JUMP JUMPDEST PUSH1 0x0 PUSH2 0x5C3 PUSH1 0xE DUP4 PUSH2 0x57C JUMP JUMPDEST SWAP2 POP PUSH2 0x5CE DUP3 PUSH2 0x58D JUMP JUMPDEST PUSH1 0x20 DUP3 ADD SWAP1 POP SWAP2 SWAP1 POP JUMP JUMPDEST PUSH1 0x0 PUSH1 0x20 DUP3 ADD SWAP1 POP DUP2 DUP2 SUB PUSH1 0x0 DUP4 ADD MSTORE PUSH2 0x5F2 DUP2 PUSH2 0x5B6 JUMP JUMPDEST SWAP1 POP SWAP2 SWAP1 POP JUMP JUMPDEST PUSH2 0x34A2 DUP1 PUSH2 0x608 PUSH1 0x0 CODECOPY PUSH1 0x0 RETURN INVALID PUSH1 0x80 PUSH1 0x40 MSTORE CALLVALUE DUP1 ISZERO PUSH2 0x10 JUMPI PUSH1 0x0 DUP1 REVERT JUMPDEST POP PUSH1 0x4 CALLDATASIZE LT PUSH2 0x116 JUMPI PUSH1 0x0 CALLDATALOAD PUSH1 0xE0 SHR DUP1 PUSH4 0x6F6515C3 GT PUSH2 0xA2 JUMPI DUP1 PUSH4 0xAC41865A GT PUSH2 0x71 JUMPI DUP1 PUSH4 0xAC41865A EQ PUSH2 0x30D JUMPI DUP1 PUSH4 0xBAA2ABDE EQ PUSH2 0x33D JUMPI DUP1 PUSH4 0xDD62ED3E EQ PUSH2 0x36E JUMPI DUP1 PUSH4 0xE250C548 EQ PUSH2 0x39E JUMPI DUP1 PUSH4 0xE8E33700 EQ PUSH2 0x3BC JUMPI PUSH2 0x116 JUMP JUMPDEST DUP1 PUSH4 0x6F6515C3 EQ PUSH2 0x271 JUMPI DUP1 PUSH4 0x70A08231 EQ PUSH2 0x28F JUMPI DUP1 PUSH4 0x95D89B41 EQ PUSH2 0x2BF JUMPI DUP1 PUSH4 0xA9059CBB EQ PUSH2 0x2DD JUMPI PUSH2 0x116 JUMP JUMPDEST DUP1 PUSH4 0x21415ADE GT PUSH2 0xE9 JUMPI DUP1 PUSH4 0x21415ADE EQ PUSH2 0x1B7 JUMPI DUP1 PUSH4 0x23B872DD EQ PUSH2 0x1D5 JUMPI DUP1 PUSH4 0x313CE567 EQ PUSH2 0x205 JUMPI DUP1 PUSH4 0x38ED1739 EQ PUSH2 0x223 JUMPI DUP1 PUSH4 0x411110F3 EQ PUSH2 0x253 JUMPI PUSH2 0x116 JUMP JUMPDEST DUP1 PUSH4 0x54D50D4 EQ PUSH2 0x11B JUMPI DUP1 PUSH4 0x6FDDE03 EQ PUSH2 0x14B JUMPI DUP1 PUSH4 0x95EA7B3 EQ PUSH2 0x169 JUMPI DUP1 PUSH4 0x18160DDD EQ PUSH2 0x199 JUMPI JUMPDEST PUSH1 0x0 DUP1 REVERT JUMPDEST PUSH2 0x135 PUSH1 0x4 DUP1 CALLDATASIZE SUB DUP2 ADD SWAP1 PUSH2 0x130 SWAP2 SWAP1 PUSH2 0x2562 JUMP JUMPDEST PUSH2 0x3EE JUMP JUMPDEST PUSH1 0x40 MLOAD PUSH2 0x142 SWAP2 SWAP1 PUSH2 0x25C4 JUMP JUMPDEST PUSH1 0x40 MLOAD DUP1 SWAP2 SUB SWAP1 RETURN JUMPDEST PUSH2 0x153 PUSH2 0x481 JUMP JUMPDEST PUSH1 0x40 MLOAD PUSH2 0x160 SWAP2 SWAP1 PUSH2 0x266F JUMP JUMPDEST PUSH1 0x40 MLOAD DUP1 SWAP2 SUB SWAP1 RETURN JUMPDEST PUSH2 0x183 PUSH1 0x4 DUP1 CALLDATASIZE SUB DUP2 ADD SWAP1 PUSH2 0x17E SWAP2 SWAP1 PUSH2 0x26EF JUMP JUMPDEST PUSH2 0x513 JUMP JUMPDEST PUSH1 0x40 MLOAD PUSH2 0x190 SWAP2 SWAP1 PUSH2 0x274A JUMP JUMPDEST PUSH1 0x40 MLOAD DUP1 SWAP2 SUB SWAP1 RETURN JUMPDEST PUSH2 0x1A1 PUSH2 0x536 JUMP JUMPDEST PUSH1 0x40 MLOAD PUSH2 0x1AE SWAP2 SWAP1 PUSH2 0x25C4 JUMP JUMPDEST PUSH1 0x40 MLOAD DUP1 SWAP2 SUB SWAP1 RETURN JUMPDEST PUSH2 0x1BF PUSH2 0x540 JUMP JUMPDEST PUSH1 0x40 MLOAD PUSH2 0x1CC SWAP2 SWAP1 PUSH2 0x25C4 JUMP JUMPDEST PUSH1 0x40 MLOAD DUP1 SWAP2 SUB SWAP1 RETURN JUMPDEST PUSH2 0x1EF PUSH1 0x4 DUP1 CALLDATASIZE SUB DUP2 ADD SWAP1 PUSH2 0x1EA SWAP2 SWAP1 PUSH2 0x2765 JUMP JUMPDEST PUSH2 0x546 JUMP JUMPDEST PUSH1 0x40 MLOAD PUSH2 0x1FC SWAP2 SWAP1 PUSH2 0x274A JUMP JUMPDEST PUSH1 0x40 MLOAD DUP1 SWAP2 SUB SWAP1 RETURN JUMPDEST PUSH2 0x20D PUSH2 0x575 JUMP JUMPDEST PUSH1 0x40 MLOAD PUSH2 0x21A SWAP2 SWAP1 PUSH2 0x27D4 JUMP JUMPDEST PUSH1 0x40 MLOAD DUP1 SWAP2 SUB SWAP1 RETURN JUMPDEST PUSH2 0x23D PUSH1 0x4 DUP1 CALLDATASIZE SUB DUP2 ADD SWAP1 PUSH2 0x238 SWAP2 SWAP1 PUSH2 0x2854 JUMP JUMPDEST PUSH2 0x57E JUMP JUMPDEST PUSH1 0x40 MLOAD PUSH2 0x24A SWAP2 SWAP1 PUSH2 0x29AC JUMP JUMPDEST PUSH1 0x40 MLOAD DUP1 SWAP2 SUB SWAP1 RETURN JUMPDEST PUSH2 0x25B PUSH2 0xB02 JUMP JUMPDEST PUSH1 0x40 MLOAD PUSH2 0x268 SWAP2 SWAP1 PUSH2 0x29DD JUMP JUMPDEST PUSH1 0x40 MLOAD DUP1 SWAP2 SUB SWAP1 RETURN JUMPDEST PUSH2 0x279 PUSH2 0xB28 JUMP JUMPDEST PUSH1 0x40 MLOAD PUSH2 0x286 SWAP2 SWAP1 PUSH2 0x25C4 JUMP JUMPDEST PUSH1 0x40 MLOAD DUP1 SWAP2 SUB SWAP1 RETURN JUMPDEST PUSH2 0x2A9 PUSH1 0x4 DUP1 CALLDATASIZE SUB DUP2 ADD SWAP1 PUSH2 0x2A4 SWAP2 SWAP1 PUSH2 0x29F8 JUMP JUMPDEST PUSH2 0xB2E JUMP JUMPDEST PUSH1 0x40 MLOAD PUSH2 0x2B6 SWAP2 SWAP1 PUSH2 0x25C4 JUMP JUMPDEST PUSH1 0x40 MLOAD DUP1 SWAP2 SUB SWAP1 RETURN JUMPDEST PUSH2 0x2C7 PUSH2 0xB76 JUMP JUMPDEST PUSH1 0x40 MLOAD PUSH2 0x2D4 SWAP2 SWAP1 PUSH2 0x266F JUMP JUMPDEST PUSH1 0x40 MLOAD DUP1 SWAP2 SUB SWAP1 RETURN JUMPDEST PUSH2 0x2F7 PUSH1 0x4 DUP1 CALLDATASIZE SUB DUP2 ADD SWAP1 PUSH2 0x2F2 SWAP2 SWAP1 PUSH2 0x26EF JUMP JUMPDEST PUSH2 0xC08 JUMP JUMPDEST PUSH1 0x40 MLOAD PUSH2 0x304 SWAP2 SWAP1 PUSH2 0x274A JUMP JUMPDEST PUSH1 0x40 MLOAD DUP1 SWAP2 SUB SWAP1 RETURN JUMPDEST PUSH2 0x327 PUSH1 0x4 DUP1 CALLDATASIZE SUB DUP2 ADD SWAP1 PUSH2 0x322 SWAP2 SWAP1 PUSH2 0x2A25 JUMP JUMPDEST PUSH2 0xC2B JUMP JUMPDEST PUSH1 0x40 MLOAD PUSH2 0x334 SWAP2 SWAP1 PUSH2 0x25C4 JUMP JUMPDEST PUSH1 0x40 MLOAD DUP1 SWAP2 SUB SWAP1 RETURN JUMPDEST PUSH2 0x357 PUSH1 0x4 DUP1 CALLDATASIZE SUB DUP2 ADD SWAP1 PUSH2 0x352 SWAP2 SWAP1 PUSH2 0x2A65 JUMP JUMPDEST PUSH2 0xECC JUMP JUMPDEST PUSH1 0x40 MLOAD PUSH2 0x365 SWAP3 SWAP2 SWAP1 PUSH2 0x2B07 JUMP JUMPDEST PUSH1 0x40 MLOAD DUP1 SWAP2 SUB SWAP1 RETURN JUMPDEST PUSH2 0x388 PUSH1 0x4 DUP1 CALLDATASIZE SUB DUP2 ADD SWAP1 PUSH2 0x383 SWAP2 SWAP1 PUSH2 0x2A25 JUMP JUMPDEST PUSH2 0x141F JUMP JUMPDEST PUSH1 0x40 MLOAD PUSH2 0x395 SWAP2 SWAP1 PUSH2 0x25C4 JUMP JUMPDEST PUSH1 0x40 MLOAD DUP1 SWAP2 SUB SWAP1 RETURN JUMPDEST PUSH2 0x3A6 PUSH2 0x14A6 JUMP JUMPDEST PUSH1 0x40 MLOAD PUSH2 0x3B3 SWAP2 SWAP1 PUSH2 0x29DD JUMP JUMPDEST PUSH1 0x40 MLOAD DUP1 SWAP2 SUB SWAP1 RETURN JUMPDEST PUSH2 0x3D6 PUSH1 0x4 DUP1 CALLDATASIZE SUB DUP2 ADD SWAP1 PUSH2 0x3D1 SWAP2 SWAP1 PUSH2 0x2B30 JUMP JUMPDEST PUSH2 0x14CC JUMP JUMPDEST PUSH1 0x40 MLOAD PUSH2 0x3E5 SWAP4 SWAP3 SWAP2 SWAP1 PUSH2 0x2BE6 JUMP JUMPDEST PUSH1 0x40 MLOAD DUP1 SWAP2 SUB SWAP1 RETURN JUMPDEST PUSH1 0x0 DUP1 DUP5 GT DUP1 ISZERO PUSH2 0x3FF JUMPI POP PUSH1 0x0 DUP4 GT JUMPDEST DUP1 ISZERO PUSH2 0x40B JUMPI POP PUSH1 0x0 DUP3 GT JUMPDEST PUSH2 0x44A JUMPI PUSH1 0x40 MLOAD PUSH32 0x8C379A000000000000000000000000000000000000000000000000000000000 DUP2 MSTORE PUSH1 0x4 ADD PUSH2 0x441 SWAP1 PUSH2 0x2C69 JUMP JUMPDEST PUSH1 0x40 MLOAD DUP1 SWAP2 SUB SWAP1 REVERT JUMPDEST PUSH1 0x0 DUP3 DUP6 PUSH2 0x458 SWAP2 SWAP1 PUSH2 0x2CB8 JUMP JUMPDEST SWAP1 POP PUSH1 0x0 DUP6 DUP6 PUSH2 0x468 SWAP2 SWAP1 PUSH2 0x2CFA JUMP JUMPDEST SWAP1 POP DUP1 DUP3 PUSH2 0x476 SWAP2 SWAP1 PUSH2 0x2D5D JUMP JUMPDEST SWAP3 POP POP POP SWAP4 SWAP3 POP POP POP JUMP JUMPDEST PUSH1 0x60 PUSH1 0x3 DUP1 SLOAD PUSH2 0x490 SWAP1 PUSH2 0x2DBD JUMP JUMPDEST DUP1 PUSH1 0x1F ADD PUSH1 0x20 DUP1 SWAP2 DIV MUL PUSH1 0x20 ADD PUSH1 0x40 MLOAD SWAP1 DUP2 ADD PUSH1 0x40 MSTORE DUP1 SWAP3 SWAP2 SWAP1 DUP2 DUP2 MSTORE PUSH1 0x20 ADD DUP3 DUP1 SLOAD PUSH2 0x4BC SWAP1 PUSH2 0x2DBD JUMP JUMPDEST DUP1 ISZERO PUSH2 0x509 JUMPI DUP1 PUSH1 0x1F LT PUSH2 0x4DE JUMPI PUSH2 0x100 DUP1 DUP4 SLOAD DIV MUL DUP4 MSTORE SWAP2 PUSH1 0x20 ADD SWAP2 PUSH2 0x509 JUMP JUMPDEST DUP3 ADD SWAP2 SWAP1 PUSH1 0x0 MSTORE PUSH1 0x20 PUSH1 0x0 KECCAK256 SWAP1 JUMPDEST DUP2 SLOAD DUP2 MSTORE SWAP1 PUSH1 0x1 ADD SWAP1 PUSH1 0x20 ADD DUP1 DUP4 GT PUSH2 0x4EC JUMPI DUP3 SWAP1 SUB PUSH1 0x1F AND DUP3 ADD SWAP2 JUMPDEST POP POP POP POP POP SWAP1 POP SWAP1 JUMP JUMPDEST PUSH1 0x0 DUP1 PUSH2 0x51E PUSH2 0x1B02 JUMP JUMPDEST SWAP1 POP PUSH2 0x52B DUP2 DUP6 DUP6 PUSH2 0x1B0A JUMP JUMPDEST PUSH1 0x1 SWAP2 POP POP SWAP3 SWAP2 POP POP JUMP JUMPDEST PUSH1 0x0 PUSH1 0x2 SLOAD SWAP1 POP SWAP1 JUMP JUMPDEST PUSH1 0x7 SLOAD DUP2 JUMP JUMPDEST PUSH1 0x0 DUP1 PUSH2 0x551 PUSH2 0x1B02 JUMP JUMPDEST SWAP1 POP PUSH2 0x55E DUP6 DUP3 DUP6 PUSH2 0x1B1C JUMP JUMPDEST PUSH2 0x569 DUP6 DUP6 DUP6 PUSH2 0x1BB1 JUMP JUMPDEST PUSH1 0x1 SWAP2 POP POP SWAP4 SWAP3 POP POP POP JUMP JUMPDEST PUSH1 0x0 PUSH1 0x12 SWAP1 POP SWAP1 JUMP JUMPDEST PUSH1 0x60 DUP2 TIMESTAMP GT ISZERO PUSH2 0x5C3 JUMPI PUSH1 0x40 MLOAD PUSH32 0x8C379A000000000000000000000000000000000000000000000000000000000 DUP2 MSTORE PUSH1 0x4 ADD PUSH2 0x5BA SWAP1 PUSH2 0x2E3A JUMP JUMPDEST PUSH1 0x40 MLOAD DUP1 SWAP2 SUB SWAP1 REVERT JUMPDEST PUSH1 0x2 DUP6 DUP6 SWAP1 POP EQ PUSH2 0x609 JUMPI PUSH1 0x40 MLOAD PUSH32 0x8C379A000000000000000000000000000000000000000000000000000000000 DUP2 MSTORE PUSH1 0x4 ADD PUSH2 0x600 SWAP1 PUSH2 0x2EA6 JUMP JUMPDEST PUSH1 0x40 MLOAD DUP1 SWAP2 SUB SWAP1 REVERT JUMPDEST PUSH1 0x0 PUSH20 0xFFFFFFFFFFFFFFFFFFFFFFFFFFFFFFFFFFFFFFFF AND DUP4 PUSH20 0xFFFFFFFFFFFFFFFFFFFFFFFFFFFFFFFFFFFFFFFF AND SUB PUSH2 0x678 JUMPI PUSH1 0x40 MLOAD PUSH32 0x8C379A000000000000000000000000000000000000000000000000000000000 DUP2 MSTORE PUSH1 0x4 ADD PUSH2 0x66F SWAP1 PUSH2 0x2F12 JUMP JUMPDEST PUSH1 0x40 MLOAD DUP1 SWAP2 SUB SWAP1 REVERT JUMPDEST PUSH1 0x0 DUP6 DUP6 PUSH1 0x0 DUP2 DUP2 LT PUSH2 0x68E JUMPI PUSH2 0x68D PUSH2 0x2F32 JUMP JUMPDEST JUMPDEST SWAP1 POP PUSH1 0x20 MUL ADD PUSH1 0x20 DUP2 ADD SWAP1 PUSH2 0x6A3 SWAP2 SWAP1 PUSH2 0x29F8 JUMP JUMPDEST SWAP1 POP PUSH1 0x0 DUP7 DUP7 PUSH1 0x1 DUP2 DUP2 LT PUSH2 0x6BB JUMPI PUSH2 0x6BA PUSH2 0x2F32 JUMP JUMPDEST JUMPDEST SWAP1 POP PUSH1 0x20 MUL ADD PUSH1 0x20 DUP2 ADD SWAP1 PUSH2 0x6D0 SWAP2 SWAP1 PUSH2 0x29F8 JUMP JUMPDEST SWAP1 POP PUSH1 0x5 PUSH1 0x0 SWAP1 SLOAD SWAP1 PUSH2 0x100 EXP SWAP1 DIV PUSH20 0xFFFFFFFFFFFFFFFFFFFFFFFFFFFFFFFFFFFFFFFF AND PUSH20 0xFFFFFFFFFFFFFFFFFFFFFFFFFFFFFFFFFFFFFFFF AND DUP3 PUSH20 0xFFFFFFFFFFFFFFFFFFFFFFFFFFFFFFFFFFFFFFFF AND EQ DUP1 ISZERO PUSH2 0x77C JUMPI POP PUSH1 0x6 PUSH1 0x0 SWAP1 SLOAD SWAP1 PUSH2 0x100 EXP SWAP1 DIV PUSH20 0xFFFFFFFFFFFFFFFFFFFFFFFFFFFFFFFFFFFFFFFF AND PUSH20 0xFFFFFFFFFFFFFFFFFFFFFFFFFFFFFFFFFFFFFFFF AND DUP2 PUSH20 0xFFFFFFFFFFFFFFFFFFFFFFFFFFFFFFFFFFFFFFFF AND EQ JUMPDEST DUP1 PUSH2 0x82D JUMPI POP PUSH1 0x6 PUSH1 0x0 SWAP1 SLOAD SWAP1 PUSH2 0x100 EXP SWAP1 DIV PUSH20 0xFFFFFFFFFFFFFFFFFFFFFFFFFFFFFFFFFFFFFFFF AND PUSH20 0xFFFFFFFFFFFFFFFFFFFFFFFFFFFFFFFFFFFFFFFF AND DUP3 PUSH20 0xFFFFFFFFFFFFFFFFFFFFFFFFFFFFFFFFFFFFFFFF AND EQ DUP1 ISZERO PUSH2 0x82C JUMPI POP PUSH1 0x5 PUSH1 0x0 SWAP1 SLOAD SWAP1 PUSH2 0x100 EXP SWAP1 DIV PUSH20 0xFFFFFFFFFFFFFFFFFFFFFFFFFFFFFFFFFFFFFFFF AND PUSH20 0xFFFFFFFFFFFFFFFFFFFFFFFFFFFFFFFFFFFFFFFF AND DUP2 PUSH20 0xFFFFFFFFFFFFFFFFFFFFFFFFFFFFFFFFFFFFFFFF AND EQ JUMPDEST JUMPDEST PUSH2 0x86C JUMPI PUSH1 0x40 MLOAD PUSH32 0x8C379A000000000000000000000000000000000000000000000000000000000 DUP2 MSTORE PUSH1 0x4 ADD PUSH2 0x863 SWAP1 PUSH2 0x2FAD JUMP JUMPDEST PUSH1 0x40 MLOAD DUP1 SWAP2 SUB SWAP1 REVERT JUMPDEST PUSH1 0x0 PUSH1 0x5 PUSH1 0x0 SWAP1 SLOAD SWAP1 PUSH2 0x100 EXP SWAP1 DIV PUSH20 0xFFFFFFFFFFFFFFFFFFFFFFFFFFFFFFFFFFFFFFFF AND PUSH20 0xFFFFFFFFFFFFFFFFFFFFFFFFFFFFFFFFFFFFFFFF AND DUP4 PUSH20 0xFFFFFFFFFFFFFFFFFFFFFFFFFFFFFFFFFFFFFFFF AND EQ SWAP1 POP PUSH1 0x0 DUP11 DUP3 PUSH2 0x8D1 JUMPI PUSH1 0x8 SLOAD PUSH2 0x8D5 JUMP JUMPDEST PUSH1 0x7 SLOAD JUMPDEST PUSH2 0x8DF SWAP2 SWAP1 PUSH2 0x2CFA JUMP JUMPDEST DUP3 PUSH2 0x8EC JUMPI PUSH1 0x7 SLOAD PUSH2 0x8F0 JUMP JUMPDEST PUSH1 0x8 SLOAD JUMPDEST DUP13 PUSH2 0x8FB SWAP2 SWAP1 PUSH2 0x2CB8 JUMP JUMPDEST PUSH2 0x905 SWAP2 SWAP1 PUSH2 0x2D5D JUMP JUMPDEST SWAP1 POP DUP10 DUP2 LT ISZERO PUSH2 0x94A JUMPI PUSH1 0x40 MLOAD PUSH32 0x8C379A000000000000000000000000000000000000000000000000000000000 DUP2 MSTORE PUSH1 0x4 ADD PUSH2 0x941 SWAP1 PUSH2 0x3019 JUMP JUMPDEST PUSH1 0x40 MLOAD DUP1 SWAP2 SUB SWAP1 REVERT JUMPDEST DUP2 ISZERO PUSH2 0x987 JUMPI DUP11 PUSH1 0x7 PUSH1 0x0 DUP3 DUP3 SLOAD PUSH2 0x962 SWAP2 SWAP1 PUSH2 0x2CFA JUMP JUMPDEST SWAP3 POP POP DUP2 SWAP1 SSTORE POP DUP1 PUSH1 0x8 PUSH1 0x0 DUP3 DUP3 SLOAD PUSH2 0x97B SWAP2 SWAP1 PUSH2 0x3039 JUMP JUMPDEST SWAP3 POP POP DUP2 SWAP1 SSTORE POP PUSH2 0x9BA JUMP JUMPDEST DUP11 PUSH1 0x8 PUSH1 0x0 DUP3 DUP3 SLOAD PUSH2 0x999 SWAP2 SWAP1 PUSH2 0x2CFA JUMP JUMPDEST SWAP3 POP POP DUP2 SWAP1 SSTORE POP DUP1 PUSH1 0x7 PUSH1 0x0 DUP3 DUP3 SLOAD PUSH2 0x9B2 SWAP2 SWAP1 PUSH2 0x3039 JUMP JUMPDEST SWAP3 POP POP DUP2 SWAP1 SSTORE POP JUMPDEST PUSH1 0x2 PUSH8 0xFFFFFFFFFFFFFFFF DUP2 GT ISZERO PUSH2 0x9D5 JUMPI PUSH2 0x9D4 PUSH2 0x306D JUMP JUMPDEST JUMPDEST PUSH1 0x40 MLOAD SWAP1 DUP1 DUP3 MSTORE DUP1 PUSH1 0x20 MUL PUSH1 0x20 ADD DUP3 ADD PUSH1 0x40 MSTORE DUP1 ISZERO PUSH2 0xA03 JUMPI DUP2 PUSH1 0x20 ADD PUSH1 0x20 DUP3 MUL DUP1 CALLDATASIZE DUP4 CALLDATACOPY DUP1 DUP3 ADD SWAP2 POP POP SWAP1 POP JUMPDEST POP SWAP5 POP DUP11 DUP6 PUSH1 0x0 DUP2 MLOAD DUP2 LT PUSH2 0xA1B JUMPI PUSH2 0xA1A PUSH2 0x2F32 JUMP JUMPDEST JUMPDEST PUSH1 0x20 MUL PUSH1 0x20 ADD ADD DUP2 DUP2 MSTORE POP POP DUP1 DUP6 PUSH1 0x1 DUP2 MLOAD DUP2 LT PUSH2 0xA3C JUMPI PUSH2 0xA3B PUSH2 0x2F32 JUMP JUMPDEST JUMPDEST PUSH1 0x20 MUL PUSH1 0x20 ADD ADD DUP2 DUP2 MSTORE POP POP PUSH2 0xA75 CALLER ADDRESS DUP14 DUP8 PUSH20 0xFFFFFFFFFFFFFFFFFFFFFFFFFFFFFFFFFFFFFFFF AND PUSH2 0x1CA5 SWAP1 SWAP4 SWAP3 SWAP2 SWAP1 PUSH4 0xFFFFFFFF AND JUMP JUMPDEST PUSH2 0xAA0 DUP8 DUP3 DUP6 PUSH20 0xFFFFFFFFFFFFFFFFFFFFFFFFFFFFFFFFFFFFFFFF AND PUSH2 0x1D27 SWAP1 SWAP3 SWAP2 SWAP1 PUSH4 0xFFFFFFFF AND JUMP JUMPDEST CALLER PUSH20 0xFFFFFFFFFFFFFFFFFFFFFFFFFFFFFFFFFFFFFFFF AND PUSH32 0xAD56699D0F375866EB895ED27203058A36A713382AADED78EB6B67DA266D4332 DUP6 DUP6 DUP15 DUP6 PUSH1 0x40 MLOAD PUSH2 0xAEC SWAP5 SWAP4 SWAP3 SWAP2 SWAP1 PUSH2 0x309C JUMP JUMPDEST PUSH1 0x40 MLOAD DUP1 SWAP2 SUB SWAP1 LOG2 POP POP POP POP SWAP7 SWAP6 POP POP POP POP POP POP JUMP JUMPDEST PUSH1 0x5 PUSH1 0x0 SWAP1 SLOAD SWAP1 PUSH2 0x100 EXP SWAP1 DIV PUSH20 0xFFFFFFFFFFFFFFFFFFFFFFFFFFFFFFFFFFFFFFFF AND DUP2 JUMP JUMPDEST PUSH1 0x8 SLOAD DUP2 JUMP JUMPDEST PUSH1 0x0 DUP1 PUSH1 0x0 DUP4 PUSH20 0xFFFFFFFFFFFFFFFFFFFFFFFFFFFFFFFFFFFFFFFF AND PUSH20 0xFFFFFFFFFFFFFFFFFFFFFFFFFFFFFFFFFFFFFFFF AND DUP2 MSTORE PUSH1 0x20 ADD SWAP1 DUP2 MSTORE PUSH1 0x20 ADD PUSH1 0x0 KECCAK256 SLOAD SWAP1 POP SWAP2 SWAP1 POP JUMP JUMPDEST PUSH1 0x60 PUSH1 0x4 DUP1 SLOAD PUSH2 0xB85 SWAP1 PUSH2 0x2DBD JUMP JUMPDEST DUP1 PUSH1 0x1F ADD PUSH1 0x20 DUP1 SWAP2 DIV MUL PUSH1 0x20 ADD PUSH1 0x40 MLOAD SWAP1 DUP2 ADD PUSH1 0x40 MSTORE DUP1 SWAP3 SWAP2 SWAP1 DUP2 DUP2 MSTORE PUSH1 0x20 ADD DUP3 DUP1 SLOAD PUSH2 0xBB1 SWAP1 PUSH2 0x2DBD JUMP JUMPDEST DUP1 ISZERO PUSH2 0xBFE JUMPI DUP1 PUSH1 0x1F LT PUSH2 0xBD3 JUMPI PUSH2 0x100 DUP1 DUP4 SLOAD DIV MUL DUP4 MSTORE SWAP2 PUSH1 0x20 ADD SWAP2 PUSH2 0xBFE JUMP JUMPDEST DUP3 ADD SWAP2 SWAP1 PUSH1 0x0 MSTORE PUSH1 0x20 PUSH1 0x0 KECCAK256 SWAP1 JUMPDEST DUP2 SLOAD DUP2 MSTORE SWAP1 PUSH1 0x1 ADD SWAP1 PUSH1 0x20 ADD DUP1 DUP4 GT PUSH2 0xBE1 JUMPI DUP3 SWAP1 SUB PUSH1 0x1F AND DUP3 ADD SWAP2 JUMPDEST POP POP POP POP POP SWAP1 POP SWAP1 JUMP JUMPDEST PUSH1 0x0 DUP1 PUSH2 0xC13 PUSH2 0x1B02 JUMP JUMPDEST SWAP1 POP PUSH2 0xC20 DUP2 DUP6 DUP6 PUSH2 0x1BB1 JUMP JUMPDEST PUSH1 0x1 SWAP2 POP POP SWAP3 SWAP2 POP POP JUMP JUMPDEST PUSH1 0x0 PUSH1 0x5 PUSH1 0x0 SWAP1 SLOAD SWAP1 PUSH2 0x100 EXP SWAP1 DIV PUSH20 0xFFFFFFFFFFFFFFFFFFFFFFFFFFFFFFFFFFFFFFFF AND PUSH20 0xFFFFFFFFFFFFFFFFFFFFFFFFFFFFFFFFFFFFFFFF AND DUP4 PUSH20 0xFFFFFFFFFFFFFFFFFFFFFFFFFFFFFFFFFFFFFFFF AND EQ DUP1 ISZERO PUSH2 0xCD7 JUMPI POP PUSH1 0x6 PUSH1 0x0 SWAP1 SLOAD SWAP1 PUSH2 0x100 EXP SWAP1 DIV PUSH20 0xFFFFFFFFFFFFFFFFFFFFFFFFFFFFFFFFFFFFFFFF AND PUSH20 0xFFFFFFFFFFFFFFFFFFFFFFFFFFFFFFFFFFFFFFFF AND DUP3 PUSH20 0xFFFFFFFFFFFFFFFFFFFFFFFFFFFFFFFFFFFFFFFF AND EQ JUMPDEST DUP1 PUSH2 0xD88 JUMPI POP PUSH1 0x6 PUSH1 0x0 SWAP1 SLOAD SWAP1 PUSH2 0x100 EXP SWAP1 DIV PUSH20 0xFFFFFFFFFFFFFFFFFFFFFFFFFFFFFFFFFFFFFFFF AND PUSH20 0xFFFFFFFFFFFFFFFFFFFFFFFFFFFFFFFFFFFFFFFF AND DUP4 PUSH20 0xFFFFFFFFFFFFFFFFFFFFFFFFFFFFFFFFFFFFFFFF AND EQ DUP1 ISZERO PUSH2 0xD87 JUMPI POP PUSH1 0x5 PUSH1 0x0 SWAP1 SLOAD SWAP1 PUSH2 0x100 EXP SWAP1 DIV PUSH20 0xFFFFFFFFFFFFFFFFFFFFFFFFFFFFFFFFFFFFFFFF AND PUSH20 0xFFFFFFFFFFFFFFFFFFFFFFFFFFFFFFFFFFFFFFFF AND DUP3 PUSH20 0xFFFFFFFFFFFFFFFFFFFFFFFFFFFFFFFFFFFFFFFF AND EQ JUMPDEST JUMPDEST PUSH2 0xDC7 JUMPI PUSH1 0x40 MLOAD PUSH32 0x8C379A000000000000000000000000000000000000000000000000000000000 DUP2 MSTORE PUSH1 0x4 ADD PUSH2 0xDBE SWAP1 PUSH2 0x2FAD JUMP JUMPDEST PUSH1 0x40 MLOAD DUP1 SWAP2 SUB SWAP1 REVERT JUMPDEST PUSH1 0x0 PUSH1 0x7 SLOAD GT DUP1 ISZERO PUSH2 0xDDB JUMPI POP PUSH1 0x0 PUSH1 0x8 SLOAD GT JUMPDEST PUSH2 0xE1A JUMPI PUSH1 0x40 MLOAD PUSH32 0x8C379A000000000000000000000000000000000000000000000000000000000 DUP2 MSTORE PUSH1 0x4 ADD PUSH2 0xE11 SWAP1 PUSH2 0x312D JUMP JUMPDEST PUSH1 0x40 MLOAD DUP1 SWAP2 SUB SWAP1 REVERT JUMPDEST PUSH1 0x0 PUSH1 0x5 PUSH1 0x0 SWAP1 SLOAD SWAP1 PUSH2 0x100 EXP SWAP1 DIV PUSH20 0xFFFFFFFFFFFFFFFFFFFFFFFFFFFFFFFFFFFFFFFF AND PUSH20 0xFFFFFFFFFFFFFFFFFFFFFFFFFFFFFFFFFFFFFFFF AND DUP5 PUSH20 0xFFFFFFFFFFFFFFFFFFFFFFFFFFFFFFFFFFFFFFFF AND EQ SWAP1 POP DUP1 ISZERO PUSH2 0xE9F JUMPI PUSH1 0x7 SLOAD PUSH8 0xDE0B6B3A7640000 PUSH1 0x8 SLOAD PUSH2 0xE8E SWAP2 SWAP1 PUSH2 0x2CB8 JUMP JUMPDEST PUSH2 0xE98 SWAP2 SWAP1 PUSH2 0x2D5D JUMP JUMPDEST SWAP2 POP PUSH2 0xEC5 JUMP JUMPDEST PUSH1 0x8 SLOAD PUSH8 0xDE0B6B3A7640000 PUSH1 0x7 SLOAD PUSH2 0xEB8 SWAP2 SWAP1 PUSH2 0x2CB8 JUMP JUMPDEST PUSH2 0xEC2 SWAP2 SWAP1 PUSH2 0x2D5D JUMP JUMPDEST SWAP2 POP JUMPDEST POP SWAP3 SWAP2 POP POP JUMP JUMPDEST PUSH1 0x0 DUP1 DUP3 TIMESTAMP GT ISZERO PUSH2 0xF12 JUMPI PUSH1 0x40 MLOAD PUSH32 0x8C379A000000000000000000000000000000000000000000000000000000000 DUP2 MSTORE PUSH1 0x4 ADD PUSH2 0xF09 SWAP1 PUSH2 0x2E3A JUMP JUMPDEST PUSH1 0x40 MLOAD DUP1 SWAP2 SUB SWAP1 REVERT JUMPDEST PUSH1 0x5 PUSH1 0x0 SWAP1 SLOAD SWAP1 PUSH2 0x100 EXP SWAP1 DIV PUSH20 0xFFFFFFFFFFFFFFFFFFFFFFFFFFFFFFFFFFFFFFFF AND PUSH20 0xFFFFFFFFFFFFFFFFFFFFFFFFFFFFFFFFFFFFFFFF AND DUP10 PUSH20 0xFFFFFFFFFFFFFFFFFFFFFFFFFFFFFFFFFFFFFFFF AND EQ DUP1 ISZERO PUSH2 0xFBC JUMPI POP PUSH1 0x6 PUSH1 0x0 SWAP1 SLOAD SWAP1 PUSH2 0x100 EXP SWAP1 DIV PUSH20 0xFFFFFFFFFFFFFFFFFFFFFFFFFFFFFFFFFFFFFFFF AND PUSH20 0xFFFFFFFFFFFFFFFFFFFFFFFFFFFFFFFFFFFFFFFF AND DUP9 PUSH20 0xFFFFFFFFFFFFFFFFFFFFFFFFFFFFFFFFFFFFFFFF AND EQ JUMPDEST DUP1 PUSH2 0x106D JUMPI POP PUSH1 0x6 PUSH1 0x0 SWAP1 SLOAD SWAP1 PUSH2 0x100 EXP SWAP1 DIV PUSH20 0xFFFFFFFFFFFFFFFFFFFFFFFFFFFFFFFFFFFFFFFF AND PUSH20 0xFFFFFFFFFFFFFFFFFFFFFFFFFFFFFFFFFFFFFFFF AND DUP10 PUSH20 0xFFFFFFFFFFFFFFFFFFFFFFFFFFFFFFFFFFFFFFFF AND EQ DUP1 ISZERO PUSH2 0x106C JUMPI POP PUSH1 0x5 PUSH1 0x0 SWAP1 SLOAD SWAP1 PUSH2 0x100 EXP SWAP1 DIV PUSH20 0xFFFFFFFFFFFFFFFFFFFFFFFFFFFFFFFFFFFFFFFF AND PUSH20 0xFFFFFFFFFFFFFFFFFFFFFFFFFFFFFFFFFFFFFFFF AND DUP9 PUSH20 0xFFFFFFFFFFFFFFFFFFFFFFFFFFFFFFFFFFFFFFFF AND EQ JUMPDEST JUMPDEST PUSH2 0x10AC JUMPI PUSH1 0x40 MLOAD PUSH32 0x8C379A000000000000000000000000000000000000000000000000000000000 DUP2 MSTORE PUSH1 0x4 ADD PUSH2 0x10A3 SWAP1 PUSH2 0x3199 JUMP JUMPDEST PUSH1 0x40 MLOAD DUP1 SWAP2 SUB SWAP1 REVERT JUMPDEST PUSH1 0x0 PUSH20 0xFFFFFFFFFFFFFFFFFFFFFFFFFFFFFFFFFFFFFFFF AND DUP5 PUSH20 0xFFFFFFFFFFFFFFFFFFFFFFFFFFFFFFFFFFFFFFFF AND SUB PUSH2 0x111B JUMPI PUSH1 0x40 MLOAD PUSH32 0x8C379A000000000000000000000000000000000000000000000000000000000 DUP2 MSTORE PUSH1 0x4 ADD PUSH2 0x1112 SWAP1 PUSH2 0x2F12 JUMP JUMPDEST PUSH1 0x40 MLOAD DUP1 SWAP2 SUB SWAP1 REVERT JUMPDEST PUSH1 0x0 PUSH1 0x7 SLOAD SWAP1 POP PUSH1 0x0 PUSH1 0x8 SLOAD SWAP1 POP PUSH1 0x0 PUSH2 0x1133 PUSH2 0x536 JUMP JUMPDEST SWAP1 POP DUP10 PUSH2 0x113F CALLER PUSH2 0xB2E JUMP JUMPDEST LT ISZERO PUSH2 0x1180 JUMPI PUSH1 0x40 MLOAD PUSH32 0x8C379A000000000000000000000000000000000000000000000000000000000 DUP2 MSTORE PUSH1 0x4 ADD PUSH2 0x1177 SWAP1 PUSH2 0x3205 JUMP JUMPDEST PUSH1 0x40 MLOAD DUP1 SWAP2 SUB SWAP1 REVERT JUMPDEST DUP1 DUP4 DUP12 PUSH2 0x118D SWAP2 SWAP1 PUSH2 0x2CB8 JUMP JUMPDEST PUSH2 0x1197 SWAP2 SWAP1 PUSH2 0x2D5D JUMP JUMPDEST SWAP5 POP DUP1 DUP3 DUP12 PUSH2 0x11A6 SWAP2 SWAP1 PUSH2 0x2CB8 JUMP JUMPDEST PUSH2 0x11B0 SWAP2 SWAP1 PUSH2 0x2D5D JUMP JUMPDEST SWAP4 POP DUP9 DUP6 LT ISZERO DUP1 ISZERO PUSH2 0x11C2 JUMPI POP DUP8 DUP5 LT ISZERO JUMPDEST PUSH2 0x1201 JUMPI PUSH1 0x40 MLOAD PUSH32 0x8C379A000000000000000000000000000000000000000000000000000000000 DUP2 MSTORE PUSH1 0x4 ADD PUSH2 0x11F8 SWAP1 PUSH2 0x3271 JUMP JUMPDEST PUSH1 0x40 MLOAD DUP1 SWAP2 SUB SWAP1 REVERT JUMPDEST DUP5 DUP4 PUSH2 0x120D SWAP2 SWAP1 PUSH2 0x3039 JUMP JUMPDEST PUSH1 0x7 DUP2 SWAP1 SSTORE POP DUP4 DUP3 PUSH2 0x121F SWAP2 SWAP1 PUSH2 0x3039 JUMP JUMPDEST PUSH1 0x8 DUP2 SWAP1 SSTORE POP PUSH1 0x5 PUSH1 0x0 SWAP1 SLOAD SWAP1 PUSH2 0x100 EXP SWAP1 DIV PUSH20 0xFFFFFFFFFFFFFFFFFFFFFFFFFFFFFFFFFFFFFFFF AND PUSH20 0xFFFFFFFFFFFFFFFFFFFFFFFFFFFFFFFFFFFFFFFF AND DUP13 PUSH20 0xFFFFFFFFFFFFFFFFFFFFFFFFFFFFFFFFFFFFFFFF AND SUB PUSH2 0x1319 JUMPI PUSH2 0x12C7 DUP8 DUP7 PUSH1 0x5 PUSH1 0x0 SWAP1 SLOAD SWAP1 PUSH2 0x100 EXP SWAP1 DIV PUSH20 0xFFFFFFFFFFFFFFFFFFFFFFFFFFFFFFFFFFFFFFFF AND PUSH20 0xFFFFFFFFFFFFFFFFFFFFFFFFFFFFFFFFFFFFFFFF AND PUSH2 0x1D27 SWAP1 SWAP3 SWAP2 SWAP1 PUSH4 0xFFFFFFFF AND JUMP JUMPDEST PUSH2 0x1314 DUP8 DUP6 PUSH1 0x6 PUSH1 0x0 SWAP1 SLOAD SWAP1 PUSH2 0x100 EXP SWAP1 DIV PUSH20 0xFFFFFFFFFFFFFFFFFFFFFFFFFFFFFFFFFFFFFFFF AND PUSH20 0xFFFFFFFFFFFFFFFFFFFFFFFFFFFFFFFFFFFFFFFF AND PUSH2 0x1D27 SWAP1 SWAP3 SWAP2 SWAP1 PUSH4 0xFFFFFFFF AND JUMP JUMPDEST PUSH2 0x13B4 JUMP JUMPDEST PUSH2 0x1366 DUP8 DUP6 PUSH1 0x5 PUSH1 0x0 SWAP1 SLOAD SWAP1 PUSH2 0x100 EXP SWAP1 DIV PUSH20 0xFFFFFFFFFFFFFFFFFFFFFFFFFFFFFFFFFFFFFFFF AND PUSH20 0xFFFFFFFFFFFFFFFFFFFFFFFFFFFFFFFFFFFFFFFF AND PUSH2 0x1D27 SWAP1 SWAP3 SWAP2 SWAP1 PUSH4 0xFFFFFFFF AND JUMP JUMPDEST PUSH2 0x13B3 DUP8 DUP7 PUSH1 0x6 PUSH1 0x0 SWAP1 SLOAD SWAP1 PUSH2 0x100 EXP SWAP1 DIV PUSH20 0xFFFFFFFFFFFFFFFFFFFFFFFFFFFFFFFFFFFFFFFF AND PUSH20 0xFFFFFFFFFFFFFFFFFFFFFFFFFFFFFFFFFFFFFFFF AND PUSH2 0x1D27 SWAP1 SWAP3 SWAP2 SWAP1 PUSH4 0xFFFFFFFF AND JUMP JUMPDEST JUMPDEST PUSH2 0x13BE CALLER DUP12 PUSH2 0x1DA6 JUMP JUMPDEST DUP7 PUSH20 0xFFFFFFFFFFFFFFFFFFFFFFFFFFFFFFFFFFFFFFFF AND PUSH32 0x1DC8BB69DF2B8E91FBDCBFCF93D951B3F0000F085A95FE3F7946D6161439245D DUP7 DUP7 DUP14 PUSH1 0x40 MLOAD PUSH2 0x1408 SWAP4 SWAP3 SWAP2 SWAP1 PUSH2 0x2BE6 JUMP JUMPDEST PUSH1 0x40 MLOAD DUP1 SWAP2 SUB SWAP1 LOG2 POP POP POP SWAP8 POP SWAP8 SWAP6 POP POP POP POP POP POP JUMP JUMPDEST PUSH1 0x0 PUSH1 0x1 PUSH1 0x0 DUP5 PUSH20 0xFFFFFFFFFFFFFFFFFFFFFFFFFFFFFFFFFFFFFFFF AND PUSH20 0xFFFFFFFFFFFFFFFFFFFFFFFFFFFFFFFFFFFFFFFF AND DUP2 MSTORE PUSH1 0x20 ADD SWAP1 DUP2 MSTORE PUSH1 0x20 ADD PUSH1 0x0 KECCAK256 PUSH1 0x0 DUP4 PUSH20 0xFFFFFFFFFFFFFFFFFFFFFFFFFFFFFFFFFFFFFFFF AND PUSH20 0xFFFFFFFFFFFFFFFFFFFFFFFFFFFFFFFFFFFFFFFF AND DUP2 MSTORE PUSH1 0x20 ADD SWAP1 DUP2 MSTORE PUSH1 0x20 ADD PUSH1 0x0 KECCAK256 SLOAD SWAP1 POP SWAP3 SWAP2 POP POP JUMP JUMPDEST PUSH1 0x6 PUSH1 0x0 SWAP1 SLOAD SWAP1 PUSH2 0x100 EXP SWAP1 DIV PUSH20 0xFFFFFFFFFFFFFFFFFFFFFFFFFFFFFFFFFFFFFFFF AND DUP2 JUMP JUMPDEST PUSH1 0x0 DUP1 PUSH1 0x0 DUP4 TIMESTAMP GT ISZERO PUSH2 0x1514 JUMPI PUSH1 0x40 MLOAD PUSH32 0x8C379A000000000000000000000000000000000000000000000000000000000 DUP2 MSTORE PUSH1 0x4 ADD PUSH2 0x150B SWAP1 PUSH2 0x2E3A JUMP JUMPDEST PUSH1 0x40 MLOAD DUP1 SWAP2 SUB SWAP1 REVERT JUMPDEST PUSH1 0x5 PUSH1 0x0 SWAP1 SLOAD SWAP1 PUSH2 0x100 EXP SWAP1 DIV PUSH20 0xFFFFFFFFFFFFFFFFFFFFFFFFFFFFFFFFFFFFFFFF AND PUSH20 0xFFFFFFFFFFFFFFFFFFFFFFFFFFFFFFFFFFFFFFFF AND DUP12 PUSH20 0xFFFFFFFFFFFFFFFFFFFFFFFFFFFFFFFFFFFFFFFF AND EQ DUP1 ISZERO PUSH2 0x15BE JUMPI POP PUSH1 0x6 PUSH1 0x0 SWAP1 SLOAD SWAP1 PUSH2 0x100 EXP SWAP1 DIV PUSH20 0xFFFFFFFFFFFFFFFFFFFFFFFFFFFFFFFFFFFFFFFF AND PUSH20 0xFFFFFFFFFFFFFFFFFFFFFFFFFFFFFFFFFFFFFFFF AND DUP11 PUSH20 0xFFFFFFFFFFFFFFFFFFFFFFFFFFFFFFFFFFFFFFFF AND EQ JUMPDEST DUP1 PUSH2 0x166F JUMPI POP PUSH1 0x6 PUSH1 0x0 SWAP1 SLOAD SWAP1 PUSH2 0x100 EXP SWAP1 DIV PUSH20 0xFFFFFFFFFFFFFFFFFFFFFFFFFFFFFFFFFFFFFFFF AND PUSH20 0xFFFFFFFFFFFFFFFFFFFFFFFFFFFFFFFFFFFFFFFF AND DUP12 PUSH20 0xFFFFFFFFFFFFFFFFFFFFFFFFFFFFFFFFFFFFFFFF AND EQ DUP1 ISZERO PUSH2 0x166E JUMPI POP PUSH1 0x5 PUSH1 0x0 SWAP1 SLOAD SWAP1 PUSH2 0x100 EXP SWAP1 DIV PUSH20 0xFFFFFFFFFFFFFFFFFFFFFFFFFFFFFFFFFFFFFFFF AND PUSH20 0xFFFFFFFFFFFFFFFFFFFFFFFFFFFFFFFFFFFFFFFF AND DUP11 PUSH20 0xFFFFFFFFFFFFFFFFFFFFFFFFFFFFFFFFFFFFFFFF AND EQ JUMPDEST JUMPDEST PUSH2 0x16AE JUMPI PUSH1 0x40 MLOAD PUSH32 0x8C379A000000000000000000000000000000000000000000000000000000000 DUP2 MSTORE PUSH1 0x4 ADD PUSH2 0x16A5 SWAP1 PUSH2 0x3199 JUMP JUMPDEST PUSH1 0x40 MLOAD DUP1 SWAP2 SUB SWAP1 REVERT JUMPDEST PUSH1 0x0 PUSH20 0xFFFFFFFFFFFFFFFFFFFFFFFFFFFFFFFFFFFFFFFF AND DUP6 PUSH20 0xFFFFFFFFFFFFFFFFFFFFFFFFFFFFFFFFFFFFFFFF AND SUB PUSH2 0x171D JUMPI PUSH1 0x40 MLOAD PUSH32 0x8C379A000000000000000000000000000000000000000000000000000000000 DUP2 MSTORE PUSH1 0x4 ADD PUSH2 0x1714 SWAP1 PUSH2 0x2F12 JUMP JUMPDEST PUSH1 0x40 MLOAD DUP1 SWAP2 SUB SWAP1 REVERT JUMPDEST PUSH1 0x0 PUSH1 0x7 SLOAD SWAP1 POP PUSH1 0x0 PUSH1 0x8 SLOAD SWAP1 POP PUSH1 0x0 PUSH2 0x1735 PUSH2 0x536 JUMP JUMPDEST SWAP1 POP PUSH1 0x0 DUP4 EQ DUP1 ISZERO PUSH2 0x1747 JUMPI POP PUSH1 0x0 DUP3 EQ JUMPDEST ISZERO PUSH2 0x175B JUMPI DUP12 DUP12 DUP1 SWAP7 POP DUP2 SWAP8 POP POP POP PUSH2 0x183B JUMP JUMPDEST PUSH1 0x0 DUP4 DUP4 DUP15 PUSH2 0x176A SWAP2 SWAP1 PUSH2 0x2CB8 JUMP JUMPDEST PUSH2 0x1774 SWAP2 SWAP1 PUSH2 0x2D5D JUMP JUMPDEST SWAP1 POP DUP12 DUP2 GT PUSH2 0x17CF JUMPI DUP10 DUP2 LT ISZERO PUSH2 0x17C0 JUMPI PUSH1 0x40 MLOAD PUSH32 0x8C379A000000000000000000000000000000000000000000000000000000000 DUP2 MSTORE PUSH1 0x4 ADD PUSH2 0x17B7 SWAP1 PUSH2 0x32DD JUMP JUMPDEST PUSH1 0x40 MLOAD DUP1 SWAP2 SUB SWAP1 REVERT JUMPDEST DUP13 DUP2 DUP1 SWAP8 POP DUP2 SWAP9 POP POP POP PUSH2 0x1839 JUMP JUMPDEST PUSH1 0x0 DUP4 DUP6 DUP15 PUSH2 0x17DE SWAP2 SWAP1 PUSH2 0x2CB8 JUMP JUMPDEST PUSH2 0x17E8 SWAP2 SWAP1 PUSH2 0x2D5D JUMP JUMPDEST SWAP1 POP DUP12 DUP2 LT ISZERO PUSH2 0x182D JUMPI PUSH1 0x40 MLOAD PUSH32 0x8C379A000000000000000000000000000000000000000000000000000000000 DUP2 MSTORE PUSH1 0x4 ADD PUSH2 0x1824 SWAP1 PUSH2 0x3349 JUMP JUMPDEST PUSH1 0x40 MLOAD DUP1 SWAP2 SUB SWAP1 REVERT JUMPDEST DUP1 DUP14 DUP1 SWAP9 POP DUP2 SWAP10 POP POP POP POP JUMPDEST POP JUMPDEST PUSH1 0x5 PUSH1 0x0 SWAP1 SLOAD SWAP1 PUSH2 0x100 EXP SWAP1 DIV PUSH20 0xFFFFFFFFFFFFFFFFFFFFFFFFFFFFFFFFFFFFFFFF AND PUSH20 0xFFFFFFFFFFFFFFFFFFFFFFFFFFFFFFFFFFFFFFFF AND DUP15 PUSH20 0xFFFFFFFFFFFFFFFFFFFFFFFFFFFFFFFFFFFFFFFF AND SUB PUSH2 0x1933 JUMPI PUSH2 0x18DF CALLER ADDRESS DUP9 PUSH1 0x5 PUSH1 0x0 SWAP1 SLOAD SWAP1 PUSH2 0x100 EXP SWAP1 DIV PUSH20 0xFFFFFFFFFFFFFFFFFFFFFFFFFFFFFFFFFFFFFFFF AND PUSH20 0xFFFFFFFFFFFFFFFFFFFFFFFFFFFFFFFFFFFFFFFF AND PUSH2 0x1CA5 SWAP1 SWAP4 SWAP3 SWAP2 SWAP1 PUSH4 0xFFFFFFFF AND JUMP JUMPDEST PUSH2 0x192E CALLER ADDRESS DUP8 PUSH1 0x6 PUSH1 0x0 SWAP1 SLOAD SWAP1 PUSH2 0x100 EXP SWAP1 DIV PUSH20 0xFFFFFFFFFFFFFFFFFFFFFFFFFFFFFFFFFFFFFFFF AND PUSH20 0xFFFFFFFFFFFFFFFFFFFFFFFFFFFFFFFFFFFFFFFF AND PUSH2 0x1CA5 SWAP1 SWAP4 SWAP3 SWAP2 SWAP1 PUSH4 0xFFFFFFFF AND JUMP JUMPDEST PUSH2 0x19D2 JUMP JUMPDEST PUSH2 0x1982 CALLER ADDRESS DUP8 PUSH1 0x5 PUSH1 0x0 SWAP1 SLOAD SWAP1 PUSH2 0x100 EXP SWAP1 DIV PUSH20 0xFFFFFFFFFFFFFFFFFFFFFFFFFFFFFFFFFFFFFFFF AND PUSH20 0xFFFFFFFFFFFFFFFFFFFFFFFFFFFFFFFFFFFFFFFF AND PUSH2 0x1CA5 SWAP1 SWAP4 SWAP3 SWAP2 SWAP1 PUSH4 0xFFFFFFFF AND JUMP JUMPDEST PUSH2 0x19D1 CALLER ADDRESS DUP9 PUSH1 0x6 PUSH1 0x0 SWAP1 SLOAD SWAP1 PUSH2 0x100 EXP SWAP1 DIV PUSH20 0xFFFFFFFFFFFFFFFFFFFFFFFFFFFFFFFFFFFFFFFF AND PUSH20 0xFFFFFFFFFFFFFFFFFFFFFFFFFFFFFFFFFFFFFFFF AND PUSH2 0x1CA5 SWAP1 SWAP4 SWAP3 SWAP2 SWAP1 PUSH4 0xFFFFFFFF AND JUMP JUMPDEST JUMPDEST PUSH1 0x0 DUP2 SUB PUSH2 0x19F5 JUMPI PUSH2 0x19EE DUP6 DUP8 PUSH2 0x19E9 SWAP2 SWAP1 PUSH2 0x2CB8 JUMP JUMPDEST PUSH2 0x1E28 JUMP JUMPDEST SWAP4 POP PUSH2 0x1A2E JUMP JUMPDEST PUSH2 0x1A2B DUP4 DUP3 DUP9 PUSH2 0x1A05 SWAP2 SWAP1 PUSH2 0x2CB8 JUMP JUMPDEST PUSH2 0x1A0F SWAP2 SWAP1 PUSH2 0x2D5D JUMP JUMPDEST DUP4 DUP4 DUP9 PUSH2 0x1A1C SWAP2 SWAP1 PUSH2 0x2CB8 JUMP JUMPDEST PUSH2 0x1A26 SWAP2 SWAP1 PUSH2 0x2D5D JUMP JUMPDEST PUSH2 0x1FC5 JUMP JUMPDEST SWAP4 POP JUMPDEST PUSH1 0x0 DUP5 GT PUSH2 0x1A71 JUMPI PUSH1 0x40 MLOAD PUSH32 0x8C379A000000000000000000000000000000000000000000000000000000000 DUP2 MSTORE PUSH1 0x4 ADD PUSH2 0x1A68 SWAP1 PUSH2 0x33B5 JUMP JUMPDEST PUSH1 0x40 MLOAD DUP1 SWAP2 SUB SWAP1 REVERT JUMPDEST DUP6 DUP4 PUSH2 0x1A7D SWAP2 SWAP1 PUSH2 0x2CFA JUMP JUMPDEST PUSH1 0x7 DUP2 SWAP1 SSTORE POP DUP5 DUP3 PUSH2 0x1A8F SWAP2 SWAP1 PUSH2 0x2CFA JUMP JUMPDEST PUSH1 0x8 DUP2 SWAP1 SSTORE POP PUSH2 0x1A9F DUP9 DUP6 PUSH2 0x1FDC JUMP JUMPDEST DUP8 PUSH20 0xFFFFFFFFFFFFFFFFFFFFFFFFFFFFFFFFFFFFFFFF AND PUSH32 0x64B83944E79C3CE8D4C297411DE637C3E102D064677AAC0C163976EBDCD6F50E DUP8 DUP8 DUP8 PUSH1 0x40 MLOAD PUSH2 0x1AE9 SWAP4 SWAP3 SWAP2 SWAP1 PUSH2 0x2BE6 JUMP JUMPDEST PUSH1 0x40 MLOAD DUP1 SWAP2 SUB SWAP1 LOG2 POP POP POP SWAP9 POP SWAP9 POP SWAP9 SWAP6 POP POP POP POP POP POP JUMP JUMPDEST PUSH1 0x0 CALLER SWAP1 POP SWAP1 JUMP JUMPDEST PUSH2 0x1B17 DUP4 DUP4 DUP4 PUSH1 0x1 PUSH2 0x205E JUMP JUMPDEST POP POP POP JUMP JUMPDEST PUSH1 0x0 PUSH2 0x1B28 DUP5 DUP5 PUSH2 0x141F JUMP JUMPDEST SWAP1 POP PUSH32 0xFFFFFFFFFFFFFFFFFFFFFFFFFFFFFFFFFFFFFFFFFFFFFFFFFFFFFFFFFFFFFFFF DUP2 LT ISZERO PUSH2 0x1BAB JUMPI DUP2 DUP2 LT ISZERO PUSH2 0x1B9B JUMPI DUP3 DUP2 DUP4 PUSH1 0x40 MLOAD PUSH32 0xFB8F41B200000000000000000000000000000000000000000000000000000000 DUP2 MSTORE PUSH1 0x4 ADD PUSH2 0x1B92 SWAP4 SWAP3 SWAP2 SWAP1 PUSH2 0x33D5 JUMP JUMPDEST PUSH1 0x40 MLOAD DUP1 SWAP2 SUB SWAP1 REVERT JUMPDEST PUSH2 0x1BAA DUP5 DUP5 DUP5 DUP5 SUB PUSH1 0x0 PUSH2 0x205E JUMP JUMPDEST JUMPDEST POP POP POP POP JUMP JUMPDEST PUSH1 0x0 PUSH20 0xFFFFFFFFFFFFFFFFFFFFFFFFFFFFFFFFFFFFFFFF AND DUP4 PUSH20 0xFFFFFFFFFFFFFFFFFFFFFFFFFFFFFFFFFFFFFFFF AND SUB PUSH2 0x1C23 JUMPI PUSH1 0x0 PUSH1 0x40 MLOAD PUSH32 0x96C6FD1E00000000000000000000000000000000000000000000000000000000 DUP2 MSTORE PUSH1 0x4 ADD PUSH2 0x1C1A SWAP2 SWAP1 PUSH2 0x29DD JUMP JUMPDEST PUSH1 0x40 MLOAD DUP1 SWAP2 SUB SWAP1 REVERT JUMPDEST PUSH1 0x0 PUSH20 0xFFFFFFFFFFFFFFFFFFFFFFFFFFFFFFFFFFFFFFFF AND DUP3 PUSH20 0xFFFFFFFFFFFFFFFFFFFFFFFFFFFFFFFFFFFFFFFF AND SUB PUSH2 0x1C95 JUMPI PUSH1 0x0 PUSH1 0x40 MLOAD PUSH32 0xEC442F0500000000000000000000000000000000000000000000000000000000 DUP2 MSTORE PUSH1 0x4 ADD PUSH2 0x1C8C SWAP2 SWAP1 PUSH2 0x29DD JUMP JUMPDEST PUSH1 0x40 MLOAD DUP1 SWAP2 SUB SWAP1 REVERT JUMPDEST PUSH2 0x1CA0 DUP4 DUP4 DUP4 PUSH2 0x2235 JUMP JUMPDEST POP POP POP JUMP JUMPDEST PUSH2 0x1D21 DUP5 DUP6 PUSH20 0xFFFFFFFFFFFFFFFFFFFFFFFFFFFFFFFFFFFFFFFF AND PUSH4 0x23B872DD DUP7 DUP7 DUP7 PUSH1 0x40 MLOAD PUSH1 0x24 ADD PUSH2 0x1CDA SWAP4 SWAP3 SWAP2 SWAP1 PUSH2 0x340C JUMP JUMPDEST PUSH1 0x40 MLOAD PUSH1 0x20 DUP2 DUP4 SUB SUB DUP2 MSTORE SWAP1 PUSH1 0x40 MSTORE SWAP2 POP PUSH1 0xE0 SHL PUSH1 0x20 DUP3 ADD DUP1 MLOAD PUSH28 0xFFFFFFFFFFFFFFFFFFFFFFFFFFFFFFFFFFFFFFFFFFFFFFFFFFFFFFFF DUP4 DUP2 DUP4 AND OR DUP4 MSTORE POP POP POP POP PUSH2 0x245A JUMP JUMPDEST POP POP POP POP JUMP JUMPDEST PUSH2 0x1DA1 DUP4 DUP5 PUSH20 0xFFFFFFFFFFFFFFFFFFFFFFFFFFFFFFFFFFFFFFFF AND PUSH4 0xA9059CBB DUP6 DUP6 PUSH1 0x40 MLOAD PUSH1 0x24 ADD PUSH2 0x1D5A SWAP3 SWAP2 SWAP1 PUSH2 0x3443 JUMP JUMPDEST PUSH1 0x40 MLOAD PUSH1 0x20 DUP2 DUP4 SUB SUB DUP2 MSTORE SWAP1 PUSH1 0x40 MSTORE SWAP2 POP PUSH1 0xE0 SHL PUSH1 0x20 DUP3 ADD DUP1 MLOAD PUSH28 0xFFFFFFFFFFFFFFFFFFFFFFFFFFFFFFFFFFFFFFFFFFFFFFFFFFFFFFFF DUP4 DUP2 DUP4 AND OR DUP4 MSTORE POP POP POP POP PUSH2 0x245A JUMP JUMPDEST POP POP POP JUMP JUMPDEST PUSH1 0x0 PUSH20 0xFFFFFFFFFFFFFFFFFFFFFFFFFFFFFFFFFFFFFFFF AND DUP3 PUSH20 0xFFFFFFFFFFFFFFFFFFFFFFFFFFFFFFFFFFFFFFFF AND SUB PUSH2 0x1E18 JUMPI PUSH1 0x0 PUSH1 0x40 MLOAD PUSH32 0x96C6FD1E00000000000000000000000000000000000000000000000000000000 DUP2 MSTORE PUSH1 0x4 ADD PUSH2 0x1E0F SWAP2 SWAP1 PUSH2 0x29DD JUMP JUMPDEST PUSH1 0x40 MLOAD DUP1 SWAP2 SUB SWAP1 REVERT JUMPDEST PUSH2 0x1E24 DUP3 PUSH1 0x0 DUP4 PUSH2 0x2235 JUMP JUMPDEST POP POP JUMP JUMPDEST PUSH1 0x0 PUSH1 0x1 DUP3 GT PUSH2 0x1E3A JUMPI DUP2 SWAP1 POP PUSH2 0x1FC0 JUMP JUMPDEST PUSH1 0x0 DUP3 SWAP1 POP PUSH1 0x0 PUSH1 0x1 SWAP1 POP PUSH17 0x100000000000000000000000000000000 DUP3 LT PUSH2 0x1E6C JUMPI PUSH1 0x80 DUP3 SWAP1 SHR SWAP2 POP PUSH1 0x40 DUP2 SWAP1 SHL SWAP1 POP JUMPDEST PUSH9 0x10000000000000000 DUP3 LT PUSH2 0x1E8B JUMPI PUSH1 0x40 DUP3 SWAP1 SHR SWAP2 POP PUSH1 0x20 DUP2 SWAP1 SHL SWAP1 POP JUMPDEST PUSH5 0x100000000 DUP3 LT PUSH2 0x1EA6 JUMPI PUSH1 0x20 DUP3 SWAP1 SHR SWAP2 POP PUSH1 0x10 DUP2 SWAP1 SHL SWAP1 POP JUMPDEST PUSH3 0x10000 DUP3 LT PUSH2 0x1EBF JUMPI PUSH1 0x10 DUP3 SWAP1 SHR SWAP2 POP PUSH1 0x8 DUP2 SWAP1 SHL SWAP1 POP JUMPDEST PUSH2 0x100 DUP3 LT PUSH2 0x1ED7 JUMPI PUSH1 0x8 DUP3 SWAP1 SHR SWAP2 POP PUSH1 0x4 DUP2 SWAP1 SHL SWAP1 POP JUMPDEST PUSH1 0x10 DUP3 LT PUSH2 0x1EEE JUMPI PUSH1 0x4 DUP3 SWAP1 SHR SWAP2 POP PUSH1 0x2 DUP2 SWAP1 SHL SWAP1 POP JUMPDEST PUSH1 0x4 DUP3 LT PUSH2 0x1EFE JUMPI PUSH1 0x1 DUP2 SWAP1 SHL SWAP1 POP JUMPDEST PUSH1 0x1 DUP2 PUSH1 0x3 MUL SWAP1 SHR SWAP1 POP PUSH1 0x1 DUP2 DUP6 DUP2 PUSH2 0x1F1A JUMPI PUSH2 0x1F19 PUSH2 0x2D2E JUMP JUMPDEST JUMPDEST DIV DUP3 ADD SWAP1 SHR SWAP1 POP PUSH1 0x1 DUP2 DUP6 DUP2 PUSH2 0x1F33 JUMPI PUSH2 0x1F32 PUSH2 0x2D2E JUMP JUMPDEST JUMPDEST DIV DUP3 ADD SWAP1 SHR SWAP1 POP PUSH1 0x1 DUP2 DUP6 DUP2 PUSH2 0x1F4C JUMPI PUSH2 0x1F4B PUSH2 0x2D2E JUMP JUMPDEST JUMPDEST DIV DUP3 ADD SWAP1 SHR SWAP1 POP PUSH1 0x1 DUP2 DUP6 DUP2 PUSH2 0x1F65 JUMPI PUSH2 0x1F64 PUSH2 0x2D2E JUMP JUMPDEST JUMPDEST DIV DUP3 ADD SWAP1 SHR SWAP1 POP PUSH1 0x1 DUP2 DUP6 DUP2 PUSH2 0x1F7E JUMPI PUSH2 0x1F7D PUSH2 0x2D2E JUMP JUMPDEST JUMPDEST DIV DUP3 ADD SWAP1 SHR SWAP1 POP PUSH1 0x1 DUP2 DUP6 DUP2 PUSH2 0x1F97 JUMPI PUSH2 0x1F96 PUSH2 0x2D2E JUMP JUMPDEST JUMPDEST DIV DUP3 ADD SWAP1 SHR SWAP1 POP PUSH2 0x1FB9 DUP2 DUP6 DUP2 PUSH2 0x1FB1 JUMPI PUSH2 0x1FB0 PUSH2 0x2D2E JUMP JUMPDEST JUMPDEST DIV DUP3 GT PUSH2 0x24FC JUMP JUMPDEST DUP2 SUB SWAP3 POP POP POP JUMPDEST SWAP2 SWAP1 POP JUMP JUMPDEST PUSH1 0x0 PUSH2 0x1FD4 DUP3 DUP5 LT DUP5 DUP5 PUSH2 0x2508 JUMP JUMPDEST SWAP1 POP SWAP3 SWAP2 POP POP JUMP JUMPDEST PUSH1 0x0 PUSH20 0xFFFFFFFFFFFFFFFFFFFFFFFFFFFFFFFFFFFFFFFF AND DUP3 PUSH20 0xFFFFFFFFFFFFFFFFFFFFFFFFFFFFFFFFFFFFFFFF AND SUB PUSH2 0x204E JUMPI PUSH1 0x0 PUSH1 0x40 MLOAD PUSH32 0xEC442F0500000000000000000000000000000000000000000000000000000000 DUP2 MSTORE PUSH1 0x4 ADD PUSH2 0x2045 SWAP2 SWAP1 PUSH2 0x29DD JUMP JUMPDEST PUSH1 0x40 MLOAD DUP1 SWAP2 SUB SWAP1 REVERT JUMPDEST PUSH2 0x205A PUSH1 0x0 DUP4 DUP4 PUSH2 0x2235 JUMP JUMPDEST POP POP JUMP JUMPDEST PUSH1 0x0 PUSH20 0xFFFFFFFFFFFFFFFFFFFFFFFFFFFFFFFFFFFFFFFF AND DUP5 PUSH20 0xFFFFFFFFFFFFFFFFFFFFFFFFFFFFFFFFFFFFFFFF AND SUB PUSH2 0x20D0 JUMPI PUSH1 0x0 PUSH1 0x40 MLOAD PUSH32 0xE602DF0500000000000000000000000000000000000000000000000000000000 DUP2 MSTORE PUSH1 0x4 ADD PUSH2 0x20C7 SWAP2 SWAP1 PUSH2 0x29DD JUMP JUMPDEST PUSH1 0x40 MLOAD DUP1 SWAP2 SUB SWAP1 REVERT JUMPDEST PUSH1 0x0 PUSH20 0xFFFFFFFFFFFFFFFFFFFFFFFFFFFFFFFFFFFFFFFF AND DUP4 PUSH20 0xFFFFFFFFFFFFFFFFFFFFFFFFFFFFFFFFFFFFFFFF AND SUB PUSH2 0x2142 JUMPI PUSH1 0x0 PUSH1 0x40 MLOAD PUSH32 0x94280D6200000000000000000000000000000000000000000000000000000000 DUP2 MSTORE PUSH1 0x4 ADD PUSH2 0x2139 SWAP2 SWAP1 PUSH2 0x29DD JUMP JUMPDEST PUSH1 0x40 MLOAD DUP1 SWAP2 SUB SWAP1 REVERT JUMPDEST DUP2 PUSH1 0x1 PUSH1 0x0 DUP7 PUSH20 0xFFFFFFFFFFFFFFFFFFFFFFFFFFFFFFFFFFFFFFFF AND PUSH20 0xFFFFFFFFFFFFFFFFFFFFFFFFFFFFFFFFFFFFFFFF AND DUP2 MSTORE PUSH1 0x20 ADD SWAP1 DUP2 MSTORE PUSH1 0x20 ADD PUSH1 0x0 KECCAK256 PUSH1 0x0 DUP6 PUSH20 0xFFFFFFFFFFFFFFFFFFFFFFFFFFFFFFFFFFFFFFFF AND PUSH20 0xFFFFFFFFFFFFFFFFFFFFFFFFFFFFFFFFFFFFFFFF AND DUP2 MSTORE PUSH1 0x20 ADD SWAP1 DUP2 MSTORE PUSH1 0x20 ADD PUSH1 0x0 KECCAK256 DUP2 SWAP1 SSTORE POP DUP1 ISZERO PUSH2 0x222F JUMPI DUP3 PUSH20 0xFFFFFFFFFFFFFFFFFFFFFFFFFFFFFFFFFFFFFFFF AND DUP5 PUSH20 0xFFFFFFFFFFFFFFFFFFFFFFFFFFFFFFFFFFFFFFFF AND PUSH32 0x8C5BE1E5EBEC7D5BD14F71427D1E84F3DD0314C0F7B2291E5B200AC8C7C3B925 DUP5 PUSH1 0x40 MLOAD PUSH2 0x2226 SWAP2 SWAP1 PUSH2 0x25C4 JUMP JUMPDEST PUSH1 0x40 MLOAD DUP1 SWAP2 SUB SWAP1 LOG3 JUMPDEST POP POP POP POP JUMP JUMPDEST PUSH1 0x0 PUSH20 0xFFFFFFFFFFFFFFFFFFFFFFFFFFFFFFFFFFFFFFFF AND DUP4 PUSH20 0xFFFFFFFFFFFFFFFFFFFFFFFFFFFFFFFFFFFFFFFF AND SUB PUSH2 0x2287 JUMPI DUP1 PUSH1 0x2 PUSH1 0x0 DUP3 DUP3 SLOAD PUSH2 0x227B SWAP2 SWAP1 PUSH2 0x2CFA JUMP JUMPDEST SWAP3 POP POP DUP2 SWAP1 SSTORE POP PUSH2 0x235A JUMP JUMPDEST PUSH1 0x0 DUP1 PUSH1 0x0 DUP6 PUSH20 0xFFFFFFFFFFFFFFFFFFFFFFFFFFFFFFFFFFFFFFFF AND PUSH20 0xFFFFFFFFFFFFFFFFFFFFFFFFFFFFFFFFFFFFFFFF AND DUP2 MSTORE PUSH1 0x20 ADD SWAP1 DUP2 MSTORE PUSH1 0x20 ADD PUSH1 0x0 KECCAK256 SLOAD SWAP1 POP DUP2 DUP2 LT ISZERO PUSH2 0x2313 JUMPI DUP4 DUP2 DUP4 PUSH1 0x40 MLOAD PUSH32 0xE450D38C00000000000000000000000000000000000000000000000000000000 DUP2 MSTORE PUSH1 0x4 ADD PUSH2 0x230A SWAP4 SWAP3 SWAP2 SWAP1 PUSH2 0x33D5 JUMP JUMPDEST PUSH1 0x40 MLOAD DUP1 SWAP2 SUB SWAP1 REVERT JUMPDEST DUP2 DUP2 SUB PUSH1 0x0 DUP1 DUP7 PUSH20 0xFFFFFFFFFFFFFFFFFFFFFFFFFFFFFFFFFFFFFFFF AND PUSH20 0xFFFFFFFFFFFFFFFFFFFFFFFFFFFFFFFFFFFFFFFF AND DUP2 MSTORE PUSH1 0x20 ADD SWAP1 DUP2 MSTORE PUSH1 0x20 ADD PUSH1 0x0 KECCAK256 DUP2 SWAP1 SSTORE POP POP JUMPDEST PUSH1 0x0 PUSH20 0xFFFFFFFFFFFFFFFFFFFFFFFFFFFFFFFFFFFFFFFF AND DUP3 PUSH20 0xFFFFFFFFFFFFFFFFFFFFFFFFFFFFFFFFFFFFFFFF AND SUB PUSH2 0x23A3 JUMPI DUP1 PUSH1 0x2 PUSH1 0x0 DUP3 DUP3 SLOAD SUB SWAP3 POP POP DUP2 SWAP1 SSTORE POP PUSH2 0x23F0 JUMP JUMPDEST DUP1 PUSH1 0x0 DUP1 DUP5 PUSH20 0xFFFFFFFFFFFFFFFFFFFFFFFFFFFFFFFFFFFFFFFF AND PUSH20 0xFFFFFFFFFFFFFFFFFFFFFFFFFFFFFFFFFFFFFFFF AND DUP2 MSTORE PUSH1 0x20 ADD SWAP1 DUP2 MSTORE PUSH1 0x20 ADD PUSH1 0x0 KECCAK256 PUSH1 0x0 DUP3 DUP3 SLOAD ADD SWAP3 POP POP DUP2 SWAP1 SSTORE POP JUMPDEST DUP2 PUSH20 0xFFFFFFFFFFFFFFFFFFFFFFFFFFFFFFFFFFFFFFFF AND DUP4 PUSH20 0xFFFFFFFFFFFFFFFFFFFFFFFFFFFFFFFFFFFFFFFF AND PUSH32 0xDDF252AD1BE2C89B69C2B068FC378DAA952BA7F163C4A11628F55A4DF523B3EF DUP4 PUSH1 0x40 MLOAD PUSH2 0x244D SWAP2 SWAP1 PUSH2 0x25C4 JUMP JUMPDEST PUSH1 0x40 MLOAD DUP1 SWAP2 SUB SWAP1 LOG3 POP POP POP JUMP JUMPDEST PUSH1 0x0 DUP1 PUSH1 0x20 PUSH1 0x0 DUP5 MLOAD PUSH1 0x20 DUP7 ADD PUSH1 0x0 DUP9 GAS CALL DUP1 PUSH2 0x247D JUMPI PUSH1 0x40 MLOAD RETURNDATASIZE PUSH1 0x0 DUP3 RETURNDATACOPY RETURNDATASIZE DUP2 REVERT JUMPDEST RETURNDATASIZE SWAP3 POP PUSH1 0x0 MLOAD SWAP2 POP POP PUSH1 0x0 DUP3 EQ PUSH2 0x2498 JUMPI PUSH1 0x1 DUP2 EQ ISZERO PUSH2 0x24B4 JUMP JUMPDEST PUSH1 0x0 DUP5 PUSH20 0xFFFFFFFFFFFFFFFFFFFFFFFFFFFFFFFFFFFFFFFF AND EXTCODESIZE EQ JUMPDEST ISZERO PUSH2 0x24F6 JUMPI DUP4 PUSH1 0x40 MLOAD PUSH32 0x5274AFE700000000000000000000000000000000000000000000000000000000 DUP2 MSTORE PUSH1 0x4 ADD PUSH2 0x24ED SWAP2 SWAP1 PUSH2 0x29DD JUMP JUMPDEST PUSH1 0x40 MLOAD DUP1 SWAP2 SUB SWAP1 REVERT JUMPDEST POP POP POP POP JUMP JUMPDEST PUSH1 0x0 DUP2 ISZERO ISZERO SWAP1 POP SWAP2 SWAP1 POP JUMP JUMPDEST PUSH1 0x0 PUSH2 0x2513 DUP5 PUSH2 0x24FC JUMP JUMPDEST DUP3 DUP5 XOR MUL DUP3 XOR SWAP1 POP SWAP4 SWAP3 POP POP POP JUMP JUMPDEST PUSH1 0x0 DUP1 REVERT JUMPDEST PUSH1 0x0 DUP1 REVERT JUMPDEST PUSH1 0x0 DUP2 SWAP1 POP SWAP2 SWAP1 POP JUMP JUMPDEST PUSH2 0x253F DUP2 PUSH2 0x252C JUMP JUMPDEST DUP2 EQ PUSH2 0x254A JUMPI PUSH1 0x0 DUP1 REVERT JUMPDEST POP JUMP JUMPDEST PUSH1 0x0 DUP2 CALLDATALOAD SWAP1 POP PUSH2 0x255C DUP2 PUSH2 0x2536 JUMP JUMPDEST SWAP3 SWAP2 POP POP JUMP JUMPDEST PUSH1 0x0 DUP1 PUSH1 0x0 PUSH1 0x60 DUP5 DUP7 SUB SLT ISZERO PUSH2 0x257B JUMPI PUSH2 0x257A PUSH2 0x2522 JUMP JUMPDEST JUMPDEST PUSH1 0x0 PUSH2 0x2589 DUP7 DUP3 DUP8 ADD PUSH2 0x254D JUMP JUMPDEST SWAP4 POP POP PUSH1 0x20 PUSH2 0x259A DUP7 DUP3 DUP8 ADD PUSH2 0x254D JUMP JUMPDEST SWAP3 POP POP PUSH1 0x40 PUSH2 0x25AB DUP7 DUP3 DUP8 ADD PUSH2 0x254D JUMP JUMPDEST SWAP2 POP POP SWAP3 POP SWAP3 POP SWAP3 JUMP JUMPDEST PUSH2 0x25BE DUP2 PUSH2 0x252C JUMP JUMPDEST DUP3 MSTORE POP POP JUMP JUMPDEST PUSH1 0x0 PUSH1 0x20 DUP3 ADD SWAP1 POP PUSH2 0x25D9 PUSH1 0x0 DUP4 ADD DUP5 PUSH2 0x25B5 JUMP JUMPDEST SWAP3 SWAP2 POP POP JUMP JUMPDEST PUSH1 0x0 DUP2 MLOAD SWAP1 POP SWAP2 SWAP1 POP JUMP JUMPDEST PUSH1 0x0 DUP3 DUP3 MSTORE PUSH1 0x20 DUP3 ADD SWAP1 POP SWAP3 SWAP2 POP POP JUMP JUMPDEST PUSH1 0x0 JUMPDEST DUP4 DUP2 LT ISZERO PUSH2 0x2619 JUMPI DUP1 DUP3 ADD MLOAD DUP2 DUP5 ADD MSTORE PUSH1 0x20 DUP2 ADD SWAP1 POP PUSH2 0x25FE JUMP JUMPDEST PUSH1 0x0 DUP5 DUP5 ADD MSTORE POP POP POP POP JUMP JUMPDEST PUSH1 0x0 PUSH1 0x1F NOT PUSH1 0x1F DUP4 ADD AND SWAP1 POP SWAP2 SWAP1 POP JUMP JUMPDEST PUSH1 0x0 PUSH2 0x2641 DUP3 PUSH2 0x25DF JUMP JUMPDEST PUSH2 0x264B DUP2 DUP6 PUSH2 0x25EA JUMP JUMPDEST SWAP4 POP PUSH2 0x265B DUP2 DUP6 PUSH1 0x20 DUP7 ADD PUSH2 0x25FB JUMP JUMPDEST PUSH2 0x2664 DUP2 PUSH2 0x2625 JUMP JUMPDEST DUP5 ADD SWAP2 POP POP SWAP3 SWAP2 POP POP JUMP JUMPDEST PUSH1 0x0 PUSH1 0x20 DUP3 ADD SWAP1 POP DUP2 DUP2 SUB PUSH1 0x0 DUP4 ADD MSTORE PUSH2 0x2689 DUP2 DUP5 PUSH2 0x2636 JUMP JUMPDEST SWAP1 POP SWAP3 SWAP2 POP POP JUMP JUMPDEST PUSH1 0x0 PUSH20 0xFFFFFFFFFFFFFFFFFFFFFFFFFFFFFFFFFFFFFFFF DUP3 AND SWAP1 POP SWAP2 SWAP1 POP JUMP JUMPDEST PUSH1 0x0 PUSH2 0x26BC DUP3 PUSH2 0x2691 JUMP JUMPDEST SWAP1 POP SWAP2 SWAP1 POP JUMP JUMPDEST PUSH2 0x26CC DUP2 PUSH2 0x26B1 JUMP JUMPDEST DUP2 EQ PUSH2 0x26D7 JUMPI PUSH1 0x0 DUP1 REVERT JUMPDEST POP JUMP JUMPDEST PUSH1 0x0 DUP2 CALLDATALOAD SWAP1 POP PUSH2 0x26E9 DUP2 PUSH2 0x26C3 JUMP JUMPDEST SWAP3 SWAP2 POP POP JUMP JUMPDEST PUSH1 0x0 DUP1 PUSH1 0x40 DUP4 DUP6 SUB SLT ISZERO PUSH2 0x2706 JUMPI PUSH2 0x2705 PUSH2 0x2522 JUMP JUMPDEST JUMPDEST PUSH1 0x0 PUSH2 0x2714 DUP6 DUP3 DUP7 ADD PUSH2 0x26DA JUMP JUMPDEST SWAP3 POP POP PUSH1 0x20 PUSH2 0x2725 DUP6 DUP3 DUP7 ADD PUSH2 0x254D JUMP JUMPDEST SWAP2 POP POP SWAP3 POP SWAP3 SWAP1 POP JUMP JUMPDEST PUSH1 0x0 DUP2 ISZERO ISZERO SWAP1 POP SWAP2 SWAP1 POP JUMP JUMPDEST PUSH2 0x2744 DUP2 PUSH2 0x272F JUMP JUMPDEST DUP3 MSTORE POP POP JUMP JUMPDEST PUSH1 0x0 PUSH1 0x20 DUP3 ADD SWAP1 POP PUSH2 0x275F PUSH1 0x0 DUP4 ADD DUP5 PUSH2 0x273B JUMP JUMPDEST SWAP3 SWAP2 POP POP JUMP JUMPDEST PUSH1 0x0 DUP1 PUSH1 0x0 PUSH1 0x60 DUP5 DUP7 SUB SLT ISZERO PUSH2 0x277E JUMPI PUSH2 0x277D PUSH2 0x2522 JUMP JUMPDEST JUMPDEST PUSH1 0x0 PUSH2 0x278C DUP7 DUP3 DUP8 ADD PUSH2 0x26DA JUMP JUMPDEST SWAP4 POP POP PUSH1 0x20 PUSH2 0x279D DUP7 DUP3 DUP8 ADD PUSH2 0x26DA JUMP JUMPDEST SWAP3 POP POP PUSH1 0x40 PUSH2 0x27AE DUP7 DUP3 DUP8 ADD PUSH2 0x254D JUMP JUMPDEST SWAP2 POP POP SWAP3 POP SWAP3 POP SWAP3 JUMP JUMPDEST PUSH1 0x0 PUSH1 0xFF DUP3 AND SWAP1 POP SWAP2 SWAP1 POP JUMP JUMPDEST PUSH2 0x27CE DUP2 PUSH2 0x27B8 JUMP JUMPDEST DUP3 MSTORE POP POP JUMP JUMPDEST PUSH1 0x0 PUSH1 0x20 DUP3 ADD SWAP1 POP PUSH2 0x27E9 PUSH1 0x0 DUP4 ADD DUP5 PUSH2 0x27C5 JUMP JUMPDEST SWAP3 SWAP2 POP POP JUMP JUMPDEST PUSH1 0x0 DUP1 REVERT JUMPDEST PUSH1 0x0 DUP1 REVERT JUMPDEST PUSH1 0x0 DUP1 REVERT JUMPDEST PUSH1 0x0 DUP1 DUP4 PUSH1 0x1F DUP5 ADD SLT PUSH2 0x2814 JUMPI PUSH2 0x2813 PUSH2 0x27EF JUMP JUMPDEST JUMPDEST DUP3 CALLDATALOAD SWAP1 POP PUSH8 0xFFFFFFFFFFFFFFFF DUP2 GT ISZERO PUSH2 0x2831 JUMPI PUSH2 0x2830 PUSH2 0x27F4 JUMP JUMPDEST JUMPDEST PUSH1 0x20 DUP4 ADD SWAP2 POP DUP4 PUSH1 0x20 DUP3 MUL DUP4 ADD GT ISZERO PUSH2 0x284D JUMPI PUSH2 0x284C PUSH2 0x27F9 JUMP JUMPDEST JUMPDEST SWAP3 POP SWAP3 SWAP1 POP JUMP JUMPDEST PUSH1 0x0 DUP1 PUSH1 0x0 DUP1 PUSH1 0x0 DUP1 PUSH1 0xA0 DUP8 DUP10 SUB SLT ISZERO PUSH2 0x2871 JUMPI PUSH2 0x2870 PUSH2 0x2522 JUMP JUMPDEST JUMPDEST PUSH1 0x0 PUSH2 0x287F DUP10 DUP3 DUP11 ADD PUSH2 0x254D JUMP JUMPDEST SWAP7 POP POP PUSH1 0x20 PUSH2 0x2890 DUP10 DUP3 DUP11 ADD PUSH2 0x254D JUMP JUMPDEST SWAP6 POP POP PUSH1 0x40 DUP8 ADD CALLDATALOAD PUSH8 0xFFFFFFFFFFFFFFFF DUP2 GT ISZERO PUSH2 0x28B1 JUMPI PUSH2 0x28B0 PUSH2 0x2527 JUMP JUMPDEST JUMPDEST PUSH2 0x28BD DUP10 DUP3 DUP11 ADD PUSH2 0x27FE JUMP JUMPDEST SWAP5 POP SWAP5 POP POP PUSH1 0x60 PUSH2 0x28D0 DUP10 DUP3 DUP11 ADD PUSH2 0x26DA JUMP JUMPDEST SWAP3 POP POP PUSH1 0x80 PUSH2 0x28E1 DUP10 DUP3 DUP11 ADD PUSH2 0x254D JUMP JUMPDEST SWAP2 POP POP SWAP3 SWAP6 POP SWAP3 SWAP6 POP SWAP3 SWAP6 JUMP JUMPDEST PUSH1 0x0 DUP2 MLOAD SWAP1 POP SWAP2 SWAP1 POP JUMP JUMPDEST PUSH1 0x0 DUP3 DUP3 MSTORE PUSH1 0x20 DUP3 ADD SWAP1 POP SWAP3 SWAP2 POP POP JUMP JUMPDEST PUSH1 0x0 DUP2 SWAP1 POP PUSH1 0x20 DUP3 ADD SWAP1 POP SWAP2 SWAP1 POP JUMP JUMPDEST PUSH2 0x2923 DUP2 PUSH2 0x252C JUMP JUMPDEST DUP3 MSTORE POP POP JUMP JUMPDEST PUSH1 0x0 PUSH2 0x2935 DUP4 DUP4 PUSH2 0x291A JUMP JUMPDEST PUSH1 0x20 DUP4 ADD SWAP1 POP SWAP3 SWAP2 POP POP JUMP JUMPDEST PUSH1 0x0 PUSH1 0x20 DUP3 ADD SWAP1 POP SWAP2 SWAP1 POP JUMP JUMPDEST PUSH1 0x0 PUSH2 0x2959 DUP3 PUSH2 0x28EE JUMP JUMPDEST PUSH2 0x2963 DUP2 DUP6 PUSH2 0x28F9 JUMP JUMPDEST SWAP4 POP PUSH2 0x296E DUP4 PUSH2 0x290A JUMP JUMPDEST DUP1 PUSH1 0x0 JUMPDEST DUP4 DUP2 LT ISZERO PUSH2 0x299F JUMPI DUP2 MLOAD PUSH2 0x2986 DUP9 DUP3 PUSH2 0x2929 JUMP JUMPDEST SWAP8 POP PUSH2 0x2991 DUP4 PUSH2 0x2941 JUMP JUMPDEST SWAP3 POP POP PUSH1 0x1 DUP2 ADD SWAP1 POP PUSH2 0x2972 JUMP JUMPDEST POP DUP6 SWAP4 POP POP POP POP SWAP3 SWAP2 POP POP JUMP JUMPDEST PUSH1 0x0 PUSH1 0x20 DUP3 ADD SWAP1 POP DUP2 DUP2 SUB PUSH1 0x0 DUP4 ADD MSTORE PUSH2 0x29C6 DUP2 DUP5 PUSH2 0x294E JUMP JUMPDEST SWAP1 POP SWAP3 SWAP2 POP POP JUMP JUMPDEST PUSH2 0x29D7 DUP2 PUSH2 0x26B1 JUMP JUMPDEST DUP3 MSTORE POP POP JUMP JUMPDEST PUSH1 0x0 PUSH1 0x20 DUP3 ADD SWAP1 POP PUSH2 0x29F2 PUSH1 0x0 DUP4 ADD DUP5 PUSH2 0x29CE JUMP JUMPDEST SWAP3 SWAP2 POP POP JUMP JUMPDEST PUSH1 0x0 PUSH1 0x20 DUP3 DUP5 SUB SLT ISZERO PUSH2 0x2A0E JUMPI PUSH2 0x2A0D PUSH2 0x2522 JUMP JUMPDEST JUMPDEST PUSH1 0x0 PUSH2 0x2A1C DUP5 DUP3 DUP6 ADD PUSH2 0x26DA JUMP JUMPDEST SWAP2 POP POP SWAP3 SWAP2 POP POP JUMP JUMPDEST PUSH1 0x0 DUP1 PUSH1 0x40 DUP4 DUP6 SUB SLT ISZERO PUSH2 0x2A3C JUMPI PUSH2 0x2A3B PUSH2 0x2522 JUMP JUMPDEST JUMPDEST PUSH1 0x0 PUSH2 0x2A4A DUP6 DUP3 DUP7 ADD PUSH2 0x26DA JUMP JUMPDEST SWAP3 POP POP PUSH1 0x20 PUSH2 0x2A5B DUP6 DUP3 DUP7 ADD PUSH2 0x26DA JUMP JUMPDEST SWAP2 POP POP SWAP3 POP SWAP3 SWAP1 POP JUMP JUMPDEST PUSH1 0x0 DUP1 PUSH1 0x0 DUP1 PUSH1 0x0 DUP1 PUSH1 0x0 PUSH1 0xE0 DUP9 DUP11 SUB SLT ISZERO PUSH2 0x2A84 JUMPI PUSH2 0x2A83 PUSH2 0x2522 JUMP JUMPDEST JUMPDEST PUSH1 0x0 PUSH2 0x2A92 DUP11 DUP3 DUP12 ADD PUSH2 0x26DA JUMP JUMPDEST SWAP8 POP POP PUSH1 0x20 PUSH2 0x2AA3 DUP11 DUP3 DUP12 ADD PUSH2 0x26DA JUMP JUMPDEST SWAP7 POP POP PUSH1 0x40 PUSH2 0x2AB4 DUP11 DUP3 DUP12 ADD PUSH2 0x254D JUMP JUMPDEST SWAP6 POP POP PUSH1 0x60 PUSH2 0x2AC5 DUP11 DUP3 DUP12 ADD PUSH2 0x254D JUMP JUMPDEST SWAP5 POP POP PUSH1 0x80 PUSH2 0x2AD6 DUP11 DUP3 DUP12 ADD PUSH2 0x254D JUMP JUMPDEST SWAP4 POP POP PUSH1 0xA0 PUSH2 0x2AE7 DUP11 DUP3 DUP12 ADD PUSH2 0x26DA JUMP JUMPDEST SWAP3 POP POP PUSH1 0xC0 PUSH2 0x2AF8 DUP11 DUP3 DUP12 ADD PUSH2 0x254D JUMP JUMPDEST SWAP2 POP POP SWAP3 SWAP6 SWAP9 SWAP2 SWAP5 SWAP8 POP SWAP3 SWAP6 POP JUMP JUMPDEST PUSH1 0x0 PUSH1 0x40 DUP3 ADD SWAP1 POP PUSH2 0x2B1C PUSH1 0x0 DUP4 ADD DUP6 PUSH2 0x25B5 JUMP JUMPDEST PUSH2 0x2B29 PUSH1 0x20 DUP4 ADD DUP5 PUSH2 0x25B5 JUMP JUMPDEST SWAP4 SWAP3 POP POP POP JUMP JUMPDEST PUSH1 0x0 DUP1 PUSH1 0x0 DUP1 PUSH1 0x0 DUP1 PUSH1 0x0 DUP1 PUSH2 0x100 DUP10 DUP12 SUB SLT ISZERO PUSH2 0x2B51 JUMPI PUSH2 0x2B50 PUSH2 0x2522 JUMP JUMPDEST JUMPDEST PUSH1 0x0 PUSH2 0x2B5F DUP12 DUP3 DUP13 ADD PUSH2 0x26DA JUMP JUMPDEST SWAP9 POP POP PUSH1 0x20 PUSH2 0x2B70 DUP12 DUP3 DUP13 ADD PUSH2 0x26DA JUMP JUMPDEST SWAP8 POP POP PUSH1 0x40 PUSH2 0x2B81 DUP12 DUP3 DUP13 ADD PUSH2 0x254D JUMP JUMPDEST SWAP7 POP POP PUSH1 0x60 PUSH2 0x2B92 DUP12 DUP3 DUP13 ADD PUSH2 0x254D JUMP JUMPDEST SWAP6 POP POP PUSH1 0x80 PUSH2 0x2BA3 DUP12 DUP3 DUP13 ADD PUSH2 0x254D JUMP JUMPDEST SWAP5 POP POP PUSH1 0xA0 PUSH2 0x2BB4 DUP12 DUP3 DUP13 ADD PUSH2 0x254D JUMP JUMPDEST SWAP4 POP POP PUSH1 0xC0 PUSH2 0x2BC5 DUP12 DUP3 DUP13 ADD PUSH2 0x26DA JUMP JUMPDEST SWAP3 POP POP PUSH1 0xE0 PUSH2 0x2BD6 DUP12 DUP3 DUP13 ADD PUSH2 0x254D JUMP JUMPDEST SWAP2 POP POP SWAP3 SWAP6 SWAP9 POP SWAP3 SWAP6 SWAP9 SWAP1 SWAP4 SWAP7 POP JUMP JUMPDEST PUSH1 0x0 PUSH1 0x60 DUP3 ADD SWAP1 POP PUSH2 0x2BFB PUSH1 0x0 DUP4 ADD DUP7 PUSH2 0x25B5 JUMP JUMPDEST PUSH2 0x2C08 PUSH1 0x20 DUP4 ADD DUP6 PUSH2 0x25B5 JUMP JUMPDEST PUSH2 0x2C15 PUSH1 0x40 DUP4 ADD DUP5 PUSH2 0x25B5 JUMP JUMPDEST SWAP5 SWAP4 POP POP POP POP JUMP JUMPDEST PUSH32 0x496E76616C6964207265736572766573206F7220616D6F756E74000000000000 PUSH1 0x0 DUP3 ADD MSTORE POP JUMP JUMPDEST PUSH1 0x0 PUSH2 0x2C53 PUSH1 0x1A DUP4 PUSH2 0x25EA JUMP JUMPDEST SWAP2 POP PUSH2 0x2C5E DUP3 PUSH2 0x2C1D JUMP JUMPDEST PUSH1 0x20 DUP3 ADD SWAP1 POP SWAP2 SWAP1 POP JUMP JUMPDEST PUSH1 0x0 PUSH1 0x20 DUP3 ADD SWAP1 POP DUP2 DUP2 SUB PUSH1 0x0 DUP4 ADD MSTORE PUSH2 0x2C82 DUP2 PUSH2 0x2C46 JUMP JUMPDEST SWAP1 POP SWAP2 SWAP1 POP JUMP JUMPDEST PUSH32 0x4E487B7100000000000000000000000000000000000000000000000000000000 PUSH1 0x0 MSTORE PUSH1 0x11 PUSH1 0x4 MSTORE PUSH1 0x24 PUSH1 0x0 REVERT JUMPDEST PUSH1 0x0 PUSH2 0x2CC3 DUP3 PUSH2 0x252C JUMP JUMPDEST SWAP2 POP PUSH2 0x2CCE DUP4 PUSH2 0x252C JUMP JUMPDEST SWAP3 POP DUP3 DUP3 MUL PUSH2 0x2CDC DUP2 PUSH2 0x252C JUMP JUMPDEST SWAP2 POP DUP3 DUP3 DIV DUP5 EQ DUP4 ISZERO OR PUSH2 0x2CF3 JUMPI PUSH2 0x2CF2 PUSH2 0x2C89 JUMP JUMPDEST JUMPDEST POP SWAP3 SWAP2 POP POP JUMP JUMPDEST PUSH1 0x0 PUSH2 0x2D05 DUP3 PUSH2 0x252C JUMP JUMPDEST SWAP2 POP PUSH2 0x2D10 DUP4 PUSH2 0x252C JUMP JUMPDEST SWAP3 POP DUP3 DUP3 ADD SWAP1 POP DUP1 DUP3 GT ISZERO PUSH2 0x2D28 JUMPI PUSH2 0x2D27 PUSH2 0x2C89 JUMP JUMPDEST JUMPDEST SWAP3 SWAP2 POP POP JUMP JUMPDEST PUSH32 0x4E487B7100000000000000000000000000000000000000000000000000000000 PUSH1 0x0 MSTORE PUSH1 0x12 PUSH1 0x4 MSTORE PUSH1 0x24 PUSH1 0x0 REVERT JUMPDEST PUSH1 0x0 PUSH2 0x2D68 DUP3 PUSH2 0x252C JUMP JUMPDEST SWAP2 POP PUSH2 0x2D73 DUP4 PUSH2 0x252C JUMP JUMPDEST SWAP3 POP DUP3 PUSH2 0x2D83 JUMPI PUSH2 0x2D82 PUSH2 0x2D2E JUMP JUMPDEST JUMPDEST DUP3 DUP3 DIV SWAP1 POP SWAP3 SWAP2 POP POP JUMP JUMPDEST PUSH32 0x4E487B7100000000000000000000000000000000000000000000000000000000 PUSH1 0x0 MSTORE PUSH1 0x22 PUSH1 0x4 MSTORE PUSH1 0x24 PUSH1 0x0 REVERT JUMPDEST PUSH1 0x0 PUSH1 0x2 DUP3 DIV SWAP1 POP PUSH1 0x1 DUP3 AND DUP1 PUSH2 0x2DD5 JUMPI PUSH1 0x7F DUP3 AND SWAP2 POP JUMPDEST PUSH1 0x20 DUP3 LT DUP2 SUB PUSH2 0x2DE8 JUMPI PUSH2 0x2DE7 PUSH2 0x2D8E JUMP JUMPDEST JUMPDEST POP SWAP2 SWAP1 POP JUMP JUMPDEST PUSH32 0x5472616E73616374696F6E206578706972656400000000000000000000000000 PUSH1 0x0 DUP3 ADD MSTORE POP JUMP JUMPDEST PUSH1 0x0 PUSH2 0x2E24 PUSH1 0x13 DUP4 PUSH2 0x25EA JUMP JUMPDEST SWAP2 POP PUSH2 0x2E2F DUP3 PUSH2 0x2DEE JUMP JUMPDEST PUSH1 0x20 DUP3 ADD SWAP1 POP SWAP2 SWAP1 POP JUMP JUMPDEST PUSH1 0x0 PUSH1 0x20 DUP3 ADD SWAP1 POP DUP2 DUP2 SUB PUSH1 0x0 DUP4 ADD MSTORE PUSH2 0x2E53 DUP2 PUSH2 0x2E17 JUMP JUMPDEST SWAP1 POP SWAP2 SWAP1 POP JUMP JUMPDEST PUSH32 0x496E76616C69642070617468206C656E67746800000000000000000000000000 PUSH1 0x0 DUP3 ADD MSTORE POP JUMP JUMPDEST PUSH1 0x0 PUSH2 0x2E90 PUSH1 0x13 DUP4 PUSH2 0x25EA JUMP JUMPDEST SWAP2 POP PUSH2 0x2E9B DUP3 PUSH2 0x2E5A JUMP JUMPDEST PUSH1 0x20 DUP3 ADD SWAP1 POP SWAP2 SWAP1 POP JUMP JUMPDEST PUSH1 0x0 PUSH1 0x20 DUP3 ADD SWAP1 POP DUP2 DUP2 SUB PUSH1 0x0 DUP4 ADD MSTORE PUSH2 0x2EBF DUP2 PUSH2 0x2E83 JUMP JUMPDEST SWAP1 POP SWAP2 SWAP1 POP JUMP JUMPDEST PUSH32 0x496E76616C69642027746F272061646472657373000000000000000000000000 PUSH1 0x0 DUP3 ADD MSTORE POP JUMP JUMPDEST PUSH1 0x0 PUSH2 0x2EFC PUSH1 0x14 DUP4 PUSH2 0x25EA JUMP JUMPDEST SWAP2 POP PUSH2 0x2F07 DUP3 PUSH2 0x2EC6 JUMP JUMPDEST PUSH1 0x20 DUP3 ADD SWAP1 POP SWAP2 SWAP1 POP JUMP JUMPDEST PUSH1 0x0 PUSH1 0x20 DUP3 ADD SWAP1 POP DUP2 DUP2 SUB PUSH1 0x0 DUP4 ADD MSTORE PUSH2 0x2F2B DUP2 PUSH2 0x2EEF JUMP JUMPDEST SWAP1 POP SWAP2 SWAP1 POP JUMP JUMPDEST PUSH32 0x4E487B7100000000000000000000000000000000000000000000000000000000 PUSH1 0x0 MSTORE PUSH1 0x32 PUSH1 0x4 MSTORE PUSH1 0x24 PUSH1 0x0 REVERT JUMPDEST PUSH32 0x496E76616C696420746F6B656E73000000000000000000000000000000000000 PUSH1 0x0 DUP3 ADD MSTORE POP JUMP JUMPDEST PUSH1 0x0 PUSH2 0x2F97 PUSH1 0xE DUP4 PUSH2 0x25EA JUMP JUMPDEST SWAP2 POP PUSH2 0x2FA2 DUP3 PUSH2 0x2F61 JUMP JUMPDEST PUSH1 0x20 DUP3 ADD SWAP1 POP SWAP2 SWAP1 POP JUMP JUMPDEST PUSH1 0x0 PUSH1 0x20 DUP3 ADD SWAP1 POP DUP2 DUP2 SUB PUSH1 0x0 DUP4 ADD MSTORE PUSH2 0x2FC6 DUP2 PUSH2 0x2F8A JUMP JUMPDEST SWAP1 POP SWAP2 SWAP1 POP JUMP JUMPDEST PUSH32 0x496E73756666696369656E74206F757470757420616D6F756E74000000000000 PUSH1 0x0 DUP3 ADD MSTORE POP JUMP JUMPDEST PUSH1 0x0 PUSH2 0x3003 PUSH1 0x1A DUP4 PUSH2 0x25EA JUMP JUMPDEST SWAP2 POP PUSH2 0x300E DUP3 PUSH2 0x2FCD JUMP JUMPDEST PUSH1 0x20 DUP3 ADD SWAP1 POP SWAP2 SWAP1 POP JUMP JUMPDEST PUSH1 0x0 PUSH1 0x20 DUP3 ADD SWAP1 POP DUP2 DUP2 SUB PUSH1 0x0 DUP4 ADD MSTORE PUSH2 0x3032 DUP2 PUSH2 0x2FF6 JUMP JUMPDEST SWAP1 POP SWAP2 SWAP1 POP JUMP JUMPDEST PUSH1 0x0 PUSH2 0x3044 DUP3 PUSH2 0x252C JUMP JUMPDEST SWAP2 POP PUSH2 0x304F DUP4 PUSH2 0x252C JUMP JUMPDEST SWAP3 POP DUP3 DUP3 SUB SWAP1 POP DUP2 DUP2 GT ISZERO PUSH2 0x3067 JUMPI PUSH2 0x3066 PUSH2 0x2C89 JUMP JUMPDEST JUMPDEST SWAP3 SWAP2 POP POP JUMP JUMPDEST PUSH32 0x4E487B7100000000000000000000000000000000000000000000000000000000 PUSH1 0x0 MSTORE PUSH1 0x41 PUSH1 0x4 MSTORE PUSH1 0x24 PUSH1 0x0 REVERT JUMPDEST PUSH1 0x0 PUSH1 0x80 DUP3 ADD SWAP1 POP PUSH2 0x30B1 PUSH1 0x0 DUP4 ADD DUP8 PUSH2 0x29CE JUMP JUMPDEST PUSH2 0x30BE PUSH1 0x20 DUP4 ADD DUP7 PUSH2 0x29CE JUMP JUMPDEST PUSH2 0x30CB PUSH1 0x40 DUP4 ADD DUP6 PUSH2 0x25B5 JUMP JUMPDEST PUSH2 0x30D8 PUSH1 0x60 DUP4 ADD DUP5 PUSH2 0x25B5 JUMP JUMPDEST SWAP6 SWAP5 POP POP POP POP POP JUMP JUMPDEST PUSH32 0x4E6F206C69717569646974790000000000000000000000000000000000000000 PUSH1 0x0 DUP3 ADD MSTORE POP JUMP JUMPDEST PUSH1 0x0 PUSH2 0x3117 PUSH1 0xC DUP4 PUSH2 0x25EA JUMP JUMPDEST SWAP2 POP PUSH2 0x3122 DUP3 PUSH2 0x30E1 JUMP JUMPDEST PUSH1 0x20 DUP3 ADD SWAP1 POP SWAP2 SWAP1 POP JUMP JUMPDEST PUSH1 0x0 PUSH1 0x20 DUP3 ADD SWAP1 POP DUP2 DUP2 SUB PUSH1 0x0 DUP4 ADD MSTORE PUSH2 0x3146 DUP2 PUSH2 0x310A JUMP JUMPDEST SWAP1 POP SWAP2 SWAP1 POP JUMP JUMPDEST PUSH32 0x496E76616C696420746F6B656E20706169720000000000000000000000000000 PUSH1 0x0 DUP3 ADD MSTORE POP JUMP JUMPDEST PUSH1 0x0 PUSH2 0x3183 PUSH1 0x12 DUP4 PUSH2 0x25EA JUMP JUMPDEST SWAP2 POP PUSH2 0x318E DUP3 PUSH2 0x314D JUMP JUMPDEST PUSH1 0x20 DUP3 ADD SWAP1 POP SWAP2 SWAP1 POP JUMP JUMPDEST PUSH1 0x0 PUSH1 0x20 DUP3 ADD SWAP1 POP DUP2 DUP2 SUB PUSH1 0x0 DUP4 ADD MSTORE PUSH2 0x31B2 DUP2 PUSH2 0x3176 JUMP JUMPDEST SWAP1 POP SWAP2 SWAP1 POP JUMP JUMPDEST PUSH32 0x4E6F7420656E6F756768206C6971756964697479000000000000000000000000 PUSH1 0x0 DUP3 ADD MSTORE POP JUMP JUMPDEST PUSH1 0x0 PUSH2 0x31EF PUSH1 0x14 DUP4 PUSH2 0x25EA JUMP JUMPDEST SWAP2 POP PUSH2 0x31FA DUP3 PUSH2 0x31B9 JUMP JUMPDEST PUSH1 0x20 DUP3 ADD SWAP1 POP SWAP2 SWAP1 POP JUMP JUMPDEST PUSH1 0x0 PUSH1 0x20 DUP3 ADD SWAP1 POP DUP2 DUP2 SUB PUSH1 0x0 DUP4 ADD MSTORE PUSH2 0x321E DUP2 PUSH2 0x31E2 JUMP JUMPDEST SWAP1 POP SWAP2 SWAP1 POP JUMP JUMPDEST PUSH32 0x536C697070616765206C696D6974000000000000000000000000000000000000 PUSH1 0x0 DUP3 ADD MSTORE POP JUMP JUMPDEST PUSH1 0x0 PUSH2 0x325B PUSH1 0xE DUP4 PUSH2 0x25EA JUMP JUMPDEST SWAP2 POP PUSH2 0x3266 DUP3 PUSH2 0x3225 JUMP JUMPDEST PUSH1 0x20 DUP3 ADD SWAP1 POP SWAP2 SWAP1 POP JUMP JUMPDEST PUSH1 0x0 PUSH1 0x20 DUP3 ADD SWAP1 POP DUP2 DUP2 SUB PUSH1 0x0 DUP4 ADD MSTORE PUSH2 0x328A DUP2 PUSH2 0x324E JUMP JUMPDEST SWAP1 POP SWAP2 SWAP1 POP JUMP JUMPDEST PUSH32 0x496E73756666696369656E74204220616D6F756E740000000000000000000000 PUSH1 0x0 DUP3 ADD MSTORE POP JUMP JUMPDEST PUSH1 0x0 PUSH2 0x32C7 PUSH1 0x15 DUP4 PUSH2 0x25EA JUMP JUMPDEST SWAP2 POP PUSH2 0x32D2 DUP3 PUSH2 0x3291 JUMP JUMPDEST PUSH1 0x20 DUP3 ADD SWAP1 POP SWAP2 SWAP1 POP JUMP JUMPDEST PUSH1 0x0 PUSH1 0x20 DUP3 ADD SWAP1 POP DUP2 DUP2 SUB PUSH1 0x0 DUP4 ADD MSTORE PUSH2 0x32F6 DUP2 PUSH2 0x32BA JUMP JUMPDEST SWAP1 POP SWAP2 SWAP1 POP JUMP JUMPDEST PUSH32 0x496E73756666696369656E74204120616D6F756E740000000000000000000000 PUSH1 0x0 DUP3 ADD MSTORE POP JUMP JUMPDEST PUSH1 0x0 PUSH2 0x3333 PUSH1 0x15 DUP4 PUSH2 0x25EA JUMP JUMPDEST SWAP2 POP PUSH2 0x333E DUP3 PUSH2 0x32FD JUMP JUMPDEST PUSH1 0x20 DUP3 ADD SWAP1 POP SWAP2 SWAP1 POP JUMP JUMPDEST PUSH1 0x0 PUSH1 0x20 DUP3 ADD SWAP1 POP DUP2 DUP2 SUB PUSH1 0x0 DUP4 ADD MSTORE PUSH2 0x3362 DUP2 PUSH2 0x3326 JUMP JUMPDEST SWAP1 POP SWAP2 SWAP1 POP JUMP JUMPDEST PUSH32 0x496E73756666696369656E74206C697175696469747900000000000000000000 PUSH1 0x0 DUP3 ADD MSTORE POP JUMP JUMPDEST PUSH1 0x0 PUSH2 0x339F PUSH1 0x16 DUP4 PUSH2 0x25EA JUMP JUMPDEST SWAP2 POP PUSH2 0x33AA DUP3 PUSH2 0x3369 JUMP JUMPDEST PUSH1 0x20 DUP3 ADD SWAP1 POP SWAP2 SWAP1 POP JUMP JUMPDEST PUSH1 0x0 PUSH1 0x20 DUP3 ADD SWAP1 POP DUP2 DUP2 SUB PUSH1 0x0 DUP4 ADD MSTORE PUSH2 0x33CE DUP2 PUSH2 0x3392 JUMP JUMPDEST SWAP1 POP SWAP2 SWAP1 POP JUMP JUMPDEST PUSH1 0x0 PUSH1 0x60 DUP3 ADD SWAP1 POP PUSH2 0x33EA PUSH1 0x0 DUP4 ADD DUP7 PUSH2 0x29CE JUMP JUMPDEST PUSH2 0x33F7 PUSH1 0x20 DUP4 ADD DUP6 PUSH2 0x25B5 JUMP JUMPDEST PUSH2 0x3404 PUSH1 0x40 DUP4 ADD DUP5 PUSH2 0x25B5 JUMP JUMPDEST SWAP5 SWAP4 POP POP POP POP JUMP JUMPDEST PUSH1 0x0 PUSH1 0x60 DUP3 ADD SWAP1 POP PUSH2 0x3421 PUSH1 0x0 DUP4 ADD DUP7 PUSH2 0x29CE JUMP JUMPDEST PUSH2 0x342E PUSH1 0x20 DUP4 ADD DUP6 PUSH2 0x29CE JUMP JUMPDEST PUSH2 0x343B PUSH1 0x40 DUP4 ADD DUP5 PUSH2 0x25B5 JUMP JUMPDEST SWAP5 SWAP4 POP POP POP POP JUMP JUMPDEST PUSH1 0x0 PUSH1 0x40 DUP3 ADD SWAP1 POP PUSH2 0x3458 PUSH1 0x0 DUP4 ADD DUP6 PUSH2 0x29CE JUMP JUMPDEST PUSH2 0x3465 PUSH1 0x20 DUP4 ADD DUP5 PUSH2 0x25B5 JUMP JUMPDEST SWAP4 SWAP3 POP POP POP JUMP INVALID LOG2 PUSH5 0x6970667358 0x22 SLT KECCAK256 SWAP6 LOG2 SLOAD DUP3 0x4E PUSH3 0x9F36C0 DUP5 0xCD KECCAK256 0xD6 PUSH12 0x20E50CE02F6618A8ABD86DF8 SWAP14 TIMESTAMP PUSH1 0x7 0xA6 DUP2 PUSH5 0x736F6C6343 STOP ADDMOD BYTE STOP CALLER "
		},
		"gasEstimates": {
			"creation": {
				"codeDepositCost": "2694800",
				"executionCost": "infinite",
				"totalCost": "infinite"
			},
			"external": {
				"addLiquidity(address,address,uint256,uint256,uint256,uint256,address,uint256)": "infinite",
				"allowance(address,address)": "infinite",
				"approve(address,uint256)": "infinite",
				"balanceOf(address)": "2886",
				"decimals()": "410",
				"getAmountOut(uint256,uint256,uint256)": "infinite",
				"getPrice(address,address)": "infinite",
				"name()": "infinite",
				"removeLiquidity(address,address,uint256,uint256,uint256,address,uint256)": "infinite",
				"reserve_A()": "2452",
				"reserve_B()": "2452",
				"swapExactTokensForTokens(uint256,uint256,address[],address,uint256)": "infinite",
				"symbol()": "infinite",
				"token_A()": "2625",
				"token_B()": "2602",
				"totalSupply()": "2527",
				"transfer(address,uint256)": "infinite",
				"transferFrom(address,address,uint256)": "infinite"
			}
		},
		"methodIdentifiers": {
			"addLiquidity(address,address,uint256,uint256,uint256,uint256,address,uint256)": "e8e33700",
			"allowance(address,address)": "dd62ed3e",
			"approve(address,uint256)": "095ea7b3",
			"balanceOf(address)": "70a08231",
			"decimals()": "313ce567",
			"getAmountOut(uint256,uint256,uint256)": "054d50d4",
			"getPrice(address,address)": "ac41865a",
			"name()": "06fdde03",
			"removeLiquidity(address,address,uint256,uint256,uint256,address,uint256)": "baa2abde",
			"reserve_A()": "21415ade",
			"reserve_B()": "6f6515c3",
			"swapExactTokensForTokens(uint256,uint256,address[],address,uint256)": "38ed1739",
			"symbol()": "95d89b41",
			"token_A()": "411110f3",
			"token_B()": "e250c548",
			"totalSupply()": "18160ddd",
			"transfer(address,uint256)": "a9059cbb",
			"transferFrom(address,address,uint256)": "23b872dd"
		}
	},
	"abi": [
		{
			"inputs": [
				{
					"internalType": "address",
					"name": "_tokenA",
					"type": "address"
				},
				{
					"internalType": "address",
					"name": "_tokenB",
					"type": "address"
				}
			],
			"stateMutability": "nonpayable",
			"type": "constructor"
		},
		{
			"inputs": [
				{
					"internalType": "address",
					"name": "spender",
					"type": "address"
				},
				{
					"internalType": "uint256",
					"name": "allowance",
					"type": "uint256"
				},
				{
					"internalType": "uint256",
					"name": "needed",
					"type": "uint256"
				}
			],
			"name": "ERC20InsufficientAllowance",
			"type": "error"
		},
		{
			"inputs": [
				{
					"internalType": "address",
					"name": "sender",
					"type": "address"
				},
				{
					"internalType": "uint256",
					"name": "balance",
					"type": "uint256"
				},
				{
					"internalType": "uint256",
					"name": "needed",
					"type": "uint256"
				}
			],
			"name": "ERC20InsufficientBalance",
			"type": "error"
		},
		{
			"inputs": [
				{
					"internalType": "address",
					"name": "approver",
					"type": "address"
				}
			],
			"name": "ERC20InvalidApprover",
			"type": "error"
		},
		{
			"inputs": [
				{
					"internalType": "address",
					"name": "receiver",
					"type": "address"
				}
			],
			"name": "ERC20InvalidReceiver",
			"type": "error"
		},
		{
			"inputs": [
				{
					"internalType": "address",
					"name": "sender",
					"type": "address"
				}
			],
			"name": "ERC20InvalidSender",
			"type": "error"
		},
		{
			"inputs": [
				{
					"internalType": "address",
					"name": "spender",
					"type": "address"
				}
			],
			"name": "ERC20InvalidSpender",
			"type": "error"
		},
		{
			"inputs": [
				{
					"internalType": "address",
					"name": "token",
					"type": "address"
				}
			],
			"name": "SafeERC20FailedOperation",
			"type": "error"
		},
		{
			"anonymous": false,
			"inputs": [
				{
					"indexed": true,
					"internalType": "address",
					"name": "owner",
					"type": "address"
				},
				{
					"indexed": true,
					"internalType": "address",
					"name": "spender",
					"type": "address"
				},
				{
					"indexed": false,
					"internalType": "uint256",
					"name": "value",
					"type": "uint256"
				}
			],
			"name": "Approval",
			"type": "event"
		},
		{
			"anonymous": false,
			"inputs": [
				{
					"indexed": true,
					"internalType": "address",
					"name": "provider",
					"type": "address"
				},
				{
					"indexed": false,
					"internalType": "uint256",
					"name": "amountA",
					"type": "uint256"
				},
				{
					"indexed": false,
					"internalType": "uint256",
					"name": "amountB",
					"type": "uint256"
				},
				{
					"indexed": false,
					"internalType": "uint256",
					"name": "liquidity",
					"type": "uint256"
				}
			],
			"name": "LiquidityAdded",
			"type": "event"
		},
		{
			"anonymous": false,
			"inputs": [
				{
					"indexed": true,
					"internalType": "address",
					"name": "provider",
					"type": "address"
				},
				{
					"indexed": false,
					"internalType": "uint256",
					"name": "amountA",
					"type": "uint256"
				},
				{
					"indexed": false,
					"internalType": "uint256",
					"name": "amountB",
					"type": "uint256"
				},
				{
					"indexed": false,
					"internalType": "uint256",
					"name": "liquidity",
					"type": "uint256"
				}
			],
			"name": "LiquidityRemoved",
			"type": "event"
		},
		{
			"anonymous": false,
			"inputs": [
				{
					"indexed": true,
					"internalType": "address",
					"name": "user",
					"type": "address"
				},
				{
					"indexed": false,
					"internalType": "address",
					"name": "tokenIn",
					"type": "address"
				},
				{
					"indexed": false,
					"internalType": "address",
					"name": "tokenOut",
					"type": "address"
				},
				{
					"indexed": false,
					"internalType": "uint256",
					"name": "amountIn",
					"type": "uint256"
				},
				{
					"indexed": false,
					"internalType": "uint256",
					"name": "amountOut",
					"type": "uint256"
				}
			],
			"name": "TokensSwapped",
			"type": "event"
		},
		{
			"anonymous": false,
			"inputs": [
				{
					"indexed": true,
					"internalType": "address",
					"name": "from",
					"type": "address"
				},
				{
					"indexed": true,
					"internalType": "address",
					"name": "to",
					"type": "address"
				},
				{
					"indexed": false,
					"internalType": "uint256",
					"name": "value",
					"type": "uint256"
				}
			],
			"name": "Transfer",
			"type": "event"
		},
		{
			"inputs": [
				{
					"internalType": "address",
					"name": "tokenA",
					"type": "address"
				},
				{
					"internalType": "address",
					"name": "tokenB",
					"type": "address"
				},
				{
					"internalType": "uint256",
					"name": "amountADesired",
					"type": "uint256"
				},
				{
					"internalType": "uint256",
					"name": "amountBDesired",
					"type": "uint256"
				},
				{
					"internalType": "uint256",
					"name": "amountAMin",
					"type": "uint256"
				},
				{
					"internalType": "uint256",
					"name": "amountBMin",
					"type": "uint256"
				},
				{
					"internalType": "address",
					"name": "to",
					"type": "address"
				},
				{
					"internalType": "uint256",
					"name": "deadline",
					"type": "uint256"
				}
			],
			"name": "addLiquidity",
			"outputs": [
				{
					"internalType": "uint256",
					"name": "amountA",
					"type": "uint256"
				},
				{
					"internalType": "uint256",
					"name": "amountB",
					"type": "uint256"
				},
				{
					"internalType": "uint256",
					"name": "liquidity",
					"type": "uint256"
				}
			],
			"stateMutability": "nonpayable",
			"type": "function"
		},
		{
			"inputs": [
				{
					"internalType": "address",
					"name": "owner",
					"type": "address"
				},
				{
					"internalType": "address",
					"name": "spender",
					"type": "address"
				}
			],
			"name": "allowance",
			"outputs": [
				{
					"internalType": "uint256",
					"name": "",
					"type": "uint256"
				}
			],
			"stateMutability": "view",
			"type": "function"
		},
		{
			"inputs": [
				{
					"internalType": "address",
					"name": "spender",
					"type": "address"
				},
				{
					"internalType": "uint256",
					"name": "value",
					"type": "uint256"
				}
			],
			"name": "approve",
			"outputs": [
				{
					"internalType": "bool",
					"name": "",
					"type": "bool"
				}
			],
			"stateMutability": "nonpayable",
			"type": "function"
		},
		{
			"inputs": [
				{
					"internalType": "address",
					"name": "account",
					"type": "address"
				}
			],
			"name": "balanceOf",
			"outputs": [
				{
					"internalType": "uint256",
					"name": "",
					"type": "uint256"
				}
			],
			"stateMutability": "view",
			"type": "function"
		},
		{
			"inputs": [],
			"name": "decimals",
			"outputs": [
				{
					"internalType": "uint8",
					"name": "",
					"type": "uint8"
				}
			],
			"stateMutability": "view",
			"type": "function"
		},
		{
			"inputs": [
				{
					"internalType": "uint256",
					"name": "amountIn",
					"type": "uint256"
				},
				{
					"internalType": "uint256",
					"name": "reserveIn",
					"type": "uint256"
				},
				{
					"internalType": "uint256",
					"name": "reserveOut",
					"type": "uint256"
				}
			],
			"name": "getAmountOut",
			"outputs": [
				{
					"internalType": "uint256",
					"name": "amountOut",
					"type": "uint256"
				}
			],
			"stateMutability": "pure",
			"type": "function"
		},
		{
			"inputs": [
				{
					"internalType": "address",
					"name": "tokenA",
					"type": "address"
				},
				{
					"internalType": "address",
					"name": "tokenB",
					"type": "address"
				}
			],
			"name": "getPrice",
			"outputs": [
				{
					"internalType": "uint256",
					"name": "price",
					"type": "uint256"
				}
			],
			"stateMutability": "view",
			"type": "function"
		},
		{
			"inputs": [],
			"name": "name",
			"outputs": [
				{
					"internalType": "string",
					"name": "",
					"type": "string"
				}
			],
			"stateMutability": "view",
			"type": "function"
		},
		{
			"inputs": [
				{
					"internalType": "address",
					"name": "tokenA",
					"type": "address"
				},
				{
					"internalType": "address",
					"name": "tokenB",
					"type": "address"
				},
				{
					"internalType": "uint256",
					"name": "liquidity",
					"type": "uint256"
				},
				{
					"internalType": "uint256",
					"name": "amountAMin",
					"type": "uint256"
				},
				{
					"internalType": "uint256",
					"name": "amountBMin",
					"type": "uint256"
				},
				{
					"internalType": "address",
					"name": "to",
					"type": "address"
				},
				{
					"internalType": "uint256",
					"name": "deadline",
					"type": "uint256"
				}
			],
			"name": "removeLiquidity",
			"outputs": [
				{
					"internalType": "uint256",
					"name": "amountA",
					"type": "uint256"
				},
				{
					"internalType": "uint256",
					"name": "amountB",
					"type": "uint256"
				}
			],
			"stateMutability": "nonpayable",
			"type": "function"
		},
		{
			"inputs": [],
			"name": "reserve_A",
			"outputs": [
				{
					"internalType": "uint256",
					"name": "",
					"type": "uint256"
				}
			],
			"stateMutability": "view",
			"type": "function"
		},
		{
			"inputs": [],
			"name": "reserve_B",
			"outputs": [
				{
					"internalType": "uint256",
					"name": "",
					"type": "uint256"
				}
			],
			"stateMutability": "view",
			"type": "function"
		},
		{
			"inputs": [
				{
					"internalType": "uint256",
					"name": "amountIn",
					"type": "uint256"
				},
				{
					"internalType": "uint256",
					"name": "amountOutMin",
					"type": "uint256"
				},
				{
					"internalType": "address[]",
					"name": "path",
					"type": "address[]"
				},
				{
					"internalType": "address",
					"name": "to",
					"type": "address"
				},
				{
					"internalType": "uint256",
					"name": "deadline",
					"type": "uint256"
				}
			],
			"name": "swapExactTokensForTokens",
			"outputs": [
				{
					"internalType": "uint256[]",
					"name": "amounts",
					"type": "uint256[]"
				}
			],
			"stateMutability": "nonpayable",
			"type": "function"
		},
		{
			"inputs": [],
			"name": "symbol",
			"outputs": [
				{
					"internalType": "string",
					"name": "",
					"type": "string"
				}
			],
			"stateMutability": "view",
			"type": "function"
		},
		{
			"inputs": [],
			"name": "token_A",
			"outputs": [
				{
					"internalType": "address",
					"name": "",
					"type": "address"
				}
			],
			"stateMutability": "view",
			"type": "function"
		},
		{
			"inputs": [],
			"name": "token_B",
			"outputs": [
				{
					"internalType": "address",
					"name": "",
					"type": "address"
				}
			],
			"stateMutability": "view",
			"type": "function"
		},
		{
			"inputs": [],
			"name": "totalSupply",
			"outputs": [
				{
					"internalType": "uint256",
					"name": "",
					"type": "uint256"
				}
			],
			"stateMutability": "view",
			"type": "function"
		},
		{
			"inputs": [
				{
					"internalType": "address",
					"name": "to",
					"type": "address"
				},
				{
					"internalType": "uint256",
					"name": "value",
					"type": "uint256"
				}
			],
			"name": "transfer",
			"outputs": [
				{
					"internalType": "bool",
					"name": "",
					"type": "bool"
				}
			],
			"stateMutability": "nonpayable",
			"type": "function"
		},
		{
			"inputs": [
				{
					"internalType": "address",
					"name": "from",
					"type": "address"
				},
				{
					"internalType": "address",
					"name": "to",
					"type": "address"
				},
				{
					"internalType": "uint256",
					"name": "value",
					"type": "uint256"
				}
			],
			"name": "transferFrom",
			"outputs": [
				{
					"internalType": "bool",
					"name": "",
					"type": "bool"
				}
			],
			"stateMutability": "nonpayable",
			"type": "function"
		}
	]
}